:100000000C9465010C9484010C9484010C9484017B
:100010000C9484010C9484010C94D61F0C948401DC
:100020000C9484010C9484010C9484010C9484013C
:100030000C9484010C9484010C9484010C948C1F06
:100040000C94A31F0C9484010C9484010C948401DF
:100050000C9484010C9484010C9484010C9484010C
:100060000C9400200C9484010C9484010C94840161
:100070000C9484010C9484010C9484010C948401EC
:100080000C9484010C9484010C948401CB1E751F84
:10009000751F751F751F751F751FC21E031FF71E65
:1000A000FF1EFB1EBB1EB81EEB1EEF1EF31EAB1E7B
:1000B000B41EA71ECF1EB11ED31E751F751F751F40
:1000C000751F751F751F751F971E461F171F9C1ED6
:1000D0004E1F4C1F751F731F751F751F751FD71E71
:1000E000231F1F1F8A1E271F501FDB1E911E881EE5
:1000F000711F1B1F8C1EA11E751F4A1F751F751FA8
:10010000751F751F751F751FDF1E751F2A1F071F9F
:100110003A1F0B1F751F0F1F751F131FE71EE31ECE
:10012000361F321F401F431F751F3D1F751FC91EFD
:10013000751F2E1F07634236B79BD8A71A3968561A
:1001400018AEBAAB558C1D3CB7CC5763BD6DEDFDF9
:10015000753EF6177231BF000000803F08000000B6
:10016000BE922449123EABAAAA2ABECDCCCC4C3EAC
:1001700000000080BEABAAAAAA3E00000000BF009B
:100180000000803F0000000000084178D3BB438797
:10019000D1133D190E3CC3BD4282AD2B3E68EC82AB
:1001A00076BED98FE1A93E4C80EFFFBE01C4FF7F30
:1001B0003F00000000006E616E00696E6600004046
:1001C0007A10F35A00A0724E18090010A5D4E80066
:1001D00000E87648170000E40B54020000CA9A3B7E
:1001E000000000E1F5050000809698000000404204
:1001F0000F000000A0860100000010270000000092
:10020000E803000000006400000000000A00000095
:1002100000000100000000002C76D888DC674F0841
:1002200023DFC1DFAE59E1B1B796E5E3E453C63A47
:10023000E651997696E8E6C28426EB898C9B62EDBE
:10024000407C6FFCEFBC9C9F40F2BAA56FA5F49078
:10025000055A2AF75C936B6CF9676DC11BFCE0E4EF
:100260000D47FEF520E6B500D0ED902E0300943545
:1002700077050080841E080000204E0A000000C898
:100280000C333333330F986E12831141EF8D2114E9
:10029000893BE65516CFFEE6DB18D1844B381BF7B9
:1002A0007C1D901DA4BBE424203284725E22810058
:1002B000C9F124ECA1E53D272569207365632E2053
:1002C000666F72206D656E75000011241FBECFEF42
:1002D000D0E4DEBFCDBF1DE1A0E0B1E0E8EDF6E582
:1002E00000E00BBF02C007900D92A43DB107D9F703
:1002F0002EE1A4EDBDE101C01D92A235B207E1F7E8
:100300000E9401200C946A2B0C9400002F923F92C3
:100310004F925F926F927F928F929F92AF92BF9215
:10032000CF92DF92EF92FF920F931F93CF93DF93C1
:10033000CDB7DEB760970FB6F894DEBF0FBECDBF66
:100340007C011B016A01FC0117821682838181FFF7
:1003500044C39E012F5F3F4F3901F7019381F101A3
:1003600093FD859193FF81911F01882309F431C387
:10037000853239F493FD859193FF81911F01853278
:1003800039F4B70190E00E94912A56016501E5CF4A
:1003900010E0512C912CFFE1F915D8F08B3279F057
:1003A00038F4803279F08332A1F4F92DF0612EC057
:1003B0008D3261F0803369F4292D21602DC0392DF3
:1003C0003260932E892D8460982E2AC0E92DE86032
:1003D00015C097FC2DC020ED280F2A3088F496FE1A
:1003E00006C03AE0139F200D1124122F19C08AE095
:1003F000589E200D1124522EE92DE0629E2E10C031
:100400008E3231F496FCE5C2F92DF0649F2E08C0BF
:100410008C3621F4292D2068922E02C0883641F4B2
:10042000F10193FD859193FF81911F018111B3CF5C
:100430009BEB980F933020F4992D9061805E07C05C
:100440009BE9980F933008F066C1992D9F7E96FF27
:1004500016E09F73992E853619F49064992E08C082
:10046000863621F4392F3068932E02C011111150B5
:1004700097FE07C01C3350F444244394410E27E0F8
:100480000BC0183038F027E017E005C027E09CE3E8
:10049000492E02C0212F412C560184E0A80EB11C28
:1004A000F6016081718182819381042DA3010E94F4
:1004B00050296C01F981FC87F0FF02C0F3FF06C0F0
:1004C00091FC06C092FE06C000E205C00DE203C02A
:1004D0000BE201C000E08C858C7019F001115AC24A
:1004E0009BC297FE10C04C0CFC85F4FF04C08A81AF
:1004F000813309F44A94141474F528E0241578F52E
:1005000088E0482E2CC096FC2AC0812F90E08C15E4
:100510009D059CF03CEFC3163FEFD30674F0892D88
:100520008068982E0AC0E2E0F0E0EC0FFD1FE10FBA
:10053000F11D8081803319F411501111F4CF97FE11
:100540000EC044244394410E812F90E0C816D90672
:100550002CF41C1904C04424439401C010E097FEFD
:1005600006C01C141D0434F4C601019605C085E0C4
:1005700090E002C081E090E001110196112331F07A
:10058000212F30E02F5F3F4F820F931F252D30E04A
:100590008217930714F4581A01C0512C892D8970C1
:1005A00049F4552039F0B70180E290E00E94912A89
:1005B0005A94F7CF002329F0B701802F90E00E94D2
:1005C000912A93FC09C0552039F0B70180E390E0EF
:1005D0000E94912A5A94F7CF97FE4CC04601D7FE4D
:1005E00002C0812C912CC60188199909F301E80FEA
:1005F000F91FFE87ED87960124193109388B2F8763
:10060000012F10E01195019511093FEF8316930614
:1006100029F4B7018EE290E00E94912AC814D9040F
:100620004CF08F8598898815990524F4ED85FE8511
:10063000818101C080E3F1E08F1A91082D853E850C
:100640002F5F3F4F3E872D87801691062CF0B70114
:1006500090E00E94912AD9CFC814D90441F49A811C
:10066000963320F4953319F43C8534FF81E3B701C8
:1006700090E04EC08A81813319F09C859F7E9C87D3
:10068000B70190E00E94912A111105C094FC18C096
:1006900085E690E017C0B7018EE290E00E94912AB3
:1006A0001E5F82E001E0080FF301E80FF11D808179
:1006B000B70190E00E94912A802F0113F3CFE6CF7B
:1006C00085E490E0B7010E94912AD7FC06C0C114CE
:1006D000D10441F4EC85E4FF05C0D194C194D10864
:1006E0008DE201C08BE2B70190E00E94912A80E385
:1006F0002AE0C216D1042CF08F5FFAE0CF1AD1089D
:10070000F7CFB70190E00E94912AB701C601C096C9
:100710000E94912A54C1833631F0833779F08335B2
:1007200009F056C020C0560132E0A30EB11CF601FC
:100730008081898301E010E0630112C05601F2E07C
:10074000AF0EB11CF601C080D18096FE03C0612FB0
:1007500070E002C06FEF7FEFC6010E944E2A8C014D
:10076000F92DFF7714C0560122E0A20EB11CF6014C
:10077000C080D18096FE03C0612F70E002C06FEF91
:100780007FEFC6010E94282A8C01F92DF0689F2E68
:10079000F3FD1AC0852D90E008171907A8F4B701DA
:1007A00080E290E00E94912A5A94F4CFF60197FCDF
:1007B000859197FE81916F01B70190E00E94912A87
:1007C00051105A94015011090115110579F7F7C01C
:1007D000843611F0893661F5560197FE09C024E090
:1007E000A20EB11CF60160817181828193810AC0E1
:1007F000F2E0AF0EB11CF60160817181072E000C92
:10080000880B990BF92DFF769F2E97FF09C09095C5
:100810008095709561957F4F8F4F9F4FF0689F2E09
:100820002AE030E0A3010E94FC2AC82EC6183FC06F
:10083000092D853721F40F7E2AE030E01DC0097FA5
:100840008F3691F018F4883559F0C3C0803719F00D
:10085000883711F0BEC0006104FF09C0046007C002
:1008600094FE08C0066006C028E030E005C020E124
:1008700030E002C020E132E0560107FF09C084E009
:10088000A80EB11CF601608171818281938108C03C
:10089000F2E0AF0EB11CF6016081718180E090E062
:1008A000A3010E94FC2AC82EC6180F77902E96FE30
:1008B0000BC0092D0E7FC11650F494FE0AC092FCA5
:1008C00008C0092D0E7E05C0DC2C092D03C0DC2CD0
:1008D00001C0D12E04FF0DC0FE01EC0DF11D808181
:1008E000803311F4097E09C002FF06C0D394D3946B
:1008F00004C0802F867809F0D39403FD11C000FF57
:1009000006C01C2DD51480F4150D1D190DC0D5146D
:1009100058F4B70180E290E00E94912AD394F7CF77
:10092000D51410F45D1801C0512C04FF10C0B7019C
:1009300080E390E00E94912A02FF17C001FD03C0EE
:1009400088E790E002C088E590E0B7010CC0802FF6
:10095000867859F001FF02C08BE201C080E207FDFA
:100960008DE2B70190E00E94912AC11638F4B701D8
:1009700080E390E00E94912A1150F7CFCA94F301CE
:10098000EC0DF11D8081B70190E00E94912AC11009
:10099000F5CF15C0F4E0F51560F584E0581A93FE24
:1009A0001FC0011127C02C8523FF2AC006EB11E0D0
:1009B000392D3071932EF8018491811124C0552076
:1009C00009F4E4CCB70180E290E00E94912A5A94A5
:1009D000F6CFF7018681978126C08FEF9FEF23C066
:1009E000B70180E290E00E94912A5A945110F8CF0A
:1009F000D8CF512CB701802F90E00E94912AD3CFFD
:100A00000AEB11E0D5CF91108052B70190E00E941F
:100A1000912A0F5F1F4FCFCF23E0251510F483E0FD
:100A2000BDCF512CC0CF60960FB6F894DEBF0FBE7D
:100A3000CDBFDF91CF911F910F91FF90EF90DF908D
:100A4000CF90BF90AF909F908F907F906F905F906E
:100A50004F903F902F90089583B7817F826083BF2E
:100A6000EAE7F0E0808188608083089590917C00BF
:100A7000907E90937C0090917C00892B80937C00E9
:100A800080917A00806480937A0080917A0086FF5A
:100A9000FCCF809178009091790008951F93CF93B7
:100AA000DF9310E1C0E0D0E083B7816083BF889519
:100AB00083B78E7F83BF87E00E943605C80FD91F9A
:100AC000115091F7CE019695879596958795DF9170
:100AD000CF911F910895249A2C9A259A2E9A279A9D
:100AE0008CB581608CBD8CB580618CBD8CB580640B
:100AF0008CBD08958EBD0DB407FEFDCF0895CF9334
:100B0000DF93EB010E947A058D2F0E947A058C2FCE
:100B1000DF91CF910C947A052C9886E00E947A059B
:100B20002C9A0895CF92DF92EF92FF926B017C0195
:100B30002C9883E00E947A05C701B6010E947F05C8
:100B400080E00E947A052C9A8EB5FF90EF90DF909E
:100B5000CF900895CF92DF92EF92FF92CF936B01E7
:100B60007C01C42F0E948C052C9882E00E947A059B
:100B7000C701B6010E947F058C2F0E947A050DB433
:100B800007FEFDCF2C9ACF91FF90EF90DF90CF9092
:100B90000895CF92DF92EF92FF92CF93DF936B0194
:100BA0007C012C9883E00E947A05C701B6010E945F
:100BB0007F0580E00E947A05CEB5D0E0DC2FCC27FF
:100BC00080E00E947A058EB52C9A9E01280F311D77
:100BD000C901DF91CF91FF90EF90DF90CF90089502
:100BE000CF92DF92EF92FF92CF93DF936B017C0164
:100BF000EA010E948C052C9882E00E947A05C701C8
:100C0000B6010E947F058D2F0E947A058C2F0E94CD
:100C10007A052C9ADF91CF91FF90EF90DF90CF90E3
:100C20000895CF92DF92EF92FF92C12CD12C7601E2
:100C30000E948C052C9882E00E947A05C701B601BB
:100C40000E947F0580E00E947A058FEFC81AD80ABB
:100C5000E80AF80A2C9A8FEFC816D806E104F104C6
:100C600039F7FF90EF90DF90CF9008950E944607EC
:100C700084EC0E945F078091B900887F883199F5E4
:100C800081E191E00E94DE2388E10E94452486EB09
:100C900099E10E94DE2380E00E945F078091B90005
:100CA000887F883201F589E491E00E94DE2388E2A2
:100CB0000E94452486EB99E10E94DE2384E00E9495
:100CC0005F078091B900887F883269F48DE691E0F2
:100CD0000E94DE2388E20E94452486EB99E10E946F
:100CE000DE230C944B070895CF930E94460784ECB3
:100CF0000E945F078091B900887F883101F581E10A
:100D000091E00E94DE2388E10E94452486EB99E170
:100D10000E94DE2381E00E945F078091B900887FF6
:100D2000883269F48BE891E00E94DE2388E20E9419
:100D3000452486EB99E10E94DE230E944B078FEA4F
:100D400091E00E94DE2386EB99E10E94DE230E945F
:100D5000460785EC0E945F07C091B900C87F8C2FC1
:100D60000E94452486EB99E10E94DE23C034D1F431
:100D700089EB91E00E94DE2380E40E94452486EB0B
:100D800099E10E94DE230E945707C82F87EF91E068
:100D90000E94DE238C2F0E94452486EB99E10E945D
:100DA000DE2301C0C0E08C2FCF9108951F93CF9315
:100DB000DF930E94460784EC0E945F078091B90090
:100DC000887F883159F481E191E00E94DE2388E137
:100DD0000E94452486EB99E10E94DE238FE80E9461
:100DE0005F078091B900887F883269F489E092E0DA
:100DF0000E94DE2388E20E94452486EB99E10E944E
:100E0000DE230E944B070E94460785EC0E945F0785
:100E10008091B900887F803409F58DE292E00E94CC
:100E2000DE2380E40E94452486EB99E10E94DE23C4
:100E30000E944F07182F0E945707C82F0E944B0788
:100E4000D0E0D12B8AE692E00E94DE23CE010E9400
:100E50000A2486EB99E10E94DE2302C0C0E0D0E0C4
:100E6000CE01DF91CF911F91089588B1836088B939
:100E700086E48093B800ECEBF0E0808184608083AE
:100E800008958091BC0087FFFCCF089584EA809389
:100E9000BC000C94410784E98093BC00089584EC65
:100EA0008093BC000E9441078091BB00089584E8B4
:100EB0008093BC000E9441078091BB0008958093FD
:100EC000BB0084E88093BC000C944107CF93C82FEB
:100ED0000E9446078EE40E945F078C2F88600E9464
:100EE0005F07CF910C944B071F93CF93DF93D82FBD
:100EF00011E0611101C010E0D4FF02C080E101C027
:100F000080E0D5FD8062D6FD8064D7FD8068C82F63
:100F1000C12B8C2F84600E94660787EA91E60197B7
:100F2000F1F700C000008C2F0E946607D0FF02C0BE
:100F300080E101C080E0D1FD8062D2FD8064D3FDFC
:100F40008068182B812F84600E94660787EA91E6EB
:100F50000197F1F700C00000812FDF91CF911F9121
:100F60000C94660760E081E00E94740760E080E80E
:100F70000E9474071092D41D089560E080E80E94DA
:100F800074071092D41D0895CF93C4E0C150B1F0FE
:100F900084E30E9466078FE493EC0197F1F700C0A9
:100FA000000080E30E9466079FE72AE186E09150F7
:100FB00020408040E1F700C00000E8CF84E20E94BA
:100FC00066078FE493EC0197F1F700C0000080E220
:100FD0000E9466078FE493EC0197F1F700C00000D0
:100FE00060E088E20E94740760E08CE00E94740771
:100FF000CF910C94B207CF93C82F8091D41D80312C
:1010000021F460E080EC0E9474078091D41D80324E
:1010100031F460E080E80E9474071092D41D809142
:10102000D41D8F5F8093D41D61E08C2FCF910C94E1
:1010300074070F931F93CF93DF93EC018E01888188
:101040008823F1F08091D41D803121F460E080ECA0
:101050000E9474078091D41D803231F460E080E8F2
:101060000E9474071092D41D8091D41D8F5F8093CD
:10107000D41D219661E0F80180810E947407DECFC3
:10108000DF91CF911F910F9108954F925F926F92D0
:101090007F928F929F92AF92BF92CF92DF92EF9208
:1010A000FF920F931F93CF93DF93CDB7DEB7649773
:1010B0000FB6F894DEBF0FBECDBFFE01B79681908C
:1010C00091907F01712C6E018BE0C80ED11CFE0146
:1010D00031965F0180E3682E2401FFEF4F1A5F0A0B
:1010E000F4018491882309F4A6C0853209F08FC0E9
:1010F00084010E5F1F4FF2018491282F30E02053AE
:1011000031092A303105D8F589831A82C5010E9438
:101110003229782E94012D5F3F4FF8010491093652
:1011200051F138F40236E1F10336D1F0890148017A
:10113000D3CF033731F0083779F10F36B9F789018A
:1011400028C08901F70180809180F2E0EF0EF11C48
:10115000F40181914F01882351F30E94FB07F8CFDE
:1011600089014701F2E08F0E911CF70180810E94F6
:10117000FB077401DCCF890198014AE012C089366F
:10118000D9F308F448C08337E9F2883731F08F3655
:1011900071F6980148E005C08901980140E101C05D
:1011A00042E050E04701F2E08F0E911CF701808190
:1011B00091818901B6010E94592AF601CF018C194B
:1011C0009D0921912111FACF272D30E08217930735
:1011D000C4F4781AF501872D90E09F012A193B0984
:1011E0002817390714F46192F8CFF501E80FF91FB9
:1011F0001082B601C5010E94332AB501C6010E94C2
:10120000472AC6010E9419087401712C90CF0E94D0
:10121000FB0782018CCF823651F44701F2E08F0E3A
:10122000911CF7018081918142E050E0C3CF833669
:1012300009F497CF7CCF64960FB6F894DEBF0FBE4B
:10124000CDBFDF91CF911F910F91FF90EF90DF9075
:10125000CF90BF90AF909F908F907F906F905F9056
:101260004F90089550E05093890040938800882360
:1012700019F0109A549A02C01098549850938B0009
:1012800040938A00662319F0119A559A089511988F
:10129000559808954093B300882319F0129A569AEE
:1012A00002C0129856984093B400662319F0139A1E
:1012B000579A0895139857980895CF93DF93C82F9E
:1012C000D82FD6958D2F0E94F1231F92DF9386E7AA
:1012D00092E09F938F938FE29EE19F938F930E9462
:1012E000CD2A8FE29EE10E9419080F900F900F9077
:1012F0000F900F900F90C0FF07C089E792E00E9407
:10130000DE238EE792E006C088E892E00E94DE23AA
:101310008DE892E00E94190881E892E0DF91CF9178
:101320000C9419081092C50084E08093C400E0EC8E
:10133000F0E080818260808388E18093C10086E054
:101340008093C20008950F931F93CF938C01C62FF3
:1013500060E972E00E943E2A892B21F44C2F60E064
:1013600081E01EC068E972E0C8010E943E2A892B14
:1013700069F44C2F60E081E00E944A094C2F61E043
:1013800080E0CF911F910F910C9432096EE972E0C9
:10139000C8010E943E2A892B49F44C2F61E080E06D
:1013A0000E944A094C2F60E081E0EBCF63EA72E0D3
:1013B000C8010E943E2A892B21F44C2F61E080E075
:1013C000DBCF6CEA72E0C8010E943E2A892B41F40F
:1013D00040E060E080E00E944A0940E060E0D0CF59
:1013E00082EB92E00E94DE2386EB99E1CF911F9180
:1013F0000F910C94DE232F923F924F925F926F9247
:101400007F928F929F92AF92BF92CF92DF92EF9294
:10141000FF920F931F93CF93DF9300D000D000D0A3
:10142000CDB7DEB7182F6E83B42E022FC82ED12C65
:10143000E12CF12C24E2C21AD1082FEFE20AF20AC1
:10144000C701B6010E9492058D831031E0F088EC4F
:1014500092E026960FB6F894DEBF0FBECDBFDF91A7
:10146000CF911F910F91FF90EF90DF90CF90BF90A1
:10147000AF909F908F907F906F905F904F903F9034
:101480002F900C94DE238B2D90E0A0E0B0E08983B8
:101490009A83AB83BC839D8197FD6CC1AE8144EF81
:1014A000242E33243394A7FDD8C09A170CF07BC0A8
:1014B000BD816B2FBB0F770B880B990B0E941D26EC
:1014C000AB01BC01812F0E94F1224E81C701B60100
:1014D0000E94AA0569817A818B819C810E941B26CA
:1014E0002B013C0120E030E44CE955E40E942A271E
:1014F0004B015C0120E030E040E85FE30E9475258D
:1015000087FD22C020E03FEF4FE757E4C501B4015B
:101510000E94252718169CF420E030E040E251E4B8
:10152000C301B2010E942A270E94EC2561157105B2
:1015300081F0C1010197F1F761507109F7CFC50141
:10154000B4010E94EC2502C061E070E0CB0101977C
:10155000F1F72D81200F2D833E8132170CF0A8CF9B
:101560008EEF92E00E94DE23812F0E94F12381E220
:1015700093E00E94DE233CEDC32EDD24DA94E12CBF
:10158000F12C812F90E09A838983B3C0C501B40107
:101590000E94EC25CB010197F1F7BD81B01BBD8303
:1015A0002E81B217ECF2AD816A2FAA0F770B880B50
:1015B000990B0E941D26AB01BC01812F0E94F122D4
:1015C0004E81C701B6010E94AA0569817A818B818B
:1015D0009C810E941B262B013C0120E030E44CE959
:1015E00055E40E942A274B015C0120E030E040E8EE
:1015F0005FE30E94752587FD1FC020E03FEF4FE7A6
:1016000057E4C501B4010E94252718160CF0BECF7F
:1016100020E030E040E251E4C301B2010E942A27F9
:101620000E94EC256115710509F4B7CFC10101973E
:10163000F1F761507109F6CF61E070E0ABCFC50101
:10164000B4010E94EC25CB010197F1F78D81801B3D
:101650008D839E8189170CF483CF3D81632F330FD7
:10166000770B880B990B0E941D26AB01BC01812FC3
:101670000E94F1224E81C701B6010E94AA0569812C
:101680007A818B819C810E941B262B013C0120E0EA
:1016900030E44CE955E40E942A274B015C0120E02C
:1016A00030E040E85FE30E94752587FD1FC020E021
:1016B0003FEF4FE757E4C501B4010E9425271816F4
:1016C0000CF0BDCF20E030E040E251E4C301B201B4
:1016D0000E942A270E94EC256115710509F4B6CFF6
:1016E000C1010197F1F761507109F6CF61E070E037
:1016F000AACF80E393E00E94DE23C6010E940A2461
:1017000081E493E00E94DE23C701B6010E949205A6
:101710000E94F123C6018496A981BA81A817B9074E
:1017200021F48AE493E00E94DE23BFEFCB1ADB0AA8
:10173000EB0AFB0A2CEEC2162FEFD206E104F104ED
:10174000C1F626960FB6F894DEBF0FBECDBFDF916F
:10175000CF911F910F91FF90EF90DF90CF90BF90AE
:10176000AF909F908F907F906F905F904F903F9041
:101770002F9008953E8137FD5DC024EF222E332443
:101780003394AD816A2FAA0F770B880B990B0E94B7
:101790001D26AB01BC01812F0E94F1224E81C701A1
:1017A000B6010E94AA0569817A818B819C810E9481
:1017B0001B262B013C0120E030E44CE955E40E945B
:1017C0002A274B015C0120E030E040E85FE30E9403
:1017D000752587FD22C020E03FEF4FE757E4C501A4
:1017E000B4010E94252718169CF420E030E040E266
:1017F00051E4C301B2010E942A270E94EC25611521
:10180000710581F0C1010197F1F761507109F7CFBE
:10181000C501B4010E94EC2502C061E070E0CB017B
:101820000197F1F7BD81B00FBD832E812B170CF00E
:10183000A8CF96CE3D818E8194EF292E3324339408
:1018400038170CF067C0AD816A2FAA0F770B880B91
:10185000990B0E941D26AB01BC01812F0E94F12231
:101860004E81C701B6010E94AA0569817A818B81E8
:101870009C810E941B262B013C0120E030E44CE9B6
:1018800055E40E942A274B015C0120E030E040E84B
:101890005FE30E94752587FD22C020E03FEF4FE700
:1018A00057E4C501B4010E94252718169CF420E0D6
:1018B00030E040E251E4C301B2010E942A270E94B5
:1018C000EC256115710581F0C1010197F1F76150B7
:1018D0007109F7CFC501B4010E94EC2502C061E097
:1018E00070E0CB010197F1F7BD81B00FBD832E8170
:1018F0002B170CF0A8CF34CEC501B4010E94EC2503
:10190000CB010197F1F78D81801B8D839E81891713
:101910000CF426CE3D81632F330F770B880B990B88
:101920000E941D26AB01BC01812F0E94F1224E8135
:10193000C701B6010E94AA0569817A818B819C81C9
:101940000E941B262B013C0120E030E44CE955E4C9
:101950000E942A274B015C0120E030E040E85FE371
:101960000E94752587FD1FC020E03FEF4FE757E439
:10197000C501B4010E94252718160CF0BDCF20E048
:1019800030E040E251E4C301B2010E942A270E94E4
:10199000EC256115710509F4B6CFC1010197F1F786
:1019A00061507109F6CF61E070E0AACF1F93CF9329
:1019B000DF938AE593E00E94DE2385E893E00E94AE
:1019C000DE230E946324D82F82EA93E00E94DE2364
:1019D0000E946324C82F81EC93E00E94DE230E94C2
:1019E000D7238D3261F018F48B3231F00EC0803382
:1019F00019F0813321F009C088E094E003C0C1955B
:101A000083E294E00E94DE2306C08AE394E00E9411
:101A1000DE23C0E0D4E60E94D72387E794E00E944B
:101A2000DE230E946324182F88E994E00E94DE23BD
:101A30000E946324282F412F6C2F8D2F0E94FB09B9
:101A400080EC94E0DF91CF911F910C94DE23CF9333
:101A5000C82F21E0482F60E080E00E94FB0921E0D0
:101A60004C2F60E084E00E94FB0921E04C2F60E0F5
:101A700083E00E94FB0921E04C2F60E082E00E949D
:101A8000FB0921E04C2F60E081E00E94FB0921E08E
:101A90004C2F60E085E00E94FB0921E04C2F6EE1B5
:101AA00086E00E94FB0921E04C2F60E087E00E9465
:101AB000FB0921E04C2F60E08BE00E94FB0921E054
:101AC0004C2F60E08AE00E94FB0921E04C2F60E08F
:101AD00089E00E94FB0921E04C2F60E088E00E9431
:101AE000FB0921E04C2F60E08CE00E94FB0921E023
:101AF0004C2F6CEE8DE0CF910C94FB09CF93C82F47
:101B000021E0482F60E087E00E94FB0921E04C2F94
:101B100060E08BE00E94FB0921E04C2F60E08AE04E
:101B20000E94FB0921E04C2F60E089E00E94FB0944
:101B300021E04C2F60E088E00E94FB0921E04C2F5F
:101B400060E08CE00E94FB0921E04C2F6CEE8DE000
:101B5000CF910C94FB09CF93C82F21E0482F60E070
:101B600080E00E94FB0921E04C2F60E084E00E94AD
:101B7000FB0921E04C2F60E083E00E94FB0921E09B
:101B80004C2F60E082E00E94FB0921E04C2F60E0D6
:101B900081E00E94FB0921E04C2F60E085E00E947B
:101BA000FB0921E04C2F6EE186E0CF910C94FB09FC
:101BB000CF93C82F21E0482F6EE186E00E94FB09F9
:101BC00021E04C2F60E085E00E94FB0921E04C2FD2
:101BD00066EF80E00E94FB0921E04C2F62EB82E07F
:101BE0000E94FB0921E04C2F6FE684E00E94FB0974
:101BF00021E04C2F65E383E00E94FB0921E04C2F9C
:101C000061E981E00E94FB0921E04C2F67EE8DE045
:101C10000E94FB0921E04C2F60E08CE00E94FB0950
:101C200021E04C2F60E087E00E94FB0921E04C2F6F
:101C30006AEB89E00E94FB0921E04C2F6BE78BE007
:101C40000E94FB0921E04C2F65E38AE00E94FB091A
:101C500021E04C2F64E688E0CF910C94FB09CF93F0
:101C6000C82F21E0482F67EE8DE00E94FB0921E09C
:101C70004C2F60E08CE00E94FB0921E04C2F60E0DB
:101C800087E00E94FB0921E04C2F6AEB89E00E946B
:101C9000FB0921E04C2F6BE78BE00E94FB0921E060
:101CA0004C2F65E38AE00E94FB0921E04C2F64E69B
:101CB00088E0CF910C94FB09CF93C82F21E0482FE7
:101CC0006EE186E00E94FB0921E04C2F60E085E098
:101CD0000E94FB0921E04C2F66EF80E00E94FB0987
:101CE00021E04C2F62EB82E00E94FB0921E04C2FA7
:101CF0006FE684E00E94FB0921E04C2F65E383E05E
:101D00000E94FB0921E04C2F61E981E0CF910C9406
:101D1000FB09CF93C82F21E0482F66EF80E00E9497
:101D2000FB0921E04C2F62EB82E00E94FB0921E0DD
:101D30004C2F6FE684E00E94FB0921E04C2F65E305
:101D400083E00E94FB0921E04C2F66EA81E00E94BB
:101D5000FB0921E04C2F60E085E00E94FB0921E0B7
:101D60004C2F6EE186E00E94FB0921E04C2F60E0E1
:101D700087E00E94FB0921E04C2F6AEB89E00E947A
:101D8000FB0921E04C2F6DE78BE00E94FB0921E06D
:101D90004C2F65E38AE00E94FB0921E04C2F60E5AF
:101DA00088E00E94FB0921E04C2F60E08CE00E945B
:101DB000FB0921E04C2F6CEE8DE0CF910C94FB09D8
:101DC000CF93C82F21E0482F60E087E00E94FB09F5
:101DD00021E04C2F6AEB89E00E94FB0921E04C2FA7
:101DE0006DE78BE00E94FB0921E04C2F65E38AE060
:101DF0000E94FB0921E04C2F60E588E00E94FB096E
:101E000021E04C2F60E08CE00E94FB0921E04C2F88
:101E10006CEE8DE0CF910C94FB09CF93C82F21E09D
:101E2000482F66EF80E00E94FB0921E04C2F62EB17
:101E300082E00E94FB0921E04C2F6FE684E00E94C3
:101E4000FB0921E04C2F65E383E00E94FB0921E0C0
:101E50004C2F66EA81E00E94FB0921E04C2F60E0F4
:101E600085E00E94FB0921E04C2F6EE186E0CF91D6
:101E70000C94FB09CF93C82F21E0482F6CE388E036
:101E80000E94FB0921E04C2F60E08AE00E94FB09E0
:101E900021E04C2F60E089E00E94FB0921E04C2FFB
:101EA00066EA8BE00E94FB0921E04C2F6AE58AE09C
:101EB0000E94FB0921E04C2F66E788E00E94FB09A5
:101EC00021E04C2F6EE689E00E94FB0921E04C2FB7
:101ED00062E98BE0CF910C94FB09CF93C82F21E0EE
:101EE000482F6AEB81E00E94FB0980910F01982F37
:101EF000990F890F6FEF81950E94A7230E94CB2332
:101F000021E04C2F60E083E00E94FB0921E04C2F90
:101F100060E082E0CF910C94FB09CF93C82F21E0C1
:101F2000482F6AE08DE00E94FB0921E04C2F60E021
:101F30008CE00E94FB0921E04C2F60E087E00E94CA
:101F4000FB0921E04C2F60E08AE00E94FB0921E0C0
:101F50004C2F60E08BE00E94FB0921E04C2F6AE5EA
:101F600088E00E94FB0921E04C2F6CEE89E00E9482
:101F7000FB0921E04C2F6AE58BE00E94FB0921E080
:101F80004C2F66E48AE00E94FB0921E04C2F67ECAD
:101F900089E00E94FB0921E04C2F6DE28AE00E945B
:101FA000FB0921E04C2F6EE688E00E94FB0921E04E
:101FB0004C2F6DE78BE00E94FB0921E04C2F66E37C
:101FC0008AE0CF910C94FB09CF93C82F21E0482FD2
:101FD00066EF80E00E94FB0921E04C2F65E584E07C
:101FE0000E94FB0921E04C2F60E082E00E94FB0987
:101FF00021E04C2F65E383E00E94FB0921E04C2F98
:1020000066EA81E00E94FB0921E04C2F6CE985E043
:102010000E94FB0921E04C2F6EEC86E00E94FB0938
:1020200021E04C2F60E087E00E94FB0921E04C2F6B
:102030006AE58BE00E94FB0921E04C2F60E089E01B
:102040000E94FB0921E04C2F6CE38AE00E94FB090F
:1020500021E04C2F6AE488E00E94FB0921E04C2F2C
:102060006CE38CE00E94FB0921E04C2F60EB8DE0DB
:10207000CF910C94FB09CF93C82F21E0482F66EF36
:1020800080E00E94FB0921E04C2F65E584E00E947E
:10209000FB0921E04C2F60E082E00E94FB0921E077
:1020A0004C2F65E383E00E94FB0921E04C2F66EA98
:1020B00081E00E94FB0921E04C2F60E085E00E9456
:1020C000FB0921E04C2F68E286E00E94FB0921E039
:1020D0004C2F60E087E00E94FB0921E04C2F6AE56D
:1020E0008BE00E94FB0921E04C2F60E089E00E9418
:1020F000FB0921E04C2F6CE38AE00E94FB0921E000
:102100004C2F6AE488E00E94FB0921E04C2F60E03C
:102110008CE00E94FB0921E04C2F68EF8DE0CF910D
:102120000C94FB09CF93C82F21E0482F66EF80E085
:102130000E94FB0921E04C2F69E684E00E94FB0924
:1021400021E04C2F63ED82E00E94FB0921E04C2F3F
:1021500060E087E00E94FB0921E04C2F63E78BE001
:102160000E94FB0921E04C2F6CED89E0CF910C948B
:10217000FB0921E0482F67E38EE00C94FB09CF9325
:10218000C82F6AEE7FEF80E090E00E9492058733CF
:1021900044F464E0680F21E04C2F8EE0CF910C9462
:1021A000FB09CF910895CF93C82F6AEE7FEF80E0AF
:1021B00090E00E949205823F44F06CEF680F21E0AE
:1021C0004C2F8EE0CF910C94FB09CF91089521E024
:1021D000482F61EF8EE00C94FB0921E0482F6AE064
:1021E0008EE00C94FB09CF93C82F21E0482F66EFB7
:1021F00080E00E94FB0921E04C2F69E684E00E9408
:10220000FB0921E04C2F60E082E00E94FB0921E005
:102210004C2F66EA81E00E94FB0921E04C2F68EF19
:1022200083E00E94FB0921E04C2F60E084E00E94E3
:10223000FB0921E04C2F6DE280E00E94FB0921E0C8
:102240004C2F66EF80E00E94FB0921E04C2F6DE2ED
:1022500080E00E94FB0921E04C2F66EF80E00E94A5
:10226000FB098C2F0E94B9108C2F0E94E7108C2F35
:102270000E94ED1021E04C2F60E087E00E94FB09F6
:1022800021E04C2F63E78BE00E94FB0921E04C2FFB
:1022900060E089E00E94FB0921E04C2F6CE488E0BB
:1022A0000E94FB0921E04C2F60E08AE00E94FB09BC
:1022B00021E04C2F60E08BE0CF910C94FB09FF9262
:1022C0000F931F93CF93DF93D82F64EE7FEF80E0BF
:1022D00090E00E949205F82E65EE7FEF80E090E09E
:1022E0000E949205082F66EE7FEF80E090E00E944A
:1022F0009205182F67EE7FEF80E090E00E94920534
:10230000C82F84E28F153CF46CEF6F0D21E04D2F48
:1023100088E00E94FB0908323CF464E0600F21E091
:102320004D2F89E00E94FB091B303CF06DEF610FDF
:1023300021E04D2F8AE00E94FB091C1664F46DEF2A
:102340006C0F21E04D2F8BE0DF91CF911F910F910A
:10235000FF900C94FB09DF91CF911F910F91FF909B
:102360000895FF920F931F93CF93DF93D82F6DEDB6
:102370007FEF80E090E00E949205F82E6EED7FEFF7
:1023800080E090E00E949205082F6FED7FEF80E0E3
:1023900090E00E949205182F60EE7FEF80E090E0C1
:1023A0000E949205C82F8CEDF8163CF464E06F0D86
:1023B00021E04D2F81E00E94FB0908323CF464E0EB
:1023C000600F21E04D2F82E00E94FB091B303CF0A2
:1023D0006DEF610F21E04D2F83E00E94FB091C1679
:1023E00064F46DEF6C0F21E04D2F84E0DF91CF910D
:1023F0001F910F91FF900C94FB09DF91CF911F91DA
:102400000F91FF900895FF920F931F93CF93DF9347
:10241000D82F64EE7FEF80E090E00E949205F82EC6
:1024200065EE7FEF80E090E00E949205082F66EE57
:102430007FEF80E090E00E949205182F67EE7FEF1B
:1024400080E090E00E949205C82F83E68F153CF053
:1024500064E06F0D21E04D2F88E00E94FB090832F7
:102460003CF464E0600F21E04D2F89E00E94FB09FD
:102470001B303CF06DEF610F21E04D2F8AE00E9490
:10248000FB091C1664F46DEF6C0F21E04D2F8BE0FF
:10249000DF91CF911F910F91FF900C94FB09DF9179
:1024A000CF911F910F91FF900895FF920F931F936B
:1024B000CF93DF93D82F6DED7FEF80E090E00E9407
:1024C0009205F82E6EED7FEF80E090E00E9492057D
:1024D000082F6FED7FEF80E090E00E949205182FAB
:1024E00060EE7FEF80E090E00E949205C82F8DE9BA
:1024F000F8163CF06CEF6F0D21E04D2F81E00E944B
:10250000FB0908323CF464E0600F21E04D2F82E0CB
:102510000E94FB091B303CF06DEF610F21E04D2F55
:1025200083E00E94FB091C1664F46DEF6C0F21E040
:102530004D2F84E0DF91CF911F910F91FF900C946C
:10254000FB09DF91CF911F910F91FF900895CF93D9
:10255000C82F6CED7FEF80E090E00E9492058D37F0
:1025600044F465E0680F21E04C2F80E0CF910C949B
:10257000FB09CF910895CF93C82F6CED7FEF80E0DA
:1025800090E00E949205873F44F06BEF680F21E0D6
:102590004C2F80E0CF910C94FB09CF910895CF93FD
:1025A000C82F63EE7FEF80E090E00E9492058A30B2
:1025B00044F465E0680F21E04C2F87E0CF910C9444
:1025C000FB09CF910895CF93C82F63EE7FEF80E092
:1025D00090E00E949205843844F06BEF680F21E090
:1025E0004C2F87E0CF910C94FB09CF910895CF93A6
:1025F000C82F62EE7FEF80E090E00E9492058C335E
:1026000044F465E0680F21E04C2F86E0CF910C94F4
:10261000FB09CF910895CF93C82F62EE7FEF80E042
:1026200090E00E949205803C44F06BEF680F21E03F
:102630004C2F86E0CF910C94FB09CF910895CF9356
:10264000C82F69EE7FEF80E090E00E9492058A300B
:1026500044F465E0680F21E04C2F8DE0CF910C949D
:10266000FB09CF910895CF93C82F69EE7FEF80E0EB
:1026700090E00E949205893844F06BEF680F21E0EA
:102680004C2F8DE0CF910C94FB09CF910895CF93FF
:10269000C82F61EE7FEF80E090E00E9492058D37B9
:1026A00044F465E0680F21E04C2F85E0CF910C9455
:1026B000FB09CF910895CF93C82F61EE7FEF80E0A3
:1026C00090E00E949205843844F06BEF680F21E09F
:1026D0004C2F85E0CF910C94FB09CF910895CF93B7
:1026E000C82F68EE7FEF80E090E00E9492058D3762
:1026F00044F465E0680F21E04C2F8CE0CF910C94FE
:10270000FB09CF910895CF93C82F68EE7FEF80E04B
:1027100090E00E949205843844F06BEF680F21E04E
:102720004C2F8CE0CF910C94FB09CF910895CF935F
:10273000C82F21E0482F60E087E00E94FB0921E0DC
:102740004C2F6AE58BE00E94FB0921E04C2F60E0F2
:1027500089E00E94FB0921E04C2F60E08AE00E94A2
:10276000FB0921E04C2F64E688E00E94FB0921E090
:102770004C2F68E789E00E94FB0921E04C2F6CE3B5
:102780008CE00E94FB0921E04C2F60EB8DE0CF91A3
:102790000C94FB09CF92DF92EF920F931F93CF938C
:1027A000DF936C01162FD42FC22F88EF94E00E9484
:1027B000DE23C6010E940A248AE30E94D02380E21D
:1027C0000E94D0238FEF94E00E94DE23812F0E948D
:1027D000F1238AE30E94D02380E20E94D02387E085
:1027E00095E00E94DE238D2F0E94F1238AE30E9450
:1027F000D02380E20E94D0238DE095E00E94DE236A
:102800008C2F0E94F1238AE30E94D02380E20E9451
:10281000D02384E195E00E94DE23802F0E94F123E3
:102820008AE30E94D02380E20E94D0238AE195E0CF
:102830000E94DE238E2D0E94F1238DE00E94D02382
:102840008AE0DF91CF911F910F91EF90DF90CF90B1
:102850000C94D0234F925F926F927F928F929F92AF
:10286000AF92BF92CF92DF92EF92FF92CF93DF931E
:1028700000D000D0CDB7DEB720E030E048EC52E425
:102880000E942A270E94E72720E030E048EC52E42B
:102890000E947A256B017C0120E030E040E251E4A7
:1028A0000E947A254B015C0120E030E040E452E4D4
:1028B0000E9409250E94EC25862F0E94D023C50185
:1028C000B4010E9458262B013C0120E030E040E496
:1028D00052E4C701B6010E9409254B015C0120E0CA
:1028E00030E040E251E4C301B2010E942A279B017B
:1028F000AC01C501B4010E9408250E94EC25862F79
:102900000E94D0238EE20E94D02320E030E040E2FB
:1029100051E4C701B6010E942A274B015C01C7019F
:10292000B6010E9458262B013C0120E030E040E433
:1029300052E4C501B4010E94092569837A838B831F
:102940009C8320E030E040E251E4C301B2010E94E8
:102950002A279B01AC0169817A818B819C810E942D
:1029600008250E94EC25862F0E94D023C501B401C2
:102970000E9458264B015C0120E030E048EC52E414
:10298000C701B6010E942A2720E030E040E452E46B
:102990000E9409256B017C0120E030E040E251E417
:1029A000C501B4010E942A279B01AC01C701B601F1
:1029B0000E9408250E94EC25862F0E94D02386EBDA
:1029C00099E10F900F900F900F90DF91CF91FF90B2
:1029D000EF90DF90CF90BF90AF909F908F907F90BF
:1029E0006F905F904F900C94DE230F931F93CF93C3
:1029F000DF938C01EB0180E295E00E94DE2384E30B
:102A000095E00E94DE23C8010E940A2480E20E9411
:102A1000D0238AE30E94D02380E20E94D0238DE35A
:102A200095E00E94DE23CE010E940A2485EE96E105
:102A3000DF91CF911F910F910C94DE23FC0140E0B8
:102A400050E0A6E0B8E04617570788F420E030E0F1
:102A50002E173F0731F08A2F8A95F1F72F5F3F4FEE
:102A6000F7CF95B19B2795B94E0F5F1FECCF089517
:102A7000609100017091010183E194E00E941E15B4
:102A8000609100017091010181EA93E00E941E159E
:102A9000609100017091010189E492E00E941E158D
:102AA0000E94B2070E94BD0785E495E00E941908C4
:102AB00084E595E00E94190882E695E00E94DE23F5
:102AC00086E995E00E94DE2382E695E00E94DE23FF
:102AD0008BEC95E00E94DE2382E695E00E94DE23E7
:102AE0008FEF95E00E94DE2384E296E00E94DE23D1
:102AF0008AE596E00E94DE2388E896E00E94DE23C5
:102B00008EEB96E00E94DE2389EF96E00E94DE23A2
:102B100086E297E00E94DE2389E497E00E94DE23AC
:102B20008AE797E00E94DE2382E695E00E94DE239A
:102B30008BE997E00E94DE2382E695E00E94DE2387
:102B40008FEC97E00E94DE2381EF97E00E94DE2366
:102B50008BE198E00E94DE2389E398E00E94DE2367
:102B600088E598E00E94DE2382E695E00E94DE235D
:102B700088E798E00E94DE2382E695E00E94DE234B
:102B80008CEA98E00E94DE238AEC98E00E94DE2323
:102B900089EE98E00E94DE2385E099E00E94DE2322
:102BA00087E299E00E94DE2385E499E00E94DE231B
:102BB0008BE699E00E94DE2380E999E00E94DE2303
:102BC00082E695E00E94DE238AEC99E00E94DE23F3
:102BD00082E695E00E94DE238EEF99E00E94DE23DC
:102BE00089E39AE00E94DE238AEA9AE00E94DE23CB
:102BF0008BE19BE00E94DE2389E59BE00E94DE23BF
:102C00008CE79BE00E94DE2385EA9BE00E94DE23A6
:102C10008EEC9BE00E94DE2381E09CE00E94DE239C
:102C200084E39CE00E94DE2383E69CE00E94DE2396
:102C300081E99CE00E94DE2385EC9CE00E94DE237B
:102C40008AEF9CE00E94DE2389E29DE00E94DE2361
:102C500088E59DE00E94DE2387E89DE00E94DE2358
:102C600083EB9DE00E94DE2380EE9DE00E94DE2348
:102C70008DE09EE00E94DE238BE39EE00E94DE2337
:102C80008CE79EE00E94DE238DEB9EE00E94DE2317
:102C90008EEF9EE00E94DE2382E695E00E94DE2316
:102CA0008FE39FE00E94DE2382E695E00E94DE2310
:102CB00083E79FE00E94DE2388EA9FE00E94DE23F4
:102CC0008DED9FE00E94DE2382E190E10E94DE23F1
:102CD00087E490E10E94DE238EE790E10E94DE23EC
:102CE00085EB90E10E94DE238CEE90E10E94DE23D2
:102CF00082E695E00C94DE23809106018F5F80933D
:102D00000601809106018D3058F0109206018091E5
:102D100007019091080101969093080180930701A3
:102D20000895809105018F5F8093050180910501D1
:102D3000803220F0109205010C947C160895809149
:102D400004018F5F8093040180910401883120F099
:102D5000109204010E94911660910001709101018E
:102D600080ED91E00E941E1588EE93E024EF31E0A3
:102D7000F9013197F1F70197D9F76091000170914E
:102D800001018DE093E00E941E1588EE93E024EF90
:102D900031E0F9013197F1F70197D9F7609100011E
:102DA000709101018DE093E00E941E1588EE93E082
:102DB00024EF31E0F9013197F1F70197D9F76091EC
:102DC00000017091010180ED91E00E941E1588EED6
:102DD00093E024EF31E0F9013197F1F70197D9F74A
:102DE000609100017091010180ED91E00C941E153D
:102DF000CF92DF92EF92FF92809103018F5F8093D9
:102E00000301809103018C3320F0109203010E9492
:102E10009F160E94B207609100017091010189E440
:102E200092E00E941E1588EE93E024EF31E0F90154
:102E30003197F1F70197D9F7609100017091010185
:102E400088ED93E00E941E1588EE93E024EF31E0B8
:102E5000F9013197F1F70197D9F76091000170916D
:102E6000010188ED93E00E941E150E944E05BC01F1
:102E700080E090E00E941B2622E630E140E450E42E
:102E80000E942A2726EB33EF41EA50E40E942A27CA
:102E900020E030E040E859E30E942A276093E11DDA
:102EA0007093E21D8093E31D9093E41D83E291E112
:102EB0000E94DE236091E11D7091E21D8091E31D6F
:102EC0009091E41D0E942A148091E41D8F938091BB
:102ED000E31D8F938091E21D8F938091E11D8F936D
:102EE00081E491E19F938F938BE19EE19F938F9378
:102EF0000E94CD2A0E94B2070E94BD0787E491E19B
:102F00000E9419088BE19EE10E94190880E591E179
:102F10000E9419080E9436060E9474068093D71DED
:102F20002DB73EB7285F3F4F0FB6F8943EBF0FBE98
:102F30002DBF80FD11C08AE692E00E94DE230E9430
:102F4000D6069093D61D8093D51D0E940A2486EB49
:102F500099E10E94DE2308C084E591E10E94DE230E
:102F60000E9474068093D71D8091D61D8F93809107
:102F7000D51D8F9388E691E19F938F9385E49EE121
:102F80009F938F930E94CD2A8BE691E10E941908AE
:102F900085E49EE10E94190883E791E10E941908E7
:102FA000C090E11DD090E21DE090E31DF090E41D83
:102FB0000F900F900F900F900F900F9020E030E047
:102FC00040E751E4C701B6010E94252787FD03C0F1
:102FD00080EF9FEF36C020E030E040E651E4C701CB
:102FE000B6010E94252787FD03C080EE9FEF29C010
:102FF00020E030E040E551E4C701B6010E942527FA
:1030000087FD03C083EC9FEF1CC020E030E040E26E
:1030100051E4C701B6010E94252787FD03C087EC54
:103020009FE30FC020E030E040E251E4C701B60169
:103030000E94752587FF03C08FE99FEB02C08FE7D1
:103040009FE3FF90EF90DF90CF900C9474238091DA
:1030500002018F5F80930201809102018C3320F086
:10306000109202010E94F816609100017091010116
:103070008DE693E00E941E1584EF91E024EF31E08D
:10308000F9013197F1F70197D9F76091000170913B
:1030900001018DE093E00C941E1586B182FB882718
:1030A00080F98093141E86B183FB882780F9809372
:1030B000F31D8091141E811113C08091F31D88238C
:1030C00031F08091171E9091181E019605C08091D5
:1030D000171E9091181E01979093181E8093171E2B
:1030E000089586B1829581708093F21D86B185FB2B
:1030F000882780F98093E81D8091F21D811113C00B
:103100008091E81D811106C08091FB1D9091FC1DEE
:10311000019605C08091FB1D9091FC1D0197909335
:10312000FC1D8093FB1D08950E94B2070E94BD07FD
:1031300086E791E10E9419086091000170910101F8
:1031400086EB91E00E941E1584EF91E024EF31E0C0
:10315000F9013197F1F70197D9F76091000170916A
:10316000010186EB91E00E941E1584EF91E024EFAF
:1031700031E0F9013197F1F70197D9F7609100013A
:103180007091010186EB91E00E941E1580E197E2AB
:1031900024EF31E0F9013197F1F70197D9F782E88F
:1031A00091E10E94DE2384EA91E10E94DE2388EC13
:1031B00091E10E94DE23609100017091010186EB94
:1031C00091E00E941E1582EE91E10E94DE230E9492
:1031D000B2070E94BD0782EF91E10E9419080E9488
:1031E000632480930601609100017091010186EBD8
:1031F00091E00E941E158AEF91E10E94DE230E9459
:10320000B2070E94BD0788E092E10E9419080E945F
:10321000632480930501609100017091010186EBA8
:1032200091E00E941E158EE092E10E94DE230E9432
:10323000B2070E94BD078DE192E10E9419080E9429
:10324000632480930401609100017091010186EB79
:1032500091E00E941E1584E292E10E94DE230E940A
:10326000B2070E94BD0786E392E10E9419080E94FE
:10327000632480930301609100017091010186EB4A
:1032800091E00E941E1580E492E10E94DE230E94DC
:10329000B2070E94BD0782E592E10E941908609181
:1032A00000017091010186EB91E00E941E150E94C1
:1032B000632480930201609100017091010186EB0B
:1032C00091E00E941E151092D91D1092D81D86EB18
:1032D00099E10E94DE238CE592E10E94DE238FE8D3
:1032E00092E10E94DE230E94B2070E94BD0789EA94
:1032F00092E10E94190888E99AE324EF31E0F9018C
:103300003197F1F70197D9F70C94B2070E94B207F1
:103310000E94BD0781EB92E10E94190882EC92E1C4
:103320000E941908609100017091010183E194E00D
:103330000E941E15609100017091010181EA93E0E5
:103340000E941E15609100017091010189E492E0D4
:103350000E941E1582E891E10E94DE2384EA91E139
:103360000E94DE238AEC92E10E94DE2384E093E156
:103370000E94DE2380E197E224EF31E0F9013197EA
:10338000F1F70197D9F70E94B2070E94BD0784E2C6
:1033900093E10E9419080E94632480930E016091BA
:1033A00000017091010186EB91E00E941E158FE2F1
:1033B00093E10E94DE230E94B2070E94BD078BE5C5
:1033C00093E10E9419080E94632480930F01609189
:1033D00000017091010186EB91E00E941E1587E6C5
:1033E00093E10E94DE2380E197E224EF31E0F901CE
:1033F0003197F1F70197D9F70E94B2070E94BD07F4
:1034000088E893E10E9419080E94632480930B01CD
:10341000609100017091010186EB91E00E941E1500
:1034200085E993E10E94DE2380E197E224EF31E019
:10343000F9013197F1F70197D9F70E94B2070E947D
:10344000BD078BEB93E10E9419080E9463248093CF
:103450000D01609100017091010186EB91E00E94E5
:103460001E158AEC93E10E94DE2380E197E224EFAF
:1034700031E0F9013197F1F70197D9F70E94B207CE
:103480000E94BD0785EF93E10E9419088BE593E147
:103490000E9419080E94632480930C01609100012E
:1034A0007091010186EB91E00E941E1586E094E187
:1034B0000E94DE2380E197E224EF31E0F9013197A9
:1034C000F1F70197D9F70E94B2070E94BD0787E282
:1034D00094E10E9419080E94632480930A0160917C
:1034E00000017091010186EB91E00E941E1584E3BA
:1034F00094E10E94DE2380E197E224EF31E0F901BC
:103500003197F1F70197D9F70E94B2070E94BD07E2
:1035100083E694E10E94190884E794E10E94190867
:103520000E94632480930901609100017091010160
:1035300086EB91E00E941E1585E894E10E94DE234F
:1035400083EC94E10E94DE230E94B2070E94BD0733
:103550008EED94E10E94190889EA92E10E9419080F
:1035600088E99AE324EF31E0F9013197F1F7019707
:10357000D9F70C94B207609100017091010183E1C9
:1035800094E00E941E15609100017091010181EA92
:1035900093E00E941E15609100017091010189E481
:1035A00092E00E941E150E94B2070E94BD078AE4A5
:1035B00096E10E94190889E596E10E94DE2389E7D9
:1035C00096E10E94DE238BE996E10E94DE238DEBDB
:1035D00096E10E94DE231092FE1D1092FD1D809147
:1035E000FD1D9091FE1DC39740F584EE96E10E946B
:1035F000DE238091FD1D0E94F12383EE96E10E945F
:10360000DE236091FD1D7091FE1D80E090E00E9420
:1036100092050E94F12383EE96E10E94DE2386EB61
:1036200099E10E94DE238091FD1D9091FE1D01967F
:103630009093FE1D8093FD1DD2CF87EE96E10E94F0
:10364000DE238FE097E10E94DE230E94D723853698
:1036500001F1873739F580EA97E10E94DE230E9465
:1036600063248093E71D8EED97E10E94DE230E9484
:103670006324482F90E09093FE1D8093FD1D609180
:10368000E71D70E080E090E00E94AA0586EB99E1DA
:103690000BC08DE397E10E94DE230E94110683E8B0
:1036A00097E102C08BE198E10C94DE23EF92FF9248
:1036B0000F931F93CF93DF9362E070E080E090E080
:1036C0000E94C90590931A1E8093191E0E94BD077F
:1036D0000E94B20782E398E10E9419081F9285E0D8
:1036E0008F9388EB92E09F938F930E94450883E429
:1036F00098E10E94DE2385E00E94F12389E598E1AC
:103700000E94DE230F900F900F900F9080E090E0CA
:10371000DC0144EF51E085309105A105B10561F070
:1037200020E137E2FA013197F1F721503109D1F761
:103730000196A11DB11DEFCF8093F71D9093F81D49
:10374000A093F91DB093FA1D8091C00087FF10C0AF
:103750008091C6008D3661F481E08093161EC0E032
:10376000D0E00CE310E094EFE92EFF24F39406C0C0
:103770001092161EC0E0D0E00AC12C9A8091161E4D
:10378000882309F404C188E798E10E94DE230E949F
:10379000B2070E94BD078CEA98E10E94190860E018
:1037A00070E0CB010E94C905A0E0B0E08093ED1D60
:1037B0009093EE1DA093EF1DB093F01D85E892E06D
:1037C0000E94DE238091ED1D9091EE1D04970E94D2
:1037D0000A2481EC98E10E94DE2385E892E00E94B1
:1037E000DE238091191E90911A1E0E940A2487EDF3
:1037F00098E10E94DE2386EF98E10E94DE238AE1B1
:1038000099E10E94DE238FE399E10E94DE2384E6A2
:1038100099E10E94DE2388E899E10E94DE238FE986
:1038200099E10E94DE230E94D7238F3309F46AC0F6
:1038300038F48C3309F44BC08E3309F453C0A2C062
:10384000853609F466C0833709F47BC0843609F0F5
:1038500099C02C9883E00E947A0564E070E080E0D3
:1038600090E00E947F0584E090E0A0E0B0E08093CB
:10387000F71D9093F81DA093F91DB093FA1D409188
:10388000F71D5091F81D6091F91D7091FA1D8091FE
:10389000ED1D9091EE1DA091EF1DB091F01D481708
:1038A00059076A077B0708F068CF80E00E947A0515
:1038B0008EB50E945D098091F71D9091F81DA09131
:1038C000F91DB091FA1D0196A11DB11DD0CF4091F7
:1038D000191E50911A1E4A30510508F44FCF455019
:1038E00051090BC04091191E50911A1E483E8DEF90
:1038F000580708F043CF4B5F5F4F50931A1E409319
:10390000191E18C010931A1E0093191E4CE350E0A4
:1039100011C089EB99E10E94DE230E94110644E068
:1039200050E060E070E0CB010E94F0054091191E6C
:1039300050911A1E62E070E080E090E00E94F00575
:103940001DCF89EE99E10E94DE230E948724EC01BD
:1039500086EB99E10E94DE2386E09AE10E94DE2355
:103960000E94B2070E94BD078DE19AE10E941908EA
:1039700080E29EE4F7013197F1F70197D9F71092B1
:10398000161EFCCE8CE29AE10E94DE23F7CE0E9446
:10399000B2070E94BD0700E010E084EFE82EFF248C
:1039A000F39460E070E0CB010E94C905A0E0B0E0B4
:1039B0008093ED1D9093EE1DA093EF1DB093F01D2D
:1039C0000E94460780E90E945F0780E00E945F072F
:1039D0000E94460781E90E945F070E944F0780937B
:1039E000151E0E9457078093F11D0E944B070E94ED
:1039F000460780E90E945F0780E00E945F070E94FF
:103A0000460781E90E945F070E944F078093151EB9
:103A10000E9457078093F11D0E944B078091151E4D
:103A2000982F990F8091F11D881F8827881F892B57
:103A30008093131E0E945D096091ED1D7091EE1D33
:103A40008091EF1D9091F01D4091131E0E94AA05D8
:103A50004091ED1D5091EE1D6091EF1D7091F01D94
:103A60004F3F8FEF580761057105E0F00F5F1F4F63
:103A7000C017D10708F095CF8DE49AE10E94DE23AC
:103A80000E94B2070E94BD0787E69AE10E941908CA
:103A900088E79AE1DF91CF911F910F91FF90EF900E
:103AA0000C9419084F5F5F4F6F4F7F4F4093ED1D90
:103AB0005093EE1D6093EF1D7093F01D60E070E079
:103AC000CB010E94F0054091191E50911A1E60E032
:103AD00070E080E090E0DC0184179507A607B70747
:103AE00060F420E137E2F7013197F1F72150310915
:103AF000D1F70196A11DB11DEFCF8093F71D9093D3
:103B0000F81DA093F91DB093FA1DB0CF0E94B20723
:103B10000E94BD0783E89AE10E94190884E00E9490
:103B200036059093E61D8093E51D83E99AE10E9496
:103B3000DE238091431E9091441E0E940A2485EE4C
:103B400096E10E94DE2386E00E9436059093441E93
:103B50008093431E84EA9AE10E94DE238091E51D52
:103B60009091E61D0E940A248091E51D9091E61D2A
:103B70000E9487239B01AC01CB01DA018093E91DF0
:103B80009093EA1DA093EB1DB093EC1D5F934F93B0
:103B90003F932F9381E491E19F938F938FEF9DE16A
:103BA0009F938F930E94CD2A83EC9AE10E94DE239B
:103BB0008FEF9DE10E94DE238DB79EB708960FB66A
:103BC000F8949EBF0FBE8DBF88E39DE10C94DE2369
:103BD000EF920F930E94B2070E94BD0785ED9AE114
:103BE0000E9419089BB184E089278BB984E00E9468
:103BF00036059093E61D8093E51D83E99AE10E94C6
:103C0000DE238091431E9091441E0E940A2485EE7B
:103C100096E10E94DE2386E00E9436059093441EC2
:103C20008093431E84EA9AE10E94DE238091E51D81
:103C30009091E61D0E940A248091E51D9091E61D59
:103C40000E9487239B01AC01CB01DA018093E91D1F
:103C50009093EA1DA093EB1DB093EC1D5F934F93DF
:103C60003F932F9381E491E19F938F938FEF9DE199
:103C70009F938F930E94CD2A83EC9AE10E94DE23CA
:103C80008FEF9DE10E94DE2388E39DE10E94DE2309
:103C90000E94CB236091FB1D7091FC1D8091171E2B
:103CA0009091181E0E94F51485EE96E10E94DE2385
:103CB000E09002010091030120910401409105016F
:103CC0006091060180910701909108010E94CA133A
:103CD0008DB79EB708960FB6F8949EBF0FBE8DBFE6
:103CE00088E39DE10F91EF900C94DE238091C0005A
:103CF00087FF11C1E091C6008E2F90E0FC01B397C1
:103D0000E435F10508F0F1C0EA5BFF4F0C94FF24A5
:103D10000C9494180C94861960910E0180E992E03D
:103D200004C060910E0183EA92E00C94A3096091B3
:103D30000E018EE992E0F9CF60910E0188E992E0E0
:103D4000F4CF60E08CEA92E00E94A309E2C06FEF3A
:103D500080910F0104C080910F016FEF81950C9449
:103D6000A72386E20C94BF1080910B010C94ED10F8
:103D700086E20C94D3108FEF9FEF0E94742386EE9F
:103D80009AE1A4C080E090E00E9474238BEF9AE156
:103D90009DC00C94D60C80910D010C94270D809140
:103DA0000D010C947E0D80910D010C94AB0D809152
:103DB0000D010C942F0E80910D010C945C0E8091DE
:103DC0000D010C94E00E80910D010C940D0F80916B
:103DD0000D010C94D80D80910D010C94890E8091E9
:103DE0000D010C94E40F80910D010C943B10809117
:103DF0000D010C943A0F80910D010C948D0F809160
:103E00000D010C94921080910D010C94F31080918F
:103E10000A010C94331380910A010C941F138091B2
:103E20000A010C940B1380910A010C94F7128091F3
:103E300009010C946F13809109010C9483138091F4
:103E400009010C944713809109010C945B138EE1D6
:103E50000C94971380910C010C94CF1280910C015B
:103E60000C94E31280910C010C94A71280910C0128
:103E70000C94BB1283E20C945F1183E20C94031246
:103E800083E20C94B11183E20C94551280910D01E0
:103E90000C946D0F0C94561B0C94BB1A0C94861D3D
:103EA0000E9436060E9474068093D71D80FD10C0C4
:103EB0008AE692E00E94DE230E94D6069093D61DE9
:103EC0008093D51D0E940A2486EB99E10C94DE2391
:103ED00084E591E10E94DE230E9474068093D71D41
:103EE00008950C94E81D0C94381581E19BE10E9423
:103EF000DE23609100017091010186EB91E00E9448
:103F00001E1560910001709101018EE991E00E94FF
:103F10001E150C94CB2308951F920F920FB60F928B
:103F200011248F939F938091D81D9091D91D019654
:103F30009093D91D8093D81D9F918F910F900FBEA4
:103F40000F901F9018951F920F920FB60F92112489
:103F50000BB60F928F939F93EF93FF93E091E01D29
:103F600080911001E80FE770E093E01DF0E0E55369
:103F7000F24E808185B9E091E01DF0E0E553F24E0C
:103F8000808188B98091DE1D9091DF1D019690930C
:103F9000DF1D8093DE1DFF91EF919F918F910F9018
:103FA0000BBE0F900FBE0F901F9018951F920F928F
:103FB0000FB60F9211240BB60F922F933F934F938E
:103FC0005F936F937F938F939F93AF93BF93EF9381
:103FD000FF930E944D180E947118FF91EF91BF91BD
:103FE000AF919F918F917F916F915F914F913F9191
:103FF0002F910F900BBE0F900FBE0F901F90189532
:1040000018950E94920986E39BE10E94DE230E949C
:104010006B0589E59BE10E94DE230E9435078BE753
:104020009BE10E94DE230E94C4078EE99BE10E946F
:10403000DE2384B5826084BD85B5856085BD8FEF44
:1040400087BD80EC9BE10E94DE238091800081602F
:1040500080938000809181008360809381008091B3
:104060008000806A8093800080916F0081608093DF
:104070006F0086EE9BE10E94DE238091B00081609C
:104080008093B0008091B10084608093B1008091F2
:10409000B000806A8093B0008CE09CE10E94DE2337
:1040A0008091910081608093910082E39CE10E9465
:1040B000DE2380917C00806480937C0080917A0074
:1040C000866080937A0080917A00806880937A007D
:1040D00088E59CE10E94DE238091680084608093E3
:1040E000680080916D00846080936D008AE79CE198
:1040F0000E94DE230E942C0580917E00806F8093B9
:104100007E0088B18C6388B981B1836081B981B147
:104110008C6081B984B1836084B987B1806C87B9C0
:10412000239A529A78948DE99CE10E94DE2382EDD5
:104130009CE10E94DE2386E09DE10E94DE2382E670
:1041400095E00E94DE2386E995E00E94DE2382E668
:1041500095E00E94DE238BEC95E00E94DE2382E650
:1041600095E00E94DE238FEF95E00E94DE2384E23B
:1041700096E00E94DE238AE596E00E94DE2388E82E
:1041800096E00E94DE238EEB96E00E94DE2389EF0C
:1041900096E00E94DE2386E297E00E94DE2389E417
:1041A00097E00E94DE238AE797E00E94DE2382E602
:1041B00095E00E94DE238BE997E00E94DE2382E6F1
:1041C00095E00E94DE238FEC97E00E94DE2381EFD2
:1041D00097E00E94DE238BE198E00E94DE2389E3D2
:1041E00098E00E94DE2388E598E00E94DE2382E6C4
:1041F00095E00E94DE2388E798E00E94DE2382E6B5
:1042000095E00E94DE238CEA98E00E94DE238AEC8F
:1042100098E00E94DE2389EE98E00E94DE2385E08C
:1042200099E00E94DE2387E299E00E94DE2385E484
:1042300099E00E94DE238BE699E00E94DE2380E96C
:1042400099E00E94DE2382E695E00E94DE238AEC5C
:1042500099E00E94DE2382E695E00E94DE238EEF45
:1042600099E00E94DE2389E39AE00E94DE238AEA35
:104270009AE00E94DE238BE19BE00E94DE2389E529
:104280009BE00E94DE238CE79BE00E94DE2385EA10
:104290009BE00E94DE238EEC9BE00E94DE2381E007
:1042A0009CE00E94DE2384E39CE00E94DE2383E600
:1042B0009CE00E94DE2381E99CE00E94DE2385ECE5
:1042C0009CE00E94DE238AEF9CE00E94DE2389E2CC
:1042D0009DE00E94DE2388E59DE00E94DE2387E8C2
:1042E0009DE00E94DE2383EB9DE00E94DE2380EEB2
:1042F0009DE00E94DE238DE09EE00E94DE238BE3A2
:104300009EE00E94DE238CE79EE00E94DE238DEB80
:104310009EE00E94DE238EEF9EE00E94DE2382E676
:1043200095E00E94DE238FE39FE00E94DE2382E679
:1043300095E00E94DE2383E79FE00E94DE2388EA67
:104340009FE00E94DE238DED9FE00E94DE2382E14C
:1043500090E10E94DE2387E490E10E94DE238EE755
:1043600090E10E94DE2385EB90E10E94DE238CEE3B
:1043700090E10E94DE2382E695E00E94DE238CE33A
:104380009DE10E94DE230E9446070E94C40787EA3F
:10439000E82E8DE1F82ECBEBDDE1870194EFC92EFD
:1043A000DD24D3940E94BD0783E59DE10E94190896
:1043B00084E69DE10E94190880E090E00E94742349
:1043C0006091000170910101F801819191918F013B
:1043D0000E941E1584EF91E0F6013197F1F70197E5
:1043E000D9F7C017D107F1F60E94B20700E513EC28
:1043F0000E94BD0784E79DE10E9419088FEF9FEF9F
:104400000E9474236091000170910101888199815B
:104410000E941E15C8010197F1F72297EC16FD06C0
:1044200039F70E94B207CCE0D0E004EF11E00E941F
:10443000BD0784E89DE10E94190885E99DE10E947D
:10444000190880E090E00E9474236091000170914F
:10445000010188ED93E00E941E1588EE93E0F801BB
:104460003197F1F70197D9F760910001709101013F
:104470008DE693E00E941E158FEF9FEF0E9474233C
:104480002197A9F60E94B2070E944B07C0E5D0E031
:1044900008EB18E8BE010D2E000C880B990B0E944A
:1044A0001D26AB01BC0180E00E94F122C8010197EA
:1044B000F1F72196CE3BD10569F762E370E080EA1F
:1044C0000E94782221E042E36AE08EE00E94FB092C
:1044D0008091D81D9091D91D843C944031F4109264
:1044E000D91D1092D81D0E9427180E94761EF0CF69
:1044F000EF92FF921F93CF93DF931F92CDB7DEB75A
:10450000182F7B017093511E6093501E80934F1E95
:104510000E944607812F0E945F0780E00E945F078C
:1045200081E30E945F070E944B07B70180E090E0A3
:104530000E941B2620E030E040E855E40E942A2734
:104540002FE135E84BE65FE30E942A279B01AC018F
:1045500060E27CEB8EEB9BE40E947A2520E030E069
:1045600040E85FE30E9408250E94EC2569830E94D1
:104570004607812F0E945F078EEF0E945F078981A7
:104580000E945F070E944B0787E893E10197F1F7CC
:1045900000C000000E944607812F0E945F0780E054
:1045A0000E945F0781EA0E945F070E944B0787E82D
:1045B00093E10197F1F700C000000E944607812FA8
:1045C0000E945F0781E00E945F0784E00E945F070E
:1045D0000E944B070F90DF91CF911F91FF90EF90BA
:1045E0000895CF92DF92EF92FF92CF93C82F6A0186
:1045F0007B0120E030E04AEF52E4C701B6010E949F
:10460000252718168CF020E030E04AEF52ECC70165
:10461000B6010E94752587FF0DC0C12CD12C9AEFE1
:10462000E92E92ECF92E06C0C12CD12C8AEFE82E8F
:1046300082E4F82E25E535E545ED50E4C701B601E5
:104640000E942A2720E030E84BEB54E40E94092521
:104650000E94EC2580E090E00E941B266B017C010B
:104660006091501E7091511E80E090E00E941B26C8
:104670009B01AC0160E074E284E799E40E947A2532
:104680000E94EC2580E090E00E941B269B01AC017B
:10469000C701B6010E947A2520E030E040E855E4E9
:1046A0000E942A270E94EC257B010E9446078091E8
:1046B0004F1E0E945F078C2F880F880F8A5F0E9411
:1046C0005F0780E00E945F0780E00E945F078E2DF9
:1046D0000E945F078F2D0E945F07CF91FF90EF90A0
:1046E000DF90CF900C944B07CF93DF93D82FC92F37
:1046F0000E94460780E40E945F078D2F0E945F079B
:104700008C2F0E945F07DF91CF910C944B07BC0167
:1047100080E090E00E941B2629E23CE54FE65FEB3B
:104720000E94972722E538E646E256E40E942A27AF
:1047300020E030E040E251E40E9408256093DA1D59
:104740007093DB1D8093DC1D9093DD1D089518167A
:1047500024F492E09093100104C09EEF9093100116
:10476000819567BD1092DF1D1092DE1D90916E0045
:10477000926090936E00082E000C990B2091DE1D24
:104780003091DF1D82179307C9F780916E008D7FEE
:1047900080936E0008952898299846984798089520
:1047A0009091C00095FFFCCF8093C6000895809142
:1047B000C00087FFFCCF8091C60008950F931F9320
:1047C000CF938C01C0E0F801EC0FF11D80818823AC
:1047D00021F00E94D023CF5FF6CFCF911F910F9190
:1047E0000895CF93C82F64E60E94DF24805D0E9465
:1047F000D0232AE08C2F622F0E94DF24C92F0E9431
:10480000DF2480E3890F0E94D02380E38C0FCF91B7
:104810000C94D0230F931F93CF93DF938C0160E10F
:1048200077E20E94EB2480E3860F0E94D023C80128
:1048300068EE73E00E94EB24CB01CAE0D0E0BE0139
:104840000E94EB24805D0E94D023C80164E670E0E2
:104850000E94EB24CB01BE010E94EB24805D0E94EC
:10486000D023C801BE010E94EB24182FCB01BE014A
:104870000E94EB24805D0E94D02380E3810FDF91B2
:10488000CF911F910F910C94D0231F93CF93DF935F
:104890001F92CDB7DEB7898317E0898190E0012EA2
:1048A00002C0959587950A94E2F780FF02C081E3E4
:1048B00001C080E30E94D023115078F70F90DF9160
:1048C000CF911F9108950F931F93CF93DF93D0E360
:1048D000C0E310E30E94D723082F0E94D0230D309D
:1048E00021F01C2FCD2FD02FF5CF1053D05384E6BD
:1048F000189FD00D1124CC0FC0568C2F880F880F15
:104900008C0F8D0FDF91CF911F910F910895EF9232
:10491000FF920F931F93CF93DF9300E3C0E3D0E3A5
:1049200010E380E3F82E0E94D723E82E0E94D023C4
:104930008DE0E81631F0F12E1D2FDC2FC02F0E2D4B
:10494000F2CF2F2D30E02053310980E197E2289FEC
:10495000A001299F500D389F500D1124212F30E0C8
:104960002053310968EE73E0269FC001279F900D08
:10497000369F900D1124840F951F2D2F30E020536A
:10498000310964E6629FA001639F500D1124840FDA
:10499000951F2C2F30E0205331096AE0629FA0015F
:1049A000639F500D1124840F951F800F911DC09798
:1049B000DF91CF911F910F91FF90EF900895991B78
:1049C00079E004C0991F961708F0961B881F7A9506
:1049D000C9F780950895AA1BBB1B51E107C0AA1F08
:1049E000BB1FA617B70710F0A61BB70B881F991F90
:1049F0005A95A9F780959095BC01CD010895EE0FC9
:104A0000FF1F0024001C0BBE0790F691E02D0994B7
:104A10005058BB27AA270E9420250C94D3260E9419
:104A2000C52638F00E94CC2620F039F49F3F19F4B7
:104A300026F40C94C2260EF4E095E7FB0C94932622
:104A4000E92F0E94E42658F3BA1762077307840718
:104A5000950720F079F4A6F50C941E270EF4E09546
:104A60000B2EBA2FA02D0B01B90190010C01CA0128
:104A7000A0011124FF27591B99F0593F50F4503ED3
:104A800068F11A16F040A22F232F342F4427585FC5
:104A9000F3CF469537952795A795F0405395C9F7DD
:104AA0007EF41F16BA0B620B730B840BBAF0915095
:104AB000A1F0FF0FBB1F661F771F881FC2F70EC034
:104AC000BA0F621F731F841F48F487957795679507
:104AD000B795F7959E3F08F0B0CF9395880F08F0F3
:104AE0009927EE0F9795879508950E946F2608F4F1
:104AF00081E008950E948E250C94D3260E94CC2636
:104B000058F00E94C52640F029F45F3F29F00C942C
:104B1000932651110C941F270C94C2260E94E42660
:104B200068F39923B1F3552391F3951B550BBB27DC
:104B3000AA2762177307840738F09F5F5F4F220F21
:104B4000331F441FAA1FA9F335D00E2E3AF0E0E818
:104B500032D091505040E695001CCAF72BD0FE2F62
:104B600029D0660F771F881FBB1F261737074807F6
:104B7000AB07B0E809F0BB0B802DBF01FF279358AE
:104B80005F4F3AF09E3F510578F00C9493260C94B9
:104B90001F275F3FE4F3983ED4F38695779567959A
:104BA000B795F7959F5FC9F7880F911D96958795E3
:104BB00097F90895E1E0660F771F881FBB1F621702
:104BC00073078407BA0720F0621B730B840BBA0BC0
:104BD000EE1F88F7E09508950E94EC2688F09F5715
:104BE00098F0B92F9927B751B0F0E1F0660F771F11
:104BF000881F991F1AF0BA95C9F714C0B13091F007
:104C00000E941E27B1E008950C941E27672F782F6D
:104C10008827B85F39F0B93FCCF3869577956795CB
:104C2000B395D9F73EF490958095709561957F4F37
:104C30008F4F9F4F0895E89409C097FB3EF49095DD
:104C40008095709561957F4F8F4F9F4F9923A9F065
:104C5000F92F96E9BB279395F695879577956795F4
:104C6000B795F111F8CFFAF4BB0F11F460FF1BC038
:104C70006F5F7F4F8F4F9F4F16C0882311F096E9CB
:104C800011C0772321F09EE8872F762F05C0662379
:104C900071F096E8862F70E060E02AF09A95660F32
:104CA000771F881FDAF7880F9695879597F90895EB
:104CB0000E94062790F09F3748F4911116F00C944B
:104CC0001F2760E070E080E89FEB089526F41B1634
:104CD000611D711D811D0C9499260C94B426990FA9
:104CE0000008550FAA0BE0E8FEEF16161706E807B6
:104CF000F907C0F012161306E407F50798F0621BD7
:104D0000730B840B950B39F40A2661F0232B242BAB
:104D1000252B21F408950A2609F4A140A6958FEFCA
:104D2000811D811D089597F99F6780E870E060E01C
:104D30000895882371F4772321F09850872B762FDC
:104D400007C0662311F499270DC09051862B70E09F
:104D500060E02AF09A95660F771F881FDAF7880FB0
:104D60009695879597F908959F3F31F0915020F4DB
:104D7000879577956795B795880F911D9695879537
:104D800097F908959FEF80EC089500240A94161671
:104D9000170618060906089500240A941216130629
:104DA000140605060895092E0394000C11F48823B7
:104DB00052F0BB0F40F4BF2B11F460FF04C06F5FD3
:104DC0007F4F8F4F9F4F089557FD9058440F551FA9
:104DD00059F05F3F71F04795880F97FB991F61F07D
:104DE0009F3F79F087950895121613061406551FF4
:104DF000F2CF4695F1DF08C0161617061806991F60
:104E0000F1CF869571056105089408950E94EC26FE
:104E1000A0F0BEE7B91788F4BB279F3860F41616D8
:104E2000B11D672F782F8827985FF7CF86957795E4
:104E30006795B11D93959639C8F30895E894BB27FB
:104E400066277727CB0197F908950E946F2608F40B
:104E50008FEF08950E943D270C94D3260E94C5260B
:104E600038F00E94CC2620F0952311F00C94932664
:104E70000C94C22611240C941F270E94E42670F380
:104E8000959FC1F3950F50E0551F629FF001729FEF
:104E9000BB27F00DB11D639FAA27F00DB11DAA1FFE
:104EA000649F6627B00DA11D661F829F2227B00D4B
:104EB000A11D621F739FB00DA11D621F839FA00DD6
:104EC000611D221F749F3327A00D611D231F849F26
:104ED000600D211D822F762F6A2F11249F5750407D
:104EE0009AF0F1F088234AF0EE0FFF1FBB1F661FF8
:104EF000771F881F91505040A9F79E3F510580F0C1
:104F00000C9493260C941F275F3FE4F3983ED4F350
:104F1000869577956795B795F795E7959F5FC1F764
:104F2000FE2B880F911D9695879597F90895FA01A4
:104F3000EE0FFF1F309621053105A1F161157105B6
:104F400061F48038BFE39B0749F16894903881058C
:104F500061F08038BFEF9B0741F099234AF5FF3F8E
:104F6000E1053105210519F1E8940894E795D90187
:104F7000AA2329F4AB2FBE2FF85FD0F310C0FF5F38
:104F800070F4A695E0F7F73950F019F0FF3A38F4CD
:104F90009F779F930DD00F9007FC9058089546F08F
:104FA0000C94C22660E070E080E89FE308954FE72C
:104FB0009F775F934F933F932F930E94B6282F9133
:104FC0003F914F915F910E942A270C9413280E94D1
:104FD000EC26E8F09E37E8F09639B8F49E3848F4AD
:104FE000672F782F8827985FF9CF869577956795F3
:104FF00093959539D0F3B62FB1706B0F711D811D4C
:1050000020F487957795679593950C9499260C9441
:10501000B4260C941F2729F416F00C9493260C94B4
:105020001E270C94C2260E94EC26A8F39638A0F7FF
:1050300007F80F92E8942BE33AEA48EB5FE70E9407
:1050400040270F920F920F924DB75EB70F920E94BA
:10505000FE28E4E3F1E00E9445284F915F91EF9133
:10506000FF91E595EE1FFF1F49F0FE57E0684427CA
:10507000EE0F441FFA95E1F74195550B0E947828F1
:105080000F9007FE0C946C280895DF93CF931F9325
:105090000F93FF92EF92DF927B018C01689406C020
:1050A000DA2EEF010E943D27FE01E894A59125919B
:1050B000359145915591A6F3EF010E942025FE01FF
:1050C0009701A801DA9469F7DF90EF90FF900F91B4
:1050D0001F91CF91DF9108959B01AC0160E070E0DA
:1050E00080E89FE30C947A250C9493260C94B426C4
:1050F0000E94EC26D8F39923C9F3940F511DA3F312
:105100009150504094F059F0882332F0660F771F89
:10511000881F91505040C1F79E3F51052CF7880FD2
:10512000911D9695879597F908955F3FACF0983E4D
:105130009CF0BB27869577956795B79508F4B16085
:105140009395C1F7BB0F58F711F460FFE8CF6F5F7D
:105150007F4F8F4F9F4FE3CF0C941F2716F00C9477
:10516000B4260C94C22668940C9493260E94EC26D4
:10517000A8F39923C1F3AEF3DF93CF931F930F935B
:10518000FF92C92FDD2788232AF02197660F771F0A
:10519000881FDAF720E030E040E85FEB9FE38839D2
:1051A00020F0803E38F021968F770E940925ECE5AB
:1051B000F1E004C00E940925E9E8F1E00E944528D9
:1051C0008B01BE01EC01FB2E6F5771097595771F9E
:1051D000880B990B0E941D2628E132E741E35FE32B
:1051E0000E943D27AF2D9801AE01FF900F911F91B6
:1051F000CF91DF910E9420250C94D326FA01DC0187
:10520000AA0FBB1F9B01AC01BF5728F422273327ED
:105210004427507820C0B75190F4AB2F0024469516
:1052200037952795011CA395D2F3002071F0220F2A
:10523000331F441FB395DAF30ED00C940825613068
:105240007105A0E88A07B94630F49B01AC016627D6
:10525000772788279078309621F020833183428306
:1052600053830895FC0188279927E89421912032DF
:10527000E9F3293010F02E30C8F32B3241F02D32F3
:1052800039F4689404C00E946F2A820F911D219105
:1052900020532A30C0F31EF4909581959F4F0895B6
:1052A000283008F027E03327DA01990F311D87FDF8
:1052B000916000966105710539F432602E5F3D936F
:1052C00030E32A95E1F708959F3F30F0803871056B
:1052D000610509F03C5F3C5F3D93913008F08068C8
:1052E000911DDF93CF931F930F93FF92EF92192F8E
:1052F000987F9695E92F96959695E90FFF27E85E9A
:10530000FD4F99273327EE24FF24A701E7010590DD
:105310000894079428F4360FE71EF81E491F511D04
:10532000660F771F881F991F0694A1F705900794B1
:1053300028F4E70EF81E491F561FC11D770F881F5E
:10534000991F661F0694A1F70590079428F4F80E9C
:10535000491F561FC71FD11D880F991F661F771F32
:105360000694A1F70590079420F4490F561FC71F14
:10537000D81F990F661F771F881F0694A9F784917D
:105380001095177041F0D695C79557954795F794A6
:10539000E7941A95C1F7EEEBF1E06894159015913A
:1053A00035916591959105907FE27395E118F10A29
:1053B000430B560BC90BD009C0F7E10CF11E431F7C
:1053C000561FC91FD01D7EF4703311F48A95E6CFA5
:1053D000E894015030F0080F0AF40027021708F48F
:1053E000202F2395022F7A3328F079E37D932A9595
:1053F000E9F710C07D932A9589F6069497956795ED
:10540000379517951794E118F10A430B560BC90B02
:10541000D00998F023957E9173957A3308F070E364
:105420007C932013B8F77E9170617D9330F0839563
:1054300071E37D9370E32A95E1F71124EF90FF90DB
:105440000F911F91CF91DF91992787FD9095089536
:10545000FC010590615070400110D8F7809590953F
:105460008E0F9F1F0895FB01DC010D900020E9F7CE
:10547000119701900D920020E1F70895FB01DC01E6
:105480008D91019080190110D9F3990B0895FB01BA
:10549000DC0101900D920020E1F70895FC016150BC
:1054A000704001900110D8F7809590958E0F9F1F46
:1054B00008954532510520F4423010F00C94642ACE
:1054C000FB011082CB010895BB274A3031F49923A8
:1054D00022F4BDE2909581959F4F0C94782A7AE052
:1054E000979F902D879F802D910D11240895BB27A4
:1054F000FB015527AA27880F991FAA1FA41710F090
:10550000A41B83955051B9F7A05DAA3308F0A95D9B
:10551000A193009779F7B111B1931192CB010C943B
:105520005A2B0F931F93CF93DF93FB01238121FD10
:1055300003C08FEF9FEF2CC022FF16C0468157811A
:10554000248135814217530744F4A081B1819D0124
:105550002F5F3F4F318320838C93268137812F5FCC
:105560003F4F3783268314C08B01EC01FB0100847D
:10557000F185E02D0995892BE1F6D80116968D91DC
:105580009C911797019617969C938E931697CE0130
:10559000DF91CF911F910F9108950F931F93CF9398
:1055A000DF93CDB7DEB72E970FB6F894DEBF0FBEF0
:1055B000CDBF0D891E8986E08C831A8309838FEF06
:1055C0009FE79E838D83AE01475E5F4F6F89788D25
:1055D000CE0101960E948601EF81F885E00FF11F50
:1055E00010822E960FB6F894DEBF0FBECDBFDF91AE
:1055F000CF911F910F910895FA01AA27283051F1F8
:10560000203181F1E8946F936E7F6E5F7F4F8F4FF3
:105610009F4FAF4FB1E03ED0B4E03CD0670F781F52
:10562000891F9A1FA11D680F791F8A1F911DA11D37
:105630006A0F711D811D911DA11D20D009F4689470
:105640003F912AE0269F11243019305D3193DEF618
:10565000CF010895462F4770405D4193B3E00FD0CE
:10566000C9F7F6CF462F4F70405D4A3318F0495DB9
:1056700031FD4052419302D0A9F7EACFB4E0A6959C
:105680009795879577956795BA95C9F700976105BE
:10569000710508959B01AC010A2E06945795479514
:1056A00037952795BA95C9F7620F731F841F951F09
:1056B000A01D0895DC01FC01672F71917723E1F7AC
:1056C000329704C07C916D9370836291AE17BF07CF
:0856D000C8F30895F894FFCF20
:1056D8000078191E0C050BE6071414141414961EF2
:1056E8000269737375696E672061646472657373A8
:1056F800202B20777269746520626974203E3E20F1
:105708006F6B212C2064657669636520616363652E
:10571800737369626C650D0A0072656769737465F5
:10572800722030783030206164647265737320733E
:10573800656E74203E3E206F6B210D0A0077726FF4
:105748007465203078303420746F2072656769730F
:1057580074657220307830300D0A0072656769739D
:1057680074657220307830312061646472657373B7
:105778002073656E74203E3E206F6B210D0A006910
:1057880020616D20686572650069737375696E675D
:105798002061646472657373202B207265616420D4
:1057A800626974203E3E206F6B212C206465766907
:1057B80063652061636365737369626C65202D2D71
:1057C8002D2D2D2D0D0A000D0A4C494441522D5303
:1057D8005441545553203D200072656769737465C0
:1057E8007220307838462061646472657373207360
:1057F800656E74203E3E206F6B210D0A006973733D
:1058080075696E672061646472657373202B2072FA
:1058180065616420626974203E3E206F6B212C20F4
:105828006465766963652061636365737369626C37
:1058380065202A2A2A2A2A0D0A0064697374616E6F
:105848006365203D20002569002E350D0A002E35A0
:1058580000202020202020002E300D0A002E3000AD
:10586800666F7277617264007269676874006C654C
:105878006674006261636B77617264006272616B67
:105888006500726F626F2D64726976653A20576899
:1058980061743F202E2E2E000D0A6D6F76655F53C2
:1058A8006572766F5F42696469726563743A2069EC
:1058B8006E76616C696420617267756D656E74736C
:1058C80020C2AF5C28C2B05F6F292FC2AF000D0A9B
:1058D80020726F626F4472697665203E3E20536580
:1058E80072766F202D2D2D2D2D2D2D2D2D2D2D3E0C
:1058F800003C2D2D2D206973206D6F7665642E0078
:105908000D0A204652414D20617420616464722062
:10591800002073746F7265732000203C2D2D2D209C
:105928006E657720616E676C65000D0A3E3E2063E8
:105938007573746F6D206D656368612D61726D207C
:105948006D6F76656D656E7420706172616D6574DA
:105958006572733A000D0A656E746572207365721C
:10596800766F204E72203E3E205B302D31345D3AFA
:1059780020000D0A656E7465722074617267657423
:1059880020616E676C65205B302D3132355D3A20C1
:10599800000D0A656E7465722064697265637469C6
:1059A8006F6E205B2B206F72203020666F72206133
:1059B8006E7469636C6F636B776973652C202D2037
:1059C8006F72203120666F7220636C6F636B77692A
:1059D80073655D3A200D0A00090920706F736974B8
:1059E8006976652C20616E7469636C6F636B776987
:1059F8007365000909206E656761746976652C20F6
:105A0800636C6F636B776973650009092064697259
:105A1800656374696F6E20756E7265636F676E6912
:105A28007A65642C2061626F7274206279207365D4
:105A38007474696E6720736572766F2049442074A8
:105A48006F203130302E000D0A656E746572207338
:105A58006572766F207370656564203E3E205B300A
:105A68002D3235355D3A20000D0A656E7465722059
:105A7800736572766F20616363656C6572617469C2
:105A88006F6E203E3E205B302D3235355D3A20006A
:105A98000D0A6D6F76655F536572766F5F42696454
:105AA80069726563742065786563757465642E0032
:105AB8007363616E6E6572206D696E696D616C20CD
:105AC80076616C75653A2000596561723A20004D1F
