:100000000C9465010C9484010C9484010C9484017B
:100010000C9484010C9484010C94B5200C948401FC
:100020000C9484010C9484010C9484010C9484013C
:100030000C9484010C9484010C9484010C946B2026
:100040000C9482200C9484010C9484010C948401FF
:100050000C9484010C9484010C9484010C9484010C
:100060000C94DF200C9484010C9484010C94840182
:100070000C9484010C9484010C9484010C948401EC
:100080000C9484010C9484010C948401AC1F5420C2
:1000900054205420542054205420A31FE41FD81F60
:1000A000E01FDC1F9C1F991FCC1FD01FD41F8C1F6B
:1000B000951F881FB01F921FB41F54205420542036
:1000C0005420542054205420781F2720F81F7D1FCF
:1000D0002D202B2054205220542054205420B81F6F
:1000E000042000206B1F08202F20BC1F721F691FD7
:1000F0005020FC1F6D1F821F5420292054205420A3
:100100005420542054205420C01F54200B20E81F9A
:100110001B20EC1F5420F01F5420F41FC81FC41FC5
:10012000172013202120242054201E205420AA1FF1
:1001300054200F2007634236B79BD8A71A39685658
:1001400018AEBAAB558C1D3CB7CC5763BD6DEDFDF9
:10015000753EF6177231BF000000803F08000000B6
:10016000BE922449123EABAAAA2ABECDCCCC4C3EAC
:1001700000000080BEABAAAAAA3E00000000BF009B
:100180000000803F0000000000084178D3BB438797
:10019000D1133D190E3CC3BD4282AD2B3E68EC82AB
:1001A00076BED98FE1A93E4C80EFFFBE01C4FF7F30
:1001B0003F00000000006E616E00696E6600004046
:1001C0007A10F35A00A0724E18090010A5D4E80066
:1001D00000E87648170000E40B54020000CA9A3B7E
:1001E000000000E1F5050000809698000000404204
:1001F0000F000000A0860100000010270000000092
:10020000E803000000006400000000000A00000095
:1002100000000100000000002C76D888DC674F0841
:1002200023DFC1DFAE59E1B1B796E5E3E453C63A47
:10023000E651997696E8E6C28426EB898C9B62EDBE
:10024000407C6FFCEFBC9C9F40F2BAA56FA5F49078
:10025000055A2AF75C936B6CF9676DC11BFCE0E4EF
:100260000D47FEF520E6B500D0ED902E0300943545
:1002700077050080841E080000204E0A000000C898
:100280000C333333330F986E12831141EF8D2114E9
:10029000893BE65516CFFEE6DB18D1844B381BF7B9
:1002A0007C1D901DA4BBE424203284725E22810058
:1002B000C9F124ECA1E53D272569207365632E2053
:1002C000666F72206D656E75000011241FBECFEF42
:1002D000D0E4DEBFCDBF1FE1A0E0B1E0E0EFFDE57F
:1002E00000E00BBF02C007900D92AE3DB107D9F7F9
:1002F00020E2AEEDBFE101C01D92AC36B207E1F7DE
:100300000E94E0200C94F62E0C9400002F923F9255
:100310004F925F926F927F928F929F92AF92BF9215
:10032000CF92DF92EF92FF920F931F93CF93DF93C1
:10033000CDB7DEB760970FB6F894DEBF0FBECDBF66
:100340007C011B016A01FC0117821682838181FFF7
:1003500044C39E012F5F3F4F3901F7019381F101A3
:1003600093FD859193FF81911F01882309F431C387
:10037000853239F493FD859193FF81911F01853278
:1003800039F4B70190E00E941D2E56016501E5CFBA
:1003900010E0512C912CFFE1F915D8F08B3279F057
:1003A00038F4803279F08332A1F4F92DF0612EC057
:1003B0008D3261F0803369F4292D21602DC0392DF3
:1003C0003260932E892D8460982E2AC0E92DE86032
:1003D00015C097FC2DC020ED280F2A3088F496FE1A
:1003E00006C03AE0139F200D1124122F19C08AE095
:1003F000589E200D1124522EE92DE0629E2E10C031
:100400008E3231F496FCE5C2F92DF0649F2E08C0BF
:100410008C3621F4292D2068922E02C0883641F4B2
:10042000F10193FD859193FF81911F018111B3CF5C
:100430009BEB980F933020F4992D9061805E07C05C
:100440009BE9980F933008F066C1992D9F7E96FF27
:1004500016E09F73992E853619F49064992E08C082
:10046000863621F4392F3068932E02C011111150B5
:1004700097FE07C01C3350F444244394410E27E0F8
:100480000BC0183038F027E017E005C027E09CE3E8
:10049000492E02C0212F412C560184E0A80EB11C28
:1004A000F6016081718182819381042DA3010E94F4
:1004B000DC2C6C01F981FC87F0FF02C0F3FF06C061
:1004C00091FC06C092FE06C000E205C00DE203C02A
:1004D0000BE201C000E08C858C7019F001115AC24A
:1004E0009BC297FE10C04C0CFC85F4FF04C08A81AF
:1004F000813309F44A94141474F528E0241578F52E
:1005000088E0482E2CC096FC2AC0812F90E08C15E4
:100510009D059CF03CEFC3163FEFD30674F0892D88
:100520008068982E0AC0E2E0F0E0EC0FFD1FE10FBA
:10053000F11D8081803319F411501111F4CF97FE11
:100540000EC044244394410E812F90E0C816D90672
:100550002CF41C1904C04424439401C010E097FEFD
:1005600006C01C141D0434F4C601019605C085E0C4
:1005700090E002C081E090E001110196112331F07A
:10058000212F30E02F5F3F4F820F931F252D30E04A
:100590008217930714F4581A01C0512C892D8970C1
:1005A00049F4552039F0B70180E290E00E941D2EF9
:1005B0005A94F7CF002329F0B701802F90E00E94D2
:1005C0001D2E93FC09C0552039F0B70180E390E05F
:1005D0000E941D2E5A94F7CF97FE4CC04601D7FEBD
:1005E00002C0812C912CC60188199909F301E80FEA
:1005F000F91FFE87ED87960124193109388B2F8763
:10060000012F10E01195019511093FEF8316930614
:1006100029F4B7018EE290E00E941D2EC814D9047F
:100620004CF08F8598898815990524F4ED85FE8511
:10063000818101C080E3F1E08F1A91082D853E850C
:100640002F5F3F4F3E872D87801691062CF0B70114
:1006500090E00E941D2ED9CFC814D90441F49A818C
:10066000963320F4953319F43C8534FF81E3B701C8
:1006700090E04EC08A81813319F09C859F7E9C87D3
:10068000B70190E00E941D2E111105C094FC18C006
:1006900085E690E017C0B7018EE290E00E941D2E23
:1006A0001E5F82E001E0080FF301E80FF11D808179
:1006B000B70190E00E941D2E802F0113F3CFE6CFEB
:1006C00085E490E0B7010E941D2ED7FC06C0C1143E
:1006D000D10441F4EC85E4FF05C0D194C194D10864
:1006E0008DE201C08BE2B70190E00E941D2E80E3F5
:1006F0002AE0C216D1042CF08F5FFAE0CF1AD1089D
:10070000F7CFB70190E00E941D2EB701C601C09639
:100710000E941D2E54C1833631F0833779F0833522
:1007200009F056C020C0560132E0A30EB11CF601FC
:100730008081898301E010E0630112C05601F2E07C
:10074000AF0EB11CF601C080D18096FE03C0612FB0
:1007500070E002C06FEF7FEFC6010E94DA2D8C01BE
:10076000F92DFF7714C0560122E0A20EB11CF6014C
:10077000C080D18096FE03C0612F70E002C06FEF91
:100780007FEFC6010E94B42D8C01F92DF0689F2ED9
:10079000F3FD1AC0852D90E008171907A8F4B701DA
:1007A00080E290E00E941D2E5A94F4CFF60197FC4F
:1007B000859197FE81916F01B70190E00E941D2EF7
:1007C00051105A94015011090115110579F7F7C01C
:1007D000843611F0893661F5560197FE09C024E090
:1007E000A20EB11CF60160817181828193810AC0E1
:1007F000F2E0AF0EB11CF60160817181072E000C92
:10080000880B990BF92DFF769F2E97FF09C09095C5
:100810008095709561957F4F8F4F9F4FF0689F2E09
:100820002AE030E0A3010E94882EC82EC6183FC0DF
:10083000092D853721F40F7E2AE030E01DC0097FA5
:100840008F3691F018F4883559F0C3C0803719F00D
:10085000883711F0BEC0006104FF09C0046007C002
:1008600094FE08C0066006C028E030E005C020E124
:1008700030E002C020E132E0560107FF09C084E009
:10088000A80EB11CF601608171818281938108C03C
:10089000F2E0AF0EB11CF6016081718180E090E062
:1008A000A3010E94882EC82EC6180F77902E96FEA0
:1008B0000BC0092D0E7FC11650F494FE0AC092FCA5
:1008C00008C0092D0E7E05C0DC2C092D03C0DC2CD0
:1008D00001C0D12E04FF0DC0FE01EC0DF11D808181
:1008E000803311F4097E09C002FF06C0D394D3946B
:1008F00004C0802F867809F0D39403FD11C000FF57
:1009000006C01C2DD51480F4150D1D190DC0D5146D
:1009100058F4B70180E290E00E941D2ED394F7CFE7
:10092000D51410F45D1801C0512C04FF10C0B7019C
:1009300080E390E00E941D2E02FF17C001FD03C05E
:1009400088E790E002C088E590E0B7010CC0802FF6
:10095000867859F001FF02C08BE201C080E207FDFA
:100960008DE2B70190E00E941D2EC11638F4B70148
:1009700080E390E00E941D2E1150F7CFCA94F3013E
:10098000EC0DF11D8081B70190E00E941D2EC11079
:10099000F5CF15C0F4E0F51560F584E0581A93FE24
:1009A0001FC0011127C02C8523FF2AC006EB11E0D0
:1009B000392D3071932EF8018491811124C0552076
:1009C00009F4E4CCB70180E290E00E941D2E5A9415
:1009D000F6CFF7018681978126C08FEF9FEF23C066
:1009E000B70180E290E00E941D2E5A945110F8CF7A
:1009F000D8CF512CB701802F90E00E941D2ED3CF6D
:100A00000AEB11E0D5CF91108052B70190E00E941F
:100A10001D2E0F5F1F4FCFCF23E0251510F483E06D
:100A2000BDCF512CC0CF60960FB6F894DEBF0FBE7D
:100A3000CDBFDF91CF911F910F91FF90EF90DF908D
:100A4000CF90BF90AF909F908F907F906F905F906E
:100A50004F903F902F90089583B7817F826083BF2E
:100A6000EAE7F0E0808188608083089590917C00BF
:100A7000907E90937C0090917C00892B80937C00E9
:100A800080917A00806480937A0080917A0086FF5A
:100A9000FCCF809178009091790008951F93CF93B7
:100AA000DF9310E1C0E0D0E083B7816083BF889519
:100AB00083B78E7F83BF87E00E943605C80FD91F9A
:100AC000115091F7CE019695879596958795DF9170
:100AD000CF911F910895249A2C9A259A2E9A279A9D
:100AE0008CB581608CBD8CB580618CBD8CB580640B
:100AF0008CBD08958EBD0DB407FEFDCF0895CF9334
:100B0000DF93EB010E947A058D2F0E947A058C2FCE
:100B1000DF91CF910C947A052C9886E00E947A059B
:100B20002C9A0895CF92DF92EF92FF926B017C0195
:100B30002C9883E00E947A05C701B6010E947F05C8
:100B400080E00E947A052C9A8EB5FF90EF90DF909E
:100B5000CF900895CF92DF92EF92FF92CF936B01E7
:100B60007C01C42F0E948C052C9882E00E947A059B
:100B7000C701B6010E947F058C2F0E947A050DB433
:100B800007FEFDCF2C9ACF91FF90EF90DF90CF9092
:100B90000895CF92DF92EF92FF92CF93DF936B0194
:100BA0007C012C9883E00E947A05C701B6010E945F
:100BB0007F0580E00E947A05CEB5D0E0DC2FCC27FF
:100BC00080E00E947A058EB52C9A9E01280F311D77
:100BD000C901DF91CF91FF90EF90DF90CF90089502
:100BE000CF92DF92EF92FF92CF93DF936B017C0164
:100BF000EA010E948C052C9882E00E947A05C701C8
:100C0000B6010E947F058D2F0E947A058C2F0E94CD
:100C10007A052C9ADF91CF91FF90EF90DF90CF90E3
:100C20000895CF92DF92EF92FF92C12CD12C7601E2
:100C30000E948C052C9882E00E947A05C701B601BB
:100C40000E947F0580E00E947A058FEFC81AD80ABB
:100C5000E80AF80A2C9A8FEFC816D806E104F104C6
:100C600039F7FF90EF90DF90CF9008950E944607EC
:100C700084EC0E945F078091B900887F883199F5E4
:100C800088E191E00E94B92488E10E94D6258DEA8E
:100C900099E10E94B92480E00E945F078091B90029
:100CA000887F883201F580E591E00E94B92488E2CE
:100CB0000E94D6258DEA99E10E94B92484E00E9421
:100CC0005F078091B900887F883269F484E791E0FA
:100CD0000E94B92488E20E94D6258DEA99E10E94FB
:100CE000B9240C944B070895CF930E94460784ECD7
:100CF0000E945F078091B900887F883101F588E103
:100D000091E00E94B92488E10E94D6258DEA99E1FC
:100D10000E94B92481E00E945F078091B900887F1A
:100D2000883269F482E991E00E94B92488E20E9445
:100D3000D6258DEA99E10E94B9240E944B0786EBE3
:100D400091E00E94B9248DEA99E10E94B9240E94A1
:100D5000460785EC0E945F07C091B900C87F8C2FC1
:100D60000E94D6258DEA99E10E94B924C034D1F4BD
:100D700080EC91E00E94B92480E40E94D6258DEA9F
:100D800099E10E94B9240E945707C82F8EEF91E085
:100D90000E94B9248C2F0E94D6258DEA99E10E94E9
:100DA000B92401C0C0E08C2FCF9108951F93CF9339
:100DB000DF930E94460784EC0E945F078091B90090
:100DC000887F883159F488E191E00E94B92488E154
:100DD0000E94D6258DEA99E10E94B9248FE80E94ED
:100DE0005F078091B900887F883269F480E192E0E2
:100DF0000E94B92488E20E94D6258DEA99E10E94DA
:100E0000B9240E944B070E94460785EC0E945F07A9
:100E10008091B900887F803409F584E392E00E94D4
:100E2000B92480E40E94D6258DEA99E10E94B92474
:100E30000E944F07182F0E945707C82F0E944B0788
:100E4000D0E0D12B81E792E00E94B924CE010E942C
:100E5000E5248DEA99E10E94B92402C0C0E0D0E007
:100E6000CE01DF91CF911F91089588B1836088B939
:100E700086E48093B800ECEBF0E0808184608083AE
:100E800008958091BC0087FFFCCF089584EA809389
:100E9000BC000C94410784E98093BC00089584EC65
:100EA0008093BC000E9441078091BB00089584E8B4
:100EB0008093BC000E9441078091BB0008958093FD
:100EC000BB0084E88093BC000C944107CF93C82FEB
:100ED0000E9446078EE40E945F078C2F88600E9464
:100EE0005F07CF910C944B071F93CF93DF93D82FBD
:100EF00011E0611101C010E0D4FF02C080E101C027
:100F000080E0D5FD8062D6FD8064D7FD8068C82F63
:100F1000C12B8C2F84600E94660787EA91E60197B7
:100F2000F1F700C000008C2F0E946607D0FF02C0BE
:100F300080E101C080E0D1FD8062D2FD8064D3FDFC
:100F40008068182B812F84600E94660787EA91E6EB
:100F50000197F1F700C00000812FDF91CF911F9121
:100F60000C94660760E081E00E94740760E080E80E
:100F70000E9474071092DE1F089560E080E80E94CE
:100F800074071092DE1F0895CF93C4E0C150B1F0F2
:100F900084E30E9466078FE493EC0197F1F700C0A9
:100FA000000080E30E9466079FE72AE186E09150F7
:100FB00020408040E1F700C00000E8CF84E20E94BA
:100FC00066078FE493EC0197F1F700C0000080E220
:100FD0000E9466078FE493EC0197F1F700C00000D0
:100FE00060E088E20E94740760E08CE00E94740771
:100FF000CF910C94B207CF93C82F8091DE1F803120
:1010000021F460E080EC0E9474078091DE1F803242
:1010100031F460E080E80E9474071092DE1F809136
:10102000DE1F8F5F8093DE1F61E08C2FCF910C94C9
:1010300074070F931F93CF93DF93EC018E01888188
:101040008823F1F08091DE1F803121F460E080EC94
:101050000E9474078091DE1F803231F460E080E8E6
:101060000E9474071092DE1F8091DE1F8F5F8093B5
:10107000DE1F219661E0F80180810E947407DECFB7
:10108000DF91CF911F910F9108954F925F926F92D0
:101090007F928F929F92AF92BF92CF92DF92EF9208
:1010A000FF920F931F93CF93DF93CDB7DEB7649773
:1010B0000FB6F894DEBF0FBECDBFFE01B79681908C
:1010C00091907F01712C6E018BE0C80ED11CFE0146
:1010D00031965F0180E3682E2401FFEF4F1A5F0A0B
:1010E000F4018491882309F4A6C0853209F08FC0E9
:1010F00084010E5F1F4FF2018491282F30E02053AE
:1011000031092A303105D8F589831A82C5010E9438
:10111000BE2C782E94012D5F3F4FF80104910936C3
:1011200051F138F40236E1F10336D1F0890148017A
:10113000D3CF033731F0083779F10F36B9F789018A
:1011400028C08901F70180809180F2E0EF0EF11C48
:10115000F40181914F01882351F30E94FB07F8CFDE
:1011600089014701F2E08F0E911CF70180810E94F6
:10117000FB077401DCCF890198014AE012C089366F
:10118000D9F308F448C08337E9F2883731F08F3655
:1011900071F6980148E005C08901980140E101C05D
:1011A00042E050E04701F2E08F0E911CF701808190
:1011B00091818901B6010E94E52DF601CF018C19BC
:1011C0009D0921912111FACF272D30E08217930735
:1011D000C4F4781AF501872D90E09F012A193B0984
:1011E0002817390714F46192F8CFF501E80FF91FB9
:1011F0001082B601C5010E94BF2DB501C6010E9433
:10120000D32DC6010E9419087401712C90CF0E9441
:10121000FB0782018CCF823651F44701F2E08F0E3A
:10122000911CF7018081918142E050E0C3CF833669
:1012300009F497CF7CCF64960FB6F894DEBF0FBE4B
:10124000CDBFDF91CF911F910F91FF90EF90DF9075
:10125000CF90BF90AF909F908F907F906F905F9056
:101260004F90089550E05093890040938800882360
:1012700019F0109A549A02C01098549850938B0009
:1012800040938A00662319F0119A559A089511988F
:10129000559808954093B300882319F0129A569AEE
:1012A00002C0129856984093B400662319F0139A1E
:1012B000579A0895139857980895CF93DF93C82F9E
:1012C000D82FD6958D2F0E94CC241F92DF938DE7C7
:1012D00092E09F938F938FE390E29F938F930E946E
:1012E000592E8FE390E20E9419080F900F900F90F3
:1012F0000F900F900F90C0FF07C080E892E00E940F
:10130000B92485E892E006C08FE892E00E94B924F3
:1013100084E992E00E94190888E892E0DF91CF9179
:101320000C9419081092C50084E08093C400E0EC8E
:10133000F0E080818260808388E18093C10086E054
:101340008093C20008950F931F93CF938C01C62FF3
:1013500067E972E00E94CA2D892B21F44C2F60E0CE
:1013600081E01EC06FE972E0C8010E94CA2D892B7E
:1013700069F44C2F60E081E00E944A094C2F61E043
:1013800080E0CF911F910F910C94320965EA72E0D1
:10139000C8010E94CA2D892B49F44C2F61E080E0DE
:1013A0000E944A094C2F60E081E0EBCF6AEA72E0CC
:1013B000C8010E94CA2D892B21F44C2F61E080E0E6
:1013C000DBCF63EB72E0C8010E94CA2D892B41F488
:1013D00040E060E080E00E944A0940E060E0D0CF59
:1013E00089EB92E00E94B9248DEA99E1CF911F9197
:1013F0000F910C94B9242F923F924F925F926F926B
:101400007F928F929F92AF92BF92CF92DF92EF9294
:10141000FF920F931F93CF93DF9300D000D000D0A3
:10142000CDB7DEB7182F6E83B42E022FC82ED12C65
:10143000E12CF12C24E2C21AD1082FEFE20AF20AC1
:10144000C701B6010E9492058D831031E0F08FEC48
:1014500092E026960FB6F894DEBF0FBECDBFDF91A7
:10146000CF911F910F91FF90EF90DF90CF90BF90A1
:10147000AF909F908F907F906F905F904F903F9034
:101480002F900C94B9248B2D90E0A0E0B0E08983DC
:101490009A83AB83BC839D8197FD6CC1AE8144EF81
:1014A000242E33243394A7FDD8C09A170CF07BC0A8
:1014B000BD816B2FBB0F770B880B990B0E94A9295D
:1014C000AB01BC01812F0E94CC234E81C701B60124
:1014D0000E94AA0569817A818B819C810E94A7293B
:1014E0002B013C0120E030E44CE955E40E94B62A8F
:1014F0004B015C0120E030E040E85FE30E940129FD
:1015000087FD22C020E03FEF4FE757E4C501B4015B
:101510000E94B12A18169CF420E030E040E251E429
:10152000C301B2010E94B62A0E9478296115710593
:1015300081F0C1010197F1F761507109F7CFC50141
:10154000B4010E94782902C061E070E0CB010197EC
:10155000F1F72D81200F2D833E8132170CF0A8CF9B
:1015600085E093E00E94B924812F0E94CC2488E278
:1015700093E00E94B9243CEDC32EDD24DA94E12CE3
:10158000F12C812F90E09A838983B3C0C501B40107
:101590000E947829CB010197F1F7BD81B01BBD8373
:1015A0002E81B217ECF2AD816A2FAA0F770B880B50
:1015B000990B0E94A929AB01BC01812F0E94CC2369
:1015C0004E81C701B6010E94AA0569817A818B818B
:1015D0009C810E94A7292B013C0120E030E44CE9CA
:1015E00055E40E94B62A4B015C0120E030E040E85F
:1015F0005FE30E94012987FD1FC020E03FEF4FE716
:1016000057E4C501B4010E94B12A18160CF0BECFF0
:1016100020E030E040E251E4C301B2010E94B62A6A
:101620000E9478296115710509F4B7CFC1010197AE
:10163000F1F761507109F6CF61E070E0ABCFC50101
:10164000B4010E947829CB010197F1F78D81801BAD
:101650008D839E8189170CF483CF3D81632F330FD7
:10166000770B880B990B0E94A929AB01BC01812F34
:101670000E94CC234E81C701B6010E94AA05698150
:101680007A818B819C810E94A7292B013C0120E05B
:1016900030E44CE955E40E94B62A4B015C0120E09D
:1016A00030E040E85FE30E94012987FD1FC020E091
:1016B0003FEF4FE757E4C501B4010E94B12A181665
:1016C0000CF0BDCF20E030E040E251E4C301B201B4
:1016D0000E94B62A0E9478296115710509F4B6CFD7
:1016E000C1010197F1F761507109F6CF61E070E037
:1016F000AACF87E393E00E94B924C6010E94E524A3
:1017000088E493E00E94B924C701B6010E949205C3
:101710000E94CC24C6018496A981BA81A817B90772
:1017200021F481E593E00E94B924BFEFCB1ADB0AD4
:10173000EB0AFB0A2CEEC2162FEFD206E104F104ED
:10174000C1F626960FB6F894DEBF0FBECDBFDF916F
:10175000CF911F910F91FF90EF90DF90CF90BF90AE
:10176000AF909F908F907F906F905F904F903F9041
:101770002F9008953E8137FD5DC024EF222E332443
:101780003394AD816A2FAA0F770B880B990B0E94B7
:10179000A929AB01BC01812F0E94CC234E81C70136
:1017A000B6010E94AA0569817A818B819C810E9481
:1017B000A7292B013C0120E030E44CE955E40E94CC
:1017C000B62A4B015C0120E030E040E85FE30E9474
:1017D000012987FD22C020E03FEF4FE757E4C50114
:1017E000B4010E94B12A18169CF420E030E040E2D7
:1017F00051E4C301B2010E94B62A0E947829611502
:10180000710581F0C1010197F1F761507109F7CFBE
:10181000C501B4010E94782902C061E070E0CB01EB
:101820000197F1F7BD81B00FBD832E812B170CF00E
:10183000A8CF96CE3D818E8194EF292E3324339408
:1018400038170CF067C0AD816A2FAA0F770B880B91
:10185000990B0E94A929AB01BC01812F0E94CC23C6
:101860004E81C701B6010E94AA0569817A818B81E8
:101870009C810E94A7292B013C0120E030E44CE927
:1018800055E40E94B62A4B015C0120E030E040E8BC
:101890005FE30E94012987FD22C020E03FEF4FE770
:1018A00057E4C501B4010E94B12A18169CF420E047
:1018B00030E040E251E4C301B2010E94B62A0E9426
:1018C00078296115710581F0C1010197F1F7615027
:1018D0007109F7CFC501B4010E94782902C061E007
:1018E00070E0CB010197F1F7BD81B00FBD832E8170
:1018F0002B170CF0A8CF34CEC501B4010E94782973
:10190000CB010197F1F78D81801B8D839E81891713
:101910000CF426CE3D81632F330F770B880B990B88
:101920000E94A929AB01BC01812F0E94CC234E81CA
:10193000C701B6010E94AA0569817A818B819C81C9
:101940000E94A7292B013C0120E030E44CE955E43A
:101950000E94B62A4B015C0120E030E040E85FE3E2
:101960000E94012987FD1FC020E03FEF4FE757E4A9
:10197000C501B4010E94B12A18160CF0BDCF20E0B9
:1019800030E040E251E4C301B2010E94B62A0E9455
:1019900078296115710509F4B6CFC1010197F1F7F6
:1019A00061507109F6CF61E070E0AACF1F93CF9329
:1019B000DF9381E693E00E94B9248CE893E00E94D3
:1019C000B9240E94F425D82F89EA93E00E94B92413
:1019D0000E94F425C82F88EC93E00E94B9240E944D
:1019E000B2248D3261F018F48B3231F00EC08033A6
:1019F00019F0813321F009C08FE094E003C0C19554
:101A00008AE294E00E94B92406C081E494E00E9436
:101A1000B924C0E0D4E60E94B2248EE794E00E948C
:101A2000B9240E94F425182F8FE994E00E94B9246C
:101A30000E94F425282F412F6C2F8D2F0E94FB0927
:101A400087EC94E0DF91CF911F910C94B924CF9350
:101A5000C82F21E0482F60E080E00E94FB0921E0D0
:101A60004C2F60E084E00E94FB0921E04C2F60E0F5
:101A700083E00E94FB0921E04C2F60E082E00E949D
:101A8000FB0921E04C2F60E081E00E94FB0921E08E
:101A90004C2F60E085E00E94FB0921E04C2F6EE1B5
:101AA00086E00E94FB0921E04C2F60E087E00E9465
:101AB000FB0921E04C2F60E08BE00E94FB0921E054
:101AC0004C2F60E08AE00E94FB0921E04C2F60E08F
:101AD00089E00E94FB0921E04C2F60E088E00E9431
:101AE000FB0921E04C2F60E08CE00E94FB0921E023
:101AF0004C2F6CEE8DE0CF910C94FB09CF93C82F47
:101B000021E0482F60E087E00E94FB0921E04C2F94
:101B100060E08BE00E94FB0921E04C2F60E08AE04E
:101B20000E94FB0921E04C2F60E089E00E94FB0944
:101B300021E04C2F60E088E00E94FB0921E04C2F5F
:101B400060E08CE00E94FB0921E04C2F6CEE8DE000
:101B5000CF910C94FB09CF93C82F21E0482F60E070
:101B600080E00E94FB0921E04C2F60E084E00E94AD
:101B7000FB0921E04C2F60E083E00E94FB0921E09B
:101B80004C2F60E082E00E94FB0921E04C2F60E0D6
:101B900081E00E94FB0921E04C2F60E085E00E947B
:101BA000FB0921E04C2F6EE186E0CF910C94FB09FC
:101BB000CF93C82F21E0482F6EE186E00E94FB09F9
:101BC00021E04C2F60E085E00E94FB0921E04C2FD2
:101BD00066EF80E00E94FB0921E04C2F62EB82E07F
:101BE0000E94FB0921E04C2F6FE684E00E94FB0974
:101BF00021E04C2F65E383E00E94FB0921E04C2F9C
:101C000061E981E00E94FB0921E04C2F67EE8DE045
:101C10000E94FB0921E04C2F60E08CE00E94FB0950
:101C200021E04C2F60E087E00E94FB0921E04C2F6F
:101C30006AEB89E00E94FB0921E04C2F6BE78BE007
:101C40000E94FB0921E04C2F65E38AE00E94FB091A
:101C500021E04C2F64E688E0CF910C94FB09CF93F0
:101C6000C82F21E0482F67EE8DE00E94FB0921E09C
:101C70004C2F60E08CE00E94FB0921E04C2F60E0DB
:101C800087E00E94FB0921E04C2F6AEB89E00E946B
:101C9000FB0921E04C2F6BE78BE00E94FB0921E060
:101CA0004C2F65E38AE00E94FB0921E04C2F64E69B
:101CB00088E0CF910C94FB09CF93C82F21E0482FE7
:101CC0006EE186E00E94FB0921E04C2F60E085E098
:101CD0000E94FB0921E04C2F66EF80E00E94FB0987
:101CE00021E04C2F62EB82E00E94FB0921E04C2FA7
:101CF0006FE684E00E94FB0921E04C2F65E383E05E
:101D00000E94FB0921E04C2F61E981E0CF910C9406
:101D1000FB09CF93C82F21E0482F66EF80E00E9497
:101D2000FB0921E04C2F62EB82E00E94FB0921E0DD
:101D30004C2F6FE684E00E94FB0921E04C2F65E305
:101D400083E00E94FB0921E04C2F66EA81E00E94BB
:101D5000FB0921E04C2F60E085E00E94FB0921E0B7
:101D60004C2F6EE186E00E94FB0921E04C2F60E0E1
:101D700087E00E94FB0921E04C2F6AEB89E00E947A
:101D8000FB0921E04C2F6DE78BE00E94FB0921E06D
:101D90004C2F65E38AE00E94FB0921E04C2F60E5AF
:101DA00088E00E94FB0921E04C2F60E08CE00E945B
:101DB000FB0921E04C2F6CEE8DE0CF910C94FB09D8
:101DC000CF93C82F21E0482F60E087E00E94FB09F5
:101DD00021E04C2F6AEB89E00E94FB0921E04C2FA7
:101DE0006DE78BE00E94FB0921E04C2F65E38AE060
:101DF0000E94FB0921E04C2F60E588E00E94FB096E
:101E000021E04C2F60E08CE00E94FB0921E04C2F88
:101E10006CEE8DE0CF910C94FB09CF93C82F21E09D
:101E2000482F66EF80E00E94FB0921E04C2F62EB17
:101E300082E00E94FB0921E04C2F6FE684E00E94C3
:101E4000FB0921E04C2F65E383E00E94FB0921E0C0
:101E50004C2F66EA81E00E94FB0921E04C2F60E0F4
:101E600085E00E94FB0921E04C2F6EE186E0CF91D6
:101E70000C94FB09CF93C82F21E0482F6CE388E036
:101E80000E94FB0921E04C2F60E08AE00E94FB09E0
:101E900021E04C2F60E089E00E94FB0921E04C2FFB
:101EA00066EA8BE00E94FB0921E04C2F6AE58AE09C
:101EB0000E94FB0921E04C2F66E788E00E94FB09A5
:101EC00021E04C2F6EE689E00E94FB0921E04C2FB7
:101ED00062E98BE0CF910C94FB09CF93C82F21E0EE
:101EE000482F6AE08DE00E94FB0921E04C2F60E062
:101EF0008CE00E94FB0921E04C2F60E087E00E940B
:101F0000FB0921E04C2F60E08AE00E94FB0921E000
:101F10004C2F60E08BE00E94FB0921E04C2F6AE52A
:101F200088E00E94FB0921E04C2F6CEE89E00E94C2
:101F3000FB0921E04C2F6AE58BE00E94FB0921E0C0
:101F40004C2F66E48AE00E94FB0921E04C2F67ECED
:101F500089E00E94FB0921E04C2F6DE28AE00E949B
:101F6000FB0921E04C2F6EE688E00E94FB0921E08E
:101F70004C2F6DE78BE00E94FB0921E04C2F66E3BC
:101F80008AE0CF910C94FB09CF93C82F21E0482F12
:101F900066EF80E00E94FB0921E04C2F65E584E0BC
:101FA0000E94FB0921E04C2F60E082E00E94FB09C7
:101FB00021E04C2F65E383E00E94FB0921E04C2FD8
:101FC00066EA81E00E94FB0921E04C2F6CE985E084
:101FD0000E94FB0921E04C2F6EEC86E00E94FB0979
:101FE00021E04C2F60E087E00E94FB0921E04C2FAC
:101FF0006AE58BE00E94FB0921E04C2F60E089E05C
:102000000E94FB0921E04C2F6CE38AE00E94FB094F
:1020100021E04C2F6AE488E00E94FB0921E04C2F6C
:102020006CE38CE00E94FB0921E04C2F60EB8DE01B
:10203000CF910C94FB09CF93C82F21E0482F66EF76
:1020400080E00E94FB0921E04C2F65E584E00E94BE
:10205000FB0921E04C2F60E082E00E94FB0921E0B7
:102060004C2F65E383E00E94FB0921E04C2F66EAD8
:1020700081E00E94FB0921E04C2F60E085E00E9496
:10208000FB0921E04C2F68E286E00E94FB0921E079
:102090004C2F60E087E00E94FB0921E04C2F6AE5AD
:1020A0008BE00E94FB0921E04C2F60E089E00E9458
:1020B000FB0921E04C2F6CE38AE00E94FB0921E040
:1020C0004C2F6AE488E00E94FB0921E04C2F60E07D
:1020D0008CE00E94FB0921E04C2F68EF8DE0CF914E
:1020E0000C94FB09CF93C82F21E0482F66EF80E0C6
:1020F0000E94FB0921E04C2F69E684E00E94FB0965
:1021000021E04C2F63ED82E00E94FB0921E04C2F7F
:1021100060E087E00E94FB0921E04C2F63E78BE041
:102120000E94FB0921E04C2F6CED89E0CF910C94CB
:10213000FB0921E0482F67E38EE00C94FB09CF9365
:10214000C82F6AEE7FEF80E090E00E94920587330F
:1021500044F464E0680F21E04C2F8EE0CF910C94A2
:10216000FB09CF910895CF93C82F6AEE7FEF80E0EF
:1021700090E00E949205823F44F06CEF680F21E0EE
:102180004C2F8EE0CF910C94FB09CF91089521E064
:10219000482F61EF8EE00C94FB0921E0482F6AE0A4
:1021A0008EE00C94FB09CF93C82F21E0482F66EFF7
:1021B00080E00E94FB0921E04C2F69E684E00E9448
:1021C000FB0921E04C2F60E082E00E94FB0921E046
:1021D0004C2F66EA81E00E94FB0921E04C2F68EF5A
:1021E00083E00E94FB0921E04C2F60E084E00E9424
:1021F000FB0921E04C2F6DE280E00E94FB0921E009
:102200004C2F66EF80E00E94FB0921E04C2F6DE22D
:1022100080E00E94FB0921E04C2F66EF80E00E94E5
:10222000FB098C2F0E9499108C2F0E94C7108C2FB5
:102230000E94CD1021E04C2F60E087E00E94FB0956
:1022400021E04C2F63E78BE00E94FB0921E04C2F3B
:1022500060E089E00E94FB0921E04C2F6CE488E0FB
:102260000E94FB0921E04C2F60E08AE00E94FB09FC
:1022700021E04C2F60E08BE0CF910C94FB09FF92A2
:102280000F931F93CF93DF93D82F64EE7FEF80E0FF
:1022900090E00E949205F82E65EE7FEF80E090E0DE
:1022A0000E949205082F66EE7FEF80E090E00E948A
:1022B0009205182F67EE7FEF80E090E00E94920574
:1022C000C82F84E28F153CF46CEF6F0D21E04D2F89
:1022D00088E00E94FB0908323CF464E0600F21E0D2
:1022E0004D2F89E00E94FB091B303CF06DEF610F20
:1022F00021E04D2F8AE00E94FB091C1664F46DEF6B
:102300006C0F21E04D2F8BE0DF91CF911F910F914A
:10231000FF900C94FB09DF91CF911F910F91FF90DB
:102320000895FF920F931F93CF93DF93D82F6DEDF6
:102330007FEF80E090E00E949205F82E6EED7FEF37
:1023400080E090E00E949205082F6FED7FEF80E023
:1023500090E00E949205182F60EE7FEF80E090E001
:102360000E949205C82F8CEDF8163CF464E06F0DC6
:1023700021E04D2F81E00E94FB0908323CF464E02B
:10238000600F21E04D2F82E00E94FB091B303CF0E2
:102390006DEF610F21E04D2F83E00E94FB091C16B9
:1023A00064F46DEF6C0F21E04D2F84E0DF91CF914D
:1023B0001F910F91FF900C94FB09DF91CF911F911A
:1023C0000F91FF900895FF920F931F93CF93DF9388
:1023D000D82F64EE7FEF80E090E00E949205F82E07
:1023E00065EE7FEF80E090E00E949205082F66EE98
:1023F0007FEF80E090E00E949205182F67EE7FEF5C
:1024000080E090E00E949205C82F83E68F153CF093
:1024100064E06F0D21E04D2F88E00E94FB09083237
:102420003CF464E0600F21E04D2F89E00E94FB093D
:102430001B303CF06DEF610F21E04D2F8AE00E94D0
:10244000FB091C1664F46DEF6C0F21E04D2F8BE03F
:10245000DF91CF911F910F91FF900C94FB09DF91B9
:10246000CF911F910F91FF900895FF920F931F93AB
:10247000CF93DF93D82F6DED7FEF80E090E00E9447
:102480009205F82E6EED7FEF80E090E00E949205BD
:10249000082F6FED7FEF80E090E00E949205182FEB
:1024A00060EE7FEF80E090E00E949205C82F8DE9FA
:1024B000F8163CF06CEF6F0D21E04D2F81E00E948B
:1024C000FB0908323CF464E0600F21E04D2F82E00C
:1024D0000E94FB091B303CF06DEF610F21E04D2F96
:1024E00083E00E94FB091C1664F46DEF6C0F21E081
:1024F0004D2F84E0DF91CF911F910F91FF900C94AD
:10250000FB09DF91CF911F910F91FF900895CF9319
:10251000C82F6CED7FEF80E090E00E9492058D3730
:1025200044F465E0680F21E04C2F80E0CF910C94DB
:10253000FB09CF910895CF93C82F6CED7FEF80E01A
:1025400090E00E949205873F44F06BEF680F21E016
:102550004C2F80E0CF910C94FB09CF910895CF933D
:10256000C82F63EE7FEF80E090E00E9492058A30F2
:1025700044F465E0680F21E04C2F87E0CF910C9484
:10258000FB09CF910895CF93C82F63EE7FEF80E0D2
:1025900090E00E949205843844F06BEF680F21E0D0
:1025A0004C2F87E0CF910C94FB09CF910895CF93E6
:1025B000C82F62EE7FEF80E090E00E9492058C339E
:1025C00044F465E0680F21E04C2F86E0CF910C9435
:1025D000FB09CF910895CF93C82F62EE7FEF80E083
:1025E00090E00E949205803C44F06BEF680F21E080
:1025F0004C2F86E0CF910C94FB09CF910895CF9397
:10260000C82F69EE7FEF80E090E00E9492058A304B
:1026100044F465E0680F21E04C2F8DE0CF910C94DD
:10262000FB09CF910895CF93C82F69EE7FEF80E02B
:1026300090E00E949205893844F06BEF680F21E02A
:102640004C2F8DE0CF910C94FB09CF910895CF933F
:10265000C82F61EE7FEF80E090E00E9492058D37F9
:1026600044F465E0680F21E04C2F85E0CF910C9495
:10267000FB09CF910895CF93C82F61EE7FEF80E0E3
:1026800090E00E949205843844F06BEF680F21E0DF
:102690004C2F85E0CF910C94FB09CF910895CF93F7
:1026A000C82F68EE7FEF80E090E00E9492058D37A2
:1026B00044F465E0680F21E04C2F8CE0CF910C943E
:1026C000FB09CF910895CF93C82F68EE7FEF80E08C
:1026D00090E00E949205843844F06BEF680F21E08F
:1026E0004C2F8CE0CF910C94FB09CF910895CF93A0
:1026F000C82F21E0482F60E087E00E94FB0921E01D
:102700004C2F6AE58BE00E94FB0921E04C2F60E032
:1027100089E00E94FB0921E04C2F60E08AE00E94E2
:10272000FB0921E04C2F64E688E00E94FB0921E0D0
:102730004C2F68E789E00E94FB0921E04C2F6CE3F5
:102740008CE00E94FB0921E04C2F60EB8DE0CF91E3
:102750000C94FB09CF92DF92EF920F931F93CF93CC
:10276000DF936C01162FD42FC22F8FEF94E00E94BD
:10277000B924C6010E94E5248AE30E94AB2480E2CA
:102780000E94AB2486E095E00E94B924812F0E942C
:10279000CC248AE30E94AB2480E20E94AB248EE02A
:1027A00095E00E94B9248D2F0E94CC248AE30E94D8
:1027B000AB2480E20E94AB2484E195E00E94B9241E
:1027C0008C2F0E94CC248AE30E94AB2480E20E94DA
:1027D000AB248BE195E00E94B924802F0E94CC2489
:1027E0008AE30E94AB2480E20E94AB2481E295E060
:1027F0000E94B9248E2D0E94CC248DE00E94AB242F
:102800008AE0DF91CF911F910F91EF90DF90CF90F1
:102810000C94AB244F925F926F927F928F929F9213
:10282000AF92BF92CF92DF92EF92FF92CF93DF935E
:1028300000D000D0CDB7DEB720E030E048EC52E465
:102840000E94B62A0E94732B20E030E048EC52E44C
:102850000E9406296B017C0120E030E040E251E457
:102860000E9406294B015C0120E030E040E452E484
:102870000E9495280E947829862F0E94AB24C501CA
:10288000B4010E94E4292B013C0120E030E040E447
:1028900052E4C701B6010E9495284B015C0120E07B
:1028A00030E040E251E4C301B2010E94B62A9B012C
:1028B000AC01C501B4010E9494280E947829862F9A
:1028C0000E94AB248EE20E94AB2420E030E040E284
:1028D00051E4C701B6010E94B62A4B015C01C70151
:1028E000B6010E94E4292B013C0120E030E040E4E5
:1028F00052E4C501B4010E94952869837A838B83D1
:102900009C8320E030E040E251E4C301B2010E9428
:10291000B62A9B01AC0169817A818B819C810E94DE
:1029200094280E947829862F0E94AB24C501B40107
:102930000E94E4294B015C0120E030E048EC52E4C5
:10294000C701B6010E94B62A20E030E040E452E41C
:102950000E9495286B017C0120E030E040E251E4C8
:10296000C501B4010E94B62A9B01AC01C701B601A2
:102970000E9494280E947829862F0E94AB248DEA19
:1029800099E10F900F900F900F90DF91CF91FF90F2
:10299000EF90DF90CF90BF90AF909F908F907F90FF
:1029A0006F905F904F900C94B9240F931F93CF9327
:1029B000DF938C01EB0187E295E00E94B9248BE361
:1029C00095E00E94B924C8010E94E52480E20E949B
:1029D000AB248AE30E94AB2480E20E94AB2484E40F
:1029E00095E00E94B924CE010E94E5248CED96E189
:1029F000DF91CF911F910F910C94B924FC0140E01D
:102A000050E0A6E0B8E04617570788F420E030E031
:102A10002E173F0731F08A2F8A95F1F72F5F3F4F2E
:102A2000F7CF95B19B2795B94E0F5F1FECCF089557
:102A3000609100017091010183E194E00E94FE1415
:102A4000609100017091010181EA93E00E94FE14FF
:102A5000609100017091010189E492E00E94FE14EE
:102A60000E94B2070E94BD078CE495E00E941908FD
:102A70008BE595E00E94190889E695E00E94B9244B
:102A80008CE995E00E94B92480ED95E00E94B9247C
:102A90008CE995E00E94B92487E096E00E94B92471
:102AA0008CE296E00E94B92482E696E00E94B92466
:102AB00080E996E00E94B92486EC96E00E94B92451
:102AC00081E097E00E94B9248EE297E00E94B92449
:102AD00081E597E00E94B92482E897E00E94B9243A
:102AE0008CE995E00E94B92483EA97E00E94B9241A
:102AF0008CE995E00E94B92481EE97E00E94B92408
:102B000083E098E00E94B9248DE298E00E94B92405
:102B10008BE498E00E94B9248AE698E00E94B924E8
:102B20008CE995E00E94B9248AE898E00E94B924D3
:102B30008CE995E00E94B92489EC98E00E94B924C0
:102B400087EE98E00E94B92486E099E00E94B924BB
:102B500082E299E00E94B92484E499E00E94B924B9
:102B600082E699E00E94B92488E899E00E94B9249D
:102B70008EEA99E00E94B9248CE995E00E94B9247C
:102B800088EE99E00E94B9248CE995E00E94B9246E
:102B900087E29AE00E94B92482E69AE00E94B92472
:102BA00083ED9AE00E94B92484E49BE00E94B9245A
:102BB0008EE69BE00E94B92481E99BE00E94B92443
:102BC0008AEB9BE00E94B92483EE9BE00E94B9242B
:102BD00086E19CE00E94B92489E49CE00E94B9242B
:102BE00088E79CE00E94B92487EA9CE00E94B9240F
:102BF00086ED9CE00E94B92485E09DE00E94B92406
:102C000084E39DE00E94B92480E69DE00E94B924FF
:102C10008DE89DE00E94B9248AEB9DE00E94B924D2
:102C200088EE9DE00E94B92489E29EE00E94B924CA
:102C30008AE69EE00E94B9248BEA9EE00E94B924B5
:102C40008CE995E00E94B9248CEE9EE00E94B924A4
:102C50008CE995E00E94B9248BE29FE00E94B924A0
:102C600080E69FE00E94B92485E99FE00E94B92494
:102C70008AEC9FE00E94B9248FEF9FE00E94B92464
:102C800086E390E10E94B9248DE690E10E94B92488
:102C900084EA90E10E94B9248BED90E10C94B92470
:102CA000809106018F5F80930601809106018D302F
:102CB00058F0109206018091070190910801019649
:102CC00090930801809307010895809105018F5F1B
:102CD0008093050180910501803220F0109205015A
:102CE0000C9450160895809104018F5F8093040125
:102CF00080910401883120F0109204010E94651631
:102D0000609100017091010180ED91E00E94FE143C
:102D100088EE93E024EF31E0F9013197F1F7019764
:102D2000D9F760910001709101018DE093E00E945C
:102D3000FE1488EE93E024EF31E0F9013197F1F7CA
:102D40000197D9F760910001709101018DE093E046
:102D50000E94FE1488EE93E024EF31E0F9013197F0
:102D6000F1F70197D9F7609100017091010180EDB1
:102D700091E00E94FE1488EE93E024EF31E0F90127
:102D80003197F1F70197D9F7609100017091010136
:102D900080ED91E00C94FE14CF92DF92EF92FF92BF
:102DA000809103018F5F80930301809103018C3335
:102DB00020F0109203010E9473160E94B2076091E6
:102DC00000017091010189E492E00E94FE1488EEF6
:102DD00093E024EF31E0F9013197F1F70197D9F74A
:102DE000609100017091010188ED93E00E94FE1452
:102DF00088EE93E024EF31E0F9013197F1F7019784
:102E0000D9F7609100017091010188ED93E00E9473
:102E1000FE140E944E05BC0180E090E00E94A729AC
:102E200022E630E140E450E40E94B62A26EB33EF7C
:102E300041EA50E40E94B62A20E030E040E859E33D
:102E40000E94B62A6093F11F7093F21F8093F31FC4
:102E50009093F41F8AE191E10E94B9246091F11FDF
:102E60007091F21F8091F31F9091F41F0E940A1439
:102E70008091F41F8F938091F31F8F938091F21FA5
:102E80008F938091F11F8F9388E391E19F938F93AC
:102E90008BE290E29F938F930E94592E0E94B2077B
:102EA0000E94BD078EE391E10E9419088BE290E237
:102EB0000E94190887E491E10E9419080E943606D1
:102EC0000E9474068093E11F2DB73EB7285F3F4FE5
:102ED0000FB6F8943EBF0FBE2DBF80FD11C081E735
:102EE00092E00E94B9240E94D6069093E01F80933E
:102EF000DF1F0E94E5248DEA99E10E94B92408C0F1
:102F00008BE491E10E94B9240E9474068093E11F32
:102F10008091E01F8F938091DF1F8F938FE591E168
:102F20009F938F9385E590E29F938F930E94592EF4
:102F300082E691E10E94190885E590E20E94190855
:102F40008AE691E10E941908C090F11FD090F21F0B
:102F5000E090F31FF090F41F0F900F900F900F90E0
:102F60000F900F9020E030E040E751E4C701B60138
:102F70000E94B12A87FD03C080EF9FEF36C020E09A
:102F800030E040E651E4C701B6010E94B12A87FD56
:102F900003C080EE9FEF29C020E030E040E551E41F
:102FA000C701B6010E94B12A87FD03C083EC9FEFE1
:102FB0001CC020E030E040E251E4C701B6010E94AD
:102FC000B12A87FD03C087EC9FE30FC020E030E00B
:102FD00040E251E4C701B6010E94012987FF03C006
:102FE0008FE99FEB02C08FE79FE3FF90EF90DF90A8
:102FF000CF900C944F24809102018F5F8093020147
:10300000809102018C3320F0109202010E94CC16B4
:1030100060910001709101018DE693E00E94FE1421
:1030200084EF91E024EF31E0F9013197F1F7019756
:10303000D9F760910001709101018DE093E00C944B
:10304000FE1486B182FB882780F98093242086B104
:1030500083FB882780F980930320809124208111AD
:1030600013C080910320882331F080912720909114
:103070002820019605C08091272090912820019753
:103080009093282080932720089586B1829581709F
:103090008093022086B185FB882780F98093F81FF2
:1030A00080910220811113C08091F81F811106C008
:1030B00080910B2090910C20019605C080910B20EF
:1030C00090910C20019790930C2080930B200895F1
:1030D0000E94B2070E94BD078DE691E10E94190887
:1030E000609100017091010186EB91E00E94FE1455
:1030F00084EF91E024EF31E0F9013197F1F7019786
:10310000D9F7609100017091010186EB91E00E9476
:10311000FE1484EF91E024EF31E0F9013197F1F7EB
:103120000197D9F7609100017091010186EB91E060
:103130000E94FE1480E197E224EF31E0F90131971B
:10314000F1F70197D9F789E791E10E94B9248BE95A
:1031500091E10E94B9248FEB91E10E94B924609122
:1031600000017091010186EB91E00E94FE1489ED4F
:1031700091E10E94B9240E94B2070E94BD0789EE26
:1031800091E10E9419080E94F42580930601609144
:1031900000017091010186EB91E00E94FE1481EF25
:1031A00091E10E94B9240E94B2070E94BD078FEFEF
:1031B00091E10E9419080E94F42580930501609115
:1031C00000017091010186EB91E00E94FE1485E000
:1031D00092E10E94B9240E94B2070E94BD0784E1D7
:1031E00092E10E9419080E94F425809304016091E5
:1031F00000017091010186EB91E00E94FE148BE1C9
:1032000092E10E94B9240E94B2070E94BD078DE29C
:1032100092E10E9419080E94F425809303016091B5
:1032200000017091010186EB91E00E94FE1487E39A
:1032300092E10E94B9240E94B2070E94BD0789E46E
:1032400092E10E941908609100017091010186EBE2
:1032500091E00E94FE140E94F42580930201609187
:1032600000017091010186EB91E00E94FE14109222
:10327000E51F1092E41F8DEA99E10E94B92483E5CD
:1032800092E10E94B92486E892E10E94B9240E944A
:10329000B2070E94BD0780EA92E10E94190888E9FE
:1032A0009AE324EF31E0F9013197F1F70197D9F76B
:1032B0000C94B2070E94B2070E94BD0788EA92E10F
:1032C0000E94190889EB92E10E941908609100019F
:1032D0007091010183E194E00E94FE14609100016D
:1032E0007091010181EA93E00E94FE146091000157
:1032F0007091010189E492E00E94FE1489E791E156
:103300000E94B9248BE991E10E94B92481EC92E1F9
:103310000E94B9248BEF92E10E94B92480E197E2E8
:1033200024EF31E0F9013197F1F70197D9F70E94C5
:10333000B2070E94BD078BE193E10E9419080E9429
:10334000F42580930E01609100017091010186EBDC
:1033500091E00E94FE1486E293E10E94B9240E944B
:10336000B2070E94BD0782E593E10E9419080E94FE
:10337000F42580930F01609100017091010186EBAB
:1033800091E00E94FE148EE593E10E94B92480E151
:1033900097E224EF31E0F9013197F1F70197D9F77E
:1033A0000E94B2070E94BD078FE793E10E941908AF
:1033B0000E94F42580930B0160910001709101013E
:1033C00086EB91E00E94FE148CE893E10E94B92400
:1033D00080E197E224EF31E0F9013197F1F70197AD
:1033E000D9F70E94B2070E94BD0782EB93E10E94C9
:1033F00019080E94F42580930D01609100017091DD
:10340000010186EB91E00E94FE1481EC93E10E94A1
:10341000B92480E197E224EF31E0F9013197F1F727
:103420000197D9F70E94B2070E94BD078CEE93E185
:103430000E94190882E593E10E9419080E94F42570
:1034400080930C01609100017091010186EB91E085
:103450000E94FE148DEF93E10E94B92480E197E26F
:1034600024EF31E0F9013197F1F70197D9F70E9484
:10347000B2070E94BD078EE194E10E9419080E94E4
:10348000F42580930A01609100017091010186EB9F
:1034900091E00E94FE148BE294E10E94B92480E145
:1034A00097E224EF31E0F9013197F1F70197D9F76D
:1034B0000E94B2070E94BD078AE594E10E941908A4
:1034C0008BE694E10E9419080E94F425809309017B
:1034D000609100017091010186EB91E00E94FE1461
:1034E0008CE794E10E94B9248AEB94E10E94B9240C
:1034F0000E94B2070E94BD0785ED94E10E94190861
:1035000080EA92E10E94190888E99AE324EF31E009
:10351000F9013197F1F70197D9F70C94B2070E949E
:10352000B2070E94BD0786EE94E10E94190887EF5A
:1035300094E10E941908609100017091010183E1FA
:1035400094E00E94FE14609100017091010181EAF3
:1035500093E00E94FE14609100017091010189E4E2
:1035600092E00E94FE1489E791E10E94B9248BE960
:1035700091E10E94B92483E095E10E94B924609111
:1035800000017091010186EB91E00E94FE1488E237
:1035900095E10E94B924609100017091010186EBD0
:1035A00091E00E94FE1487E495E10E94B9240E94F4
:1035B000B22480930620609100017091010186EB96
:1035C00091E00E94FE1480910620893709F0A8C07E
:1035D00084E695E10E94B9248AE895E10E94B92425
:1035E000609100017091010186EB91E00E94FE1450
:1035F0000E9470267093E31F6093E21F8CEB95E1AD
:103600000E94B9248091E21F9091E31F0E94E5245B
:103610008DEA99E10E94B9240E94B2070E94BD0779
:103620008CEC95E10E941908109266201092672098
:1036300010926820109269201092622010926320EC
:10364000109264201092652010920720109208209A
:103650001092092010920A208091E21F9091E31F9E
:10366000A0E0B0E04091072050910820609109202F
:1036700070910A2084179507A607B70708F444C07D
:103680000E944627409162205091632060916420FF
:10369000709165208091662090916720A0916820AC
:1036A000B0916920840F951FA61FB71F80936220D9
:1036B00090936320A0936420B09365208EED95E1F4
:1036C0000E94B924609162207091632080916420EF
:1036D000909165200E9420258DEA99E10E94B924ED
:1036E0008091072090910820A0910920B0910A2094
:1036F0000196A11DB11D8093072090930820A093EF
:103700000920B0930A20A8CF8BEE95E10E94B9243E
:103710000E94B2070E94BD078CE096E10C94190844
:10372000609100017091010186EB91E00E94FE140E
:103730008CE196E10C94B924609100017091010133
:1037400083E194E00E94FE146091000170910101F8
:1037500081EA93E00E94FE146091000170910101E2
:1037600089E492E00E94FE140E94B2070E94BD0705
:1037700081E496E10E94190880E596E10E94B9244F
:1037800080E796E10E94B92482E996E10E94B9247B
:1037900084EB96E10E94B92410920E2010920D2025
:1037A00080910D2090910E20C39740F58BED96E10E
:1037B0000E94B92480910D200E94CC248AED96E1CC
:1037C0000E94B92460910D2070910E2080E090E05D
:1037D0000E9492050E94CC248AED96E10E94B924B1
:1037E0008DEA99E10E94B92480910D2090910E20DC
:1037F000019690930E2080930D20D2CF8EED96E10E
:103800000E94B92486E097E10E94B9240E94B22464
:10381000853601F1873739F587E997E10E94B924A8
:103820000E94F4258093F71F85ED97E10E94B9244B
:103830000E94F425482F90E090930E2080930D2055
:103840006091F71F70E080E090E00E94AA058DEA89
:1038500099E10BC084E397E10E94B9240E9411060C
:103860008AE797E102C082E198E10C94B924EF92D3
:10387000FF920F931F93CF93DF9362E070E080E09D
:1038800090E00E94C90590932A20809329200E94ED
:10389000BD070E94B20789E298E10E9419081F92B1
:1038A00085E08F9388EB92E09F938F930E94450869
:1038B0008AE398E10E94B92485E00E94CC2480E547
:1038C00098E10E94B9240F900F900F900F9080E024
:1038D00090E0DC0144EF51E085309105A105B10590
:1038E00061F020E137E2FA013197F1F72150310917
:1038F000D1F70196A11DB11DEFCF809307209093C2
:103900000820A0930920B0930A208091C00087FF6F
:1039100010C08091C6008D3661F481E0809326202E
:10392000C0E0D0E00CE310E094EFE92EFF24F39424
:1039300006C010922620C0E0D0E00AC12C9A8091E7
:103940002620882309F404C18FE698E10E94B92457
:103950000E94B2070E94BD0783EA98E10E941908FD
:1039600060E070E0CB010E94C905A0E0B0E0809368
:10397000FD1F9093FE1FA093FF1FB09300208CE8C3
:1039800092E00E94B9248091FD1F9091FE1F049740
:103990000E94E52488EB98E10E94B9248CE892E02B
:1039A0000E94B9248091292090912A200E94E52428
:1039B0008EEC98E10E94B9248DEE98E10E94B92422
:1039C00081E199E10E94B92486E399E10E94B9243A
:1039D0008BE599E10E94B9248FE799E10E94B9240F
:1039E00086E999E10E94B9240E94B2248F3309F438
:1039F0006AC038F48C3309F44BC08E3309F453C0D9
:103A0000A2C0853609F466C0833709F47BC08436CA
:103A100009F099C02C9883E00E947A0564E070E078
:103A200080E090E00E947F0584E090E0A0E0B0E0BC
:103A30008093072090930820A0930920B0930A2038
:103A400040910720509108206091092070910A2030
:103A50008091FD1F9091FE1FA091FF1FB09100204B
:103A6000481759076A077B0708F068CF80E00E9473
:103A70007A058EB50E945D098091072090910820FB
:103A8000A0910920B0910A200196A11DB11DD0CFAF
:103A90004091292050912A204A30510508F44FCFF7
:103AA000455051090BC04091292050912A20483E91
:103AB0008DEF580708F043CF4B5F5F4F50932A209C
:103AC0004093292018C010932A20009329204CE30A
:103AD00050E011C080EB99E10E94B9240E941106C8
:103AE00044E050E060E070E0CB010E94F0054091BE
:103AF000292050912A2062E070E080E090E00E944E
:103B0000F0051DCF80EE99E10E94B9240E9418268D
:103B1000EC018DEA99E10E94B9248DEF99E10E94B0
:103B2000B9240E94B2070E94BD0784E19AE10E9475
:103B3000190880E29EE4F7013197F1F70197D9F770
:103B400010922620FCCE83E29AE10E94B924F7CE9F
:103B50000E94B2070E94BD0700E010E084EFE82E4B
:103B6000FF24F39460E070E0CB010E94C905A0E05F
:103B7000B0E08093FD1F9093FE1FA093FF1FB093B2
:103B800000200E94460780E90E945F0780E00E94B3
:103B90005F070E94460781E90E945F070E944F0766
:103BA000809325200E945707809301200E944B0795
:103BB0000E94460780E90E945F0780E00E945F073D
:103BC0000E94460781E90E945F070E944F07809389
:103BD00025200E945707809301200E944B07809167
:103BE0002520982F990F80910120881F8827881FF2
:103BF000892B809323200E945D096091FD1F7091A5
:103C0000FE1F8091FF1F90910020409123200E9471
:103C1000AA054091FD1F5091FE1F6091FF1F7091FA
:103C200000204F3F8FEF580761057105E0F00F5FEF
:103C30001F4FC017D10708F095CF84E49AE10E9486
:103C4000B9240E94B2070E94BD078EE59AE10E9446
:103C500019088FE69AE1DF91CF911F910F91FF90A4
:103C6000EF900C9419084F5F5F4F6F4F7F4F409359
:103C7000FD1F5093FE1F6093FF1F7093002060E0B4
:103C800070E0CB010E94F0054091292050912A203C
:103C900060E070E080E090E0DC0184179507A60703
:103CA000B70760F420E137E2F7013197F1F72150CF
:103CB0003109D1F70196A11DB11DEFCF80930720E7
:103CC00090930820A0930920B0930A20B0CF0E94BF
:103CD000B2070E94BD078AE79AE10E94190884E0B2
:103CE0000E9436059093F61F8093F51F8AE89AE1AB
:103CF0000E94B92480915320909154200E94E52481
:103D00008CED96E10E94B92486E00E9436059093DE
:103D10005420809353208BE99AE10E94B92480912A
:103D2000F51F9091F61F0E94E5248091F51F909158
:103D3000F61F0E9462249B01AC01CB01DA01809343
:103D4000F91F9093FA1FA093FB1FB093FC1F5F9382
:103D50004F933F932F9388E391E19F938F938FE04D
:103D600090E29F938F930E94592E8AEB9AE10E94D2
:103D7000B9248FE090E20E94B9248DB79EB70896CF
:103D80000FB6F8949EBF0FBE8DBF8DE29DE10C94DF
:103D9000B924EF920F930E94B2070E94BD078CECEA
:103DA0009AE10E9419089BB184E089278BB984E0CD
:103DB0000E9436059093F61F8093F51F8AE89AE1DA
:103DC0000E94B92480915320909154200E94E524B0
:103DD0008CED96E10E94B92486E00E94360590930E
:103DE0005420809353208BE99AE10E94B92480915A
:103DF000F51F9091F61F0E94E5248091F51F909188
:103E0000F61F0E9462249B01AC01CB01DA01809372
:103E1000F91F9093FA1FA093FB1FB093FC1F5F93B1
:103E20004F933F932F9388E391E19F938F938FE07C
:103E300090E29F938F930E94592E8AEB9AE10E9401
:103E4000B9248FE090E20E94B9248DE29DE10E94A6
:103E5000B9240E94A62460910B2070910C208091BF
:103E60002720909128200E94D5148CED96E10E9485
:103E7000B924E090020100910301209104014091D6
:103E800005016091060180910701909108010E944F
:103E9000AA138DB79EB708960FB6F8949EBF0FBEB3
:103EA0008DBF8DE29DE10F91EF900C94B92480912C
:103EB000C00087FF0FC1E091C6008E2F90E0FC018B
:103EC000B397E435F10508F0EFC0EA5BFF4F0C94BF
:103ED00069280C9468180C945A1960910E0187E9AE
:103EE00092E004C060910E018AEA92E00C94A3096A
:103EF00060910E0185EA92E0F9CF60910E018FE9A1
:103F000092E0F4CF60E083EB92E00E94A309E0C06E
:103F10006FEF80910F0104C080910F016FEF8195C9
:103F20000C94822486E20C949F1080910B010C94D7
:103F3000CD1086E20C94B3108FEF9FEF0E944F24B8
:103F40008DED9AE1A2C080E090E00E944F2482EFC4
:103F50009AE19BC00C94D60C80910D010C94270D16
:103F600080910D010C947E0D80910D010C94AB0D90
:103F700080910D010C942F0E80910D010C945C0E1C
:103F800080910D010C94E00E80910D010C940D0FA9
:103F900080910D010C94D80D80910D010C94890E27
:103FA00080910D010C94C40F80910D010C941B1095
:103FB00080910D010C943A0F80910D010C946D0FBE
:103FC00080910D010C94721080910D010C94D3100E
:103FD00080910A010C94131380910A010C94FF1232
:103FE00080910A010C94EB1280910A010C94D71273
:103FF000809109010C944F13809109010C94631373
:10400000809109010C942713809109010C943B13B2
:104010008EE10C94771380910C010C94AF12809177
:104020000C010C94C31280910C010C9487128091A6
:104030000C010C949B1283E20C943F1183E20C94CC
:10404000E31183E20C94911183E20C9435120C94E9
:104050008F1A0C94371C0C949C1B0C94671E0E94A6
:1040600036060E9474068093E11F80FD10C081E730
:1040700092E00E94B9240E94D6069093E01F80939C
:10408000DF1F0E94E5248DEA99E10C94B9248BE4AA
:1040900091E10E94B9240E9474068093E11F089563
:1040A0000C94C91E0C94181588E09BE10E94B92459
:1040B000609100017091010186EB91E00E94FE1475
:1040C00060910001709101018EE991E00E94FE145F
:1040D0000C94A62408951F920F920FB60F921124EC
:1040E0008F939F938091E41F9091E51F0196909389
:1040F000E51F8093E41F9F918F910F900FBE0F904B
:104100001F9018951F920F920FB60F9211240BB6A5
:104110000F928F939F93EF93FF93E091EC1F809109
:104120001001E80FE770E093EC1FF0E0E156F04E6D
:10413000808185B9E091EC1FF0E0E156F04E80817E
:1041400088B98091EA1F9091EB1F01969093EB1F25
:104150008093EA1FFF91EF919F918F910F900BBE7B
:104160000F900FBE0F901F9018951F920F920FB6D1
:104170000F9211240BB60F922F933F934F935F939F
:104180006F937F938F939F93AF93BF93EF93FF931F
:104190000E9421180E944518FF91EF91BF91AF91A5
:1041A0009F918F917F916F915F914F913F912F914F
:1041B0000F900BBE0F900FBE0F901F901895189583
:1041C0000E9492098DE29BE10E94B9240E946B0536
:1041D00080E59BE10E94B9240E94350782E79BE1BC
:1041E0000E94B9240E94C40785E99BE10E94B9247A
:1041F00084B5826084BD85B5856085BD8FEF87BD40
:1042000087EB9BE10E94B9248091800081608093BC
:104210008000809181008360809381008091800084
:10422000806A8093800080916F00816080936F002E
:104230008DED9BE10E94B9248091B0008160809354
:10424000B0008091B10084608093B1008091B00093
:10425000806A8093B00083E09CE10E94B924809141
:10426000910081608093910089E29CE10E94B924D1
:1042700080917C00806480937C0080917A008660CD
:1042800080937A0080917A00806880937A008FE42E
:104290009CE10E94B924809168008460809368004A
:1042A00080916D00846080936D0081E79CE10E94A5
:1042B000B9240E942C0580917E00806F80937E003F
:1042C00088B18C6388B981B1836081B981B18C6018
:1042D00081B984B1836084B987B1806C87B9239A2E
:1042E000529A789484E99CE10E94B92487EC9CE17D
:1042F0000E94B9248BEF9CE10E94B92489E695E0E5
:104300000E94B9248CE995E00E94B92481E39DE1E3
:104310000E94B9248CE995E00E94B92487E096E0D8
:104320000E94B9248CE296E00E94B92482E696E0CD
:104330000E94B92480E996E00E94B92486EC96E0B8
:104340000E94B92481E097E00E94B9248EE297E0B0
:104350000E94B92481E597E00E94B92482E897E0A1
:104360000E94B9248CE995E00E94B92489E69DE178
:104370000E94B9248CE995E00E94B92481EE97E06F
:104380000E94B92483E098E00E94B9248DE298E06D
:104390000E94B9248BE498E00E94B9248AE698E050
:1043A0000E94B9248CE995E00E94B92488EA9DE135
:1043B0000E94B9248CE995E00E94B92489EC98E028
:1043C0000E94B92487EE98E00E94B92486E099E023
:1043D0000E94B92482E299E00E94B92484E499E021
:1043E0000E94B92482E699E00E94B92488E899E005
:1043F0000E94B9248EEA99E00E94B9248CE995E0E4
:104400000E94B92488EE9DE10E94B9248CE995E0D0
:104410000E94B92487E29AE00E94B92482E69AE0D9
:104420000E94B92483ED9AE00E94B92488E29EE1BB
:104430000E94B9248EE69BE00E94B92481E99BE0AA
:104440000E94B9248AEB9BE00E94B92483EE9BE092
:104450000E94B92486E19CE00E94B92489E49CE092
:104460000E94B92488E79CE00E94B92486E69EE178
:104470000E94B9248AE99EE10E94B92487EA9CE05F
:104480000E94B92486ED9CE00E94B92485E09DE05D
:104490000E94B92484E39DE00E94B92480E69DE057
:1044A0000E94B9248DE89DE00E94B9248AEB9DE02A
:1044B0000E94B92488EE9DE00E94B92489E29EE022
:1044C0000E94B9248AE69EE00E94B9248BEA9EE00D
:1044D0000E94B9248CE995E00E94B92480ED9EE108
:1044E0000E94B9248CE995E00E94B9248BE29FE0F8
:1044F0000E94B92480E69FE00E94B92485E99FE0EC
:104500000E94B9248AEC9FE00E94B9248FEF9FE0BB
:104510000E94B92486E390E10E94B9248DE690E1DF
:104520000E94B92484EA90E10E94B9248BED90E1C5
:104530000E94B92480E19FE10E94B9240E944607AD
:104540000E94C4078BE7E82E8FE1F82ECFE8DFE169
:10455000870194EFC92EDD24D3940E94BD0787E222
:104560009FE10E94190888E39FE10E94190880E0FA
:1045700090E00E944F246091000170910101F801C8
:10458000819191918F010E94FE1484EF91E0F601D8
:104590003197F1F70197D9F7C017D107F1F60E94CB
:1045A000B20700E513EC0E94BD0788E49FE10E947A
:1045B00019088FEF9FEF0E944F24609100017091C6
:1045C0000101888199810E94FE14C8010197F1F7C9
:1045D0002297EC16FD0639F70E94B207CCE0D0E036
:1045E00004EF11E00E94BD0788E59FE10E941908D1
:1045F00089E69FE10E94190880E090E00E944F2424
:10460000609100017091010188ED93E00E94FE1419
:1046100088EE93E0F8013197F1F70197D9F76091AF
:104620000001709101018DE693E00E94FE148FEF6E
:104630009FEF0E944F242197A9F60E94B2070E9483
:104640004B07C0E5D0E008EB18E8BE010D2E000CCA
:10465000880B990B0E94A929AB01BC0180E00E9444
:10466000CC23C8010197F1F72196CE3BD10569F71C
:1046700062E370E080EA0E94532321E042E36AE0B3
:104680008EE00E94FB098091E41F9091E51F843C1D
:10469000944031F41092E51F1092E41F0E94FB1722
:1046A0000E94571FF0CFEF92FF921F93CF93DF939B
:1046B0001F92CDB7DEB7182F7B01709361206093F6
:1046C000602080935F200E944607812F0E945F0731
:1046D00080E00E945F0781E30E945F070E944B0712
:1046E000B70180E090E00E94A72920E030E040E898
:1046F00055E40E94B62A2FE135E84BE65FE30E94BD
:10470000B62A9B01AC0160E27CEB8EEB9BE40E943D
:10471000062920E030E040E85FE30E9494280E94F0
:10472000782969830E944607812F0E945F078EEFD8
:104730000E945F0789810E945F070E944B0787E8FC
:1047400093E10197F1F700C000000E944607812F16
:104750000E945F0780E00E945F0781EA0E945F0776
:104760000E944B0787E893E10197F1F700C0000032
:104770000E944607812F0E945F0781E00E945F0729
:1047800084E00E945F070E944B070F90DF91CF915A
:104790001F91FF90EF900895CF92DF92EF92FF92DA
:1047A000CF93C82F6A017B0120E030E04AEF52E44A
:1047B000C701B6010E94B12A18168CF020E030E043
:1047C0004AEF52ECC701B6010E94012987FF0DC0D4
:1047D000C12CD12C9AEFE92E92ECF92E06C0C12CF7
:1047E000D12C8AEFE82E82E4F82E25E535E545ED5B
:1047F00050E4C701B6010E94B62A20E030E84BEB36
:1048000054E40E9495280E94782980E090E00E945C
:10481000A7296B017C01609160207091612080E08C
:1048200090E00E94A7299B01AC0160E074E284E75C
:1048300099E40E9406290E94782980E090E00E9475
:10484000A7299B01AC01C701B6010E94062920E0FF
:1048500030E040E855E40E94B62A0E9478297B01A6
:104860000E94460780915F200E945F078C2F880F6F
:10487000880F8A5F0E945F0780E00E945F0780E0E8
:104880000E945F078E2D0E945F078F2D0E945F0799
:10489000CF91FF90EF90DF90CF900C944B07CF9388
:1048A000DF93D82FC92F0E94460780E40E945F073C
:1048B0008D2F0E945F078C2F0E945F07DF91CF91A1
:1048C0000C944B07BC0180E090E00E94A72929E2EC
:1048D0003CE54FE65FEB0E94232B22E538E646E2FB
:1048E00056E40E94B62A20E030E040E251E40E9403
:1048F00094286093E61F7093E71F8093E81F9093BE
:10490000E91F0895181624F492E09093100104C052
:104910009EEF90931001819567BD1092EB1F10924E
:10492000EA1F90916E00926090936E00082E000C2A
:10493000990B2091EA1F3091EB1F82179307C9F75B
:1049400080916E008D7F80936E000895289829983D
:104950004698479808959091C00095FFFCCF8093AA
:10496000C60008958091C00087FFFCCF8091C600EB
:1049700008950F931F93CF938C01C0E0F801EC0FC3
:10498000F11D8081882321F00E94AB24CF5FF6CFF8
:10499000CF911F910F910895CF93C82F64E60E9485
:1049A0002728805D0E94AB242AE08C2F622F0E9472
:1049B0002728C92F0E94272880E3890F0E94AB2453
:1049C00080E38C0FCF910C94AB240F931F93CF9364
:1049D000DF938C0160E177E20E94332880E3860F49
:1049E0000E94AB24C80168EE73E00E943328CB011B
:1049F000CAE0D0E0BE010E943328805D0E94AB2453
:104A0000C80164E670E00E943328CB01BE010E9419
:104A10003328805D0E94AB24C801BE010E94332868
:104A2000182FCB01BE010E943328805D0E94AB2469
:104A300080E3810FDF91CF911F910F910C94AB24F4
:104A40008F929F92AF92BF92CF92DF92EF92FF929E
:104A5000CF934B015C0120E03AEC4AE95BE30E9412
:104A6000472880E3820F0E94AB24C501B40120E0F7
:104A700031EE45EF55E00E9447288AE0C82ED12C40
:104A8000E12CF12CCA01B901A70196010E94472827
:104A900080E3860F0E94AB24C501B40120E836E90B
:104AA00048E950E00E944728CA01B901A7019601D0
:104AB0000E94472880E3860F0E94AB24C501B40101
:104AC00020E432E44FE050E00E944728CA01B901D7
:104AD000A70196010E94472880E3860F0E94AB241D
:104AE000C501B40120EA36E841E050E00E944728C1
:104AF000CA01B901A70196010E94472880E3860FE9
:104B00000E94AB24C501B40120E137E240E050E04F
:104B10000E944728CA01B901A70196010E944728AF
:104B200080E3860F0E94AB24C501B40128EE33E078
:104B300040E050E00E944728CA01B901A701960150
:104B40000E94472880E3860F0E94AB24C501B40170
:104B500024E630E040E050E00E944728CA01B90155
:104B6000A70196010E94472880E3860F0E94AB248C
:104B7000C501B401A70196010E944728C62FCA01AA
:104B8000B901A70196010E94472880E3860F0E9481
:104B9000AB2480E38C0FCF91FF90EF90DF90CF900C
:104BA000BF90AF909F908F900C94AB241F93CF93A6
:104BB000DF931F92CDB7DEB7898317E0898190E03C
:104BC000012E02C0959587950A94E2F780FF02C0F6
:104BD00081E301C080E30E94AB24115078F70F906D
:104BE000DF91CF911F9108950F931F93CF93DF9380
:104BF000D0E3C0E310E30E94B224082F0E94AB244C
:104C00000D3021F01C2FCD2FD02FF5CF1053D053C6
:104C100084E6189FD00D1124CC0FC0568C2F880F1E
:104C2000880F8C0F8D0FDF91CF911F910F910895F9
:104C3000EF92FF920F931F93CF93DF9300E3C0E3B4
:104C4000D0E310E380E3F82E0E94B224E82E0E9405
:104C5000AB248DE0E81631F0F12E1D2FDC2FC02F94
:104C60000E2DF2CF2F2D30E02053310980E197E255
:104C7000289FA001299F500D389F500D1124212FEE
:104C800030E02053310968EE73E0269FC001279F72
:104C9000900D369F900D1124840F951F2D2F30E01D
:104CA0002053310964E6629FA001639F500D1124D7
:104CB000840F951F2C2F30E0205331096AE0629F4A
:104CC000A001639F500D1124840F951F800F911D2B
:104CD000C097DF91CF911F910F91FF90EF900895B2
:104CE0007F928F929F92AF92BF92CF92DF92EF927C
:104CF000FF920F931F93CF93DF93D0E3C0E310E3B2
:104D000000E380E3F82E90E3E92E20E3D22E30E397
:104D1000C32E40E3742E50E3B52E0E94B224A82E79
:104D20000E94AB248DE0A81659F0B72C7C2CCD2C1A
:104D3000DE2CEF2CF02E012F1C2FCD2FDA2DEDCFF6
:104D4000AB2DB0E0D09720E03AEC4AE95BE30E945B
:104D500072284B015C01A72DB0E0D09720E031EE26
:104D600045EF55E00E947228860E971EA81EB91EB8
:104D7000AC2DB0E0D09720E836E948E950E00E9439
:104D80007228860E971EA81EB91EAD2DB0E0D097D2
:104D900020E432E44FE050E00E947228860E971E15
:104DA000A81EB91EAE2DB0E0D09720EA36E841E04B
:104DB00050E00E947228860E971EA81EB91E8F2DE5
:104DC00090E0C09740E157E2849F9001859F300DAD
:104DD000949F300D1124C901330FAA0BBB0B880E11
:104DE000991EAA1EBB1E802F90E0C09728EE33E0CC
:104DF000829FA001839F500D929F500D1124CA01E4
:104E0000550FAA0BBB0BB501A401480F591F6A1F10
:104E10007B1F812F90E0C09724E6289F4001299FA7
:104E2000900C1124C401990CAA0BBB0B4A015B0125
:104E3000880E991EAA1EBB1E2C2F30E0205331096C
:104E40004AE0429FC001439F900D1124092E000C9F
:104E5000AA0BBB0B880D991DAA1DBB1D8D0F911DA3
:104E6000A11DB11DBC01CD016053710981099109DA
:104E7000DF91CF911F910F91FF90EF90DF90CF9036
:104E8000BF90AF909F908F907F9008951092950063
:104E90001092940010926620109267201092682061
:104EA0001092692085E00E94360590936B208093D4
:104EB0006A202091160130911701A901485051092B
:104EC000B4E056954795BA95E1F7241B350BB90127
:104ED000680F791F7093170160931601FB0124E09E
:104EE000F695E7952A95E1F7E817F907A0F42091E0
:104EF000140130911501A90148505109A4E05695BB
:104F00004795AA95E1F7241B350B280F391F3093DD
:104F10001501209314018E179F07A0F42091120110
:104F200030911301A90148505109F4E05695479575
:104F3000FA95E1F7241B350B280F391F3093130125
:104F4000209312012091140130911501409112011A
:104F500050911301420F531F20911101FA01E20FEA
:104F6000F11D9F01F093EE1FE093ED1FAB014E1B6F
:104F70005F0BE4E056954795EA95E1F784179507AE
:104F800018F488EC90E011C0260F371F44E03695E6
:104F900027954A95E1F72817390798F38091EF1F75
:104FA0009091F01F009729F001979093F01F809344
:104FB000EF1F209194003091950043E3429FC00180
:104FC000439F900D112468EE73E00E943328CB01BB
:104FD000A0E0B0E08093662090936720A0936820C3
:104FE000B093692087EA9FE10E94B92480916A20EA
:104FF00081580E94CC248CED96E10E94B92489EB63
:105000009FE10E94B924809112019091130124E044
:10501000969587952A95E1F781580E94CC248CEDCE
:1050200096E10E94B9248BEC9FE10E94B924809103
:1050300014019091150134E0969587953A95E1F722
:1050400081580E94CC248CED96E10C94B924991BD4
:1050500079E004C0991F961708F0961B881F7A956F
:10506000C9F780950895AA1BBB1B51E107C0AA1F71
:10507000BB1FA617B70710F0A61BB70B881F991FF9
:105080005A95A9F780959095BC01CD010895A1E2AC
:105090001A2EAA1BBB1BFD010DC0AA1FBB1FEE1FB2
:1050A000FF1FA217B307E407F50720F0A21BB30BFD
:1050B000E40BF50B661F771F881F991F1A9469F779
:1050C00060957095809590959B01AC01BD01CF01D5
:1050D0000895EE0FFF1F0024001C0BBE0790F691F1
:1050E000E02D0994B7FF0C947A280E947A28821B3D
:1050F000930B08950E948528A59F900DB49F900D55
:10510000A49F800D911D11240895A29FB001B39F0B
:10511000C001A39F700D811D1124911DB29F700DC0
:10512000811D1124911D08955058BB27AA270E9464
:10513000AC280C945F2A0E94512A38F00E94582A09
:1051400020F039F49F3F19F426F40C944E2A0EF403
:10515000E095E7FB0C941F2AE92F0E94702A58F370
:10516000BA17620773078407950720F079F4A6F54C
:105170000C94AA2A0EF4E0950B2EBA2FA02D0B0149
:10518000B90190010C01CA01A0011124FF27591B8C
:1051900099F0593F50F4503E68F11A16F040A22F92
:1051A000232F342F4427585FF3CF46953795279503
:1051B000A795F0405395C9F77EF41F16BA0B620B02
:1051C000730B840BBAF09150A1F0FF0FBB1F661F49
:1051D000771F881FC2F70EC0BA0F621F731F841F8C
:1051E00048F4879577956795B795F7959E3F08F0B2
:1051F000B0CF9395880F08F09927EE0F9795879574
:1052000008950E94FB2908F481E008950E941A295C
:105210000C945F2A0E94582A58F00E94512A40F0AC
:1052200029F45F3F29F00C941F2A51110C94AB2AEA
:105230000C944E2A0E94702A68F39923B1F35523E7
:1052400091F3951B550BBB27AA2762177307840799
:1052500038F09F5F5F4F220F331F441FAA1FA9F32F
:1052600035D00E2E3AF0E0E832D091505040E6951D
:10527000001CCAF72BD0FE2F29D0660F771F881F7E
:10528000BB1F261737074807AB07B0E809F0BB0B71
:10529000802DBF01FF2793585F4F3AF09E3F510585
:1052A00078F00C941F2A0C94AB2A5F3FE4F3983EED
:1052B000D4F3869577956795B795F7959F5FC9F76E
:1052C000880F911D9695879597F90895E1E0660FEF
:1052D000771F881FBB1F621773078407BA0720F068
:1052E000621B730B840BBA0BEE1F88F7E0950895D1
:1052F0000E94782A88F09F5798F0B92F9927B751C4
:10530000B0F0E1F0660F771F881F991F1AF0BA9569
:10531000C9F714C0B13091F00E94AA2AB1E00895F3
:105320000C94AA2A672F782F8827B85F39F0B93FE5
:10533000CCF3869577956795B395D9F73EF490951C
:105340008095709561957F4F8F4F9F4F0895E8949A
:1053500009C097FB3EF490958095709561957F4FBD
:105360008F4F9F4F9923A9F0F92F96E9BB2793956B
:10537000F695879577956795B795F111F8CFFAF47B
:10538000BB0F11F460FF1BC06F5F7F4F8F4F9F4FAC
:1053900016C0882311F096E911C0772321F09EE80A
:1053A000872F762F05C0662371F096E8862F70E070
:1053B00060E02AF09A95660F771F881FDAF7880F4A
:1053C0009695879597F908950E94922A90F09F37B5
:1053D00048F4911116F00C94AB2A60E070E080E87C
:1053E0009FEB089526F41B16611D711D811D0C9401
:1053F000252A0C94402A990F0008550FAA0BE0E8C3
:10540000FEEF16161706E807F907C0F01216130686
:10541000E407F50798F0621B730B840B950B39F4C6
:105420000A2661F0232B242B252B21F408950A262C
:1054300009F4A140A6958FEF811D811D089597F96C
:105440009F6780E870E060E00895882371F4772317
:1054500021F09850872B762F07C0662311F49927E7
:105460000DC09051862B70E060E02AF09A95660F8F
:10547000771F881FDAF7880F9695879597F9089513
:105480009F3F31F0915020F4879577956795B795B8
:10549000880F911D9695879597F908959FEF80EC59
:1054A000089500240A94161617061806090608958A
:1054B00000240A9412161306140605060895092EF0
:1054C0000394000C11F4882352F0BB0F40F4BF2B5F
:1054D00011F460FF04C06F5F7F4F8F4F9F4F08959F
:1054E00057FD9058440F551F59F05F3F71F0479595
:1054F000880F97FB991F61F09F3F79F0879508957A
:10550000121613061406551FF2CF4695F1DF08C098
:10551000161617061806991FF1CF869571056105B5
:10552000089408950E94782AA0F0BEE7B91788F47D
:10553000BB279F3860F41616B11D672F782F882778
:10554000985FF7CF869577956795B11D93959639B6
:10555000C8F30895E894BB2766277727CB0197F90E
:1055600008950E94FB2908F48FEF08950E94C92A2C
:105570000C945F2A0E94512A38F00E94582A20F089
:10558000952311F00C941F2A0C944E2A11240C948C
:10559000AB2A0E94702A70F3959FC1F3950F50E0DB
:1055A000551F629FF001729FBB27F00DB11D639FD5
:1055B000AA27F00DB11DAA1F649F6627B00DA11D7B
:1055C000661F829F2227B00DA11D621F739FB00D21
:1055D000A11D621F839FA00D611D221F749F332791
:1055E000A00D611D231F849F600D211D822F762F2A
:1055F0006A2F11249F5750409AF0F1F088234AF007
:10560000EE0FFF1FBB1F661F771F881F9150504072
:10561000A9F79E3F510580F00C941F2A0C94AB2AE9
:105620005F3FE4F3983ED4F3869577956795B795F9
:10563000F795E7959F5FC1F7FE2B880F911D969513
:10564000879597F90895FA01EE0FFF1F309621050F
:105650003105A1F16115710561F48038BFE39B0745
:1056600049F168949038810561F08038BFEF9B075D
:1056700041F099234AF5FF3FE1053105210519F174
:10568000E8940894E795D901AA2329F4AB2FBE2FFB
:10569000F85FD0F310C0FF5F70F4A695E0F7F7391C
:1056A00050F019F0FF3A38F49F779F930DD00F9088
:1056B00007FC9058089546F00C944E2A60E070E084
:1056C00080E89FE308954FE79F775F934F933F9361
:1056D0002F930E94422C2F913F914F915F910E94F6
:1056E000B62A0C949F2B0E94782AE8F09E37E8F0A7
:1056F0009639B8F49E3848F4672F782F8827985F3A
:10570000F9CF86957795679593959539D0F3B62F10
:10571000B1706B0F711D811D20F48795779567958A
:1057200093950C94252A0C94402A0C94AB2A29F4C6
:1057300016F00C941F2A0C94AA2A0C944E2A0E944C
:10574000782AA8F39638A0F707F80F92E8942BE38D
:105750003AEA48EB5FE70E94CC2A0F920F920F9231
:105760004DB75EB70F920E948A2CE4E3F1E00E94ED
:10577000D12B4F915F91EF91FF91E595EE1FFF1FA8
:1057800049F0FE57E0684427EE0F441FFA95E1F711
:105790004195550B0E94042C0F9007FE0C94F82B9A
:1057A0000895DF93CF931F930F93FF92EF92DF92B1
:1057B0007B018C01689406C0DA2EEF010E94C92A91
:1057C000FE01E894A5912591359145915591A6F357
:1057D000EF010E94AC28FE019701A801DA9469F755
:1057E000DF90EF90FF900F911F91CF91DF9108957F
:1057F0009B01AC0160E070E080E89FE30C94062917
:105800000C941F2A0C94402A0E94782AD8F39923DA
:10581000C9F3940F511DA3F39150504094F059F0E7
:10582000882332F0660F771F881F91505040C1F7D0
:105830009E3F51052CF7880F911D9695879597F9F6
:1058400008955F3FACF0983E9CF0BB278695779516
:105850006795B79508F4B1609395C1F7BB0F58F7FA
:1058600011F460FFE8CF6F5F7F4F8F4F9F4FE3CF03
:105870000C94AB2A16F00C94402A0C944E2A68948F
:105880000C941F2A0E94782AA8F39923C1F3AEF33F
:10589000DF93CF931F930F93FF92C92FDD278823A8
:1058A0002AF02197660F771F881FDAF720E030E093
:1058B00040E85FEB9FE3883920F0803E38F0219686
:1058C0008F770E949528ECE5F1E004C00E949528AE
:1058D000E9E8F1E00E94D12B8B01BE01EC01FB2E27
:1058E0006F5771097595771F880B990B0E94A9292D
:1058F00028E132E741E35FE30E94C92AAF2D980116
:10590000AE01FF900F911F91CF91DF910E94AC28C3
:105910000C945F2AFA01DC01AA0FBB1F9B01AC01AA
:10592000BF5728F4222733274427507820C0B75187
:1059300090F4AB2F0024469537952795011CA3952D
:10594000D2F3002071F0220F331F441FB395DAF316
:105950000ED00C94942861307105A0E88A07B946EE
:1059600030F49B01AC016627772788279078309622
:1059700021F020833183428353830895FC018827DB
:105980009927E89421912032E9F3293010F02E3044
:10599000C8F32B3241F02D3239F4689404C00E94D0
:1059A000FB2D820F911D219120532A30C0F31EF44C
:1059B000909581959F4F0895283008F027E0332770
:1059C000DA01990F311D87FD91600096610571051F
:1059D00039F432602E5F3D9330E32A95E1F7089564
:1059E0009F3F30F080387105610509F03C5F3C5FF6
:1059F0003D93913008F08068911DDF93CF931F9302
:105A00000F93FF92EF92192F987F9695E92F969515
:105A10009695E90FFF27E85EFD4F99273327EE247F
:105A2000FF24A701E70105900894079428F4360F96
:105A3000E71EF81E491F511D660F771F881F991F0B
:105A40000694A1F70590079428F4E70EF81E491F65
:105A5000561FC11D770F881F991F661F0694A1F757
:105A60000590079428F4F80E491F561FC71FD11D33
:105A7000880F991F661F771F0694A1F7059007945A
:105A800020F4490F561FC71FD81F990F661F771F95
:105A9000881F0694A9F784911095177041F0D69548
:105AA000C79557954795F794E7941A95C1F7EEEB8C
:105AB000F1E0689415901591359165919591059057
:105AC0007FE27395E118F10A430B560BC90BD0091D
:105AD000C0F7E10CF11E431F561FC91FD01D7EF4F5
