:100000000C9465010C9484010C9484010C9484017B
:100010000C9484010C9484010C94531F0C9484015F
:100020000C9484010C9484010C9484010C9484013C
:100030000C9484010C9484010C9484010C94091F89
:100040000C94201F0C9484010C9484010C94840162
:100050000C9484010C9484010C9484010C9484010C
:100060000C947D1F0C9484010C9484010C948401E5
:100070000C9484010C9484010C9484010C948401EC
:100080000C9484010C9484010C948401501EF21E83
:10009000F21EF21EF21EF21EF21E451E801EF21EFF
:1000A0007C1EF21E3E1E3B1E701E741E781E2E1EEF
:1000B000371E2A1E541E341E581EF21EF21EF21E39
:1000C000F21EF21EF21EF21E1A1EC31E941E1F1EE8
:1000D000CB1EC91EF21EF01EF21EF21EF21E5C1E88
:1000E000A01E9C1E0D1EA41ECD1E601E141E0B1EE7
:1000F000EE1E981E0F1E241E4C1EC71EF21EF21E60
:10010000F21EF21EF21EF21E641EF21EA71E841EB6
:10011000B71E881EF21E8C1EF21E901E6C1E681EDC
:10012000B31EAF1EBD1EC01EF21EBA1EF21EF21E70
:10013000F21EAB1E07634236B79BD8A71A39685622
:1001400018AEBAAB558C1D3CB7CC5763BD6DEDFDF9
:10015000753EF6177231BF000000803F08000000B6
:10016000BE922449123EABAAAA2ABECDCCCC4C3EAC
:1001700000000080BEABAAAAAA3E00000000BF009B
:100180000000803F0000000000084178D3BB438797
:10019000D1133D190E3CC3BD4282AD2B3E68EC82AB
:1001A00076BED98FE1A93E4C80EFFFBE01C4FF7F30
:1001B0003F00000000006E616E00696E6600004046
:1001C0007A10F35A00A0724E18090010A5D4E80066
:1001D00000E87648170000E40B54020000CA9A3B7E
:1001E000000000E1F5050000809698000000404204
:1001F0000F000000A0860100000010270000000092
:10020000E803000000006400000000000A00000095
:1002100000000100000000002C76D888DC674F0841
:1002200023DFC1DFAE59E1B1B796E5E3E453C63A47
:10023000E651997696E8E6C28426EB898C9B62EDBE
:10024000407C6FFCEFBC9C9F40F2BAA56FA5F49078
:10025000055A2AF75C936B6CF9676DC11BFCE0E4EF
:100260000D47FEF520E6B500D0ED902E0300943545
:1002700077050080841E080000204E0A000000C898
:100280000C333333330F986E12831141EF8D2114E9
:10029000893BE65516CFFEE6DB18D1844B381BF7B9
:1002A0007C1D901DA4BBE424203284725E22810058
:1002B000C9F124ECA1E53D272569207365632E2053
:1002C000666F72206D656E75000011241FBECFEF42
:1002D000D0E4DEBFCDBF1DE1A0E0B1E0EAEBF5E583
:1002E00000E00BBF02C007900D92A23CB107D9F706
:1002F0002EE1A2ECBDE101C01D92A034B207E1F7EE
:100300000E947E1F0C94DB2A0C9400002F923F92D7
:100310004F925F926F927F928F929F92AF92BF9215
:10032000CF92DF92EF92FF920F931F93CF93DF93C1
:10033000CDB7DEB760970FB6F894DEBF0FBECDBF66
:100340007C011B016A01FC0117821682838181FFF7
:1003500044C39E012F5F3F4F3901F7019381F101A3
:1003600093FD859193FF81911F01882309F431C387
:10037000853239F493FD859193FF81911F01853278
:1003800039F4B70190E00E94022A56016501E5CFD9
:1003900010E0512C912CFFE1F915D8F08B3279F057
:1003A00038F4803279F08332A1F4F92DF0612EC057
:1003B0008D3261F0803369F4292D21602DC0392DF3
:1003C0003260932E892D8460982E2AC0E92DE86032
:1003D00015C097FC2DC020ED280F2A3088F496FE1A
:1003E00006C03AE0139F200D1124122F19C08AE095
:1003F000589E200D1124522EE92DE0629E2E10C031
:100400008E3231F496FCE5C2F92DF0649F2E08C0BF
:100410008C3621F4292D2068922E02C0883641F4B2
:10042000F10193FD859193FF81911F018111B3CF5C
:100430009BEB980F933020F4992D9061805E07C05C
:100440009BE9980F933008F066C1992D9F7E96FF27
:1004500016E09F73992E853619F49064992E08C082
:10046000863621F4392F3068932E02C011111150B5
:1004700097FE07C01C3350F444244394410E27E0F8
:100480000BC0183038F027E017E005C027E09CE3E8
:10049000492E02C0212F412C560184E0A80EB11C28
:1004A000F6016081718182819381042DA3010E94F4
:1004B000C1286C01F981FC87F0FF02C0F3FF06C080
:1004C00091FC06C092FE06C000E205C00DE203C02A
:1004D0000BE201C000E08C858C7019F001115AC24A
:1004E0009BC297FE10C04C0CFC85F4FF04C08A81AF
:1004F000813309F44A94141474F528E0241578F52E
:1005000088E0482E2CC096FC2AC0812F90E08C15E4
:100510009D059CF03CEFC3163FEFD30674F0892D88
:100520008068982E0AC0E2E0F0E0EC0FFD1FE10FBA
:10053000F11D8081803319F411501111F4CF97FE11
:100540000EC044244394410E812F90E0C816D90672
:100550002CF41C1904C04424439401C010E097FEFD
:1005600006C01C141D0434F4C601019605C085E0C4
:1005700090E002C081E090E001110196112331F07A
:10058000212F30E02F5F3F4F820F931F252D30E04A
:100590008217930714F4581A01C0512C892D8970C1
:1005A00049F4552039F0B70180E290E00E94022A18
:1005B0005A94F7CF002329F0B701802F90E00E94D2
:1005C000022A93FC09C0552039F0B70180E390E07E
:1005D0000E94022A5A94F7CF97FE4CC04601D7FEDC
:1005E00002C0812C912CC60188199909F301E80FEA
:1005F000F91FFE87ED87960124193109388B2F8763
:10060000012F10E01195019511093FEF8316930614
:1006100029F4B7018EE290E00E94022AC814D9049E
:100620004CF08F8598898815990524F4ED85FE8511
:10063000818101C080E3F1E08F1A91082D853E850C
:100640002F5F3F4F3E872D87801691062CF0B70114
:1006500090E00E94022AD9CFC814D90441F49A81AB
:10066000963320F4953319F43C8534FF81E3B701C8
:1006700090E04EC08A81813319F09C859F7E9C87D3
:10068000B70190E00E94022A111105C094FC18C025
:1006900085E690E017C0B7018EE290E00E94022A42
:1006A0001E5F82E001E0080FF301E80FF11D808179
:1006B000B70190E00E94022A802F0113F3CFE6CF0A
:1006C00085E490E0B7010E94022AD7FC06C0C1145D
:1006D000D10441F4EC85E4FF05C0D194C194D10864
:1006E0008DE201C08BE2B70190E00E94022A80E314
:1006F0002AE0C216D1042CF08F5FFAE0CF1AD1089D
:10070000F7CFB70190E00E94022AB701C601C09658
:100710000E94022A54C1833631F0833779F0833541
:1007200009F056C020C0560132E0A30EB11CF601FC
:100730008081898301E010E0630112C05601F2E07C
:10074000AF0EB11CF601C080D18096FE03C0612FB0
:1007500070E002C06FEF7FEFC6010E94BF298C01DD
:10076000F92DFF7714C0560122E0A20EB11CF6014C
:10077000C080D18096FE03C0612F70E002C06FEF91
:100780007FEFC6010E9499298C01F92DF0689F2EF8
:10079000F3FD1AC0852D90E008171907A8F4B701DA
:1007A00080E290E00E94022A5A94F4CFF60197FC6E
:1007B000859197FE81916F01B70190E00E94022A16
:1007C00051105A94015011090115110579F7F7C01C
:1007D000843611F0893661F5560197FE09C024E090
:1007E000A20EB11CF60160817181828193810AC0E1
:1007F000F2E0AF0EB11CF60160817181072E000C92
:10080000880B990BF92DFF769F2E97FF09C09095C5
:100810008095709561957F4F8F4F9F4FF0689F2E09
:100820002AE030E0A3010E946D2AC82EC6183FC0FE
:10083000092D853721F40F7E2AE030E01DC0097FA5
:100840008F3691F018F4883559F0C3C0803719F00D
:10085000883711F0BEC0006104FF09C0046007C002
:1008600094FE08C0066006C028E030E005C020E124
:1008700030E002C020E132E0560107FF09C084E009
:10088000A80EB11CF601608171818281938108C03C
:10089000F2E0AF0EB11CF6016081718180E090E062
:1008A000A3010E946D2AC82EC6180F77902E96FEBF
:1008B0000BC0092D0E7FC11650F494FE0AC092FCA5
:1008C00008C0092D0E7E05C0DC2C092D03C0DC2CD0
:1008D00001C0D12E04FF0DC0FE01EC0DF11D808181
:1008E000803311F4097E09C002FF06C0D394D3946B
:1008F00004C0802F867809F0D39403FD11C000FF57
:1009000006C01C2DD51480F4150D1D190DC0D5146D
:1009100058F4B70180E290E00E94022AD394F7CF06
:10092000D51410F45D1801C0512C04FF10C0B7019C
:1009300080E390E00E94022A02FF17C001FD03C07D
:1009400088E790E002C088E590E0B7010CC0802FF6
:10095000867859F001FF02C08BE201C080E207FDFA
:100960008DE2B70190E00E94022AC11638F4B70167
:1009700080E390E00E94022A1150F7CFCA94F3015D
:10098000EC0DF11D8081B70190E00E94022AC11098
:10099000F5CF15C0F4E0F51560F584E0581A93FE24
:1009A0001FC0011127C02C8523FF2AC006EB11E0D0
:1009B000392D3071932EF8018491811124C0552076
:1009C00009F4E4CCB70180E290E00E94022A5A9434
:1009D000F6CFF7018681978126C08FEF9FEF23C066
:1009E000B70180E290E00E94022A5A945110F8CF99
:1009F000D8CF512CB701802F90E00E94022AD3CF8C
:100A00000AEB11E0D5CF91108052B70190E00E941F
:100A1000022A0F5F1F4FCFCF23E0251510F483E08C
:100A2000BDCF512CC0CF60960FB6F894DEBF0FBE7D
:100A3000CDBFDF91CF911F910F91FF90EF90DF908D
:100A4000CF90BF90AF909F908F907F906F905F906E
:100A50004F903F902F90089583B7817F826083BF2E
:100A6000EAE7F0E0808188608083089590917C00BF
:100A7000907E90937C0090917C00892B80937C00E9
:100A800080917A00806480937A0080917A0086FF5A
:100A9000FCCF809178009091790008951F93CF93B7
:100AA000DF9310E1C0E0D0E083B7816083BF889519
:100AB00083B78E7F83BF87E00E943605C80FD91F9A
:100AC000115091F7CE019695879596958795DF9170
:100AD000CF911F910895249A2C9A259A2E9A279A9D
:100AE0008CB581608CBD8CB580618CBD8CB580640B
:100AF0008CBD08958EBD0DB407FEFDCF0895CF9334
:100B0000DF93EB010E947A058D2F0E947A058C2FCE
:100B1000DF91CF910C947A052C9886E00E947A059B
:100B20002C9A0895CF92DF92EF92FF926B017C0195
:100B30002C9883E00E947A05C701B6010E947F05C8
:100B400080E00E947A052C9A8EB5FF90EF90DF909E
:100B5000CF900895CF92DF92EF92FF92CF936B01E7
:100B60007C01C42F0E948C052C9882E00E947A059B
:100B7000C701B6010E947F058C2F0E947A050DB433
:100B800007FEFDCF2C9ACF91FF90EF90DF90CF9092
:100B90000895CF92DF92EF92FF92CF93DF936B0194
:100BA0007C012C9883E00E947A05C701B6010E945F
:100BB0007F0580E00E947A05CEB5D0E0DC2FCC27FF
:100BC00080E00E947A058EB52C9A9E01280F311D77
:100BD000C901DF91CF91FF90EF90DF90CF90089502
:100BE000CF92DF92EF92FF92CF93DF936B017C0164
:100BF000EA010E948C052C9882E00E947A05C701C8
:100C0000B6010E947F058D2F0E947A058C2F0E94CD
:100C10007A052C9ADF91CF91FF90EF90DF90CF90E3
:100C20000895CF92DF92EF92FF92C12CD12C7601E2
:100C30000E948C052C9882E00E947A05C701B601BB
:100C40000E947F0580E00E947A058FEFC81AD80ABB
:100C5000E80AF80A2C9A8FEFC816D806E104F104C6
:100C600039F7FF90EF90DF90CF9008950E944607EC
:100C700084EC0E945F078091B900887F883199F5E4
:100C800081E191E00E944F2388E10E94B62386EA29
:100C900099E10E944F2380E00E945F078091B90094
:100CA000887F883201F589E491E00E944F2388E231
:100CB0000E94B62386EA99E10E944F2384E00E94B5
:100CC0005F078091B900887F883269F48DE691E0F2
:100CD0000E944F2388E20E94B62386EA99E10E948F
:100CE0004F230C944B070895CF930E94460784EC42
:100CF0000E945F078091B900887F883101F581E10A
:100D000091E00E944F2388E10E94B62386EA99E190
:100D10000E944F2381E00E945F078091B900887F85
:100D2000883269F48BE891E00E944F2388E20E94A8
:100D3000B62386EA99E10E944F230E944B078FEA6F
:100D400091E00E944F2386EA99E10E944F230E947E
:100D5000460785EC0E945F07C091B900C87F8C2FC1
:100D60000E94B62386EA99E10E944F23C034D1F451
:100D700089EB91E00E944F2380E40E94B62386EA2B
:100D800099E10E944F230E945707C82F87EF91E0F7
:100D90000E944F238C2F0E94B62386EA99E10E947D
:100DA0004F2301C0C0E08C2FCF9108951F93CF93A4
:100DB000DF930E94460784EC0E945F078091B90090
:100DC000887F883159F481E191E00E944F2388E1C6
:100DD0000E94B62386EA99E10E944F238FE80E9481
:100DE0005F078091B900887F883269F489E092E0DA
:100DF0000E944F2388E20E94B62386EA99E10E946E
:100E00004F230E944B070E94460785EC0E945F0714
:100E10008091B900887F803409F58DE292E00E94CC
:100E20004F2380E40E94B62386EA99E10E944F2373
:100E30000E944F07182F0E945707C82F0E944B0788
:100E4000D0E0D12B8AE692E00E944F23CE010E948F
:100E50007B2386EA99E10E944F2302C0C0E0D0E0E4
:100E6000CE01DF91CF911F91089588B1836088B939
:100E700086E48093B800ECEBF0E0808184608083AE
:100E800008958091BC0087FFFCCF089584EA809389
:100E9000BC000C94410784E98093BC00089584EC65
:100EA0008093BC000E9441078091BB00089584E8B4
:100EB0008093BC000E9441078091BB0008958093FD
:100EC000BB0084E88093BC000C944107CF93C82FEB
:100ED0000E9446078EE40E945F078C2F88600E9464
:100EE0005F07CF910C944B071F93CF93DF93D82FBD
:100EF00011E0611101C010E0D4FF02C080E101C027
:100F000080E0D5FD8062D6FD8064D7FD8068C82F63
:100F1000C12B8C2F84600E94660787EA91E60197B7
:100F2000F1F700C000008C2F0E946607D0FF02C0BE
:100F300080E101C080E0D1FD8062D2FD8064D3FDFC
:100F40008068182B812F84600E94660787EA91E6EB
:100F50000197F1F700C00000812FDF91CF911F9121
:100F60000C94660760E081E00E94740760E080E80E
:100F70000E9474071092C21D089560E080E80E94EC
:100F800074071092C21D0895CF93C4E0C150B1F010
:100F900084E30E9466078FE493EC0197F1F700C0A9
:100FA000000080E30E9466079FE72AE186E09150F7
:100FB00020408040E1F700C00000E8CF84E20E94BA
:100FC00066078FE493EC0197F1F700C0000080E220
:100FD0000E9466078FE493EC0197F1F700C00000D0
:100FE00060E088E20E94740760E08CE00E94740771
:100FF000CF910C94B207CF93C82F8091C21D80313E
:1010000021F460E080EC0E9474078091C21D803260
:1010100031F460E080E80E9474071092C21D809154
:10102000C21D8F5F8093C21D61E08C2FCF910C9405
:1010300074070F931F93CF93DF93EC018E01888188
:101040008823F1F08091C21D803121F460E080ECB2
:101050000E9474078091C21D803231F460E080E804
:101060000E9474071092C21D8091C21D8F5F8093F1
:10107000C21D219661E0F80180810E947407DECFD5
:10108000DF91CF911F910F9108954F925F926F92D0
:101090007F928F929F92AF92BF92CF92DF92EF9208
:1010A000FF920F931F93CF93DF93CDB7DEB7649773
:1010B0000FB6F894DEBF0FBECDBFFE01B79681908C
:1010C00091907F01712C6E018BE0C80ED11CFE0146
:1010D00031965F0180E3682E2401FFEF4F1A5F0A0B
:1010E000F4018491882309F4A6C0853209F08FC0E9
:1010F00084010E5F1F4FF2018491282F30E02053AE
:1011000031092A303105D8F589831A82C5010E9438
:10111000A328782E94012D5F3F4FF80104910936E2
:1011200051F138F40236E1F10336D1F0890148017A
:10113000D3CF033731F0083779F10F36B9F789018A
:1011400028C08901F70180809180F2E0EF0EF11C48
:10115000F40181914F01882351F30E94FB07F8CFDE
:1011600089014701F2E08F0E911CF70180810E94F6
:10117000FB077401DCCF890198014AE012C089366F
:10118000D9F308F448C08337E9F2883731F08F3655
:1011900071F6980148E005C08901980140E101C05D
:1011A00042E050E04701F2E08F0E911CF701808190
:1011B00091818901B6010E94CA29F601CF018C19DB
:1011C0009D0921912111FACF272D30E08217930735
:1011D000C4F4781AF501872D90E09F012A193B0984
:1011E0002817390714F46192F8CFF501E80FF91FB9
:1011F0001082B601C5010E94A429B501C6010E9452
:10120000B829C6010E9419087401712C90CF0E9460
:10121000FB0782018CCF823651F44701F2E08F0E3A
:10122000911CF7018081918142E050E0C3CF833669
:1012300009F497CF7CCF64960FB6F894DEBF0FBE4B
:10124000CDBFDF91CF911F910F91FF90EF90DF9075
:10125000CF90BF90AF909F908F907F906F905F9056
:101260004F90089550E05093890040938800882360
:1012700019F0109A549A02C01098549850938B0009
:1012800040938A00662319F0119A559A089511988F
:10129000559808954093B300882319F0129A569AEE
:1012A00002C0129856984093B400662319F0139A1E
:1012B000579A0895139857980895CF93DF93C82F9E
:1012C000D82FD6958D2F0E9462231F92DF9386E739
:1012D00092E09F938F938DE19EE19F938F930E9465
:1012E0003E2A8DE19EE10E9419080F900F900F9009
:1012F0000F900F900F90C0FF07C089E792E00E9407
:101300004F238EE792E006C088E892E00E944F23C8
:101310008DE892E00E94190881E892E0DF91CF9178
:101320000C9419081092C50084E08093C400E0EC8E
:10133000F0E080818260808388E18093C10086E054
:101340008093C20008950F931F93CF938C01C62FF3
:1013500060E972E00E94AF29892B21F44C2F60E0F4
:1013600081E01EC068E972E0C8010E94AF29892BA4
:1013700069F44C2F60E081E00E944A094C2F61E043
:1013800080E0CF911F910F910C9432096EE972E0C9
:10139000C8010E94AF29892B49F44C2F61E080E0FD
:1013A0000E944A094C2F60E081E0EBCF63EA72E0D3
:1013B000C8010E94AF29892B21F44C2F61E080E005
:1013C000DBCF6CEA72E0C8010E94AF29892B41F49F
:1013D00040E060E080E00E944A0940E060E0D0CF59
:1013E00082EB92E00E944F2386EA99E1CF911F9110
:1013F0000F910C944F232F923F924F925F926F92D6
:101400007F928F929F92AF92BF92CF92DF92EF9294
:10141000FF920F931F93CF93DF9300D000D000D0A3
:10142000CDB7DEB7182F6E83B42E022FC82ED12C65
:10143000E12CF12C24E2C21AD1082FEFE20AF20AC1
:10144000C701B6010E9492058D831031E0F088EC4F
:1014500092E026960FB6F894DEBF0FBECDBFDF91A7
:10146000CF911F910F91FF90EF90DF90CF90BF90A1
:10147000AF909F908F907F906F905F904F903F9034
:101480002F900C944F238B2D90E0A0E0B0E0898347
:101490009A83AB83BC839D8197FD6CC1AE8144EF81
:1014A000242E33243394A7FDD8C09A170CF07BC0A8
:1014B000BD816B2FBB0F770B880B990B0E948E257C
:1014C000AB01BC01812F0E9462224E81C701B6018F
:1014D0000E94AA0569817A818B819C810E948C255A
:1014E0002B013C0120E030E44CE955E40E949B26AE
:1014F0004B015C0120E030E040E85FE30E94E6241D
:1015000087FD22C020E03FEF4FE757E4C501B4015B
:101510000E94962618169CF420E030E040E251E448
:10152000C301B2010E949B260E945D2561157105D1
:1015300081F0C1010197F1F761507109F7CFC50141
:10154000B4010E945D2502C061E070E0CB0101970B
:10155000F1F72D81200F2D833E8132170CF0A8CF9B
:101560008EEF92E00E944F23812F0E94622381E23E
:1015700093E00E944F233CEDC32EDD24DA94E12C4E
:10158000F12C812F90E09A838983B3C0C501B40107
:101590000E945D25CB010197F1F7BD81B01BBD8392
:1015A0002E81B217ECF2AD816A2FAA0F770B880B50
:1015B000990B0E948E25AB01BC01812F0E946222F3
:1015C0004E81C701B6010E94AA0569817A818B818B
:1015D0009C810E948C252B013C0120E030E44CE9E9
:1015E00055E40E949B264B015C0120E030E040E87E
:1015F0005FE30E94E62487FD1FC020E03FEF4FE736
:1016000057E4C501B4010E94962618160CF0BECF0F
:1016100020E030E040E251E4C301B2010E949B2689
:101620000E945D256115710509F4B7CFC1010197CD
:10163000F1F761507109F6CF61E070E0ABCFC50101
:10164000B4010E945D25CB010197F1F78D81801BCC
:101650008D839E8189170CF483CF3D81632F330FD7
:10166000770B880B990B0E948E25AB01BC01812F53
:101670000E9462224E81C701B6010E94AA056981BB
:101680007A818B819C810E948C252B013C0120E07A
:1016900030E44CE955E40E949B264B015C0120E0BC
:1016A00030E040E85FE30E94E62487FD1FC020E0B1
:1016B0003FEF4FE757E4C501B4010E949626181684
:1016C0000CF0BDCF20E030E040E251E4C301B201B4
:1016D0000E949B260E945D256115710509F4B6CF15
:1016E000C1010197F1F761507109F6CF61E070E037
:1016F000AACF80E393E00E944F23C6010E947B2380
:1017000081E493E00E944F23C701B6010E94920535
:101710000E946223C6018496A981BA81A817B907DD
:1017200021F48AE493E00E944F23BFEFCB1ADB0A37
:10173000EB0AFB0A2CEEC2162FEFD206E104F104ED
:10174000C1F626960FB6F894DEBF0FBECDBFDF916F
:10175000CF911F910F91FF90EF90DF90CF90BF90AE
:10176000AF909F908F907F906F905F904F903F9041
:101770002F9008953E8137FD5DC024EF222E332443
:101780003394AD816A2FAA0F770B880B990B0E94B7
:101790008E25AB01BC01812F0E9462224E81C701C0
:1017A000B6010E94AA0569817A818B819C810E9481
:1017B0008C252B013C0120E030E44CE955E40E94EB
:1017C0009B264B015C0120E030E040E85FE30E9493
:1017D000E62487FD22C020E03FEF4FE757E4C50134
:1017E000B4010E94962618169CF420E030E040E2F6
:1017F00051E4C301B2010E949B260E945D25611540
:10180000710581F0C1010197F1F761507109F7CFBE
:10181000C501B4010E945D2502C061E070E0CB010A
:101820000197F1F7BD81B00FBD832E812B170CF00E
:10183000A8CF96CE3D818E8194EF292E3324339408
:1018400038170CF067C0AD816A2FAA0F770B880B91
:10185000990B0E948E25AB01BC01812F0E94622250
:101860004E81C701B6010E94AA0569817A818B81E8
:101870009C810E948C252B013C0120E030E44CE946
:1018800055E40E949B264B015C0120E030E040E8DB
:101890005FE30E94E62487FD22C020E03FEF4FE790
:1018A00057E4C501B4010E94962618169CF420E066
:1018B00030E040E251E4C301B2010E949B260E9445
:1018C0005D256115710581F0C1010197F1F7615046
:1018D0007109F7CFC501B4010E945D2502C061E026
:1018E00070E0CB010197F1F7BD81B00FBD832E8170
:1018F0002B170CF0A8CF34CEC501B4010E945D2592
:10190000CB010197F1F78D81801B8D839E81891713
:101910000CF426CE3D81632F330F770B880B990B88
:101920000E948E25AB01BC01812F0E9462224E8154
:10193000C701B6010E94AA0569817A818B819C81C9
:101940000E948C252B013C0120E030E44CE955E459
:101950000E949B264B015C0120E030E040E85FE301
:101960000E94E62487FD1FC020E03FEF4FE757E4C9
:10197000C501B4010E94962618160CF0BDCF20E0D8
:1019800030E040E251E4C301B2010E949B260E9474
:101990005D256115710509F4B6CFC1010197F1F715
:1019A00061507109F6CF61E070E0AACFCF93C82FE4
:1019B00021E0482F60E080E00E94FB0921E04C2FED
:1019C00060E084E00E94FB0921E04C2F60E083E0AE
:1019D0000E94FB0921E04C2F60E082E00E94FB099D
:1019E00021E04C2F60E081E00E94FB0921E04C2FB8
:1019F00060E085E00E94FB0921E04C2F6EE186E06B
:101A00000E94FB0921E04C2F60E087E00E94FB0967
:101A100021E04C2F60E08BE00E94FB0921E04C2F7D
:101A200060E08AE00E94FB0921E04C2F60E089E041
:101A30000E94FB0921E04C2F60E088E00E94FB0936
:101A400021E04C2F60E08CE00E94FB0921E04C2F4C
:101A50006CEE8DE0CF910C94FB09CF93C82F21E061
:101A6000482F60E087E00E94FB0921E04C2F60E0F6
:101A70008BE00E94FB0921E04C2F60E08AE00E948D
:101A8000FB0921E04C2F60E089E00E94FB0921E086
:101A90004C2F60E088E00E94FB0921E04C2F60E0C1
:101AA0008CE00E94FB0921E04C2F6CEE8DE0CF9181
:101AB0000C94FB09CF93C82F21E0482F60E080E011
:101AC0000E94FB0921E04C2F60E084E00E94FB09AA
:101AD00021E04C2F60E083E00E94FB0921E04C2FC5
:101AE00060E082E00E94FB0921E04C2F60E081E091
:101AF0000E94FB0921E04C2F60E085E00E94FB0979
:101B000021E04C2F6EE186E0CF910C94FB09CF933E
:101B1000C82F21E0482F6EE186E00E94FB0921E0FA
:101B20004C2F60E085E00E94FB0921E04C2F66EF1E
:101B300080E00E94FB0921E04C2F62EB82E00E94D2
:101B4000FB0921E04C2F6FE684E00E94FB0921E0B5
:101B50004C2F65E383E00E94FB0921E04C2F61E9F3
:101B600081E00E94FB0921E04C2F67EE8DE00E948E
:101B7000FB0921E04C2F60E08CE00E94FB0921E092
:101B80004C2F60E087E00E94FB0921E04C2F6AEBBC
:101B900089E00E94FB0921E04C2F6BE78BE00E945B
:101BA000FB0921E04C2F65E38AE00E94FB0921E05C
:101BB0004C2F64E688E0CF910C94FB09CF93C82F9B
:101BC00021E0482F67EE8DE00E94FB0921E04C2FB9
:101BD00060E08CE00E94FB0921E04C2F60E087E090
:101BE0000E94FB0921E04C2F6AEB89E00E94FB096F
:101BF00021E04C2F6BE78BE00E94FB0921E04C2F8A
:101C000065E38AE00E94FB0921E04C2F64E688E04E
:101C1000CF910C94FB09CF93C82F21E0482F6EE1A0
:101C200086E00E94FB0921E04C2F60E085E00E94E5
:101C3000FB0921E04C2F66EF80E00E94FB0921E0C8
:101C40004C2F62EB82E00E94FB0921E04C2F6FE6F3
:101C500084E00E94FB0921E04C2F65E383E00E94B1
:101C6000FB0921E04C2F61E981E0CF910C94FB0945
:101C7000CF93C82F21E0482F66EF80E00E94FB0938
:101C800021E04C2F62EB82E00E94FB0921E04C2F07
:101C90006FE684E00E94FB0921E04C2F65E383E0BE
:101CA0000E94FB0921E04C2F66EA81E00E94FB09BB
:101CB00021E04C2F60E085E00E94FB0921E04C2FE1
:101CC0006EE186E00E94FB0921E04C2F60E087E096
:101CD0000E94FB0921E04C2F6AEB89E00E94FB097E
:101CE00021E04C2F6DE78BE00E94FB0921E04C2F97
:101CF00065E38AE00E94FB0921E04C2F60E588E063
:101D00000E94FB0921E04C2F60E08CE00E94FB095F
:101D100021E04C2F6CEE8DE0CF910C94FB09CF931A
:101D2000C82F21E0482F60E087E00E94FB0921E0F6
:101D30004C2F6AEB89E00E94FB0921E04C2F6DE7F4
:101D40008BE00E94FB0921E04C2F65E38AE00E94B2
:101D5000FB0921E04C2F60E588E00E94FB0921E0AF
:101D60004C2F60E08CE00E94FB0921E04C2F6CEED0
:101D70008DE0CF910C94FB09CF93C82F21E0482F21
:101D800066EF80E00E94FB0921E04C2F62EB82E0CD
:101D90000E94FB0921E04C2F6FE684E00E94FB09C2
:101DA00021E04C2F65E383E00E94FB0921E04C2FEA
:101DB00066EA81E00E94FB0921E04C2F60E085E0AB
:101DC0000E94FB0921E04C2F6EE186E0CF910C943C
:101DD000FB09CF93C82F21E0482F6CE388E00E94D5
:101DE000FB0921E04C2F60E08AE00E94FB0921E022
:101DF0004C2F60E089E00E94FB0921E04C2F66EA4D
:101E00008BE00E94FB0921E04C2F6AE58AE00E94EA
:101E1000FB0921E04C2F66E788E00E94FB0921E0E6
:101E20004C2F6EE689E00E94FB0921E04C2F62E90D
:101E30008BE0CF910C94FB09CF93C82F21E0482F62
:101E40006AE08DE00E94FB0921E04C2F60E08CE00D
:101E50000E94FB0921E04C2F60E087E00E94FB0913
:101E600021E04C2F60E08AE00E94FB0921E04C2F2A
:101E700060E08BE00E94FB0921E04C2F6AE588E0DE
:101E80000E94FB0921E04C2F6CEE89E00E94FB09C7
:101E900021E04C2F6AE58BE00E94FB0921E04C2FEA
:101EA00066E48AE00E94FB0921E04C2F67EC89E0A0
:101EB0000E94FB0921E04C2F6DE28AE00E94FB09A1
:101EC00021E04C2F6EE688E00E94FB0921E04C2FB8
:101ED0006DE78BE00E94FB0921E04C2F66E38AE06E
:101EE000CF910C94FB09CF93C82F21E0482F66EFC8
:101EF00080E00E94FB0921E04C2F65E584E00E9410
:101F0000FB0921E04C2F60E082E00E94FB0921E008
:101F10004C2F65E383E00E94FB0921E04C2F66EA29
:101F200081E00E94FB0921E04C2F6CE985E00E94D2
:101F3000FB0921E04C2F6EEC86E00E94FB0921E0BA
:101F40004C2F60E087E00E94FB0921E04C2F6AE5FE
:101F50008BE00E94FB0921E04C2F60E089E00E94A9
:101F6000FB0921E04C2F6CE38AE00E94FB0921E091
:101F70004C2F6AE488E00E94FB0921E04C2F6CE3BF
:101F80008CE00E94FB0921E04C2F60EB8DE0CF91AB
:101F90000C94FB09CF93C82F21E0482F66EF80E017
:101FA0000E94FB0921E04C2F65E584E00E94FB09BB
:101FB00021E04C2F60E082E00E94FB0921E04C2FE1
:101FC00065E383E00E94FB0921E04C2F66EA81E093
:101FD0000E94FB0921E04C2F60E085E00E94FB0994
:101FE00021E04C2F68E286E00E94FB0921E04C2FA3
:101FF00060E087E00E94FB0921E04C2F6AE58BE05E
:102000000E94FB0921E04C2F60E089E00E94FB095F
:1020100021E04C2F6CE38AE00E94FB0921E04C2F69
:102020006AE488E00E94FB0921E04C2F60E08CE02C
:102030000E94FB0921E04C2F68EF8DE0CF910C94BA
:10204000FB09CF93C82F21E0482F66EF80E00E9464
:10205000FB0921E04C2F69E684E00E94FB0921E0A6
:102060004C2F63ED82E00E94FB0921E04C2F60E0E1
:1020700087E00E94FB0921E04C2F63E78BE00E9480
:10208000FB0921E04C2F6CED89E0CF910C94FB090A
:1020900021E0482F67E38EE00C94FB09CF93C82F13
:1020A0006AEE7FEF80E090E00E949205873344F46F
:1020B00064E0680F21E04C2F8EE0CF910C94FB0977
:1020C000CF910895CF93C82F6AEE7FEF80E090E024
:1020D0000E949205823F44F06CEF680F21E04C2F84
:1020E0008EE0CF910C94FB09CF91089521E0482F09
:1020F00061EF8EE00C94FB0921E0482F6AE08EE04E
:102100000C94FB09CF93C82F21E0482F66EF80E0A5
:102110000E94FB0921E04C2F69E684E00E94FB0944
:1021200021E04C2F60E082E00E94FB0921E04C2F6F
:1021300066EA81E00E94FB0921E04C2F68EF83E012
:102140000E94FB0921E04C2F60E084E00E94FB0923
:1021500021E04C2F6DE280E00E94FB0921E04C2F32
:1021600066EF80E00E94FB0921E04C2F6DE280E0E9
:102170000E94FB0921E04C2F66EF80E00E94FB09E2
:102180008C2F0E9448108C2F0E9476108C2F0E945A
:102190007C1021E04C2F60E087E00E94FB0921E0E9
:1021A0004C2F63E78BE00E94FB0921E04C2F60E09D
:1021B00089E00E94FB0921E04C2F6CE488E00E943A
:1021C000FB0921E04C2F60E08AE00E94FB0921E03E
:1021D0004C2F60E08BE0CF910C94FB09FF920F93A2
:1021E0001F93CF93DF93D82F64EE7FEF80E090E0D2
:1021F0000E949205F82E65EE7FEF80E090E00E944D
:102200009205082F66EE7FEF80E090E00E94920535
:10221000182F67EE7FEF80E090E00E949205C82FB4
:1022200084E28F153CF46CEF6F0D21E04D2F88E0B8
:102230000E94FB0908323CF464E0600F21E04D2F5E
:1022400089E00E94FB091B303CF06DEF610F21E03B
:102250004D2F8AE00E94FB091C1664F46DEF6C0F91
:1022600021E04D2F8BE0DF91CF911F910F91FF90D7
:102270000C94FB09DF91CF911F910F91FF9008956E
:10228000FF920F931F93CF93DF93D82F6DED7FEFC6
:1022900080E090E00E949205F82E6EED7FEF80E0E6
:1022A00090E00E949205082F6FED7FEF80E090E0B4
:1022B0000E949205182F60EE7FEF80E090E00E9470
:1022C0009205C82F8CEDF8163CF464E06F0D21E008
:1022D0004D2F81E00E94FB0908323CF464E0600F5E
:1022E00021E04D2F82E00E94FB091B303CF06DEF96
:1022F000610F21E04D2F83E00E94FB091C1664F45E
:102300006DEF6C0F21E04D2F84E0DF91CF911F9195
:102310000F91FF900C94FB09DF91CF911F910F91CA
:10232000FF900895FF920F931F93CF93DF93D82FC1
:1023300064EE7FEF80E090E00E949205F82E65EE5B
:102340007FEF80E090E00E949205082F66EE7FEF1D
:1023500080E090E00E949205182F67EE7FEF80E00A
:1023600090E00E949205C82F83E68F153CF064E050
:102370006F0D21E04D2F88E00E94FB0908323CF4EC
:1023800064E0600F21E04D2F89E00E94FB091B30C3
:102390003CF06DEF610F21E04D2F8AE00E94FB09B8
:1023A0001C1664F46DEF6C0F21E04D2F8BE0DF9174
:1023B000CF911F910F91FF900C94FB09DF91CF916A
:1023C0001F910F91FF900895FF920F931F93CF934A
:1023D000DF93D82F6DED7FEF80E090E00E949205B3
:1023E000F82E6EED7FEF80E090E00E949205082FBE
:1023F0006FED7FEF80E090E00E949205182F60EE75
:102400007FEF80E090E00E949205C82F8DE9F816DA
:102410003CF06CEF6F0D21E04D2F81E00E94FB0935
:1024200008323CF464E0600F21E04D2F82E00E940E
:10243000FB091B303CF06DEF610F21E04D2F83E075
:102440000E94FB091C1664F46DEF6C0F21E04D2F08
:1024500084E0DF91CF911F910F91FF900C94FB09C5
:10246000DF91CF911F910F91FF900895CF93C82FC7
:102470006CED7FEF80E090E00E9492058D3744F490
:1024800065E0680F21E04C2F80E0CF910C94FB09B0
:10249000CF910895CF93C82F6CED7FEF80E090E04F
:1024A0000E949205873F44F06BEF680F21E04C2FAC
:1024B00080E0CF910C94FB09CF910895CF93C82F62
:1024C00063EE7FEF80E090E00E9492058A3044F452
:1024D00065E0680F21E04C2F87E0CF910C94FB0959
:1024E000CF910895CF93C82F63EE7FEF80E090E007
:1024F0000E949205843844F06BEF680F21E04C2F66
:1025000087E0CF910C94FB09CF910895CF93C82F0A
:1025100062EE7FEF80E090E00E9492058C3344F4FD
:1025200065E0680F21E04C2F86E0CF910C94FB0909
:10253000CF910895CF93C82F62EE7FEF80E090E0B7
:102540000E949205803C44F06BEF680F21E04C2F15
:1025500086E0CF910C94FB09CF910895CF93C82FBB
:1025600069EE7FEF80E090E00E9492058A3044F4AB
:1025700065E0680F21E04C2F8DE0CF910C94FB09B2
:10258000CF910895CF93C82F69EE7FEF80E090E060
:102590000E949205893844F06BEF680F21E04C2FC0
:1025A0008DE0CF910C94FB09CF910895CF93C82F64
:1025B00061EE7FEF80E090E00E9492058D3744F459
:1025C00065E0680F21E04C2F85E0CF910C94FB096A
:1025D000CF910895CF93C82F61EE7FEF80E090E018
:1025E0000E949205843844F06BEF680F21E04C2F75
:1025F00085E0CF910C94FB09CF910895CF93C82F1C
:1026000068EE7FEF80E090E00E9492058D3744F401
:1026100065E0680F21E04C2F8CE0CF910C94FB0912
:10262000CF910895CF93C82F68EE7FEF80E090E0C0
:102630000E949205843844F06BEF680F21E04C2F24
:102640008CE0CF910C94FB09CF910895CF93C82FC4
:1026500021E0482F60E087E00E94FB0921E04C2F39
:102660006AE58BE00E94FB0921E04C2F60E089E0E5
:102670000E94FB0921E04C2F60E08AE00E94FB09E8
:1026800021E04C2F64E688E00E94FB0921E04C2FFA
:1026900068E789E00E94FB0921E04C2F6CE38CE0A5
:1026A0000E94FB0921E04C2F60EB8DE0CF910C9450
:1026B000FB09CF92DF92EF920F931F93CF93DF939B
:1026C0006C01162FD42FC22F88EF94E00E944F2365
:1026D000C6010E947B238AE30E94412380E20E947C
:1026E00041238FEF94E00E944F23812F0E946223A9
:1026F0008AE30E94412380E20E94412387E095E023
:102700000E944F238D2F0E9462238AE30E9441235F
:1027100080E20E9441238DE095E00E944F238C2FA0
:102720000E9462238AE30E94412380E20E944123A7
:1027300084E195E00E944F23802F0E9462238AE368
:102740000E94412380E20E9441238AE195E00E9499
:102750004F238E2D0E9462238DE00E9441238AE048
:10276000DF91CF911F910F91EF90DF90CF900C945C
:1027700041234F925F926F927F928F929F92AF927E
:10278000BF92CF92DF92EF92FF92CF93DF9300D070
:1027900000D0CDB7DEB720E030E048EC52E40E9434
:1027A0009B260E94582720E030E048EC52E40E942B
:1027B000EB246B017C0120E030E040E251E40E9418
:1027C000EB244B015C0120E030E040E452E40E9445
:1027D0007A240E945D25862F0E944123C501B40101
:1027E0000E94C9252B013C0120E030E040E452E486
:1027F000C701B6010E947A244B015C0120E030E061
:1028000040E251E4C301B2010E949B269B01AC014E
:10281000C501B4010E9479240E945D25862F0E9483
:1028200041238EE20E94412320E030E040E251E467
:10283000C701B6010E949B264B015C01C701B6018E
:102840000E94C9252B013C0120E030E040E452E425
:10285000C501B4010E947A2469837A838B839C83A7
:1028600020E030E040E251E4C301B2010E949B2627
:102870009B01AC0169817A818B819C810E947924C2
:102880000E945D25862F0E944123C501B4010E944C
:10289000C9254B015C0120E030E048EC52E4C7015F
:1028A000B6010E949B2620E030E040E452E40E9402
:1028B0007A246B017C0120E030E040E251E4C50164
:1028C000B4010E949B269B01AC01C701B6010E9486
:1028D00079240E945D25862F0E94412386EA99E192
:1028E0000F900F900F900F90DF91CF91FF90EF908E
:1028F000DF90CF90BF90AF909F908F907F906F9020
:102900005F904F900C944F230F931F93CF93DF93BF
:102910008C01EB0180E295E00E944F2384E395E077
:102920000E944F23C8010E947B2380E20E94412322
:102930008AE30E94412380E20E9441238DE395E0D7
:102940000E944F23CE010E947B2385ED96E1DF910B
:10295000CF911F910F910C944F23FC0140E050E068
:10296000A6E0B8E04617570788F420E030E02E17BD
:102970003F0731F08A2F8A95F1F72F5F3F4FF7CF4E
:1029800095B19B2795B94E0F5F1FECCF08956091CD
:1029900000017091010183E194E00E94AD14609107
:1029A00000017091010181EA93E00E94AD146091F1
:1029B00000017091010189E492E00E94AD140E942F
:1029C000B2070E94BD0785E495E00E94190884E5DE
:1029D00095E00E94190882E695E00E944F2385E960
:1029E00095E00E944F2389EC95E00E944F2385E9F2
:1029F00095E00E944F2380E096E00E944F2385E2FD
:102A000096E00E944F238BE596E00E944F2389E8D1
:102A100096E00E944F238FEB96E00E944F238AEFAF
:102A200096E00E944F2387E297E00E944F238AE4BA
:102A300097E00E944F238BE797E00E944F2385E9A0
:102A400095E00E944F238CE997E00E944F2385E98F
:102A500095E00E944F238AED97E00E944F238CEF70
:102A600097E00E944F2386E298E00E944F2384E47F
:102A700098E00E944F2383E698E00E944F2385E967
:102A800095E00E944F2383E898E00E944F2385E958
:102A900095E00E944F2382EC98E00E944F2380EE45
:102AA00098E00E944F238FEF98E00E944F238BE124
:102AB00099E00E944F238DE399E00E944F238BE51C
:102AC00099E00E944F2381E899E00E944F2387EA12
:102AD00099E00E944F2385E995E00E944F2381EE03
:102AE00099E00E944F2385E995E00E944F2380E200
:102AF0009AE00E944F238BE59AE00E944F238CECD2
:102B00009AE00E944F238DE39BE00E944F2387E6CB
:102B10009BE00E944F238AE89BE00E944F2383EBB7
:102B20009BE00E944F238CED9BE00E944F238FE09F
:102B30009CE00E944F2382E49CE00E944F2381E7A7
:102B40009CE00E944F2380EA9CE00E944F238FEC80
:102B50009CE00E944F238EEF9CE00E944F238DE269
:102B60009DE00E944F2389E59DE00E944F2386E867
:102B70009DE00E944F2383EB9DE00E944F2381EE56
:102B80009DE00E944F2382E29EE00E944F2383E655
:102B90009EE00E944F2384EA9EE00E944F2385E935
:102BA00095E00E944F2385EE9EE00E944F2385E929
:102BB00095E00E944F2384E29FE00E944F2389E525
:102BC0009FE00E944F238EE89FE00E944F2383ECFA
:102BD0009FE00E944F2388EF9FE00E944F238FE2E7
:102BE00090E10E944F2386E690E10E944F238DE9F9
:102BF00090E10E944F2384ED90E10C944F2380914B
:102C000006018F5F80930601809106018D3058F098
:102C1000109206018091070190910801019690930E
:102C20000801809307010895809105018F5F8093CB
:102C3000050180910501803220F0109205010C946D
:102C4000FF150895809104018F5F809304018091A6
:102C50000401883120F0109204010E941416609142
:102C600000017091010180ED91E00E94AD1488EEA9
:102C700093E024EF31E0F9013197F1F70197D9F7AB
:102C800060910001709101018DE093E00E94AD140C
:102C900088EE93E024EF31E0F9013197F1F70197E5
:102CA000D9F760910001709101018DE093E00E94DD
:102CB000AD1488EE93E024EF31E0F9013197F1F79C
:102CC0000197D9F7609100017091010180ED91E0C9
:102CD0000E94AD1488EE93E024EF31E0F9013197C2
:102CE000F1F70197D9F7609100017091010180ED32
:102CF00091E00C94AD14CF92DF92EF92FF9280910D
:102D000003018F5F80930301809103018C3320F0D6
:102D1000109203010E9422160E94B20760910001E6
:102D20007091010189E492E00E94AD1488EE93E075
:102D300024EF31E0F9013197F1F70197D9F760916C
:102D400000017091010188ED93E00E94AD1488EEBE
:102D500093E024EF31E0F9013197F1F70197D9F7CA
:102D6000609100017091010188ED93E00E94AD1423
:102D70000E944E05BC0180E090E00E948C2522E676
:102D800030E140E450E40E949B2626EB33EF41EA19
:102D900050E40E949B2620E030E040E859E30E9486
:102DA0009B266093CF1D7093D01D8093D11D90936F
:102DB000D21D83E191E10E944F236091CF1D70915C
:102DC000D01D8091D11D9091D21D0E94B913809188
:102DD000D21D8F938091D11D8F938091D01D8F93A1
:102DE0008091CF1D8F9381E391E19F938F9389E031
:102DF0009EE19F938F930E943E2A0E94B2070E94F9
:102E0000BD0787E391E10E94190889E09EE10E94D5
:102E1000190880E491E10E9419080E9436060E9478
:102E200074068093C51D2DB73EB7285F3F4F0FB680
:102E3000F8943EBF0FBE2DBF80FD11C08AE692E020
:102E40000E944F230E94D6069093C41D8093C31DF9
:102E50000E947B2386EA99E10E944F2308C084E404
:102E600091E10E944F230E9474068093C51D8091BA
:102E7000C41D8F938091C31D8F9388E591E19F932B
:102E80008F9383E39EE19F938F930E943E2A8BE56D
:102E900091E10E94190883E39EE10E94190883E6EC
:102EA00091E10E941908C090CF1DD090D01DE090F4
:102EB000D11DF090D21D0F900F900F900F900F909A
:102EC0000F9020E030E040E751E4C701B6010E94D6
:102ED000962687FD03C080EF9FEF36C020E030E0EC
:102EE00040E651E4C701B6010E94962687FD03C063
:102EF00080EE9FEF29C020E030E040E551E4C701BB
:102F0000B6010E94962687FD03C083EC9FEF1CC08C
:102F100020E030E040E251E4C701B6010E9496266D
:102F200087FD03C087EC9FE30FC020E030E040E264
:102F300051E4C701B6010E94E62487FF03C08FE970
:102F40009FEB02C08FE79FE3FF90EF90DF90CF9061
:102F50000C94E522809102018F5F809302018091A1
:102F600002018C3320F0109202010E947B166091C6
:102F70000001709101018DE693E00E94AD1484EF91
:102F800091E024EF31E0F9013197F1F70197D9F79A
:102F900060910001709101018DE093E00C94AD14FB
:102FA00086B182FB882780F98093021E86B183FB5D
:102FB000882780F98093E11D8091021E811113C042
:102FC0008091E11D882331F08091051E9091061EAD
:102FD000019605C08091051E9091061E0197909361
:102FE000061E8093051E089586B182958170809398
:102FF000E01D86B185FB882780F98093D61D8091DE
:10300000E01D811113C08091D61D811106C08091F1
:10301000E91D9091EA1D019605C08091E91D9091EE
:10302000EA1D01979093EA1D8093E91D08950E947F
:10303000B2070E94BD0786E691E10E9419086091DF
:1030400000017091010186EB91E00E94AD1484EFC4
:1030500091E024EF31E0F9013197F1F70197D9F7C9
:10306000609100017091010186EB91E00E94AD1426
:1030700084EF91E024EF31E0F9013197F1F7019706
:10308000D9F7609100017091010186EB91E00E94F7
:10309000AD1480E197E224EF31E0F9013197F1F7C7
:1030A0000197D9F782E791E10E944F2384E991E1EA
:1030B0000E944F2388EB91E10E944F236091000111
:1030C0007091010186EB91E00E94AD1482ED91E1D7
:1030D0000E944F230E94B2070E94BD0782EE91E139
:1030E0000E9419080E94D423809306016091000178
:1030F0007091010186EB91E00E94AD148AEE91E19E
:103100000E944F230E94B2070E94BD0788EF91E101
:103110000E9419080E94D423809305016091000148
:103120007091010186EB91E00E94AD148EEF91E168
:103130000E944F230E94B2070E94BD078DE092E1DA
:103140000E9419080E94D423809304016091000119
:103150007091010186EB91E00E94AD1484E192E14F
:103160000E944F230E94B2070E94BD0786E292E1AF
:103170000E9419080E94D4238093030160910001EA
:103180007091010186EB91E00E94AD1480E392E121
:103190000E944F230E94B2070E94BD0782E492E181
:1031A0000E941908609100017091010186EB91E085
:1031B0000E94AD140E94D42380930201609100010B
:1031C0007091010186EB91E00E94AD141092C71D31
:1031D0001092C61D86EA99E10E944F238CE492E189
:1031E0000E944F238FE792E10E944F230E94B20773
:1031F0000E94BD0789E992E10E94190888E99AE3D3
:1032000024EF31E0F9013197F1F70197D9F70C94E8
:10321000B2070E94B2070E94BD0781EA92E10E94B4
:10322000190882EB92E10E941908609100017091E7
:10323000010183E194E00E94AD146091000170915E
:10324000010181EA93E00E94AD1460910001709148
:10325000010189E492E00E94AD1482E791E10E94AD
:103260004F2384E991E10E944F238AEB92E10E946F
:103270004F2384EF92E10E944F2380E197E224EFF5
:1032800031E0F9013197F1F70197D9F70E94B207C0
:103290000E94BD0784E193E10E9419080E94D42393
:1032A00080930E01609100017091010186EB91E025
:1032B0000E94AD148FE193E10E944F230E94B20758
:1032C0000E94BD078BE493E10E9419080E94D42359
:1032D00080930F01609100017091010186EB91E0F4
:1032E0000E94AD1487E593E10E944F2380E197E2AD
:1032F00024EF31E0F9013197F1F70197D9F70E94F6
:10330000B2070E94BD0788E793E10E9419080E9456
:10331000D42380930B01609100017091010186EB31
:1033200091E00E94AD1485E893E10E944F2380E173
:1033300097E224EF31E0F9013197F1F70197D9F7DE
:103340000E94B2070E94BD078BEA93E10E94190810
:103350000E94D42380930D016091000170910101BE
:1033600086EB91E00E94AD148AEB93E10E944F231B
:1033700080E197E224EF31E0F9013197F1F701970D
:10338000D9F70E94B2070E94BD0785EE93E10E9423
:1033900019088BE493E10E9419080E94D4238093BA
:1033A0000C01609100017091010186EB91E00E9497
:1033B000AD1486EF93E10E944F2380E197E224EF62
:1033C00031E0F9013197F1F70197D9F70E94B2077F
:1033D0000E94BD0787E194E10E9419080E94D4234E
:1033E00080930A01609100017091010186EB91E0E8
:1033F0000E94AD1484E294E10E944F2380E197E2A1
:1034000024EF31E0F9013197F1F70197D9F70E94E4
:10341000B2070E94BD0783E594E10E94190884E683
:1034200094E10E9419080E94D423809309016091BD
:1034300000017091010186EB91E00E94AD1485E7D7
:1034400094E10E944F2383EB94E10E944F230E945A
:10345000B2070E94BD078EEC94E10E94190889E929
:1034600092E10E94190888E99AE324EF31E0F9011A
:103470003197F1F70197D9F70C94B20760910001E9
:103480007091010183E194E00E94AD14609100010C
:103490007091010181EA93E00E94AD1460910001F6
:1034A0007091010189E492E00E94AD140E94B2077C
:1034B0000E94BD078AE396E10E94190889E496E11B
:1034C0000E944F2389E696E10E944F238BE896E104
:1034D0000E944F238DEA96E10E944F231092EC1D2B
:1034E0001092EB1D8091EB1D9091EC1DC39740F560
:1034F00084ED96E10E944F238091EB1D0E94622390
:1035000083ED96E10E944F236091EB1D7091EC1DBD
:1035100080E090E00E9492050E94622383ED96E194
:103520000E944F2386EA99E10E944F238091EB1D70
:103530009091EC1D01969093EC1D8093EB1DD2CFE2
:1035400087ED96E10E944F238FEF96E10E944F2373
:103550000E944823853601F1873739F580E997E1E4
:103560000E944F230E94D4238093D51D8EEC97E1B7
:103570000E944F230E94D423482F90E09093EC1D8B
:103580008093EB1D6091D51D70E080E090E00E947B
:10359000AA0586EA99E10BC08DE297E10E944F23CC
:1035A0000E94110683E797E102C08BE098E10C943A
:1035B0004F23EF92FF920F931F93CF93DF9362E01D
:1035C00070E080E090E00E94C9059093081E80930F
:1035D000071E0E94BD070E94B20782E298E10E9486
:1035E00019081F9285E08F9388EB92E09F938F9349
:1035F0000E94450883E398E10E944F2385E00E94E2
:10360000622389E498E10E944F230F900F900F905E
:103610000F9080E090E0DC0144EF51E085309105AF
:10362000A105B10561F020E137E2FA013197F1F728
:1036300021503109D1F70196A11DB11DEFCF809323
:10364000E51D9093E61DA093E71DB093E81D8091C2
:10365000C00087FF10C08091C6008D3661F481E004
:103660008093041EC0E0D0E00CE310E094EFE92E5C
:10367000FF24F39406C01092041EC0E0D0E00AC1FB
:103680002C9A8091041E882309F404C188E698E1ED
:103690000E944F230E94B2070E94BD078CE998E167
:1036A0000E94190860E070E0CB010E94C905A0E00B
:1036B000B0E08093DB1D9093DC1DA093DD1DB093E3
:1036C000DE1D85E892E00E944F238091DB1D9091E2
:1036D000DC1D04970E947B2381EB98E10E944F231D
:1036E00085E892E00E944F238091071E9091081E6A
:1036F0000E947B2387EC98E10E944F2386EE98E19D
:103700000E944F238AE099E10E944F238FE299E1C2
:103710000E944F2384E599E10E944F2388E799E1B5
:103720000E944F238FE899E10E944F230E94482373
:103730008F3309F46AC038F48C3309F44BC08E33EC
:1037400009F453C0A2C0853609F466C0833709F472
:103750007BC0843609F099C02C9883E00E947A05DA
:1037600064E070E080E090E00E947F0584E090E0FB
:10377000A0E0B0E08093E51D9093E61DA093E71DC7
:10378000B093E81D4091E51D5091E61D6091E71D45
:103790007091E81D8091DB1D9091DC1DA091DD1DD5
:1037A000B091DE1D481759076A077B0708F068CFFC
:1037B00080E00E947A058EB50E945D098091E51D2A
:1037C0009091E61DA091E71DB091E81D0196A11D05
:1037D000B11DD0CF4091071E5091081E4A305105AF
:1037E00008F44FCF455051090BC04091071E50912E
:1037F000081E483E8DEF580708F043CF4B5F5F4FE0
:103800005093081E4093071E18C01093081E009383
:10381000071E4CE350E011C089EA99E10E944F2352
:103820000E94110644E050E060E070E0CB010E948D
:10383000F0054091071E5091081E62E070E080E0A4
:1038400090E00E94F0051DCF89ED99E10E944F2381
:103850000E94F823EC0186EA99E10E944F2386EF4B
:1038600099E10E944F230E94B2070E94BD078DE09C
:103870009AE10E94190880E29EE4F7013197F1F77E
:103880000197D9F71092041EFCCE8CE19AE10E94B8
:103890004F23F7CE0E94B2070E94BD0700E010E060
:1038A00084EFE82EFF24F39460E070E0CB010E94E7
:1038B000C905A0E0B0E08093DB1D9093DC1DA093D0
:1038C000DD1DB093DE1D0E94460780E90E945F0760
:1038D00080E00E945F070E94460781E90E945F071F
:1038E0000E944F078093031E0E9457078093DF1D9D
:1038F0000E944B070E94460780E90E945F0780E014
:103900000E945F070E94460781E90E945F070E94AC
:103910004F078093031E0E9457078093DF1D0E946C
:103920004B078091031E982F990F8091DF1D881FF0
:103930008827881F892B8093011E0E945D09609152
:10394000DB1D7091DC1D8091DD1D9091DE1D40918D
:10395000011E0E94AA054091DB1D5091DC1D609163
:10396000DD1D7091DE1D4F3F8FEF5807610571051A
:10397000E0F00F5F1F4FC017D10708F095CF8DE320
:103980009AE10E944F230E94B2070E94BD0787E57B
:103990009AE10E94190888E69AE1DF91CF911F9180
:1039A0000F91FF90EF900C9419084F5F5F4F6F4F8E
:1039B0007F4F4093DB1D5093DC1D6093DD1D7093A2
:1039C000DE1D60E070E0CB010E94F0054091071E13
:1039D0005091081E60E070E080E090E0DC01841708
:1039E0009507A607B70760F420E137E2F7013197A2
:1039F000F1F721503109D1F70196A11DB11DEFCF8B
:103A00008093E51D9093E61DA093E71DB093E81DFC
:103A1000B0CF0E94B2070E94BD0783E79AE10E94DF
:103A2000190884E00E9436059093D41D8093D31D1D
:103A300083E89AE10E944F238091311E9091321EBB
:103A40000E947B2385ED96E10E944F2386E00E9431
:103A500036059093321E8093311E84E99AE10E94CC
:103A60004F238091D31D9091D41D0E947B23809180
:103A7000D31D9091D41D0E94F8229B01AC01CB0173
:103A8000DA018093D71D9093D81DA093D91DB093D0
:103A9000DA1D5F934F933F932F9381E391E19F93BF
:103AA0008F938DEE9DE19F938F930E943E2A83EB2F
:103AB0009AE10E944F238DEE9DE10E944F238DB726
:103AC0009EB708960FB6F8949EBF0FBE8DBF86E2D4
:103AD0009DE10C944F23EF920F930E94B2070E9436
:103AE000BD0785EC9AE10E9419089BB184E0892703
:103AF0008BB984E00E9436059093D41D8093D31D2A
:103B000083E89AE10E944F238091311E9091321EEA
:103B10000E947B2385ED96E10E944F2386E00E9460
:103B200036059093321E8093311E84E99AE10E94FB
:103B30004F238091D31D9091D41D0E947B238091AF
:103B4000D31D9091D41D0E94F8229B01AC01CB01A2
:103B5000DA018093D71D9093D81DA093D91DB093FF
:103B6000DA1D5F934F933F932F9381E391E19F93EE
:103B70008F938DEE9DE19F938F930E943E2A83EB5E
:103B80009AE10E944F238DEE9DE10E944F2386E231
:103B90009DE10E944F230E943C236091E91D70919A
:103BA000EA1D8091051E9091061E0E94841485EDE9
:103BB00096E10E944F23E0900201009103012091C1
:103BC00004014091050160910601809107019091E7
:103BD00008010E9459138DB79EB708960FB6F89446
:103BE0009EBF0FBE8DBF86E29DE10F91EF900C94BA
:103BF0004F238091C00087FF0BC1E091C6008E2F3C
:103C000090E0FC01B397E435F10508F0EBC0EA5B06
:103C1000FF4F0C9470240C9417180C9409196091A0
:103C20000E0180E992E004C060910E0183EA92E007
:103C30000C94A30960910E018EE992E0F9CF609196
:103C40000E0188E992E0F4CF60E08CEA92E00E94F5
:103C5000A309DCC06FEF80910F0104C080910F01B8
:103C60006FEF81950C94182386E20C944E1080918E
:103C70000B010C947C1086E20C9462108FEF9FEF86
:103C80000E94E52286ED9AE19EC080E090E00E94CD
:103C9000E5228BEE9AE197C080910D010C94E90E1C
:103CA00080910D010C94D60C80910D010C942D0D7A
:103CB00080910D010C945A0D80910D010C94DE0D34
:103CC00080910D010C940B0E80910D010C948F0EC0
:103CD00080910D010C94BC0E80910D010C94870D08
:103CE00080910D010C94380E80910D010C94730F8E
:103CF00080910D010C94CA0F80910D010C9421103C
:103D000080910D010C94821080910A010C94C212D2
:103D100080910A010C94AE1280910A010C949A12BF
:103D200080910A010C948612809109010C94FE1274
:103D3000809109010C941213809109010C94D61200
:103D4000809109010C94EA128EE10C942613809163
:103D50000C010C945E1280910C010C9472128091F3
:103D60000C010C94361280910C010C944A1283E2DF
:103D70000C94EE1083E20C94921183E20C944011A7
:103D800083E20C94E41180910D010C941C0F0C94AF
:103D9000D91A0C943E1A0C94091D0E9436060E94F2
:103DA00074068093C51D80FD10C08AE692E00E94D3
:103DB0004F230E94D6069093C41D8093C31D0E947A
:103DC0007B2386EA99E10C944F2384E491E10E94DD
:103DD0004F230E9474068093C51D08950C946B1D9B
:103DE0000C94C71481E09BE10E944F236091000175
:103DF0007091010186EB91E00E94AD146091000189
:103E0000709101018EE991E00E94AD140C943C2365
:103E100008951F920F920FB60F9211248F939F93C4
:103E20008091C61D9091C71D01969093C71D8093E8
:103E3000C61D9F918F910F900FBE0F901F901895E8
:103E40001F920F920FB60F9211240BB60F928F9301
:103E50009F93EF93FF93E091CE1D80911001E80FA7
:103E6000E770E093CE1DF0E0E754F24E808185B913
:103E7000E091CE1DF0E0E754F24E808188B9809148
:103E8000CC1D9091CD1D01969093CD1D8093CC1D9E
:103E9000FF91EF919F918F910F900BBE0F900FBEEE
:103EA0000F901F9018951F920F920FB60F9211242A
:103EB0000BB60F922F933F934F935F936F937F9324
:103EC0008F939F93AF93BF93EF93FF930E94D0176D
:103ED0000E94F417FF91EF91BF91AF919F918F9145
:103EE0007F916F915F914F913F912F910F900BBEFA
:103EF0000F900FBE0F901F90189518950E94920971
:103F000086E29BE10E944F230E946B0589E49BE1BE
:103F10000E944F230E9435078BE69BE10E944F23AE
:103F20000E94C4078EE89BE10E944F2384B5826003
:103F300084BD85B5856085BD8FEF87BD80EB9BE136
:103F40000E944F2380918000816080938000809147
:103F5000810083608093810080918000806A8093DB
:103F6000800080916F00816080936F0086ED9BE1FF
:103F70000E944F238091B00081608093B0008091B7
:103F8000B10084608093B1008091B000806A80931A
:103F9000B0008CEF9BE10E944F23809191008160E3
:103FA0008093910082E29CE10E944F2380917C00EB
:103FB000806480937C0080917A00866080937A0090
:103FC00080917A00806880937A0088E49CE10E9466
:103FD0004F238091680084608093680080916D0019
:103FE000846080936D008AE69CE10E944F230E94CA
:103FF0002C0580917E00806F80937E0088B18C6359
:1040000088B981B1836081B981B18C6081B984B193
:10401000836084B987B1806C87B9239A529A789467
:104020008DE89CE10E944F2380EC9CE10E944F238D
:1040300084EF9CE10E944F2382E695E00E944F238B
:1040400085E995E00E944F2389EC95E00E944F237B
:1040500085E995E00E944F2380E096E00E944F237F
:1040600085E296E00E944F238BE596E00E944F2365
:1040700089E896E00E944F238FEB96E00E944F2341
:104080008AEF96E00E944F2387E297E00E944F2339
:104090008AE497E00E944F238BE797E00E944F232A
:1040A00085E995E00E944F238CE997E00E944F2319
:1040B00085E995E00E944F238AED97E00E944F2307
:1040C0008CEF97E00E944F2386E298E00E944F23F6
:1040D00084E498E00E944F2383E698E00E944F23F7
:1040E00085E995E00E944F2383E898E00E944F23E2
:1040F00085E995E00E944F2382EC98E00E944F23CF
:1041000080EE98E00E944F238FEF98E00E944F23AB
:104110008BE199E00E944F238DE399E00E944F23A9
:104120008BE599E00E944F2381E899E00E944F239C
:1041300087EA99E00E944F2385E995E00E944F238A
:1041400081EE99E00E944F2385E995E00E944F237C
:1041500080E29AE00E944F238BE59AE00E944F2371
:104160008CEC9AE00E944F238DE39BE00E944F234A
:1041700087E69BE00E944F238AE89BE00E944F2342
:1041800083EB9BE00E944F238CED9BE00E944F232A
:104190008FE09CE00E944F2382E49CE00E944F232A
:1041A00081E79CE00E944F2380EA9CE00E944F231D
:1041B0008FEC9CE00E944F238EEF9CE00E944F23E7
:1041C0008DE29DE00E944F2389E59DE00E944F23F0
:1041D00086E89DE00E944F2383EB9DE00E944F23E1
:1041E00081EE9DE00E944F2382E29EE00E944F23D9
:1041F00083E69EE00E944F2384EA9EE00E944F23C4
:1042000085E995E00E944F2385EE9EE00E944F23B2
:1042100085E995E00E944F2384E29FE00E944F23AE
:1042200089E59FE00E944F238EE89FE00E944F2384
:1042300083EC9FE00E944F2388EF9FE00E944F2372
:104240008FE290E10E944F2386E690E10E944F2387
:104250008DE990E10E944F2384ED90E10E944F236D
:104260008AE29DE10E944F230E9446070E94C407F4
:1042700085E9E82E8DE1F82EC9EADDE1870194EFAA
:10428000C92EDD24D3940E94BD0781E49DE10E94E4
:10429000190882E59DE10E94190880E090E00E94E3
:1042A000E5226091000170910101F80181919191E5
:1042B0008F010E94AD1484EF91E0F6013197F1F780
:1042C0000197D9F7C017D107F1F60E94B20700E5B0
:1042D00013EC0E94BD0782E69DE10E9419088FEF52
:1042E0009FEF0E94E5226091000170910101888199
:1042F00099810E94AD14C8010197F1F72297EC163D
:10430000FD0639F70E94B207CCE0D0E004EF11E0DF
:104310000E94BD0782E79DE10E94190883E89DE1A4
:104320000E94190880E090E00E94E522609100015F
:104330007091010188ED93E00E94AD1488EE93E046
:10434000F8013197F1F70197D9F760910001709169
:1043500001018DE693E00E94AD148FEF9FEF0E9464
:10436000E5222197A9F60E94B2070E944B07C0E5FB
:10437000D0E008EB18E8BE010D2E000C880B990B5D
:104380000E948E25AB01BC0180E00E946222C80120
:104390000197F1F72196CE3BD10569F762E370E012
:1043A00080EA0E94E92121E042E36AE08EE00E9477
:1043B000FB098091C61D9091C71D843C944031F447
:1043C0001092C71D1092C61D0E94AA170E94F91DC7
:1043D000F0CFEF92FF921F93CF93DF931F92CDB751
:1043E000DEB7182F7B0170933F1E60933E1E8093B3
:1043F0003D1E0E944607812F0E945F0780E00E94B9
:104400005F0781E30E945F070E944B07B70180E0CE
:1044100090E00E948C2520E030E040E855E40E94C6
:104420009B262FE135E84BE65FE30E949B269B012C
:10443000AC0160E27CEB8EEB9BE40E94EB2420E07D
:1044400030E040E85FE30E9479240E945D256983A3
:104450000E944607812F0E945F078EEF0E945F0730
:1044600089810E945F070E944B0787E893E10197CB
:10447000F1F700C000000E944607812F0E945F07ED
:1044800080E00E945F0781EA0E945F070E944B075D
:1044900087E893E10197F1F700C000000E9446070A
:1044A000812F0E945F0781E00E945F0784E00E94E5
:1044B0005F070E944B070F90DF91CF911F91FF90F4
:1044C000EF900895CF92DF92EF92FF92CF93C82F93
:1044D0006A017B0120E030E04AEF52E4C701B601F7
:1044E0000E94962618168CF020E030E04AEF52EC3D
:1044F000C701B6010E94E62487FF0DC0C12CD12C54
:104500009AEFE92E92ECF92E06C0C12CD12C8AEF3D
:10451000E82E82E4F82E25E535E545ED50E4C701A7
:10452000B6010E949B2620E030E84BEB54E40E9449
:104530007A240E945D2580E090E00E948C256B012A
:104540007C0160913E1E70913F1E80E090E00E94D1
:104550008C259B01AC0160E074E284E799E40E9441
:10456000EB240E945D2580E090E00E948C259B0159
:10457000AC01C701B6010E94EB2420E030E040E826
:1045800055E40E949B260E945D257B010E94460700
:1045900080913D1E0E945F078C2F880F880F8A5FD5
:1045A0000E945F0780E00E945F0780E00E945F0733
:1045B0008E2D0E945F078F2D0E945F07CF91FF9085
:1045C000EF90DF90CF900C944B07CF93DF93D82FD1
:1045D000C92F0E94460780E40E945F078D2F0E942A
:1045E0005F078C2F0E945F07DF91CF910C944B07E0
:1045F000BC0180E090E00E948C2529E23CE54FE67A
:104600005FEB0E94082722E538E646E256E40E9466
:104610009B2620E030E040E251E40E947924609340
:10462000C81D7093C91D8093CA1D9093CB1D08951A
:10463000181624F492E09093100104C09EEF90931A
:104640001001819567BD1092CD1D1092CC1D9091E7
:104650006E00926090936E00082E000C990B2091D2
:10466000CC1D3091CD1D82179307C9F780916E0044
:104670008D7F80936E0008952898299846984798D2
:1046800008959091C00095FFFCCF8093C6000895D7
:104690008091C00087FFFCCF8091C60008950F93E2
:1046A0001F93CF938C01C0E0F801EC0FF11D8081C6
:1046B000882321F00E944123CF5FF6CFCF911F9135
:1046C0000F910895CF93C82F64E60E945024805D17
:1046D0000E9441232AE08C2F622F0E945024C92F70
:1046E0000E94502480E3890F0E94412380E38C0FB5
:1046F000CF910C9441230F931F93CF93DF938C01A1
:1047000060E177E20E945C2480E3860F0E944123EF
:10471000C80168EE73E00E945C24CB01CAE0D0E0DF
:10472000BE010E945C24805D0E944123C80164E6B2
:1047300070E00E945C24CB01BE010E945C24805D7D
:104740000E944123C801BE010E945C24182FCB01A6
:10475000BE010E945C24805D0E94412380E3810FA2
:10476000DF91CF911F910F910C9441231F93CF9311
:10477000DF931F92CDB7DEB7898317E0898190E080
:10478000012E02C0959587950A94E2F780FF02C03A
:1047900081E301C080E30E944123115078F70F901C
:1047A000DF91CF911F9108950F931F93CF93DF93C4
:1047B000D0E3C0E310E30E944823082F0E94412366
:1047C0000D3021F01C2FCD2FD02FF5CF1053D0530B
:1047D00084E6189FD00D1124CC0FC0568C2F880F63
:1047E000880F8C0F8D0FDF91CF911F910F9108953E
:1047F000EF92FF920F931F93CF93DF9300E3C0E3F9
:10480000D0E310E380E3F82E0E944823E82E0E94B4
:1048100041238DE0E81631F0F12E1D2FDC2FC02F43
:104820000E2DF2CF2F2D30E02053310980E197E299
:10483000289FA001299F500D389F500D1124212F32
:1048400030E02053310968EE73E0269FC001279FB6
:10485000900D369F900D1124840F951F2D2F30E061
:104860002053310964E6629FA001639F500D11241B
:10487000840F951F2C2F30E0205331096AE0629F8E
:10488000A001639F500D1124840F951F800F911D6F
:10489000C097DF91CF911F910F91FF90EF900895F6
:1048A000991B79E004C0991F961708F0961B881F82
:1048B0007A95C9F780950895AA1BBB1B51E107C0E3
:1048C000AA1FBB1FA617B70710F0A61BB70B881FA0
:1048D000991F5A95A9F780959095BC01CD0108952F
:1048E000EE0FFF1F0024001C0BBE0790F691E02D79
:1048F00009945058BB27AA270E9491240C9444265F
:104900000E94362638F00E943D2620F039F49F3F61
:1049100019F426F40C9433260EF4E095E7FB0C947E
:104920000426E92F0E94552658F3BA176207730729
:104930008407950720F079F4A6F50C948F260EF4E1
:10494000E0950B2EBA2FA02D0B01B90190010C019F
:10495000CA01A0011124FF27591B99F0593F50F4B7
:10496000503E68F11A16F040A22F232F342F44270F
:10497000585FF3CF469537952795A795F040539507
:10498000C9F77EF41F16BA0B620B730B840BBAF0D7
:104990009150A1F0FF0FBB1F661F771F881FC2F742
:1049A0000EC0BA0F621F731F841F48F48795779556
:1049B0006795B795F7959E3F08F0B0CF9395880F10
:1049C00008F09927EE0F9795879508950E94E025A6
:1049D00008F481E008950E94FF240C9444260E946C
:1049E0003D2658F00E94362640F029F45F3F29F01A
:1049F0000C94042651110C9490260C9433260E949A
:104A0000552668F39923B1F3552391F3951B550B64
:104A1000BB27AA2762177307840738F09F5F5F4F91
:104A2000220F331F441FAA1FA9F335D00E2E3AF0D0
:104A3000E0E832D091505040E695001CCAF72BD0E8
:104A4000FE2F29D0660F771F881FBB1F2617370739
:104A50004807AB07B0E809F0BB0B802DBF01FF276B
:104A600093585F4F3AF09E3F510578F00C9404261E
:104A70000C9490265F3FE4F3983ED4F386957795A7
:104A80006795B795F7959F5FC9F7880F911D969524
:104A9000879597F90895E1E0660F771F881FBB1F80
:104AA000621773078407BA0720F0621B730B840B2D
:104AB000BA0BEE1F88F7E09508950E945D2688F0F6
:104AC0009F5798F0B92F9927B751B0F0E1F0660FD2
:104AD000771F881F991F1AF0BA95C9F714C0B13013
:104AE00091F00E948F26B1E008950C948F26672FD5
:104AF000782F8827B85F39F0B93FCCF38695779542
:104B00006795B395D9F73EF490958095709561952A
:104B10007F4F8F4F9F4F0895E89409C097FB3EF455
:104B200090958095709561957F4F8F4F9F4F9923FA
:104B3000A9F0F92F96E9BB279395F6958795779578
:104B40006795B795F111F8CFFAF4BB0F11F460FF38
:104B50001BC06F5F7F4F8F4F9F4F16C0882311F090
:104B600096E911C0772321F09EE8872F762F05C0A4
:104B7000662371F096E8862F70E060E02AF09A953F
:104B8000660F771F881FDAF7880F9695879597F934
:104B900008950E94772690F09F3748F4911116F0FF
:104BA0000C94902660E070E080E89FEB089526F476
:104BB0001B16611D711D811D0C940A260C9425265F
:104BC000990F0008550FAA0BE0E8FEEF161617061E
:104BD000E807F907C0F012161306E407F50798F086
:104BE000621B730B840B950B39F40A2661F0232B9F
:104BF000242B252B21F408950A2609F4A140A6951B
:104C00008FEF811D811D089597F99F6780E870E0FF
:104C100060E00895882371F4772321F09850872B62
:104C2000762F07C0662311F499270DC09051862B6B
:104C300070E060E02AF09A95660F771F881FDAF718
:104C4000880F9695879597F908959F3F31F0915079
:104C500020F4879577956795B795880F911D969560
:104C6000879597F908959FEF80EC089500240A94A2
:104C70001616170618060906089500240A94121637
:104C80001306140605060895092E0394000C11F46A
:104C9000882352F0BB0F40F4BF2B11F460FF04C017
:104CA0006F5F7F4F8F4F9F4F089557FD9058440F70
:104CB000551F59F05F3F71F04795880F97FB991F7B
:104CC00061F09F3F79F08795089512161306140638
:104CD000551FF2CF4695F1DF08C0161617061806C5
:104CE000991FF1CF869571056105089408950E947A
:104CF0005D26A0F0BEE7B91788F4BB279F3860F4A3
:104D00001616B11D672F782F8827985FF7CF8695E5
:104D100077956795B11D93959639C8F30895E894F2
:104D2000BB2766277727CB0197F908950E94E025D6
:104D300008F48FEF08950E94AE260C9444260E943A
:104D4000362638F00E943D2620F0952311F00C9471
:104D500004260C94332611240C9490260E94552688
:104D600070F3959FC1F3950F50E0551F629FF001BE
:104D7000729FBB27F00DB11D639FAA27F00DB11DD7
:104D8000AA1F649F6627B00DA11D661F829F222760
:104D9000B00DA11D621F739FB00DA11D621F839FE7
:104DA000A00D611D221F749F3327A00D611D231FBD
:104DB000849F600D211D822F762F6A2F11249F570B
:104DC00050409AF0F1F088234AF0EE0FFF1FBB1F0E
:104DD000661F771F881F91505040A9F79E3F5105CD
:104DE00080F00C9404260C9490265F3FE4F3983EE8
:104DF000D4F3869577956795B795F795E7959F5F77
:104E0000C1F7FE2B880F911D9695879597F9089508
:104E1000FA01EE0FFF1F309621053105A1F1611552
:104E2000710561F48038BFE39B0749F168949038BD
:104E3000810561F08038BFEF9B0741F099234AF567
:104E4000FF3FE1053105210519F1E8940894E79544
:104E5000D901AA2329F4AB2FBE2FF85FD0F310C0DD
:104E6000FF5F70F4A695E0F7F73950F019F0FF3ABC
:104E700038F49F779F930DD00F9007FC90580895BA
:104E800046F00C94332660E070E080E89FE30895DC
:104E90004FE79F775F934F933F932F930E9427286D
:104EA0002F913F914F915F910E949B260C948427F4
:104EB0000E945D26E8F09E37E8F09639B8F49E38F7
:104EC00048F4672F782F8827985FF9CF86957795D4
:104ED000679593959539D0F3B62FB1706B0F711D0F
:104EE000811D20F487957795679593950C940A26F4
:104EF0000C9425260C94902629F416F00C94042684
:104F00000C948F260C9433260E945D26A8F39638C5
:104F1000A0F707F80F92E8942BE33AEA48EB5FE733
:104F20000E94B1260F920F920F924DB75EB70F926B
:104F30000E946F28E4E3F1E00E94B6274F915F9151
:104F4000EF91FF91E595EE1FFF1F49F0FE57E068D6
:104F50004427EE0F441FFA95E1F74195550B0E9447
:104F6000E9270F9007FE0C94DD270895DF93CF9378
:104F70001F930F93FF92EF92DF927B018C01689455
:104F800006C0DA2EEF010E94AE26FE01E894A5913C
:104F90002591359145915591A6F3EF010E949124F9
:104FA000FE019701A801DA9469F7DF90EF90FF9076
:104FB0000F911F91CF91DF9108959B01AC0160E0AB
:104FC00070E080E89FE30C94EB240C9404260C948E
:104FD00025260E945D26D8F39923C9F3940F511D0D
:104FE000A3F39150504094F059F0882332F0660FAB
:104FF000771F881F91505040C1F79E3F51052CF7F5
:10500000880F911D9695879597F908955F3FACF0AD
:10501000983E9CF0BB27869577956795B79508F4E1
:10502000B1609395C1F7BB0F58F711F460FFE8CF5B
:105030006F5F7F4F8F4F9F4FE3CF0C94902616F0FA
:105040000C9425260C94332668940C9404260E9414
:105050005D26A8F39923C1F3AEF3DF93CF931F939B
:105060000F93FF92C92FDD2788232AF02197660F1F
:10507000771F881FDAF720E030E040E85FEB9FE31E
:10508000883920F0803E38F021968F770E947A246C
:10509000ECE5F1E004C00E947A24E9E8F1E00E9426
:1050A000B6278B01BE01EC01FB2E6F577109759578
:1050B000771F880B990B0E948E2528E132E741E388
:1050C0005FE30E94AE26AF2D9801AE01FF900F91D5
:1050D0001F91CF91DF910E9491240C944426FA01F4
:1050E000DC01AA0FBB1F9B01AC01BF5728F422278C
:1050F00033274427507820C0B75190F4AB2F0024B9
:10510000469537952795011CA395D2F3002071F0A1
:10511000220F331F441FB395DAF30ED00C94792479
:1051200061307105A0E88A07B94630F49B01AC01F3
:105130006627772788279078309621F0208331835F
:10514000428353830895FC0188279927E89421918D
:105150002032E9F3293010F02E30C8F32B3241F021
:105160002D3239F4689404C00E94E029820F911D09
:10517000219120532A30C0F31EF4909581959F4FC2
:105180000895283008F027E03327DA01990F311D00
:1051900087FD916000966105710539F432602E5FDC
:1051A0003D9330E32A95E1F708959F3F30F0803832
:1051B0007105610509F03C5F3C5F3D93913008F05B
:1051C0008068911DDF93CF931F930F93FF92EF920F
:1051D000192F987F9695E92F96959695E90FFF27B9
:1051E000E85EFD4F99273327EE24FF24A701E7014E
:1051F00005900894079428F4360FE71EF81E491FFF
:10520000511D660F771F881F991F0694A1F70590FF
:10521000079428F4E70EF81E491F561FC11D770F8B
:10522000881F991F661F0694A1F70590079428F41C
:10523000F80E491F561FC71FD11D880F991F661FE3
:10524000771F0694A1F70590079420F4490F561F85
:10525000C71FD81F990F661F771F881F0694A9F7CD
:1052600084911095177041F0D695C795579547953D
:10527000F794E7941A95C1F7EEEBF1E06894159076
:10528000159135916591959105907FE27395E1189F
:10529000F10A430B560BC90BD009C0F7E10CF11E04
:1052A000431F561FC91FD01D7EF4703311F48A9519
:1052B000E6CFE894015030F0080F0AF400270217F7
:1052C00008F4202F2395022F7A3328F079E37D9379
:1052D0002A95E9F710C07D932A9589F6069497954B
:1052E0006795379517951794E118F10A430B560BFC
:1052F000C90BD00998F023957E9173957A3308F005
:1053000070E37C932013B8F77E9170617D9330F049
:10531000839571E37D9370E32A95E1F71124EF9073
:10532000FF900F911F91CF91DF91992787FD909565
:105330000895FC010590615070400110D8F78095E8
:1053400090958E0F9F1F0895FB01DC010D900020AA
:10535000E9F7119701900D920020E1F70895FB0104
:10536000DC018D91019080190110D9F3990B0895FA
:10537000FB01DC0101900D920020E1F70895FC0192
:105380006150704001900110D8F7809590958E0F74
:105390009F1F08954532510520F4423010F00C94BF
:1053A000D529FB011082CB010895BB274A3031F487
:1053B000992322F4BDE2909581959F4F0C94E929A1
:1053C0007AE0979F902D879F802D910D112408954D
:1053D000BB27FB015527AA27880F991FAA1FA417CF
:1053E00010F0A41B83955051B9F7A05DAA3308F0C3
:1053F000A95DA193009779F7B111B1931192CB01F7
:105400000C94CB2A0F931F93CF93DF93FB0123813F
:1054100021FD03C08FEF9FEF2CC022FF16C04681F5
:105420005781248135814217530744F4A081B1810B
:105430009D012F5F3F4F318320838C9326813781DD
:105440002F5F3F4F3783268314C08B01EC01FB0194
:105450000084F185E02D0995892BE1F6D801169697
:105460008D919C911797019617969C938E93169702
:10547000CE01DF91CF911F910F9108950F931F934C
:10548000CF93DF93CDB7DEB72E970FB6F894DEBF7C
:105490000FBECDBF0D891E8986E08C831A830983D8
:1054A0008FEF9FE79E838D83AE01475E5F4F6F89CD
:1054B000788DCE0101960E948601EF81F885E00F7C
:1054C000F11F10822E960FB6F894DEBF0FBECDBF2F
:1054D000DF91CF911F910F910895FA01AA272830EB
:1054E00051F1203181F1E8946F936E7F6E5F7F4FB1
:1054F0008F4F9F4FAF4FB1E03ED0B4E03CD0670F2D
:10550000781F891F9A1FA11D680F791F8A1F911D7F
:10551000A11D6A0F711D811D911DA11D20D009F4CF
:1055200068943F912AE0269F11243019305D319311
:10553000DEF6CF010895462F4770405D4193B3E0FA
:105540000FD0C9F7F6CF462F4F70405D4A3318F0A1
:10555000495D31FD4052419302D0A9F7EACFB4E052
:10556000A6959795879577956795BA95C9F700970A
:105570006105710508959B01AC010A2E06945795AB
:10558000479537952795BA95C9F7620F731F841F02
:10559000951FA01D0895DC01FC01672F71917723F1
:1055A000E1F7329704C07C916D9370836291AE17DE
:0A55B000BF07C8F30895F894FFCF79
:1055BA000078191E0C050BE60714141414141405AC
:1055CA000269737375696E672061646472657373C7
:1055DA00202B20777269746520626974203E3E2010
:1055EA006F6B212C2064657669636520616363654E
:1055FA00737369626C650D0A007265676973746515
:10560A00722030783030206164647265737320735D
:10561A00656E74203E3E206F6B210D0A0077726F13
:10562A007465203078303420746F2072656769732E
:10563A0074657220307830300D0A007265676973BC
:10564A0074657220307830312061646472657373D6
:10565A002073656E74203E3E206F6B210D0A00692F
:10566A0020616D20686572650069737375696E677C
:10567A002061646472657373202B207265616420F3
:10568A00626974203E3E206F6B212C206465766926
:10569A0063652061636365737369626C65202D2D90
:1056AA002D2D2D2D0D0A000D0A4C494441522D5322
:1056BA005441545553203D200072656769737465DF
:1056CA00722030783846206164647265737320737F
:1056DA00656E74203E3E206F6B210D0A006973735C
:1056EA0075696E672061646472657373202B20721A
:1056FA0065616420626974203E3E206F6B212C2014
:10570A006465766963652061636365737369626C56
:10571A0065202A2A2A2A2A0D0A0064697374616E8E
:10572A006365203D20002569002E350D0A002E35BF
:10573A0000202020202020002E300D0A002E3000CC
:10574A00666F7277617264007269676874006C656B
:10575A006674006261636B77617264006272616B86
:10576A006500726F626F2D64726976653A205768B8
:10577A0061743F202E2E2E000D0A6D6F76655F53E1
:10578A006572766F5F42696469726563743A20690B
:10579A006E76616C696420617267756D656E74738B
:1057AA0020C2AF5C28C2B05F6F292FC2AF000D0ABA
:1057BA0020726F626F4472697665203E3E2053659F
:1057CA0072766F202D2D2D2D2D2D2D2D2D2D2D3E2B
:1057DA00003C2D2D2D206973206D6F7665642E0097
:1057EA000D0A204652414D20617420616464722082
:1057FA00002073746F7265732000203C2D2D2D20BC
:10580A006E657720616E676C65000D0A3E3E206307
:10581A007573746F6D206D656368612D61726D209B
:10582A006D6F76656D656E7420706172616D6574F9
:10583A006572733A000D0A656E746572207365723B
:10584A00766F204E72203E3E205B302D31345D3A19
:10585A0020000D0A656E7465722074617267657442
:10586A0020616E676C65205B302D3132355D3A20E0
:10587A00000D0A656E7465722064697265637469E5
:10588A006F6E205B2B206F72203020666F72206152
:10589A006E7469636C6F636B776973652C202D2056
:1058AA006F72203120666F7220636C6F636B776949
:1058BA0073655D3A200D0A00090920706F736974D7
:1058CA006976652C20616E7469636C6F636B7769A6
:1058DA007365000909206E656761746976652C2015
:1058EA00636C6F636B776973650009092064697279
:1058FA00656374696F6E20756E7265636F676E6932
:10590A007A65642C2061626F7274206279207365F3
:10591A007474696E6720736572766F2049442074C7
:10592A006F203130302E000D0A656E746572207357
:10593A006572766F207370656564203E3E205B3029
:10594A002D3235355D3A20000D0A656E7465722078
:10595A00736572766F20616363656C6572617469E1
:10596A006F6E203E3E205B302D3235355D3A200089
:10597A000D0A6D6F76655F536572766F5F42696473
:10598A0069726563742065786563757465642E0051
:10599A007363616E6E6572206D696E696D616C20EC
:1059AA0076616C75653A2000596561723A20004D3E
:1059BA006F6E74683A20004461793A2000486F7526
:1059CA00723A20004D696E3A20005365633A20000E
:1059DA0064697374616E63652D74726176656C6552
:1059EA00643A20007269676874203D20006C65661D
:1059FA0074203D2000726F626F44726976652035AB
:105A0A002E39200048656C70202F20526561646D24
:105A1A0065000D0A0A202D2D2D3E205B726F626FE4
:105A2A00447269766520456E67696E6520496E73B2
:105A3A007472756374696F6E207365745D203C2D92
:105A4A002D2D0D0A000D0A2020202D2D2D2D2D2D56
:105A5A002D2D2D2D2D2D2D2D2D2D2D2D2D2D2D2D6C
:105A6A002D2D2D2D2D2D2D2D2D2D2D2D2D2D2D2D5C
:105A7A002D2D2D2D2D2D0D0A000D0A2020202D2D26
:105A8A002D2D2D2D2D20203E2052756E20436F6E18
:105A9A0074726F6C203C202D2D2D2D2D2D2D2D2D2A
:105AAA002D2D2D2D2D2D2D2D2D2D2D2D2D0D0A008C
:105ABA000D0A202D3E207072657373205B545D20A1
:105ACA00285570646174652054696D652F4461744A
