:100000000C9465010C9484010C9484010C9484017B
:100010000C9484010C9484010C94C1200C948401F0
:100020000C9484010C9484010C9484010C9484013C
:100030000C9484010C9484010C9484010C9477201A
:100040000C948E200C9484010C9484010C948401F3
:100050000C9484010C9484010C9484010C9484010C
:100060000C94EB200C9484010C9484010C94840176
:100070000C9484010C9484010C9484010C948401EC
:100080000C9484010C9484010C948401B81F6020AA
:1000900060206020602060206020AF1FF01FE41F00
:1000A000EC1FE81FA81FA51FD81FDC1FE01F981F0B
:1000B000A11F941FBC1F9E1FC01F602060206020D6
:1000C0006020602060206020841F33200420891F6E
:1000D0003920372060205E20602060206020C41F0F
:1000E00010200C20771F14203B20C81F7E1F751F77
:1000F0005C200820791F8E1F602035206020602042
:100100006020602060206020CC1F60201720F41F3A
:100110002720F81F6020FC1F60200020D41FD01F64
:1001200023201F202D20302060202A206020B61F91
:1001300060201B2007634236B79BD8A71A39685640
:1001400018AEBAAB558C1D3CB7CC5763BD6DEDFDF9
:10015000753EF6177231BF000000803F08000000B6
:10016000BE922449123EABAAAA2ABECDCCCC4C3EAC
:1001700000000080BEABAAAAAA3E00000000BF009B
:100180000000803F0000000000084178D3BB438797
:10019000D1133D190E3CC3BD4282AD2B3E68EC82AB
:1001A00076BED98FE1A93E4C80EFFFBE01C4FF7F30
:1001B0003F00000000006E616E00696E6600004046
:1001C0007A10F35A00A0724E18090010A5D4E80066
:1001D00000E87648170000E40B54020000CA9A3B7E
:1001E000000000E1F5050000809698000000404204
:1001F0000F000000A0860100000010270000000092
:10020000E803000000006400000000000A00000095
:1002100000000100000000002C76D888DC674F0841
:1002200023DFC1DFAE59E1B1B796E5E3E453C63A47
:10023000E651997696E8E6C28426EB898C9B62EDBE
:10024000407C6FFCEFBC9C9F40F2BAA56FA5F49078
:10025000055A2AF75C936B6CF9676DC11BFCE0E4EF
:100260000D47FEF520E6B500D0ED902E0300943545
:1002700077050080841E080000204E0A000000C898
:100280000C333333330F986E12831141EF8D2114E9
:10029000893BE65516CFFEE6DB18D1844B381BF7B9
:1002A0007C1D901DA4BBE424203284725E22810058
:1002B000C9F124ECA1E53D272569207365632E2053
:1002C000666F72206D656E75000011241FBECFEF42
:1002D000D0E4DEBFCDBF1EE1A0E0B1E0E0E1FEE58D
:1002E00000E00BBF02C007900D92A231B107D9F711
:1002F0002EE1A2E1BEE101C01D92A03AB207E1F7F2
:100300000E94EC200C94062F0C9400002F923F9238
:100310004F925F926F927F928F929F92AF92BF9215
:10032000CF92DF92EF92FF920F931F93CF93DF93C1
:10033000CDB7DEB760970FB6F894DEBF0FBECDBF66
:100340007C011B016A01FC0117821682838181FFF7
:1003500044C39E012F5F3F4F3901F7019381F101A3
:1003600093FD859193FF81911F01882309F431C387
:10037000853239F493FD859193FF81911F01853278
:1003800039F4B70190E00E942D2E56016501E5CFAA
:1003900010E0512C912CFFE1F915D8F08B3279F057
:1003A00038F4803279F08332A1F4F92DF0612EC057
:1003B0008D3261F0803369F4292D21602DC0392DF3
:1003C0003260932E892D8460982E2AC0E92DE86032
:1003D00015C097FC2DC020ED280F2A3088F496FE1A
:1003E00006C03AE0139F200D1124122F19C08AE095
:1003F000589E200D1124522EE92DE0629E2E10C031
:100400008E3231F496FCE5C2F92DF0649F2E08C0BF
:100410008C3621F4292D2068922E02C0883641F4B2
:10042000F10193FD859193FF81911F018111B3CF5C
:100430009BEB980F933020F4992D9061805E07C05C
:100440009BE9980F933008F066C1992D9F7E96FF27
:1004500016E09F73992E853619F49064992E08C082
:10046000863621F4392F3068932E02C011111150B5
:1004700097FE07C01C3350F444244394410E27E0F8
:100480000BC0183038F027E017E005C027E09CE3E8
:10049000492E02C0212F412C560184E0A80EB11C28
:1004A000F6016081718182819381042DA3010E94F4
:1004B000EC2C6C01F981FC87F0FF02C0F3FF06C051
:1004C00091FC06C092FE06C000E205C00DE203C02A
:1004D0000BE201C000E08C858C7019F001115AC24A
:1004E0009BC297FE10C04C0CFC85F4FF04C08A81AF
:1004F000813309F44A94141474F528E0241578F52E
:1005000088E0482E2CC096FC2AC0812F90E08C15E4
:100510009D059CF03CEFC3163FEFD30674F0892D88
:100520008068982E0AC0E2E0F0E0EC0FFD1FE10FBA
:10053000F11D8081803319F411501111F4CF97FE11
:100540000EC044244394410E812F90E0C816D90672
:100550002CF41C1904C04424439401C010E097FEFD
:1005600006C01C141D0434F4C601019605C085E0C4
:1005700090E002C081E090E001110196112331F07A
:10058000212F30E02F5F3F4F820F931F252D30E04A
:100590008217930714F4581A01C0512C892D8970C1
:1005A00049F4552039F0B70180E290E00E942D2EE9
:1005B0005A94F7CF002329F0B701802F90E00E94D2
:1005C0002D2E93FC09C0552039F0B70180E390E04F
:1005D0000E942D2E5A94F7CF97FE4CC04601D7FEAD
:1005E00002C0812C912CC60188199909F301E80FEA
:1005F000F91FFE87ED87960124193109388B2F8763
:10060000012F10E01195019511093FEF8316930614
:1006100029F4B7018EE290E00E942D2EC814D9046F
:100620004CF08F8598898815990524F4ED85FE8511
:10063000818101C080E3F1E08F1A91082D853E850C
:100640002F5F3F4F3E872D87801691062CF0B70114
:1006500090E00E942D2ED9CFC814D90441F49A817C
:10066000963320F4953319F43C8534FF81E3B701C8
:1006700090E04EC08A81813319F09C859F7E9C87D3
:10068000B70190E00E942D2E111105C094FC18C0F6
:1006900085E690E017C0B7018EE290E00E942D2E13
:1006A0001E5F82E001E0080FF301E80FF11D808179
:1006B000B70190E00E942D2E802F0113F3CFE6CFDB
:1006C00085E490E0B7010E942D2ED7FC06C0C1142E
:1006D000D10441F4EC85E4FF05C0D194C194D10864
:1006E0008DE201C08BE2B70190E00E942D2E80E3E5
:1006F0002AE0C216D1042CF08F5FFAE0CF1AD1089D
:10070000F7CFB70190E00E942D2EB701C601C09629
:100710000E942D2E54C1833631F0833779F0833512
:1007200009F056C020C0560132E0A30EB11CF601FC
:100730008081898301E010E0630112C05601F2E07C
:10074000AF0EB11CF601C080D18096FE03C0612FB0
:1007500070E002C06FEF7FEFC6010E94EA2D8C01AE
:10076000F92DFF7714C0560122E0A20EB11CF6014C
:10077000C080D18096FE03C0612F70E002C06FEF91
:100780007FEFC6010E94C42D8C01F92DF0689F2EC9
:10079000F3FD1AC0852D90E008171907A8F4B701DA
:1007A00080E290E00E942D2E5A94F4CFF60197FC3F
:1007B000859197FE81916F01B70190E00E942D2EE7
:1007C00051105A94015011090115110579F7F7C01C
:1007D000843611F0893661F5560197FE09C024E090
:1007E000A20EB11CF60160817181828193810AC0E1
:1007F000F2E0AF0EB11CF60160817181072E000C92
:10080000880B990BF92DFF769F2E97FF09C09095C5
:100810008095709561957F4F8F4F9F4FF0689F2E09
:100820002AE030E0A3010E94982EC82EC6183FC0CF
:10083000092D853721F40F7E2AE030E01DC0097FA5
:100840008F3691F018F4883559F0C3C0803719F00D
:10085000883711F0BEC0006104FF09C0046007C002
:1008600094FE08C0066006C028E030E005C020E124
:1008700030E002C020E132E0560107FF09C084E009
:10088000A80EB11CF601608171818281938108C03C
:10089000F2E0AF0EB11CF6016081718180E090E062
:1008A000A3010E94982EC82EC6180F77902E96FE90
:1008B0000BC0092D0E7FC11650F494FE0AC092FCA5
:1008C00008C0092D0E7E05C0DC2C092D03C0DC2CD0
:1008D00001C0D12E04FF0DC0FE01EC0DF11D808181
:1008E000803311F4097E09C002FF06C0D394D3946B
:1008F00004C0802F867809F0D39403FD11C000FF57
:1009000006C01C2DD51480F4150D1D190DC0D5146D
:1009100058F4B70180E290E00E942D2ED394F7CFD7
:10092000D51410F45D1801C0512C04FF10C0B7019C
:1009300080E390E00E942D2E02FF17C001FD03C04E
:1009400088E790E002C088E590E0B7010CC0802FF6
:10095000867859F001FF02C08BE201C080E207FDFA
:100960008DE2B70190E00E942D2EC11638F4B70138
:1009700080E390E00E942D2E1150F7CFCA94F3012E
:10098000EC0DF11D8081B70190E00E942D2EC11069
:10099000F5CF15C0F4E0F51560F584E0581A93FE24
:1009A0001FC0011127C02C8523FF2AC006EB11E0D0
:1009B000392D3071932EF8018491811124C0552076
:1009C00009F4E4CCB70180E290E00E942D2E5A9405
:1009D000F6CFF7018681978126C08FEF9FEF23C066
:1009E000B70180E290E00E942D2E5A945110F8CF6A
:1009F000D8CF512CB701802F90E00E942D2ED3CF5D
:100A00000AEB11E0D5CF91108052B70190E00E941F
:100A10002D2E0F5F1F4FCFCF23E0251510F483E05D
:100A2000BDCF512CC0CF60960FB6F894DEBF0FBE7D
:100A3000CDBFDF91CF911F910F91FF90EF90DF908D
:100A4000CF90BF90AF909F908F907F906F905F906E
:100A50004F903F902F90089583B7817F826083BF2E
:100A6000EAE7F0E0808188608083089590917C00BF
:100A7000907E90937C0090917C00892B80937C00E9
:100A800080917A00806480937A0080917A0086FF5A
:100A9000FCCF809178009091790008951F93CF93B7
:100AA000DF9310E1C0E0D0E083B7816083BF889519
:100AB00083B78E7F83BF87E00E943605C80FD91F9A
:100AC000115091F7CE019695879596958795DF9170
:100AD000CF911F910895249A2C9A259A2E9A279A9D
:100AE0008CB581608CBD8CB580618CBD8CB580640B
:100AF0008CBD08958EBD0DB407FEFDCF0895CF9334
:100B0000DF93EB010E947A058D2F0E947A058C2FCE
:100B1000DF91CF910C947A052C9886E00E947A059B
:100B20002C9A0895CF92DF92EF92FF926B017C0195
:100B30002C9883E00E947A05C701B6010E947F05C8
:100B400080E00E947A052C9A8EB5FF90EF90DF909E
:100B5000CF900895CF92DF92EF92FF92CF936B01E7
:100B60007C01C42F0E948C052C9882E00E947A059B
:100B7000C701B6010E947F058C2F0E947A050DB433
:100B800007FEFDCF2C9ACF91FF90EF90DF90CF9092
:100B90000895CF92DF92EF92FF92CF93DF936B0194
:100BA0007C012C9883E00E947A05C701B6010E945F
:100BB0007F0580E00E947A05CEB5D0E0DC2FCC27FF
:100BC00080E00E947A058EB52C9A9E01280F311D77
:100BD000C901DF91CF91FF90EF90DF90CF90089502
:100BE000CF92DF92EF92FF92CF93DF936B017C0164
:100BF000EA010E948C052C9882E00E947A05C701C8
:100C0000B6010E947F058D2F0E947A058C2F0E94CD
:100C10007A052C9ADF91CF91FF90EF90DF90CF90E3
:100C20000895CF92DF92EF92FF92C12CD12C7601E2
:100C30000E948C052C9882E00E947A05C701B601BB
:100C40000E947F0580E00E947A058FEFC81AD80ABB
:100C5000E80AF80A2C9A8FEFC816D806E104F104C6
:100C600039F7FF90EF90DF90CF9008950E944607EC
:100C700084EC0E945F078091B900887F883199F5E4
:100C800088E191E00E94C92488E10E94E6258DEB6D
:100C900099E10E94C92480E00E945F078091B90019
:100CA000887F883201F580E591E00E94C92488E2BE
:100CB0000E94E6258DEB99E10E94C92484E00E9400
:100CC0005F078091B900887F883269F484E791E0FA
:100CD0000E94C92488E20E94E6258DEB99E10E94DA
:100CE000C9240C944B070895CF930E94460784ECC7
:100CF0000E945F078091B900887F883101F588E103
:100D000091E00E94C92488E10E94E6258DEB99E1DB
:100D10000E94C92481E00E945F078091B900887F0A
:100D2000883269F482E991E00E94C92488E20E9435
:100D3000E6258DEB99E10E94C9240E944B0786EBC2
:100D400091E00E94C9248DEB99E10E94C9240E9480
:100D5000460785EC0E945F07C091B900C87F8C2FC1
:100D60000E94E6258DEB99E10E94C924C034D1F49C
:100D700080EC91E00E94C92480E40E94E6258DEB7E
:100D800099E10E94C9240E945707C82F8EEF91E075
:100D90000E94C9248C2F0E94E6258DEB99E10E94C8
:100DA000C92401C0C0E08C2FCF9108951F93CF9329
:100DB000DF930E94460784EC0E945F078091B90090
:100DC000887F883159F488E191E00E94C92488E144
:100DD0000E94E6258DEB99E10E94C9248FE80E94CC
:100DE0005F078091B900887F883269F480E192E0E2
:100DF0000E94C92488E20E94E6258DEB99E10E94B9
:100E0000C9240E944B070E94460785EC0E945F0799
:100E10008091B900887F803409F584E392E00E94D4
:100E2000C92480E40E94E6258DEB99E10E94C92443
:100E30000E944F07182F0E945707C82F0E944B0788
:100E4000D0E0D12B81E792E00E94C924CE010E941C
:100E5000F5248DEB99E10E94C92402C0C0E0D0E0E6
:100E6000CE01DF91CF911F91089588B1836088B939
:100E700086E48093B800ECEBF0E0808184608083AE
:100E800008958091BC0087FFFCCF089584EA809389
:100E9000BC000C94410784E98093BC00089584EC65
:100EA0008093BC000E9441078091BB00089584E8B4
:100EB0008093BC000E9441078091BB0008958093FD
:100EC000BB0084E88093BC000C944107CF93C82FEB
:100ED0000E9446078EE40E945F078C2F88600E9464
:100EE0005F07CF910C944B071F93CF93DF93D82FBD
:100EF00011E0611101C010E0D4FF02C080E101C027
:100F000080E0D5FD8062D6FD8064D7FD8068C82F63
:100F1000C12B8C2F84600E94660787EA91E60197B7
:100F2000F1F700C000008C2F0E946607D0FF02C0BE
:100F300080E101C080E0D1FD8062D2FD8064D3FDFC
:100F40008068182B812F84600E94660787EA91E6EB
:100F50000197F1F700C00000812FDF91CF911F9121
:100F60000C94660760E081E00E94740760E080E80E
:100F70000E9474071092121E089560E080E80E949B
:100F800074071092121E0895CF93C4E0C150B1F0BF
:100F900084E30E9466078FE493EC0197F1F700C0A9
:100FA000000080E30E9466079FE72AE186E09150F7
:100FB00020408040E1F700C00000E8CF84E20E94BA
:100FC00066078FE493EC0197F1F700C0000080E220
:100FD0000E9466078FE493EC0197F1F700C00000D0
:100FE00060E088E20E94740760E08CE00E94740771
:100FF000CF910C94B207CF93C82F8091121E8031ED
:1010000021F460E080EC0E9474078091121E80320F
:1010100031F460E080E80E9474071092121E809103
:10102000121E8F5F8093121E61E08C2FCF910C9463
:1010300074070F931F93CF93DF93EC018E01888188
:101040008823F1F08091121E803121F460E080EC61
:101050000E9474078091121E803231F460E080E8B3
:101060000E9474071092121E8091121E8F5F80934F
:10107000121E219661E0F80180810E947407DECF84
:10108000DF91CF911F910F9108954F925F926F92D0
:101090007F928F929F92AF92BF92CF92DF92EF9208
:1010A000FF920F931F93CF93DF93CDB7DEB7649773
:1010B0000FB6F894DEBF0FBECDBFFE01B79681908C
:1010C00091907F01712C6E018BE0C80ED11CFE0146
:1010D00031965F0180E3682E2401FFEF4F1A5F0A0B
:1010E000F4018491882309F4A6C0853209F08FC0E9
:1010F00084010E5F1F4FF2018491282F30E02053AE
:1011000031092A303105D8F589831A82C5010E9438
:10111000CE2C782E94012D5F3F4FF80104910936B3
:1011200051F138F40236E1F10336D1F0890148017A
:10113000D3CF033731F0083779F10F36B9F789018A
:1011400028C08901F70180809180F2E0EF0EF11C48
:10115000F40181914F01882351F30E94FB07F8CFDE
:1011600089014701F2E08F0E911CF70180810E94F6
:10117000FB077401DCCF890198014AE012C089366F
:10118000D9F308F448C08337E9F2883731F08F3655
:1011900071F6980148E005C08901980140E101C05D
:1011A00042E050E04701F2E08F0E911CF701808190
:1011B00091818901B6010E94F52DF601CF018C19AC
:1011C0009D0921912111FACF272D30E08217930735
:1011D000C4F4781AF501872D90E09F012A193B0984
:1011E0002817390714F46192F8CFF501E80FF91FB9
:1011F0001082B601C5010E94CF2DB501C6010E9423
:10120000E32DC6010E9419087401712C90CF0E9431
:10121000FB0782018CCF823651F44701F2E08F0E3A
:10122000911CF7018081918142E050E0C3CF833669
:1012300009F497CF7CCF64960FB6F894DEBF0FBE4B
:10124000CDBFDF91CF911F910F91FF90EF90DF9075
:10125000CF90BF90AF909F908F907F906F905F9056
:101260004F90089550E05093890040938800882360
:1012700019F0109A549A02C01098549850938B0009
:1012800040938A00662319F0119A559A089511988F
:10129000559808954093B300882319F0129A569AEE
:1012A00002C0129856984093B400662319F0139A1E
:1012B000579A0895139857980895CF93DF93C82F9E
:1012C000D82FD6958D2F0E94DC241F92DF938DE7B7
:1012D00092E09F938F9383E79EE19F938F930E9469
:1012E000692E83E79EE10E9419080F900F900F90DE
:1012F0000F900F900F90C0FF07C080E892E00E940F
:10130000C92485E892E006C08FE892E00E94C924D3
:1013100084E992E00E94190888E892E0DF91CF9179
:101320000C9419081092C50084E08093C400E0EC8E
:10133000F0E080818260808388E18093C10086E054
:101340008093C20008950F931F93CF938C01C62FF3
:1013500067E972E00E94DA2D892B21F44C2F60E0BE
:1013600081E01EC06FE972E0C8010E94DA2D892B6E
:1013700069F44C2F60E081E00E944A094C2F61E043
:1013800080E0CF911F910F910C94320965EA72E0D1
:10139000C8010E94DA2D892B49F44C2F61E080E0CE
:1013A0000E944A094C2F60E081E0EBCF6AEA72E0CC
:1013B000C8010E94DA2D892B21F44C2F61E080E0D6
:1013C000DBCF63EB72E0C8010E94DA2D892B41F478
:1013D00040E060E080E00E944A0940E060E0D0CF59
:1013E00089EB92E00E94C9248DEB99E1CF911F9186
:1013F0000F910C94C9242F923F924F925F926F925B
:101400007F928F929F92AF92BF92CF92DF92EF9294
:10141000FF920F931F93CF93DF9300D000D000D0A3
:10142000CDB7DEB7182F6E83B42E022FC82ED12C65
:10143000E12CF12C24E2C21AD1082FEFE20AF20AC1
:10144000C701B6010E9492058D831031E0F08FEC48
:1014500092E026960FB6F894DEBF0FBECDBFDF91A7
:10146000CF911F910F91FF90EF90DF90CF90BF90A1
:10147000AF909F908F907F906F905F904F903F9034
:101480002F900C94C9248B2D90E0A0E0B0E08983CC
:101490009A83AB83BC839D8197FD6CC1AE8144EF81
:1014A000242E33243394A7FDD8C09A170CF07BC0A8
:1014B000BD816B2FBB0F770B880B990B0E94B9294D
:1014C000AB01BC01812F0E94DC234E81C701B60114
:1014D0000E94AA0569817A818B819C810E94B7292B
:1014E0002B013C0120E030E44CE955E40E94C62A7F
:1014F0004B015C0120E030E040E85FE30E941129ED
:1015000087FD22C020E03FEF4FE757E4C501B4015B
:101510000E94C12A18169CF420E030E040E251E419
:10152000C301B2010E94C62A0E9488296115710573
:1015300081F0C1010197F1F761507109F7CFC50141
:10154000B4010E94882902C061E070E0CB010197DC
:10155000F1F72D81200F2D833E8132170CF0A8CF9B
:1015600085E093E00E94C924812F0E94DC2488E258
:1015700093E00E94C9243CEDC32EDD24DA94E12CD3
:10158000F12C812F90E09A838983B3C0C501B40107
:101590000E948829CB010197F1F7BD81B01BBD8363
:1015A0002E81B217ECF2AD816A2FAA0F770B880B50
:1015B000990B0E94B929AB01BC01812F0E94DC2349
:1015C0004E81C701B6010E94AA0569817A818B818B
:1015D0009C810E94B7292B013C0120E030E44CE9BA
:1015E00055E40E94C62A4B015C0120E030E040E84F
:1015F0005FE30E94112987FD1FC020E03FEF4FE706
:1016000057E4C501B4010E94C12A18160CF0BECFE0
:1016100020E030E040E251E4C301B2010E94C62A5A
:101620000E9488296115710509F4B7CFC10101979E
:10163000F1F761507109F6CF61E070E0ABCFC50101
:10164000B4010E948829CB010197F1F78D81801B9D
:101650008D839E8189170CF483CF3D81632F330FD7
:10166000770B880B990B0E94B929AB01BC01812F24
:101670000E94DC234E81C701B6010E94AA05698140
:101680007A818B819C810E94B7292B013C0120E04B
:1016900030E44CE955E40E94C62A4B015C0120E08D
:1016A00030E040E85FE30E94112987FD1FC020E081
:1016B0003FEF4FE757E4C501B4010E94C12A181655
:1016C0000CF0BDCF20E030E040E251E4C301B201B4
:1016D0000E94C62A0E9488296115710509F4B6CFB7
:1016E000C1010197F1F761507109F6CF61E070E037
:1016F000AACF87E393E00E94C924C6010E94F52483
:1017000088E493E00E94C924C701B6010E949205B3
:101710000E94DC24C6018496A981BA81A817B90762
:1017200021F481E593E00E94C924BFEFCB1ADB0AC4
:10173000EB0AFB0A2CEEC2162FEFD206E104F104ED
:10174000C1F626960FB6F894DEBF0FBECDBFDF916F
:10175000CF911F910F91FF90EF90DF90CF90BF90AE
:10176000AF909F908F907F906F905F904F903F9041
:101770002F9008953E8137FD5DC024EF222E332443
:101780003394AD816A2FAA0F770B880B990B0E94B7
:10179000B929AB01BC01812F0E94DC234E81C70116
:1017A000B6010E94AA0569817A818B819C810E9481
:1017B000B7292B013C0120E030E44CE955E40E94BC
:1017C000C62A4B015C0120E030E040E85FE30E9464
:1017D000112987FD22C020E03FEF4FE757E4C50104
:1017E000B4010E94C12A18169CF420E030E040E2C7
:1017F00051E4C301B2010E94C62A0E9488296115E2
:10180000710581F0C1010197F1F761507109F7CFBE
:10181000C501B4010E94882902C061E070E0CB01DB
:101820000197F1F7BD81B00FBD832E812B170CF00E
:10183000A8CF96CE3D818E8194EF292E3324339408
:1018400038170CF067C0AD816A2FAA0F770B880B91
:10185000990B0E94B929AB01BC01812F0E94DC23A6
:101860004E81C701B6010E94AA0569817A818B81E8
:101870009C810E94B7292B013C0120E030E44CE917
:1018800055E40E94C62A4B015C0120E030E040E8AC
:101890005FE30E94112987FD22C020E03FEF4FE760
:1018A00057E4C501B4010E94C12A18169CF420E037
:1018B00030E040E251E4C301B2010E94C62A0E9416
:1018C00088296115710581F0C1010197F1F7615017
:1018D0007109F7CFC501B4010E94882902C061E0F7
:1018E00070E0CB010197F1F7BD81B00FBD832E8170
:1018F0002B170CF0A8CF34CEC501B4010E94882963
:10190000CB010197F1F78D81801B8D839E81891713
:101910000CF426CE3D81632F330F770B880B990B88
:101920000E94B929AB01BC01812F0E94DC234E81AA
:10193000C701B6010E94AA0569817A818B819C81C9
:101940000E94B7292B013C0120E030E44CE955E42A
:101950000E94C62A4B015C0120E030E040E85FE3D2
:101960000E94112987FD1FC020E03FEF4FE757E499
:10197000C501B4010E94C12A18160CF0BDCF20E0A9
:1019800030E040E251E4C301B2010E94C62A0E9445
:1019900088296115710509F4B6CFC1010197F1F7E6
:1019A00061507109F6CF61E070E0AACF1F93CF9329
:1019B000DF9381E693E00E94C9248CE893E00E94C3
:1019C000C9240E940426D82F89EA93E00E94C924E2
:1019D0000E940426C82F88EC93E00E94C9240E942C
:1019E000C2248D3261F018F48B3231F00EC0803396
:1019F00019F0813321F009C08FE094E003C0C19554
:101A00008AE294E00E94C92406C081E494E00E9426
:101A1000C924C0E0D4E60E94C2248EE794E00E946C
:101A2000C9240E940426182F8FE994E00E94C9243B
:101A30000E940426282F412F6C2F8D2F0E94FB0916
:101A400087EC94E0DF91CF911F910C94C924CF9340
:101A5000C82F21E0482F60E080E00E94FB0921E0D0
:101A60004C2F60E084E00E94FB0921E04C2F60E0F5
:101A700083E00E94FB0921E04C2F60E082E00E949D
:101A8000FB0921E04C2F60E081E00E94FB0921E08E
:101A90004C2F60E085E00E94FB0921E04C2F6EE1B5
:101AA00086E00E94FB0921E04C2F60E087E00E9465
:101AB000FB0921E04C2F60E08BE00E94FB0921E054
:101AC0004C2F60E08AE00E94FB0921E04C2F60E08F
:101AD00089E00E94FB0921E04C2F60E088E00E9431
:101AE000FB0921E04C2F60E08CE00E94FB0921E023
:101AF0004C2F6CEE8DE0CF910C94FB09CF93C82F47
:101B000021E0482F60E087E00E94FB0921E04C2F94
:101B100060E08BE00E94FB0921E04C2F60E08AE04E
:101B20000E94FB0921E04C2F60E089E00E94FB0944
:101B300021E04C2F60E088E00E94FB0921E04C2F5F
:101B400060E08CE00E94FB0921E04C2F6CEE8DE000
:101B5000CF910C94FB09CF93C82F21E0482F60E070
:101B600080E00E94FB0921E04C2F60E084E00E94AD
:101B7000FB0921E04C2F60E083E00E94FB0921E09B
:101B80004C2F60E082E00E94FB0921E04C2F60E0D6
:101B900081E00E94FB0921E04C2F60E085E00E947B
:101BA000FB0921E04C2F6EE186E0CF910C94FB09FC
:101BB000CF93C82F21E0482F6EE186E00E94FB09F9
:101BC00021E04C2F60E085E00E94FB0921E04C2FD2
:101BD00066EF80E00E94FB0921E04C2F62EB82E07F
:101BE0000E94FB0921E04C2F6FE684E00E94FB0974
:101BF00021E04C2F65E383E00E94FB0921E04C2F9C
:101C000061E981E00E94FB0921E04C2F67EE8DE045
:101C10000E94FB0921E04C2F60E08CE00E94FB0950
:101C200021E04C2F60E087E00E94FB0921E04C2F6F
:101C30006AEB89E00E94FB0921E04C2F6BE78BE007
:101C40000E94FB0921E04C2F65E38AE00E94FB091A
:101C500021E04C2F64E688E0CF910C94FB09CF93F0
:101C6000C82F21E0482F67EE8DE00E94FB0921E09C
:101C70004C2F60E08CE00E94FB0921E04C2F60E0DB
:101C800087E00E94FB0921E04C2F6AEB89E00E946B
:101C9000FB0921E04C2F6BE78BE00E94FB0921E060
:101CA0004C2F65E38AE00E94FB0921E04C2F64E69B
:101CB00088E0CF910C94FB09CF93C82F21E0482FE7
:101CC0006EE186E00E94FB0921E04C2F60E085E098
:101CD0000E94FB0921E04C2F66EF80E00E94FB0987
:101CE00021E04C2F62EB82E00E94FB0921E04C2FA7
:101CF0006FE684E00E94FB0921E04C2F65E383E05E
:101D00000E94FB0921E04C2F61E981E0CF910C9406
:101D1000FB09CF93C82F21E0482F66EF80E00E9497
:101D2000FB0921E04C2F62EB82E00E94FB0921E0DD
:101D30004C2F6FE684E00E94FB0921E04C2F65E305
:101D400083E00E94FB0921E04C2F66EA81E00E94BB
:101D5000FB0921E04C2F60E085E00E94FB0921E0B7
:101D60004C2F6EE186E00E94FB0921E04C2F60E0E1
:101D700087E00E94FB0921E04C2F6AEB89E00E947A
:101D8000FB0921E04C2F6DE78BE00E94FB0921E06D
:101D90004C2F65E38AE00E94FB0921E04C2F60E5AF
:101DA00088E00E94FB0921E04C2F60E08CE00E945B
:101DB000FB0921E04C2F6CEE8DE0CF910C94FB09D8
:101DC000CF93C82F21E0482F60E087E00E94FB09F5
:101DD00021E04C2F6AEB89E00E94FB0921E04C2FA7
:101DE0006DE78BE00E94FB0921E04C2F65E38AE060
:101DF0000E94FB0921E04C2F60E588E00E94FB096E
:101E000021E04C2F60E08CE00E94FB0921E04C2F88
:101E10006CEE8DE0CF910C94FB09CF93C82F21E09D
:101E2000482F66EF80E00E94FB0921E04C2F62EB17
:101E300082E00E94FB0921E04C2F6FE684E00E94C3
:101E4000FB0921E04C2F65E383E00E94FB0921E0C0
:101E50004C2F66EA81E00E94FB0921E04C2F60E0F4
:101E600085E00E94FB0921E04C2F6EE186E0CF91D6
:101E70000C94FB09CF93C82F21E0482F6CE388E036
:101E80000E94FB0921E04C2F60E08AE00E94FB09E0
:101E900021E04C2F60E089E00E94FB0921E04C2FFB
:101EA00066EA8BE00E94FB0921E04C2F6AE58AE09C
:101EB0000E94FB0921E04C2F66E788E00E94FB09A5
:101EC00021E04C2F6EE689E00E94FB0921E04C2FB7
:101ED00062E98BE0CF910C94FB09CF93C82F21E0EE
:101EE000482F6AE08DE00E94FB0921E04C2F60E062
:101EF0008CE00E94FB0921E04C2F60E087E00E940B
:101F0000FB0921E04C2F60E08AE00E94FB0921E000
:101F10004C2F60E08BE00E94FB0921E04C2F6AE52A
:101F200088E00E94FB0921E04C2F6CEE89E00E94C2
:101F3000FB0921E04C2F6AE58BE00E94FB0921E0C0
:101F40004C2F66E48AE00E94FB0921E04C2F67ECED
:101F500089E00E94FB0921E04C2F6DE28AE00E949B
:101F6000FB0921E04C2F6EE688E00E94FB0921E08E
:101F70004C2F6DE78BE00E94FB0921E04C2F66E3BC
:101F80008AE0CF910C94FB09CF93C82F21E0482F12
:101F900066EF80E00E94FB0921E04C2F65E584E0BC
:101FA0000E94FB0921E04C2F60E082E00E94FB09C7
:101FB00021E04C2F65E383E00E94FB0921E04C2FD8
:101FC00066EA81E00E94FB0921E04C2F6CE985E084
:101FD0000E94FB0921E04C2F6EEC86E00E94FB0979
:101FE00021E04C2F60E087E00E94FB0921E04C2FAC
:101FF0006AE58BE00E94FB0921E04C2F60E089E05C
:102000000E94FB0921E04C2F6CE38AE00E94FB094F
:1020100021E04C2F6AE488E00E94FB0921E04C2F6C
:102020006CE38CE00E94FB0921E04C2F60EB8DE01B
:10203000CF910C94FB09CF93C82F21E0482F66EF76
:1020400080E00E94FB0921E04C2F65E584E00E94BE
:10205000FB0921E04C2F60E082E00E94FB0921E0B7
:102060004C2F65E383E00E94FB0921E04C2F66EAD8
:1020700081E00E94FB0921E04C2F60E085E00E9496
:10208000FB0921E04C2F68E286E00E94FB0921E079
:102090004C2F60E087E00E94FB0921E04C2F6AE5AD
:1020A0008BE00E94FB0921E04C2F60E089E00E9458
:1020B000FB0921E04C2F6CE38AE00E94FB0921E040
:1020C0004C2F6AE488E00E94FB0921E04C2F60E07D
:1020D0008CE00E94FB0921E04C2F68EF8DE0CF914E
:1020E0000C94FB09CF93C82F21E0482F66EF80E0C6
:1020F0000E94FB0921E04C2F69E684E00E94FB0965
:1021000021E04C2F63ED82E00E94FB0921E04C2F7F
:1021100060E087E00E94FB0921E04C2F63E78BE041
:102120000E94FB0921E04C2F6CED89E0CF910C94CB
:10213000FB0921E0482F67E38EE00C94FB09CF9365
:10214000C82F6AEE7FEF80E090E00E94920587330F
:1021500044F464E0680F21E04C2F8EE0CF910C94A2
:10216000FB09CF910895CF93C82F6AEE7FEF80E0EF
:1021700090E00E949205823F44F06CEF680F21E0EE
:102180004C2F8EE0CF910C94FB09CF91089521E064
:10219000482F61EF8EE00C94FB0921E0482F6AE0A4
:1021A0008EE00C94FB09CF93C82F21E0482F66EFF7
:1021B00080E00E94FB0921E04C2F69E684E00E9448
:1021C000FB0921E04C2F60E082E00E94FB0921E046
:1021D0004C2F66EA81E00E94FB0921E04C2F68EF5A
:1021E00083E00E94FB0921E04C2F60E084E00E9424
:1021F000FB0921E04C2F6DE280E00E94FB0921E009
:102200004C2F66EF80E00E94FB0921E04C2F6DE22D
:1022100080E00E94FB0921E04C2F66EF80E00E94E5
:10222000FB098C2F0E9499108C2F0E94C7108C2FB5
:102230000E94CD1021E04C2F60E087E00E94FB0956
:1022400021E04C2F63E78BE00E94FB0921E04C2F3B
:1022500060E089E00E94FB0921E04C2F6CE488E0FB
:102260000E94FB0921E04C2F60E08AE00E94FB09FC
:1022700021E04C2F60E08BE0CF910C94FB09FF92A2
:102280000F931F93CF93DF93D82F64EE7FEF80E0FF
:1022900090E00E949205F82E65EE7FEF80E090E0DE
:1022A0000E949205082F66EE7FEF80E090E00E948A
:1022B0009205182F67EE7FEF80E090E00E94920574
:1022C000C82F84E28F153CF46CEF6F0D21E04D2F89
:1022D00088E00E94FB0908323CF464E0600F21E0D2
:1022E0004D2F89E00E94FB091B303CF06DEF610F20
:1022F00021E04D2F8AE00E94FB091C1664F46DEF6B
:102300006C0F21E04D2F8BE0DF91CF911F910F914A
:10231000FF900C94FB09DF91CF911F910F91FF90DB
:102320000895FF920F931F93CF93DF93D82F6DEDF6
:102330007FEF80E090E00E949205F82E6EED7FEF37
:1023400080E090E00E949205082F6FED7FEF80E023
:1023500090E00E949205182F60EE7FEF80E090E001
:102360000E949205C82F8CEDF8163CF464E06F0DC6
:1023700021E04D2F81E00E94FB0908323CF464E02B
:10238000600F21E04D2F82E00E94FB091B303CF0E2
:102390006DEF610F21E04D2F83E00E94FB091C16B9
:1023A00064F46DEF6C0F21E04D2F84E0DF91CF914D
:1023B0001F910F91FF900C94FB09DF91CF911F911A
:1023C0000F91FF900895FF920F931F93CF93DF9388
:1023D000D82F64EE7FEF80E090E00E949205F82E07
:1023E00065EE7FEF80E090E00E949205082F66EE98
:1023F0007FEF80E090E00E949205182F67EE7FEF5C
:1024000080E090E00E949205C82F83E68F153CF093
:1024100064E06F0D21E04D2F88E00E94FB09083237
:102420003CF464E0600F21E04D2F89E00E94FB093D
:102430001B303CF06DEF610F21E04D2F8AE00E94D0
:10244000FB091C1664F46DEF6C0F21E04D2F8BE03F
:10245000DF91CF911F910F91FF900C94FB09DF91B9
:10246000CF911F910F91FF900895FF920F931F93AB
:10247000CF93DF93D82F6DED7FEF80E090E00E9447
:102480009205F82E6EED7FEF80E090E00E949205BD
:10249000082F6FED7FEF80E090E00E949205182FEB
:1024A00060EE7FEF80E090E00E949205C82F8DE9FA
:1024B000F8163CF06CEF6F0D21E04D2F81E00E948B
:1024C000FB0908323CF464E0600F21E04D2F82E00C
:1024D0000E94FB091B303CF06DEF610F21E04D2F96
:1024E00083E00E94FB091C1664F46DEF6C0F21E081
:1024F0004D2F84E0DF91CF911F910F91FF900C94AD
:10250000FB09DF91CF911F910F91FF900895CF9319
:10251000C82F6CED7FEF80E090E00E9492058D3730
:1025200044F465E0680F21E04C2F80E0CF910C94DB
:10253000FB09CF910895CF93C82F6CED7FEF80E01A
:1025400090E00E949205873F44F06BEF680F21E016
:102550004C2F80E0CF910C94FB09CF910895CF933D
:10256000C82F63EE7FEF80E090E00E9492058A30F2
:1025700044F465E0680F21E04C2F87E0CF910C9484
:10258000FB09CF910895CF93C82F63EE7FEF80E0D2
:1025900090E00E949205843844F06BEF680F21E0D0
:1025A0004C2F87E0CF910C94FB09CF910895CF93E6
:1025B000C82F62EE7FEF80E090E00E9492058C339E
:1025C00044F465E0680F21E04C2F86E0CF910C9435
:1025D000FB09CF910895CF93C82F62EE7FEF80E083
:1025E00090E00E949205803C44F06BEF680F21E080
:1025F0004C2F86E0CF910C94FB09CF910895CF9397
:10260000C82F69EE7FEF80E090E00E9492058A304B
:1026100044F465E0680F21E04C2F8DE0CF910C94DD
:10262000FB09CF910895CF93C82F69EE7FEF80E02B
:1026300090E00E949205893844F06BEF680F21E02A
:102640004C2F8DE0CF910C94FB09CF910895CF933F
:10265000C82F61EE7FEF80E090E00E9492058D37F9
:1026600044F465E0680F21E04C2F85E0CF910C9495
:10267000FB09CF910895CF93C82F61EE7FEF80E0E3
:1026800090E00E949205843844F06BEF680F21E0DF
:102690004C2F85E0CF910C94FB09CF910895CF93F7
:1026A000C82F68EE7FEF80E090E00E9492058D37A2
:1026B00044F465E0680F21E04C2F8CE0CF910C943E
:1026C000FB09CF910895CF93C82F68EE7FEF80E08C
:1026D00090E00E949205843844F06BEF680F21E08F
:1026E0004C2F8CE0CF910C94FB09CF910895CF93A0
:1026F000C82F21E0482F60E087E00E94FB0921E01D
:102700004C2F6AE58BE00E94FB0921E04C2F60E032
:1027100089E00E94FB0921E04C2F60E08AE00E94E2
:10272000FB0921E04C2F64E688E00E94FB0921E0D0
:102730004C2F68E789E00E94FB0921E04C2F6CE3F5
:102740008CE00E94FB0921E04C2F60EB8DE0CF91E3
:102750000C94FB09CF92DF92EF920F931F93CF93CC
:10276000DF936C01162FD42FC22F8FEF94E00E94BD
:10277000C924C6010E94F5248AE30E94BB2480E29A
:102780000E94BB2486E095E00E94C924812F0E940C
:10279000DC248AE30E94BB2480E20E94BB248EE0FA
:1027A00095E00E94C9248D2F0E94DC248AE30E94B8
:1027B000BB2480E20E94BB2484E195E00E94C924EE
:1027C0008C2F0E94DC248AE30E94BB2480E20E94BA
:1027D000BB248BE195E00E94C924802F0E94DC2459
:1027E0008AE30E94BB2480E20E94BB2481E295E040
:1027F0000E94C9248E2D0E94DC248DE00E94BB24FF
:102800008AE0DF91CF911F910F91EF90DF90CF90F1
:102810000C94BB244F925F926F927F928F929F9203
:10282000AF92BF92CF92DF92EF92FF92CF93DF935E
:1028300000D000D0CDB7DEB720E030E048EC52E465
:102840000E94C62A0E94832B20E030E048EC52E42C
:102850000E9416296B017C0120E030E040E251E447
:102860000E9416294B015C0120E030E040E452E474
:102870000E94A5280E948829862F0E94BB24C5019A
:10288000B4010E94F4292B013C0120E030E040E437
:1028900052E4C701B6010E94A5284B015C0120E06B
:1028A00030E040E251E4C301B2010E94C62A9B011C
:1028B000AC01C501B4010E94A4280E948829862F7A
:1028C0000E94BB248EE20E94BB2420E030E040E264
:1028D00051E4C701B6010E94C62A4B015C01C70141
:1028E000B6010E94F4292B013C0120E030E040E4D5
:1028F00052E4C501B4010E94A52869837A838B83C1
:102900009C8320E030E040E251E4C301B2010E9428
:10291000C62A9B01AC0169817A818B819C810E94CE
:10292000A4280E948829862F0E94BB24C501B401D7
:102930000E94F4294B015C0120E030E048EC52E4B5
:10294000C701B6010E94C62A20E030E040E452E40C
:102950000E94A5286B017C0120E030E040E251E4B8
:10296000C501B4010E94C62A9B01AC01C701B60192
:102970000E94A4280E948829862F0E94BB248DEBE8
:1029800099E10F900F900F900F90DF91CF91FF90F2
:10299000EF90DF90CF90BF90AF909F908F907F90FF
:1029A0006F905F904F900C94C9240F931F93CF9317
:1029B000DF938C01EB0187E295E00E94C9248BE351
:1029C00095E00E94C924C8010E94F52480E20E947B
:1029D000BB248AE30E94BB2480E20E94BB2484E4DF
:1029E00095E00E94C924CE010E94F5248CEE96E168
:1029F000DF91CF911F910F910C94C924FC0140E00D
:102A000050E0A6E0B8E04617570788F420E030E031
:102A10002E173F0731F08A2F8A95F1F72F5F3F4F2E
:102A2000F7CF95B19B2795B94E0F5F1FECCF089557
:102A3000609100017091010183E194E00E94FE1415
:102A4000609100017091010181EA93E00E94FE14FF
:102A5000609100017091010189E492E00E94FE14EE
:102A60000E94B2070E94BD078CE495E00E941908FD
:102A70008BE595E00E94190889E695E00E94C9243B
:102A80008DE995E00E94C92489E695E00E94C92459
:102A900082ED95E00E94C92489E695E00E94C92450
:102AA00086E096E00E94C9248BE296E00E94C92449
:102AB00081E696E00E94C9248FE896E00E94C9242E
:102AC00085EC96E00E94C92480E097E00E94C9242A
:102AD0008DE297E00E94C92480E597E00E94C92416
:102AE00081E897E00E94C92489E695E00E94C92404
:102AF00082EA97E00E94C92489E695E00E94C924F1
:102B000086ED97E00E94C92488EF97E00E94C924CF
:102B100082E298E00E94C92480E498E00E94C924DF
:102B20008FE598E00E94C92489E695E00E94C924B7
:102B30008FE798E00E94C92489E695E00E94C924A5
:102B400083EB98E00E94C92481ED98E00E94C9249B
:102B500080EF98E00E94C9248CE099E00E94C9248B
:102B60008EE299E00E94C9248CE499E00E94C92475
:102B700082E799E00E94C92487E999E00E94C9246C
:102B800089E695E00E94C92481ED99E00E94C9245C
:102B900089E695E00E94C92485E09AE00E94C92454
:102BA00080E49AE00E94C92481EB9AE00E94C92443
:102BB00082E29BE00E94C92480E69BE00E94C92437
:102BC00083E89BE00E94C9248CEA9BE00E94C92410
:102BD00085ED9BE00E94C92488E09CE00E94C92406
:102BE0008BE39CE00E94C9248AE69CE00E94C924F1
:102BF00088E99CE00E94C9248CEC9CE00E94C924D6
:102C000081E09DE00E94C92480E39DE00E94C924E8
:102C10008FE59DE00E94C9248EE89DE00E94C924B2
:102C20008AEB9DE00E94C92487EE9DE00E94C924A2
:102C300084E19EE00E94C92482E49EE00E94C924AF
:102C400083E89EE00E94C92484EC9EE00E94C9248F
:102C500085E09FE00E94C92489E695E00E94C9248E
:102C600086E49FE00E94C92489E695E00E94C92479
:102C70008AE79FE00E94C9248FEA9FE00E94C9244E
:102C800084EE9FE00E94C92489E190E10E94C9245A
:102C90008EE490E10E94C92485E890E10E94C92455
:102CA0008CEB90E10E94C92483EF90E10E94C9243B
:102CB00089E695E00C94C924809106018F5F80938A
:102CC0000601809106018D3058F010920601809126
:102CD00007019091080101969093080180930701E4
:102CE0000895809105018F5F809305018091050112
:102CF000803220F0109205010C945C1608958091AA
:102D000004018F5F8093040180910401883120F0D9
:102D1000109204010E9471166091000170910101EE
:102D200080ED91E00E94FE1488EE93E024EF31E004
:102D3000F9013197F1F70197D9F76091000170918E
:102D400001018DE093E00E94FE1488EE93E024EFF1
:102D500031E0F9013197F1F70197D9F7609100015E
:102D6000709101018DE093E00E94FE1488EE93E0E3
:102D700024EF31E0F9013197F1F70197D9F760912C
:102D800000017091010180ED91E00E94FE1488EE37
:102D900093E024EF31E0F9013197F1F70197D9F78A
:102DA000609100017091010180ED91E00C94FE149E
:102DB000CF92DF92EF92FF92809103018F5F809319
:102DC0000301809103018C3320F0109203010E94D3
:102DD0007F160E94B207609100017091010189E4A1
:102DE00092E00E94FE1488EE93E024EF31E0F901B6
:102DF0003197F1F70197D9F76091000170910101C6
:102E000088ED93E00E94FE1488EE93E024EF31E019
:102E1000F9013197F1F70197D9F7609100017091AD
:102E2000010188ED93E00E94FE140E944E05BC0152
:102E300080E090E00E94B72922E630E140E450E4CF
:102E40000E94C62A26EB33EF41EA50E40E94C62ACC
:102E500020E030E040E859E30E94C62A6093251E36
:102E60007093261E8093271E9093281E8AE291E17C
:102E70000E94C9246091251E7091261E8091271EF4
:102E80009091281E0E940A148091281E8F93809191
:102E9000271E8F938091261E8F938091251E8F93DE
:102EA00088E491E19F938F938FE59EE19F938F93A9
:102EB0000E94692E0E94B2070E94BD078EE491E134
:102EC0000E9419088FE59EE10E94190887E591E1AB
:102ED0000E9419080E9436060E9474068093151EEF
:102EE0002DB73EB7285F3F4F0FB6F8943EBF0FBED9
:102EF0002DBF80FD11C081E792E00E94C9240E948D
:102F0000D6069093141E8093131E0E94F5248DEB19
:102F100099E10E94C92408C08BE591E10E94C9246F
:102F20000E9474068093151E8091141E8F938091C9
:102F3000131E8F938FE691E19F938F9389E89EE113
:102F40009F938F930E94692E82E791E10E94190856
:102F500089E89EE10E9419088AE791E10E94190818
:102F6000C090251ED090261EE090271EF090281EAF
:102F70000F900F900F900F900F900F9020E030E087
:102F800040E751E4C701B6010E94C12A87FD03C092
:102F900080EF9FEF36C020E030E040E651E4C7010B
:102FA000B6010E94C12A87FD03C080EE9FEF29C0B1
:102FB00020E030E040E551E4C701B6010E94C12A9B
:102FC00087FD03C083EC9FEF1CC020E030E040E2AF
:102FD00051E4C701B6010E94C12A87FD03C087ECF6
:102FE0009FE30FC020E030E040E251E4C701B601AA
:102FF0000E94112987FF03C08FE99FEB02C08FE772
:103000009FE3FF90EF90DF90CF900C945F2480912E
:1030100002018F5F80930201809102018C3320F0C6
:10302000109202010E94D816609100017091010176
:103030008DE693E00E94FE1484EF91E024EF31E0EE
:10304000F9013197F1F70197D9F76091000170917B
:1030500001018DE093E00C94FE1486B182FB882779
:1030600080F98093581E86B183FB882780F980936E
:10307000371E8091581E811113C08091371E8823FE
:1030800031F080915B1E90915C1E019605C080918D
:103090005B1E90915C1E019790935C1E80935B1E5B
:1030A000089586B1829581708093361E86B185FB26
:1030B000882780F980932C1E8091361E811113C0C1
:1030C00080912C1E811106C080913F1E9091401E60
:1030D000019605C080913F1E9091401E01979093EC
:1030E000401E80933F1E08950E94B2070E94BD07B4
:1030F0008DE791E10E941908609100017091010132
:1031000086EB91E00E94FE1484EF91E024EF31E021
:10311000F9013197F1F70197D9F7609100017091AA
:10312000010186EB91E00E94FE1484EF91E024EF10
:1031300031E0F9013197F1F70197D9F7609100017A
:103140007091010186EB91E00E94FE1480E197E20C
:1031500024EF31E0F9013197F1F70197D9F789E8C8
:1031600091E10E94C9248BEA91E10E94C9248FEC6D
:1031700091E10E94C924609100017091010186EBE8
:1031800091E00E94FE1489EE91E10E94C9240E9400
:10319000B2070E94BD0789EF91E10E9419080E94C1
:1031A000042680930601609100017091010186EB75
:1031B00091E00E94FE1481E092E10E94C9240E94E5
:1031C000B2070E94BD078FE092E10E9419080E9499
:1031D000042680930501609100017091010186EB46
:1031E00091E00E94FE1485E192E10E94C9240E94B0
:1031F000B2070E94BD0784E292E10E9419080E9472
:10320000042680930401609100017091010186EB16
:1032100091E00E94FE148BE292E10E94C9240E9478
:10322000B2070E94BD078DE392E10E9419080E9437
:10323000042680930301609100017091010186EBE7
:1032400091E00E94FE1487E492E10E94C9240E944A
:10325000B2070E94BD0789E592E10E9419086091BA
:1032600000017091010186EB91E00E94FE140E9422
:10327000042680930201609100017091010186EBA8
:1032800091E00E94FE141092191E1092181E8DEBF0
:1032900099E10E94C92483E692E10E94C92486E94B
:1032A00092E10E94C9240E94B2070E94BD0780EBF0
:1032B00092E10E94190888E99AE324EF31E0F901CC
:1032C0003197F1F70197D9F70C94B2070E94B20732
:1032D0000E94BD0788EB92E10E94190889EC92E1F7
:1032E0000E941908609100017091010183E194E04E
:1032F0000E94FE14609100017091010181EA93E047
:103300000E94FE14609100017091010189E492E035
:103310000E94FE1489E891E10E94C9248BEA91E1A0
:103320000E94C92481ED92E10E94C9248BE093E1BF
:103330000E94C92480E197E224EF31E0F90131973E
:10334000F1F70197D9F70E94B2070E94BD078BE2FF
:1033500093E10E9419080E94042680930E01609157
:1033600000017091010186EB91E00E94FE1486E35A
:1033700093E10E94C9240E94B2070E94BD0782E621
:1033800093E10E9419080E94042680930F01609126
:1033900000017091010186EB91E00E94FE148EE61F
:1033A00093E10E94C92480E197E224EF31E0F90122
:1033B0003197F1F70197D9F70E94B2070E94BD0734
:1033C0008FE893E10E9419080E94042680930B0164
:1033D000609100017091010186EB91E00E94FE1462
:1033E0008CE993E10E94C92480E197E224EF31E067
:1033F000F9013197F1F70197D9F70E94B2070E94BE
:10340000BD0782EC93E10E9419080E940426809374
:103410000D01609100017091010186EB91E00E9425
:10342000FE1481ED93E10E94C92480E197E224EF2C
:1034300031E0F9013197F1F70197D9F70E94B2070E
:103440000E94BD078CEF93E10E94190882E693E188
:103450000E9419080E94042680930C0160910001CB
:103460007091010186EB91E00E94FE148DE094E1E1
:103470000E94C92480E197E224EF31E0F9013197FD
:10348000F1F70197D9F70E94B2070E94BD078EE2BB
:1034900094E10E9419080E94042680930A01609119
:1034A00000017091010186EB91E00E94FE148BE314
:1034B00094E10E94C92480E197E224EF31E0F90110
:1034C0003197F1F70197D9F70E94B2070E94BD0723
:1034D0008AE694E10E9419088BE794E10E9419089A
:1034E0000E940426809309016091000170910101FE
:1034F00086EB91E00E94FE148CE894E10E94C924BE
:103500008AEC94E10E94C9240E94B2070E94BD0780
:1035100085EE94E10E94190880EB92E10E9419085F
:1035200088E99AE324EF31E0F9013197F1F7019747
:10353000D9F70C94B2070E94B2070E94BD0786EF2C
:1035400094E10E94190887E095E10E9419086091B2
:1035500000017091010183E194E00E94FE146091EA
:1035600000017091010181EA93E00E94FE146091D4
:1035700000017091010189E492E00E94FE1489E843
:1035800091E10E94C9248BEA91E10E94C92483E160
:1035900095E10E94C924609100017091010186EBC0
:1035A00091E00E94FE1488E395E10E94C924609195
:1035B00000017091010186EB91E00E94FE1487E505
:1035C00095E10E94C9240E94C22480933A1E609112
:1035D00000017091010186EB91E00E94FE14809140
:1035E0003A1E893709F0A8C084E795E10E94C924F2
:1035F0008AE995E10E94C92460910001709101015E
:1036000086EB91E00E94FE140E9480267093171EA4
:103610006093161E8CEC95E10E94C9248091161EC1
:103620009091171E0E94F5248DEB99E10E94C92408
:103630000E94B2070E94BD078CED95E10E94190817
:1036400010929A1E10929B1E10929C1E10929D1E0C
:103650001092961E1092971E1092981E1092991E0C
:1036600010923B1E10923C1E10923D1E10923E1E68
:103670008091161E9091171EA0E0B0E040913B1E75
:1036800050913C1E60913D1E70913E1E841795071F
:10369000A607B70708F444C00E9456274091961E1B
:1036A0005091971E6091981E7091991E80919A1E5C
:1036B00090919B1EA0919C1EB0919D1E840F951F02
:1036C000A61FB71F8093961E9093971EA093981ED7
:1036D000B093991E8EEE95E10E94C9246091961ECA
:1036E0007091971E8091981E9091991E0E9430258E
:1036F0008DEB99E10E94C92480913B1E90913C1E64
:10370000A0913D1EB0913E1E0196A11DB11D80935A
:103710003B1E90933C1EA0933D1EB0933E1EA8CF2F
:103720008BEF95E10E94C9240E94B2070E94BD0759
:103730008CE196E10C9419086091000170910101EF
:1037400086EB91E00E94FE148CE296E10C94C92471
:10375000609100017091010183E194E00E94FE14E8
:10376000609100017091010181EA93E00E94FE14D2
:10377000609100017091010189E492E00E94FE14C1
:103780000E94B2070E94BD0781E596E10E941908D8
:1037900080E696E10E94C92480E896E10E94C9244F
:1037A00082EA96E10E94C92484EC96E10E94C92431
:1037B0001092421E1092411E8091411E9091421E15
:1037C000C39740F58BEE96E10E94C9248091411E7B
:1037D0000E94DC248AEE96E10E94C9246091411E79
:1037E0007091421E80E090E00E9492050E94DC24CD
:1037F0008AEE96E10E94C9248DEB99E10E94C924CA
:103800008091411E9091421E01969093421E80939A
:10381000411ED2CF8EEE96E10E94C92486E197E147
:103820000E94C9240E94C224853601F1873739F5E8
:1038300087EA97E10E94C9240E94042680932B1EE8
:1038400085EE97E10E94C9240E940426482F90E04B
:103850009093421E8093411E60912B1E70E080E089
:1038600090E00E94AA058DEB99E10BC084E497E1FA
:103870000E94C9240E9411068AE897E102C082E2F0
:1038800098E10C94C924EF92FF920F931F93CF936A
:10389000DF9362E070E080E090E00E94C9059093C1
:1038A0005E1E80935D1E0E94BD070E94B20789E3E1
:1038B00098E10E9419081F9285E08F9388EB92E0AF
:1038C0009F938F930E9445088AE498E10E94C9243F
:1038D00085E00E94DC2480E698E10E94C9240F90D4
:1038E0000F900F900F9080E090E0DC0144EF51E0EA
:1038F00085309105A105B10561F020E137E2FA01BB
:103900003197F1F721503109D1F70196A11DB11D71
:10391000EFCF80933B1E90933C1EA0933D1EB0932F
:103920003E1E8091C00087FF10C08091C6008D367A
:1039300061F481E080935A1EC0E0D0E00CE310E017
:1039400094EFE92EFF24F39406C010925A1EC0E0B3
:10395000D0E00AC12C9A80915A1E882309F404C130
:103960008FE798E10E94C9240E94B2070E94BD0718
:1039700083EB98E10E94190860E070E0CB010E949F
:10398000C905A0E0B0E08093311E9093321EA09351
:10399000331EB093341E8CE892E00E94C9248091BB
:1039A000311E9091321E04970E94F52488EC98E114
:1039B0000E94C9248CE892E00E94C92480915D1E77
:1039C00090915E1E0E94F5248EED98E10E94C9241C
:1039D0008DEF98E10E94C92481E299E10E94C924F7
:1039E00086E499E10E94C9248BE699E10E94C924EA
:1039F0008FE899E10E94C92486EA99E10E94C924CE
:103A00000E94C2248F3309F46AC038F48C3309F45D
:103A10004BC08E3309F453C0A2C0853609F466C08A
:103A2000833709F47BC0843609F099C02C9883E071
:103A30000E947A0564E070E080E090E00E947F05DB
:103A400084E090E0A0E0B0E080933B1E90933C1EA9
:103A5000A0933D1EB0933E1E40913B1E50913C1ED4
:103A600060913D1E70913E1E8091311E9091321EDC
:103A7000A091331EB091341E481759076A077B077F
:103A800008F068CF80E00E947A058EB50E945D093B
:103A900080913B1E90913C1EA0913D1EB0913E1E18
:103AA0000196A11DB11DD0CF40915D1E50915E1EAB
:103AB0004A30510508F44FCF455051090BC0409191
:103AC0005D1E50915E1E483E8DEF580708F043CFB3
:103AD0004B5F5F4F50935E1E40935D1E18C0109366
:103AE0005E1E00935D1E4CE350E011C080EC99E136
:103AF0000E94C9240E94110644E050E060E070E09A
:103B0000CB010E94F00540915D1E50915E1E62E067
:103B100070E080E090E00E94F0051DCF80EF99E119
:103B20000E94C9240E942826EC018DEB99E10E9495
:103B3000C9248DE09AE10E94C9240E94B2070E9424
:103B4000BD0784E29AE10E94190880E29EE4F70131
:103B50003197F1F70197D9F710925A1EFCCE83E303
:103B60009AE10E94C924F7CE0E94B2070E94BD07C5
:103B700000E010E084EFE82EFF24F39460E070E0B2
:103B8000CB010E94C905A0E0B0E08093311E909364
:103B9000321EA093331EB093341E0E94460780E964
:103BA0000E945F0780E00E945F070E94460781E94C
:103BB0000E945F070E944F078093591E0E9457077B
:103BC0008093351E0E944B070E94460780E90E94A1
:103BD0005F0780E00E945F070E94460781E90E941C
:103BE0005F070E944F078093591E0E9457078093DA
:103BF000351E0E944B078091591E982F990F809176
:103C0000351E881F8827881F892B8093571E0E9486
:103C10005D096091311E7091321E8091331E90912A
:103C2000341E4091571E0E94AA054091311E5091AA
:103C3000321E6091331E7091341E4F3F8FEF580734
:103C400061057105E0F00F5F1F4FC017D10708F045
:103C500095CF84E59AE10E94C9240E94B2070E9490
:103C6000BD078EE69AE10E9419088FE79AE1DF917D
:103C7000CF911F910F91FF90EF900C9419084F5F17
:103C80005F4F6F4F7F4F4093311E5093321E6093B2
:103C9000331E7093341E60E070E0CB010E94F0058B
:103CA00040915D1E50915E1E60E070E080E090E00B
:103CB000DC0184179507A607B70760F420E137E217
:103CC000F7013197F1F721503109D1F70196A11D84
:103CD000B11DEFCF80933B1E90933C1EA0933D1EE1
:103CE000B0933E1EB0CF0E94B2070E94BD078AE883
:103CF0009AE10E94190884E00E94360590932A1EDA
:103D00008093291E8AE99AE10E94C9248091871E26
:103D10009091881E0E94F5248CEE96E10E94C924A1
:103D200086E00E9436059093881E8093871E8BEA5A
:103D30009AE10E94C9248091291E90912A1E0E9416
:103D4000F5248091291E90912A1E0E9472249B01C5
:103D5000AC01CB01DA0180932D1E90932E1EA0930F
:103D60002F1EB093301E5F934F933F932F9388E4A1
:103D700091E19F938F9383E49EE19F938F930E94A1
:103D8000692E8AEC9AE10E94C92483E49EE10E9494
:103D9000C9248DB79EB708960FB6F8949EBF0FBE84
:103DA0008DBF8FE39DE10C94C924EF920F930E9485
:103DB000B2070E94BD078CED9AE10E9419089BB1E1
:103DC00084E089278BB984E00E94360590932A1EEF
:103DD0008093291E8AE99AE10E94C9248091871E56
:103DE0009091881E0E94F5248CEE96E10E94C924D1
:103DF00086E00E9436059093881E8093871E8BEA8A
:103E00009AE10E94C9248091291E90912A1E0E9445
:103E1000F5248091291E90912A1E0E9472249B01F4
:103E2000AC01CB01DA0180932D1E90932E1EA0933E
:103E30002F1EB093301E5F934F933F932F9388E4D0
:103E400091E19F938F9383E49EE19F938F930E94D0
:103E5000692E8AEC9AE10E94C92483E49EE10E94C3
:103E6000C9248FE39DE10E94C9240E94B624609179
:103E70003F1E7091401E80915B1E90915C1E0E94BF
:103E8000D5148CEE96E10E94C924E09002010091C5
:103E90000301209104014091050160910601809188
:103EA0000701909108010E94AA138DB79EB708964A
:103EB0000FB6F8949EBF0FBE8DBF8FE39DE10F91AB
:103EC000EF900C94C9248091C00087FF0FC1E0914E
:103ED000C6008E2F90E0FC01B397E435F10508F0A1
:103EE000EFC0EA5BFF4F0C9479280C9474180C9483
:103EF000661960910E0187E992E004C060910E019D
:103F00008AEA92E00C94A30960910E0185EA92E09E
:103F1000F9CF60910E018FE992E0F4CF60E083EB7E
:103F200092E00E94A309E0C06FEF80910F0104C0EE
:103F300080910F016FEF81950C94922486E20C948E
:103F40009F1080910B010C94CD1086E20C94B3105D
:103F50008FEF9FEF0E945F248DEE9AE1A2C080E078
:103F600090E00E945F2482E09BE19BC00C94D60C01
:103F700080910D010C94270D80910D010C947E0D04
:103F800080910D010C94AB0D80910D010C942F0EBE
:103F900080910D010C945C0E80910D010C94E00E4B
:103FA00080910D010C940D0F80910D010C94D80D92
:103FB00080910D010C94890E80910D010C94C40F19
:103FC00080910D010C941B1080910D010C943A0FFF
:103FD00080910D010C946D0F80910D010C94721065
:103FE00080910D010C94D31080910A010C9413134D
:103FF00080910A010C94FF1280910A010C94EB123B
:1040000080910A010C94D712809109010C944F13EE
:10401000809109010C946313809109010C9427137A
:10402000809109010C943B138EE10C9477138091DD
:104030000C010C94AF1280910C010C94C31280916E
:104040000C010C94871280910C010C949B1283E25A
:104050000C943F1183E20C94E31183E20C949111D0
:1040600083E20C9435120C949B1A0C94431C0C9410
:10407000A81B0C94731E0E9436060E94740680933F
:10408000151E80FD10C081E792E00E94C9240E94A5
:10409000D6069093141E8093131E0E94F5248DEB78
:1040A00099E10C94C9248BE591E10E94C9240E94F6
:1040B00074068093151E08950C94D51E0C94181543
:1040C00088E19BE10E94C924609100017091010187
:1040D00086EB91E00E94FE14609100017091010155
:1040E0008EE991E00E94FE140C94B62408951F926C
:1040F0000F920FB60F9211248F939F938091181EE9
:104100009091191E01969093191E8093181E9F91ED
:104110008F910F900FBE0F901F9018951F920F92C6
:104120000FB60F9211240BB60F928F939F93EF93BC
:10413000FF93E091201E80911001E80FE770E0935B
:10414000201EF0E0EE52F24E808185B9E091201EF3
:10415000F0E0EE52F24E808188B980911E1E90915F
:104160001F1E019690931F1E80931E1EFF91EF91BC
:104170009F918F910F900BBE0F900FBE0F901F90CD
:1041800018951F920F920FB60F9211240BB60F9233
:104190002F933F934F935F936F937F938F939F934F
:1041A000AF93BF93EF93FF930E942D180E94511875
:1041B000FF91EF91BF91AF919F918F917F916F91FF
:1041C0005F914F913F912F910F900BBE0F900FBEBB
:1041D0000F901F90189518950E9492098DE39BE10E
:1041E0000E94C9240E946B0580E69BE10E94C924BD
:1041F0000E94350782E89BE10E94C9240E94C407FF
:1042000085EA9BE10E94C92484B5826084BD85B59E
:10421000856085BD8FEF87BD87EC9BE10E94C92437
:104220008091800081608093800080918100836014
:104230008093810080918000806A809380008091CB
:104240006F00816080936F008DEE9BE10E94C92416
:104250008091B00081608093B0008091B100846053
:104260008093B1008091B000806A8093B00083E1B8
:104270009CE10E94C924809191008160809391000B
:1042800089E39CE10E94C92480917C008064809332
:104290007C0080917A00866080937A0080917A0019
:1042A000806880937A008FE59CE10E94C924809108
:1042B000680084608093680080916D0084608093C2
:1042C0006D0081E89CE10E94C9240E942C05809128
:1042D0007E00806F80937E0088B18C6388B981B145
:1042E000836081B981B18C6081B984B1836084B904
:1042F00087B1806C87B9239A529A789484EA9CE1BA
:104300000E94C92489ED9CE10E94C9248DE09DE1B1
:104310000E94C92489E695E00E94C9248DE995E0B0
:104320000E94C92489E695E00E94C92482ED95E0A7
:104330000E94C92489E695E00E94C92486E096E09F
:104340000E94C9248BE296E00E94C92481E696E08F
:104350000E94C9248FE896E00E94C92485EC96E06B
:104360000E94C92480E097E00E94C9248DE297E072
:104370000E94C92480E597E00E94C92481E897E063
:104380000E94C92489E695E00E94C92482EA97E048
:104390000E94C92489E695E00E94C92486ED97E031
:1043A0000E94C92488EF97E00E94C92482E298E025
:1043B0000E94C92480E498E00E94C9248FE598E017
:1043C0000E94C92489E695E00E94C9248FE798E0FD
:1043D0000E94C92489E695E00E94C92483EB98E0F5
:1043E0000E94C92481ED98E00E94C92480EF98E0E2
:1043F0000E94C9248CE099E00E94C9248EE299E0D1
:104400000E94C9248CE499E00E94C92482E799E0C3
:104410000E94C92487E999E00E94C92489E695E0B1
:104420000E94C92481ED99E00E94C92489E695E0A3
:104430000E94C92485E09AE00E94C92480E49AE0A1
:104440000E94C92481EB9AE00E94C92482E29BE089
:104450000E94C92480E69BE00E94C92483E89BE077
:104460000E94C9248CEA9BE00E94C92485ED9BE050
:104470000E94C92488E09CE00E94C9248BE39CE050
:104480000E94C9248AE69CE00E94C92488E99CE035
:104490000E94C9248CEC9CE00E94C92481E09DE02C
:1044A0000E94C92480E39DE00E94C9248FE59DE01D
:1044B0000E94C9248EE89DE00E94C9248AEB9DE0F9
:1044C0000E94C92487EE9DE00E94C92484E19EE0F9
:1044D0000E94C92482E49EE00E94C92483E89EE0F1
:1044E0000E94C92484EC9EE00E94C92485E09FE0DC
:1044F0000E94C92489E695E00E94C92486E49FE0D1
:104500000E94C92489E695E00E94C9248AE79FE0B9
:104510000E94C9248FEA9FE00E94C92484EE9FE094
:104520000E94C92489E190E10E94C9248EE490E1AF
:104530000E94C92485E890E10E94C9248CEB90E197
:104540000E94C92483EF90E10E94C92489E695E086
:104550000E94C92483E49DE10E94C9240E94460769
:104560000E94C4078EEAE82E8DE1F82EC2ECDDE150
:10457000870194EFC92EDD24D3940E94BD078AE5FC
:104580009DE10E9419088BE69DE10E94190880E0D8
:1045900090E00E945F246091000170910101F80198
:1045A000819191918F010E94FE1484EF91E0F601B8
:1045B0003197F1F70197D9F7C017D107F1F60E94AB
:1045C000B20700E513EC0E94BD078BE79DE10E9456
:1045D00019088FEF9FEF0E945F2460910001709196
:1045E0000101888199810E94FE14C8010197F1F7A9
:1045F0002297EC16FD0639F70E94B207CCE0D0E016
:1046000004EF11E00E94BD078BE89DE10E941908AC
:104610008CE99DE10E94190880E090E00E945F24EF
:10462000609100017091010188ED93E00E94FE14F9
:1046300088EE93E0F8013197F1F70197D9F760918F
:104640000001709101018DE693E00E94FE148FEF4E
:104650009FEF0E945F242197A9F60E94B2070E9453
:104660004B07C0E5D0E008EB18E8BE010D2E000CAA
:10467000880B990B0E94B929AB01BC0180E00E9414
:10468000DC23C8010197F1F72196CE3BD10569F7EC
:1046900062E370E080EA0E94632321E042E36AE083
:1046A0008EE00E94FB098091181E9091191E843C97
:1046B000944031F41092191E1092181E0E9407188F
:1046C0000E94631FF0CFEF92FF921F93CF93DF936F
:1046D0001F92CDB7DEB7182F7B017093951E6093A4
:1046E000941E8093931E0E944607812F0E945F07AD
:1046F00080E00E945F0781E30E945F070E944B07F2
:10470000B70180E090E00E94B72920E030E040E867
:1047100055E40E94C62A2FE135E84BE65FE30E948C
:10472000C62A9B01AC0160E27CEB8EEB9BE40E940D
:10473000162920E030E040E85FE30E94A4280E94B0
:10474000882969830E944607812F0E945F078EEFA8
:104750000E945F0789810E945F070E944B0787E8DC
:1047600093E10197F1F700C000000E944607812FF6
:104770000E945F0780E00E945F0781EA0E945F0756
:104780000E944B0787E893E10197F1F700C0000012
:104790000E944607812F0E945F0781E00E945F0709
:1047A00084E00E945F070E944B070F90DF91CF913A
:1047B0001F91FF90EF900895CF92DF92EF92FF92BA
:1047C000CF93C82F6A017B0120E030E04AEF52E42A
:1047D000C701B6010E94C12A18168CF020E030E013
:1047E0004AEF52ECC701B6010E94112987FF0DC0A4
:1047F000C12CD12C9AEFE92E92ECF92E06C0C12CD7
:10480000D12C8AEFE82E82E4F82E25E535E545ED3A
:1048100050E4C701B6010E94C62A20E030E84BEB05
:1048200054E40E94A5280E94882980E090E00E941C
:10483000B7296B017C016091941E7091951E80E0F8
:1048400090E00E94B7299B01AC0160E074E284E72C
:1048500099E40E9416290E94882980E090E00E9435
:10486000B7299B01AC01C701B6010E94162920E0BF
:1048700030E040E855E40E94C62A0E9488297B0166
:104880000E9446078091931E0E945F078C2F880F1D
:10489000880F8A5F0E945F0780E00E945F0780E0C8
:1048A0000E945F078E2D0E945F078F2D0E945F0779
:1048B000CF91FF90EF90DF90CF900C944B07CF9368
:1048C000DF93D82FC92F0E94460780E40E945F071C
:1048D0008D2F0E945F078C2F0E945F07DF91CF9181
:1048E0000C944B07BC0180E090E00E94B72929E2BC
:1048F0003CE54FE65FEB0E94332B22E538E646E2CB
:1049000056E40E94C62A20E030E040E251E40E94D2
:10491000A42860931A1E70931B1E80931C1E9093F4
:104920001D1E0895181624F492E09093100104C0FF
:104930009EEF90931001819567BD10921F1E1092FB
:104940001E1E90916E00926090936E00082E000CD7
:10495000990B20911E1E30911F1E82179307C9F7D5
:1049600080916E008D7F80936E000895289829981D
:104970004698479808959091C00095FFFCCF80938A
:10498000C60008958091C00087FFFCCF8091C600CB
:1049900008950F931F93CF938C01C0E0F801EC0FA3
:1049A000F11D8081882321F00E94BB24CF5FF6CFC8
:1049B000CF911F910F910895CF93C82F64E60E9465
:1049C0003728805D0E94BB242AE08C2F622F0E9432
:1049D0003728C92F0E94372880E3890F0E94BB2403
:1049E00080E38C0FCF910C94BB240F931F93CF9334
:1049F000DF938C0160E177E20E94432880E3860F19
:104A00000E94BB24C80168EE73E00E944328CB01DA
:104A1000CAE0D0E0BE010E944328805D0E94BB2412
:104A2000C80164E670E00E944328CB01BE010E94E9
:104A30004328805D0E94BB24C801BE010E94432818
:104A4000182FCB01BE010E944328805D0E94BB2429
:104A500080E3810FDF91CF911F910F910C94BB24C4
:104A60008F929F92AF92BF92CF92DF92EF92FF927E
:104A7000CF934B015C0120E03AEC4AE95BE30E94F2
:104A8000572880E3820F0E94BB24C501B40120E0B7
:104A900031EE45EF55E00E9457288AE0C82ED12C10
:104AA000E12CF12CCA01B901A70196010E945728F7
:104AB00080E3860F0E94BB24C501B40120E836E9DB
:104AC00048E950E00E945728CA01B901A7019601A0
:104AD0000E94572880E3860F0E94BB24C501B401C1
:104AE00020E432E44FE050E00E945728CA01B901A7
:104AF000A70196010E94572880E3860F0E94BB24DD
:104B0000C501B40120EA36E841E050E00E94572890
:104B1000CA01B901A70196010E94572880E3860FB8
:104B20000E94BB24C501B40120E137E240E050E01F
:104B30000E945728CA01B901A70196010E9457286F
:104B400080E3860F0E94BB24C501B40128EE33E048
:104B500040E050E00E945728CA01B901A701960120
:104B60000E94572880E3860F0E94BB24C501B40130
:104B700024E630E040E050E00E945728CA01B90125
:104B8000A70196010E94572880E3860F0E94BB244C
:104B9000C501B401A70196010E945728C62FCA017A
:104BA000B901A70196010E94572880E3860F0E9451
:104BB000BB2480E38C0FCF91FF90EF90DF90CF90DC
:104BC000BF90AF909F908F900C94BB241F93CF9376
:104BD000DF931F92CDB7DEB7898317E0898190E01C
:104BE000012E02C0959587950A94E2F780FF02C0D6
:104BF00081E301C080E30E94BB24115078F70F903D
:104C0000DF91CF911F9108950F931F93CF93DF935F
:104C1000D0E3C0E310E30E94C224082F0E94BB240B
:104C20000D3021F01C2FCD2FD02FF5CF1053D053A6
:104C300084E6189FD00D1124CC0FC0568C2F880FFE
:104C4000880F8C0F8D0FDF91CF911F910F910895D9
:104C5000EF92FF920F931F93CF93DF9300E3C0E394
:104C6000D0E310E380E3F82E0E94C224E82E0E94D5
:104C7000BB248DE0E81631F0F12E1D2FDC2FC02F64
:104C80000E2DF2CF2F2D30E02053310980E197E235
:104C9000289FA001299F500D389F500D1124212FCE
:104CA00030E02053310968EE73E0269FC001279F52
:104CB000900D369F900D1124840F951F2D2F30E0FD
:104CC0002053310964E6629FA001639F500D1124B7
:104CD000840F951F2C2F30E0205331096AE0629F2A
:104CE000A001639F500D1124840F951F800F911D0B
:104CF000C097DF91CF911F910F91FF90EF90089592
:104D00007F928F929F92AF92BF92CF92DF92EF925B
:104D1000FF920F931F93CF93DF93D0E3C0E310E391
:104D200000E380E3F82E90E3E92E20E3D22E30E377
:104D3000C32E40E3742E50E3B52E0E94C224A82E49
:104D40000E94BB248DE0A81659F0B72C7C2CCD2CEA
:104D5000DE2CEF2CF02E012F1C2FCD2FDA2DEDCFD6
:104D6000AB2DB0E0D09720E03AEC4AE95BE30E943B
:104D700082284B015C01A72DB0E0D09720E031EEF6
:104D800045EF55E00E948228860E971EA81EB91E88
:104D9000AC2DB0E0D09720E836E948E950E00E9419
:104DA0008228860E971EA81EB91EAD2DB0E0D097A2
:104DB00020E432E44FE050E00E948228860E971EE5
:104DC000A81EB91EAE2DB0E0D09720EA36E841E02B
:104DD00050E00E948228860E971EA81EB91E8F2DB5
:104DE00090E0C09740E157E2849F9001859F300D8D
:104DF000949F300D1124C901330FAA0BBB0B880EF1
:104E0000991EAA1EBB1E802F90E0C09728EE33E0AB
:104E1000829FA001839F500D929F500D1124CA01C3
:104E2000550FAA0BBB0BB501A401480F591F6A1FF0
:104E30007B1F812F90E0C09724E6289F4001299F87
:104E4000900C1124C401990CAA0BBB0B4A015B0105
:104E5000880E991EAA1EBB1E2C2F30E0205331094C
:104E60004AE0429FC001439F900D1124092E000C7F
:104E7000AA0BBB0B880D991DAA1DBB1D8D0F911D83
:104E8000A11DB11DBC01CD016053710981099109BA
:104E9000DF91CF911F910F91FF90EF90DF90CF9016
:104EA000BF90AF909F908F907F9008951092950043
:104EB0001092940010929A1E10929B1E10929C1EAB
:104EC00010929D1E85E00E94360590939F1E809350
:104ED0009E1E2091160130911701A90148505109D9
:104EE000B4E056954795BA95E1F7241B350BB90107
:104EF000680F791F7093170160931601FB0124E07E
:104F0000F695E7952A95E1F7E817F907A0F42091BF
:104F1000140130911501A90148505109A4E056959A
:104F20004795AA95E1F7241B350B280F391F3093BD
:104F30001501209314018E179F07A0F420911201F0
:104F400030911301A90148505109F4E05695479555
:104F5000FA95E1F7241B350B280F391F3093130105
:104F600020931201209114013091150140911201FA
:104F700050911301420F531F20911101FA01E20FCA
:104F8000F11D9F01F093221EE093211EAB014E1BE9
:104F90005F0BE4E056954795EA95E1F7841795078E
:104FA00018F488EC90E011C0260F371F44E03695C6
:104FB00027954A95E1F72817390798F38091231E22
:104FC0009091241E009729F001979093241E8093BE
:104FD000231E209194003091950043E3429FC0012D
:104FE000439F900D112468EE73E00E944328CB018B
:104FF000A0E0B0E080939A1E90939B1EA0939C1E0D
:10500000B0939D1E8AED9DE10E94C92480919E1E51
:1050100081580E94DC248CEE96E10E94C9248CEE1B
:105020009DE10E94C924809112019091130124E016
:10503000969587952A95E1F781580E94DC248CEE9D
:1050400096E10E94C9248EEF9DE10E94C9248091BF
:1050500014019091150134E0969587953A95E1F702
:1050600081580E94DC248CEE96E10C94C924991B93
:1050700079E004C0991F961708F0961B881F7A954F
:10508000C9F780950895AA1BBB1B51E107C0AA1F51
:10509000BB1FA617B70710F0A61BB70B881F991FD9
:1050A0005A95A9F780959095BC01CD010895A1E28C
:1050B0001A2EAA1BBB1BFD010DC0AA1FBB1FEE1F92
:1050C000FF1FA217B307E407F50720F0A21BB30BDD
:1050D000E40BF50B661F771F881F991F1A9469F759
:1050E00060957095809590959B01AC01BD01CF01B5
:1050F0000895EE0FFF1F0024001C0BBE0790F691D1
:10510000E02D0994B7FF0C948A280E948A28821BFC
:10511000930B08950E949528A59F900DB49F900D24
:10512000A49F800D911D11240895A29FB001B39FEB
:10513000C001A39F700D811D1124911DB29F700DA0
:10514000811D1124911D08955058BB27AA270E9444
:10515000BC280C946F2A0E94612A38F00E94682AA9
:1051600020F039F49F3F19F426F40C945E2A0EF4D3
:10517000E095E7FB0C942F2AE92F0E94802A58F330
:10518000BA17620773078407950720F079F4A6F52C
:105190000C94BA2A0EF4E0950B2EBA2FA02D0B0119
:1051A000B90190010C01CA01A0011124FF27591B6C
:1051B00099F0593F50F4503E68F11A16F040A22F72
:1051C000232F342F4427585FF3CF469537952795E3
:1051D000A795F0405395C9F77EF41F16BA0B620BE2
:1051E000730B840BBAF09150A1F0FF0FBB1F661F29
:1051F000771F881FC2F70EC0BA0F621F731F841F6C
:1052000048F4879577956795B795F7959E3F08F091
:10521000B0CF9395880F08F09927EE0F9795879553
:1052200008950E940B2A08F481E008950E942A291B
:105230000C946F2A0E94682A58F00E94612A40F05C
:1052400029F45F3F29F00C942F2A51110C94BB2AAA
:105250000C945E2A0E94802A68F39923B1F35523A7
:1052600091F3951B550BBB27AA2762177307840779
:1052700038F09F5F5F4F220F331F441FAA1FA9F30F
:1052800035D00E2E3AF0E0E832D091505040E695FD
:10529000001CCAF72BD0FE2F29D0660F771F881F5E
:1052A000BB1F261737074807AB07B0E809F0BB0B51
:1052B000802DBF01FF2793585F4F3AF09E3F510565
:1052C00078F00C942F2A0C94BB2A5F3FE4F3983EAD
:1052D000D4F3869577956795B795F7959F5FC9F74E
:1052E000880F911D9695879597F90895E1E0660FCF
:1052F000771F881FBB1F621773078407BA0720F048
:10530000621B730B840BBA0BEE1F88F7E0950895B0
:105310000E94882A88F09F5798F0B92F9927B75193
:10532000B0F0E1F0660F771F881F991F1AF0BA9549
:10533000C9F714C0B13091F00E94BA2AB1E00895C3
:105340000C94BA2A672F782F8827B85F39F0B93FB5
:10535000CCF3869577956795B395D9F73EF49095FC
:105360008095709561957F4F8F4F9F4F0895E8947A
:1053700009C097FB3EF490958095709561957F4F9D
:105380008F4F9F4F9923A9F0F92F96E9BB2793954B
:10539000F695879577956795B795F111F8CFFAF45B
:1053A000BB0F11F460FF1BC06F5F7F4F8F4F9F4F8C
:1053B00016C0882311F096E911C0772321F09EE8EA
:1053C000872F762F05C0662371F096E8862F70E050
:1053D00060E02AF09A95660F771F881FDAF7880F2A
:1053E0009695879597F908950E94A22A90F09F3785
:1053F00048F4911116F00C94BB2A60E070E080E84C
:105400009FEB089526F41B16611D711D811D0C94E0
:10541000352A0C94502A990F0008550FAA0BE0E882
:10542000FEEF16161706E807F907C0F01216130666
:10543000E407F50798F0621B730B840B950B39F4A6
:105440000A2661F0232B242B252B21F408950A260C
:1054500009F4A140A6958FEF811D811D089597F94C
:105460009F6780E870E060E00895882371F47723F7
:1054700021F09850872B762F07C0662311F49927C7
:105480000DC09051862B70E060E02AF09A95660F6F
:10549000771F881FDAF7880F9695879597F90895F3
:1054A0009F3F31F0915020F4879577956795B79598
:1054B000880F911D9695879597F908959FEF80EC39
:1054C000089500240A94161617061806090608956A
:1054D00000240A9412161306140605060895092ED0
:1054E0000394000C11F4882352F0BB0F40F4BF2B3F
:1054F00011F460FF04C06F5F7F4F8F4F9F4F08957F
:1055000057FD9058440F551F59F05F3F71F0479574
:10551000880F97FB991F61F09F3F79F08795089559
:10552000121613061406551FF2CF4695F1DF08C078
:10553000161617061806991FF1CF86957105610595
:10554000089408950E94882AA0F0BEE7B91788F44D
:10555000BB279F3860F41616B11D672F782F882758
:10556000985FF7CF869577956795B11D9395963996
:10557000C8F30895E894BB2766277727CB0197F9EE
:1055800008950E940B2A08F48FEF08950E94D92AEB
:105590000C946F2A0E94612A38F00E94682A20F039
:1055A000952311F00C942F2A0C945E2A11240C944C
:1055B000BB2A0E94802A70F3959FC1F3950F50E09B
:1055C000551F629FF001729FBB27F00DB11D639FB5
:1055D000AA27F00DB11DAA1F649F6627B00DA11D5B
:1055E000661F829F2227B00DA11D621F739FB00D01
:1055F000A11D621F839FA00D611D221F749F332771
:10560000A00D611D231F849F600D211D822F762F09
:105610006A2F11249F5750409AF0F1F088234AF0E6
:10562000EE0FFF1FBB1F661F771F881F9150504052
:10563000A9F79E3F510580F00C942F2A0C94BB2AA9
:105640005F3FE4F3983ED4F3869577956795B795D9
:10565000F795E7959F5FC1F7FE2B880F911D9695F3
:10566000879597F90895FA01EE0FFF1F30962105EF
:105670003105A1F16115710561F48038BFE39B0725
:1056800049F168949038810561F08038BFEF9B073D
:1056900041F099234AF5FF3FE1053105210519F154
:1056A000E8940894E795D901AA2329F4AB2FBE2FDB
:1056B000F85FD0F310C0FF5F70F4A695E0F7F739FC
:1056C00050F019F0FF3A38F49F779F930DD00F9068
:1056D00007FC9058089546F00C945E2A60E070E054
:1056E00080E89FE308954FE79F775F934F933F9341
:1056F0002F930E94522C2F913F914F915F910E94C6
:10570000C62A0C94AF2B0E94882AE8F09E37E8F056
:105710009639B8F49E3848F4672F782F8827985F19
:10572000F9CF86957795679593959539D0F3B62FF0
:10573000B1706B0F711D811D20F48795779567956A
:1057400093950C94352A0C94502A0C94BB2A29F476
:1057500016F00C942F2A0C94BA2A0C945E2A0E94FC
:10576000882AA8F39638A0F707F80F92E8942BE35D
:105770003AEA48EB5FE70E94DC2A0F920F920F9201
:105780004DB75EB70F920E949A2CE4E3F1E00E94BD
:10579000E12B4F915F91EF91FF91E595EE1FFF1F78
:1057A00049F0FE57E0684427EE0F441FFA95E1F7F1
:1057B0004195550B0E94142C0F9007FE0C94082C59
:1057C0000895DF93CF931F930F93FF92EF92DF9291
:1057D0007B018C01689406C0DA2EEF010E94D92A61
:1057E000FE01E894A5912591359145915591A6F337
:1057F000EF010E94BC28FE019701A801DA9469F725
:10580000DF90EF90FF900F911F91CF91DF9108955E
:105810009B01AC0160E070E080E89FE30C941629E6
:105820000C942F2A0C94502A0E94882AD8F399238A
:10583000C9F3940F511DA3F39150504094F059F0C7
:10584000882332F0660F771F881F91505040C1F7B0
:105850009E3F51052CF7880F911D9695879597F9D6
:1058600008955F3FACF0983E9CF0BB2786957795F6
:105870006795B79508F4B1609395C1F7BB0F58F7DA
:1058800011F460FFE8CF6F5F7F4F8F4F9F4FE3CFE3
:105890000C94BB2A16F00C94502A0C945E2A68943F
:1058A0000C942F2A0E94882AA8F39923C1F3AEF3FF
:1058B000DF93CF931F930F93FF92C92FDD27882388
:1058C0002AF02197660F771F881FDAF720E030E073
:1058D00040E85FEB9FE3883920F0803E38F0219666
:1058E0008F770E94A528ECE5F1E004C00E94A5286E
:1058F000E9E8F1E00E94E12B8B01BE01EC01FB2EF7
:105900006F5771097595771F880B990B0E94B929FC
:1059100028E132E741E35FE30E94D92AAF2D9801E5
:10592000AE01FF900F911F91CF91DF910E94BC2893
:105930000C946F2AFA01DC01AA0FBB1F9B01AC017A
:10594000BF5728F4222733274427507820C0B75167
:1059500090F4AB2F0024469537952795011CA3950D
:10596000D2F3002071F0220F331F441FB395DAF3F6
:105970000ED00C94A42861307105A0E88A07B946BE
:1059800030F49B01AC016627772788279078309602
:1059900021F020833183428353830895FC018827BB
:1059A0009927E89421912032E9F3293010F02E3024
:1059B000C8F32B3241F02D3239F4689404C00E94B0
:1059C0000B2E820F911D219120532A30C0F31EF41B
:1059D000909581959F4F0895283008F027E0332750
:1059E000DA01990F311D87FD9160009661057105FF
:1059F00039F432602E5F3D9330E32A95E1F7089544
:105A00009F3F30F080387105610509F03C5F3C5FD5
:105A10003D93913008F08068911DDF93CF931F93E1
:105A20000F93FF92EF92192F987F9695E92F9695F5
:105A30009695E90FFF27E85EFD4F99273327EE245F
:105A4000FF24A701E70105900894079428F4360F76
:105A5000E71EF81E491F511D660F771F881F991FEB
:105A60000694A1F70590079428F4E70EF81E491F45
:105A7000561FC11D770F881F991F661F0694A1F737
:105A80000590079428F4F80E491F561FC71FD11D13
:105A9000880F991F661F771F0694A1F7059007943A
:105AA00020F4490F561FC71FD81F990F661F771F75
:105AB000881F0694A9F784911095177041F0D69528
:105AC000C79557954795F794E7941A95C1F7EEEB6C
:105AD000F1E0689415901591359165919591059037
