:100000000C9468010C9487010C9487010C9487016F
:100010000C9487010C9487010C944A220C9487015C
:100020000C9487010C9487010C9487010C94870130
:100030000C9487010C9487010C9487010C94002286
:100040000C9417220C9487010C9487010C9487015F
:100050000C9487010C9487010C9487010C94870100
:100060000C9474220C9487010C9487010C948701E2
:100070000C9487010C9487010C9487010C948701E0
:100080000C9487010C9487010C9487013921E92194
:10009000E921E921E921E921E921302179216521BD
:1000A000752169212921262159215D2161211921EB
:1000B000222115213D211F214121E921E9216D2125
:1000C000E921E921E921E9210521BC218D210A212C
:1000D000C221C021E921E721E921E921E9214521C6
:1000E00099219521F8209D21C4214921FF20F62046
:1000F000E5219121FA200F21E921BE21E921E92101
:10010000E921E921E921E9214D21E921A0217D21F0
:10011000B0218121E9218521E92189215521512120
:10012000AC21A821B621B921E921B321E921372148
:10013000E921A421E921E921712107634236B79B16
:10014000D8A71A39685618AEBAAB558C1D3CB7CC37
:100150005763BD6DEDFD753EF6177231BF000000AF
:10016000803F08000000BE922449123EABAAAA2A92
:10017000BECDCCCC4C3E00000080BEABAAAAAA3EAD
:1001800000000000BF000000803F000000000008E9
:100190004178D3BB4387D1133D190E3CC3BD428286
:1001A000AD2B3E68EC8276BED98FE1A93E4C80EF44
:1001B000FFBE01C4FF7F3F00000000006E616E00C3
:1001C000696E660000407A10F35A00A0724E18095A
:1001D0000010A5D4E80000E87648170000E40B54AE
:1001E000020000CA9A3B000000E1F505000080967D
:1001F0009800000040420F000000A08601000000AF
:10020000102700000000E803000000006400000068
:1002100000000A00000000000100000000002C7631
:10022000D888DC674F0823DFC1DFAE59E1B1B7964C
:10023000E5E3E453C63AE651997696E8E6C28426A9
:10024000EB898C9B62ED407C6FFCEFBC9C9F40F285
:10025000BAA56FA5F490055A2AF75C936B6CF96701
:100260006DC11BFCE0E40D47FEF520E6B500D0EDC6
:10027000902E0300943577050080841E080000202E
:100280004E0A000000C80C333333330F986E1283CC
:100290001141EF8D2114893BE65516CFFEE6DB18A0
:1002A000D1844B381BF77C1D901DA4BBE424203265
:1002B00084725E228100C9F124ECA1E53D27256905
:1002C000207365632E20666F72206D656E75000069
:1002D00011241FBECFEFD0E4DEBFCDBF1EE1A0E0F2
:1002E000B1E0E2E3F1E600E00BBF02C007900D923F
:1002F000AC37B107D9F72FE1ACE7BEE101C01D92E1
:10030000AA30B207E1F70E9475220C9497300C9442
:1003100000002F923F924F925F926F927F928F9246
:100320009F92AF92BF92CF92DF92EF92FF920F9384
:100330001F93CF93DF93CDB7DEB760970FB6F894D6
:10034000DEBF0FBECDBF7C011B016A01FC0117821D
:100350001682838181FF44C39E012F5F3F4F390185
:10036000F7019381F10193FD859193FF81911F0125
:10037000882309F431C3853239F493FD859193FFC5
:1003800081911F01853239F4B70190E00E94BE2FA0
:1003900056016501E5CF10E0512C912CFFE1F915D4
:1003A000D8F08B3279F038F4803279F08332A1F4CE
:1003B000F92DF0612EC08D3261F0803369F4292D62
:1003C00021602DC0392D3260932E892D8460982EA6
:1003D0002AC0E92DE86015C097FC2DC020ED280F3C
:1003E0002A3088F496FE06C03AE0139F200D1124AF
:1003F000122F19C08AE0589E200D1124522EE92D8B
:10040000E0629E2E10C08E3231F496FCE5C2F92DCA
:10041000F0649F2E08C08C3621F4292D2068922E7E
:1004200002C0883641F4F10193FD859193FF8191DB
:100430001F018111B3CF9BEB980F933020F4992DBE
:100440009061805E07C09BE9980F933008F066C109
:10045000992D9F7E96FF16E09F73992E853619F48D
:100460009064992E08C0863621F4392F3068932E77
:1004700002C01111115097FE07C01C3350F44424E0
:100480004394410E27E00BC0183038F027E017E006
:1004900005C027E09CE3492E02C0212F412C5601C4
:1004A00084E0A80EB11CF601608171818281938184
:1004B000042DA3010E947D2E6C01F981FC87F0FFC1
:1004C00002C0F3FF06C091FC06C092FE06C000E227
:1004D00005C00DE203C00BE201C000E08C858C700A
:1004E00019F001115AC29BC297FE10C04C0CFC853A
:1004F000F4FF04C08A81813309F44A94141474F51A
:1005000028E0241578F588E0482E2CC096FC2AC0F7
:10051000812F90E08C159D059CF03CEFC3163FEFBA
:10052000D30674F0892D8068982E0AC0E2E0F0E0CE
:10053000EC0FFD1FE10FF11D8081803319F4115084
:100540001111F4CF97FE0EC044244394410E812F25
:1005500090E0C816D9062CF41C1904C04424439416
:1005600001C010E097FE06C01C141D0434F4C6013F
:10057000019605C085E090E002C081E090E00111A5
:100580000196112331F0212F30E02F5F3F4F820F72
:10059000931F252D30E08217930714F4581A01C0D9
:1005A000512C892D897049F4552039F0B70180E22A
:1005B00090E00E94BE2F5A94F7CF002329F0B70194
:1005C000802F90E00E94BE2F93FC09C0552039F087
:1005D000B70180E390E00E94BE2F5A94F7CF97FEB8
:1005E0004CC04601D7FE02C0812C912CC60188194F
:1005F0009909F301E80FF91FFE87ED879601241989
:100600003109388B2F87012F10E0119501951109C1
:100610003FEF8316930629F4B7018EE290E00E9423
:10062000BE2FC814D9044CF08F8598898815990578
:1006300024F4ED85FE85818101C080E3F1E08F1A0D
:1006400091082D853E852F5F3F4F3E872D87801671
:1006500091062CF0B70190E00E94BE2FD9CFC814AC
:10066000D90441F49A81963320F4953319F43C85EA
:1006700034FF81E3B70190E04EC08A81813319F0E5
:100680009C859F7E9C87B70190E00E94BE2F111130
:1006900005C094FC18C085E690E017C0B7018EE253
:1006A00090E00E94BE2F1E5F82E001E0080FF30180
:1006B000E80FF11D8081B70190E00E94BE2F802FCE
:1006C0000113F3CFE6CF85E490E0B7010E94BE2F7F
:1006D000D7FC06C0C114D10441F4EC85E4FF05C089
:1006E000D194C194D1088DE201C08BE2B70190E0B2
:1006F0000E94BE2F80E32AE0C216D1042CF08F5F47
:10070000FAE0CF1AD108F7CFB70190E00E94BE2FD0
:10071000B701C601C0960E94BE2F54C1833631F086
:10072000833779F0833509F056C020C0560132E096
:10073000A30EB11CF6018081898301E010E0630102
:1007400012C05601F2E0AF0EB11CF601C080D1809C
:1007500096FE03C0612F70E002C06FEF7FEFC6010D
:100760000E947B2F8C01F92DFF7714C0560122E0E7
:10077000A20EB11CF601C080D18096FE03C0612F8D
:1007800070E002C06FEF7FEFC6010E94552F8C0111
:10079000F92DF0689F2EF3FD1AC0852D90E0081703
:1007A0001907A8F4B70180E290E00E94BE2F5A9486
:1007B000F4CFF60197FC859197FE81916F01B70107
:1007C00090E00E94BE2F51105A940150110901155A
:1007D000110579F7F7C0843611F0893661F55601B5
:1007E00097FE09C024E0A20EB11CF6016081718160
:1007F000828193810AC0F2E0AF0EB11CF6016081E4
:100800007181072E000C880B990BF92DFF769F2E16
:1008100097FF09C090958095709561957F4F8F4F98
:100820009F4FF0689F2E2AE030E0A3010E942930FC
:10083000C82EC6183FC0092D853721F40F7E2AE047
:1008400030E01DC0097F8F3691F018F4883559F0DB
:10085000C3C0803719F0883711F0BEC0006104FFB3
:1008600009C0046007C094FE08C0066006C028E006
:1008700030E005C020E130E002C020E132E0560166
:1008800007FF09C084E0A80EB11CF60160817181E8
:100890008281938108C0F2E0AF0EB11CF601608145
:1008A000718180E090E0A3010E942930C82EC61813
:1008B0000F77902E96FE0BC0092D0E7FC11650F4B7
:1008C00094FE0AC092FC08C0092D0E7E05C0DC2CE7
:1008D000092D03C0DC2C01C0D12E04FF0DC0FE0188
:1008E000EC0DF11D8081803311F4097E09C002FFF7
:1008F00006C0D394D39404C0802F867809F0D39493
:1009000003FD11C000FF06C01C2DD51480F4150D89
:100910001D190DC0D51458F4B70180E290E00E9473
:10092000BE2FD394F7CFD51410F45D1801C0512C0D
:1009300004FF10C0B70180E390E00E94BE2F02FFC9
:1009400017C001FD03C088E790E002C088E590E091
:10095000B7010CC0802F867859F001FF02C08BE2EE
:1009600001C080E207FD8DE2B70190E00E94BE2F3A
:10097000C11638F4B70180E390E00E94BE2F1150F9
:10098000F7CFCA94F301EC0DF11D8081B70190E01F
:100990000E94BE2FC110F5CF15C0F4E0F51560F52B
:1009A00084E0581A93FE1FC0011127C02C8523FF35
:1009B0002AC00CEB11E0392D3071932EF80184918F
:1009C000811124C0552009F4E4CCB70180E290E005
:1009D0000E94BE2F5A94F6CFF7018681978126C0D8
:1009E0008FEF9FEF23C0B70180E290E00E94BE2FFF
:1009F0005A945110F8CFD8CF512CB701802F90E0E6
:100A00000E94BE2FD3CF00EC11E0D5CF91108052C1
:100A1000B70190E00E94BE2F0F5F1F4FCFCF23E0A2
:100A2000251510F483E0BDCF512CC0CF60960FB6D2
:100A3000F894DEBF0FBECDBFDF91CF911F910F9114
:100A4000FF90EF90DF90CF90BF90AF909F908F90EE
:100A50007F906F905F904F903F902F90089583B755
:100A6000817F826083BFEAE7F0E0808188608083D5
:100A7000089590917C00907E90937C0090917C00F2
:100A8000892B80937C0080917A00806480937A0027
:100A900080917A0086FFFCCF809178009091790058
:100AA00008951F93CF93DF9310E1C0E0D0E083B7A8
:100AB000816083BF889583B78E7F83BF87E00E9464
:100AC0003905C80FD91F115091F7CE01969587951A
:100AD00096958795DF91CF911F910895249A2C9A2E
:100AE000259A2E9A279A8CB581608CBD8CB5806131
:100AF0008CBD8CB580648CBD08958EBD0DB407FE91
:100B0000FDCF0895CF93DF93EB010E947D058D2FDC
:100B10000E947D058C2FDF91CF910C947D052C9840
:100B200086E00E947D052C9A0895CF92DF92EF9285
:100B3000FF926B017C012C9883E00E947D05C70128
:100B4000B6010E94820580E00E947D052C9A8EB538
:100B5000FF90EF90DF90CF900895CF92DF92EF92C9
:100B6000FF92CF936B017C01C42F0E948F052C98BC
:100B700082E00E947D05C701B6010E9482058C2F8C
:100B80000E947D050DB407FEFDCF2C9ACF91FF90FA
:100B9000EF90DF90CF900895CF92DF92EF92FF9287
:100BA000CF93DF936B017C012C9883E00E947D053D
:100BB000C701B6010E94820580E00E947D05CEB586
:100BC000D0E0DC2FCC2780E00E947D058EB52C9AEA
:100BD0009E01280F311DC901DF91CF91FF90EF9049
:100BE000DF90CF900895CF92DF92EF92FF92CF9354
:100BF000DF936B017C01EA010E948F052C9882E053
:100C00000E947D05C701B6010E9482058D2F0E94BA
:100C10007D058C2F0E947D052C9ADF91CF91FF904E
:100C2000EF90DF90CF900895CF92DF92EF92FF92F6
:100C3000C12CD12C76010E948F052C9882E00E9455
:100C40007D05C701B6010E94820580E00E947D05F6
:100C50008FEFC81AD80AE80AF80A2C9A8FEFC8163C
:100C6000D806E104F10439F7FF90EF90DF90CF90C0
:100C700008950E94490784EC0E9462078091B900A0
:100C8000887F883199F588E191E00E945A2688E1B1
:100C90000E94772788E29AE10E945A2680E00E940B
:100CA00062078091B900887F883201F580E591E084
:100CB0000E945A2688E20E94772788E29AE10E94E1
:100CC0005A2684E00E9462078091B900887F8832AA
:100CD00069F484E791E00E945A2688E20E9477270F
:100CE00088E29AE10E945A260C944E070895CF9309
:100CF0000E94490784EC0E9462078091B900887FB6
:100D0000883101F588E191E00E945A2688E10E942D
:100D1000772788E29AE10E945A2681E00E946207C2
:100D20008091B900887F883269F482E991E00E945D
:100D30005A2688E20E94772788E29AE10E945A2682
:100D40000E944E0786EB91E00E945A2688E29AE1C3
:100D50000E945A260E94490785EC0E946207C091B2
:100D6000B900C87F8C2F0E94772788E29AE10E9401
:100D70005A26C034D1F480EC91E00E945A2680E4D7
:100D80000E94772788E29AE10E945A260E945A0719
:100D9000C82F8EEF91E00E945A268C2F0E94772751
:100DA00088E29AE10E945A2601C0C0E08C2FCF91C0
:100DB00008951F93CF93DF930E94490784EC0E940C
:100DC00062078091B900887F883159F488E191E009
:100DD0000E945A2688E10E94772788E29AE10E94C1
:100DE0005A268FE80E9462078091B900887F883276
:100DF00069F480E192E00E945A2688E20E947727F7
:100E000088E29AE10E945A260E944E070E944907F2
:100E100085EC0E9462078091B900887F803409F5D3
:100E200084E392E00E945A2680E40E94772788E2B9
:100E30009AE10E945A260E945207182F0E945A07D0
:100E4000C82F0E944E07D0E0D12B81E792E00E948C
:100E50005A26CE010E94862688E29AE10E945A26EE
:100E600002C0C0E0D0E0CE01DF91CF911F91089584
:100E700088B1836088B986E48093B800ECEBF0E039
:100E800080818460808308958091BC0087FFFCCFBF
:100E9000089584EA8093BC000C94440784E980930D
:100EA000BC00089584EC8093BC000E9444078091AC
:100EB000BB00089584E88093BC000E9444078091A1
:100EC000BB0008958093BB0084E88093BC000C9421
:100ED0004407CF93C82F0E9449078EE40E946207FF
:100EE0008C2F88600E946207CF910C944E071F934D
:100EF000CF93DF93D82F11E0611101C010E0D4FF30
:100F000002C080E101C080E0D5FD8062D6FD806432
:100F1000D7FD8068C82FC12B8C2F84600E94690781
:100F200087EA91E60197F1F700C000008C2F0E943C
:100F30006907D0FF02C080E101C080E0D1FD80627E
:100F4000D2FD8064D3FD8068182B812F84600E94BD
:100F5000690787EA91E60197F1F700C00000812F49
:100F6000DF91CF911F910C94690760E081E00E94AE
:100F7000770760E080E80E94770710927C1E089552
:100F800060E080E80E94770710927C1E0895CF935E
:100F9000C4E0C150B1F084E30E9469078FE493EC90
:100FA0000197F1F700C0000080E30E9469079FE706
:100FB0002AE186E0915020408040E1F700C0000027
:100FC000E8CF84E20E9469078FE493EC0197F1F780
:100FD00000C0000080E20E9469078FE493EC019753
:100FE000F1F700C0000060E088E20E94770760E04F
:100FF0008CE00E947707CF910C94B507CF93C82F50
:1010000080917C1E803121F460E080EC0E947707A3
:1010100080917C1E803231F460E080E80E94770786
:1010200010927C1E80917C1E8F5F80937C1E61E0FD
:101030008C2FCF910C9477070F931F93CF93DF934F
:10104000EC018E0188818823F1F080917C1E803133
:1010500021F460E080EC0E94770780917C1E803252
:1010600031F460E080E80E94770710927C1E809146
:101070007C1E8F5F80937C1E219661E0F801808149
:101080000E947707DECFDF91CF911F910F910895D6
:101090004F925F926F927F928F929F92AF92BF9288
:1010A000CF92DF92EF92FF920F931F93CF93DF9334
:1010B000CDB7DEB764970FB6F894DEBF0FBECDBFD5
:1010C000FE01B796819091907F01712C6E018BE0AB
:1010D000C80ED11CFE0131965F0180E3682E240109
:1010E000FFEF4F1A5F0AF4018491882309F4A6C028
:1010F000853209F08FC084010E5F1F4FF201849189
:10110000282F30E0205331092A303105D8F5898362
:101110001A82C5010E945F2E782E94012D5F3F4FE9
:10112000F8010491093651F138F40236E1F1033641
:10113000D1F089014801D3CF033731F0083779F175
:101140000F36B9F7890128C08901F70180809180A5
:10115000F2E0EF0EF11CF40181914F01882351F36D
:101160000E94FE07F8CF89014701F2E08F0E911C23
:10117000F70180810E94FE077401DCCF890198018C
:101180004AE012C08936D9F308F448C08337E9F23F
:10119000883731F08F3671F6980148E005C0890133
:1011A000980140E101C042E050E04701F2E08F0EBB
:1011B000911CF701808191818901B6010E94862FDF
:1011C000F601CF018C199D0921912111FACF272D0C
:1011D00030E082179307C4F4781AF501872D90E068
:1011E0009F012A193B092817390714F46192F8CF97
:1011F000F501E80FF91F1082B601C5010E94602FAA
:10120000B501C6010E94742FC6010E941C0874011A
:10121000712C90CF0E94FE0782018CCF823651F450
:101220004701F2E08F0E911CF7018081918142E02D
:1012300050E0C3CF833609F497CF7CCF64960FB6C6
:10124000F894DEBF0FBECDBFDF91CF911F910F91FC
:10125000FF90EF90DF90CF90BF90AF909F908F90D6
:101260007F906F905F904F90089550E05093890069
:1012700040938800882319F0109A549A02C010985D
:10128000549850938B0040938A00662319F0119A6A
:10129000559A08951198559808954093B30088235E
:1012A00019F0129A569A02C0129856984093B400B8
:1012B000662319F0139A579A08951398579808952A
:1012C000CF93DF93C82FD82FD6958D2F0E946D26F0
:1012D0001F92DF938DE792E09F938F938DED9EE1B8
:1012E0009F938F930E94FA2F8DED9EE10E941C0820
:1012F0000F900F900F900F900F900F90C0FF07C0AE
:1013000080E892E00E945A2685E892E006C08FE8C5
:1013100092E00E945A2684E992E00E941C0888E824
:1013200092E0DF91CF910C941C081092C50084E0EC
:101330008093C400E0ECF0E080818260808388E1EB
:101340008093C10086E08093C20008950F931F939D
:10135000CF938C01C62F67E972E00E946B2F892B17
:1013600021F44C2F60E081E01EC06FE972E0C801FB
:101370000E946B2F892B69F44C2F60E081E00E9462
:101380004D094C2F61E080E0CF911F910F910C949B
:10139000350965EA72E0C8010E946B2F892B49F478
:1013A0004C2F61E080E00E944D094C2F60E081E00D
:1013B000EBCF6AEA72E0C8010E946B2F892B21F4FF
:1013C0004C2F61E080E0DBCF63EB72E0C8010E944C
:1013D0006B2F892B41F440E060E080E00E944D09D2
:1013E00040E060E0D0CF89EB92E00E945A2688E28C
:1013F0009AE1CF911F910F910C945A262F923F9210
:101400004F925F926F927F928F929F92AF92BF9214
:10141000CF92DF92EF92FF920F931F93CF93DF93C0
:1014200000D000D000D0CDB7DEB7182F6E83B42E19
:10143000022FC82ED12CE12CF12C24E2C21AD108A3
:101440002FEFE20AF20AC701B6010E9495058D83CB
:101450001031E0F08FEC92E026960FB6F894DEBFE4
:101460000FBECDBFDF91CF911F910F91FF90EF90F5
:10147000DF90CF90BF90AF909F908F907F906F90B4
:101480005F904F903F902F900C945A268B2D90E0B8
:10149000A0E0B0E089839A83AB83BC839D8197FDF4
:1014A0006CC1AE8144EF242E33243394A7FDD8C001
:1014B0009A170CF07BC0BD816B2FBB0F770B880B8D
:1014C000990B0E944A2BAB01BC01812F0E946D2514
:1014D0004E81C701B6010E94AD0569817A818B8179
:1014E0009C810E94482B2B013C0120E030E44CE918
:1014F00055E40E94572C4B015C0120E030E040E8AD
:101500005FE30E94A22A87FD22C020E03FEF4FE761
:1015100057E4C501B4010E94522C18169CF420E037
:1015200030E040E251E4C301B2010E94572C0E9416
:10153000192B6115710581F0C1010197F1F7615017
:101540007109F7CFC501B4010E94192B02C061E0F7
:1015500070E0CB010197F1F72D81200F2D833E81A3
:1015600032170CF0A8CF85E093E00E945A26812F15
:101570000E946D2688E293E00E945A263CEDC32E1D
:10158000DD24DA94E12CF12C812F90E09A83898379
:10159000B3C0C501B4010E94192BCB010197F1F72B
:1015A000BD81B01BBD832E81B217ECF2AD816A2FD5
:1015B000AA0F770B880B990B0E944A2BAB01BC0139
:1015C000812F0E946D254E81C701B6010E94AD0595
:1015D00069817A818B819C810E94482B2B013C017F
:1015E00020E030E44CE955E40E94572C4B015C01AB
:1015F00020E030E040E85FE30E94A22A87FD1FC0A0
:1016000020E03FEF4FE757E4C501B4010E94522CA0
:1016100018160CF0BECF20E030E040E251E4C301E8
:10162000B2010E94572C0E94192B6115710509F413
:10163000B7CFC1010197F1F761507109F6CF61E0B1
:1016400070E0ABCFC501B4010E94192BCB0101970B
:10165000F1F78D81801B8D839E8189170CF483CFD8
:101660003D81632F330F770B880B990B0E944A2B18
:10167000AB01BC01812F0E946D254E81C701B601CF
:101680000E94AD0569817A818B819C810E94482BE3
:101690002B013C0120E030E44CE955E40E94572C3A
:1016A0004B015C0120E030E040E85FE30E94A22AA9
:1016B00087FD1FC020E03FEF4FE757E4C501B401AD
:1016C0000E94522C18160CF0BDCF20E030E040E212
:1016D00051E4C301B2010E94572C0E94192B6115DD
:1016E000710509F4B6CFC1010197F1F76150710995
:1016F000F6CF61E070E0AACF87E393E00E945A261C
:10170000C6010E94862688E493E00E945A26C701FB
:10171000B6010E9495050E946D26C6018496A98196
:10172000BA81A817B90721F481E593E00E945A26EF
:10173000BFEFCB1ADB0AEB0AFB0A2CEEC2162FEF27
:10174000D206E104F104C1F626960FB6F894DEBF86
:101750000FBECDBFDF91CF911F910F91FF90EF9002
:10176000DF90CF90BF90AF909F908F907F906F90C1
:101770005F904F903F902F9008953E8137FD5DC060
:1017800024EF222E33243394AD816A2FAA0F770BD6
:10179000880B990B0E944A2BAB01BC01812F0E9440
:1017A0006D254E81C701B6010E94AD0569817A8120
:1017B0008B819C810E94482B2B013C0120E030E46E
:1017C0004CE955E40E94572C4B015C0120E030E0CD
:1017D00040E85FE30E94A22A87FD22C020E03FEF9D
:1017E0004FE757E4C501B4010E94522C18169CF42F
:1017F00020E030E040E251E4C301B2010E94572CE6
:101800000E94192B6115710581F0C1010197F1F753
:1018100061507109F7CFC501B4010E94192B02C0B4
:1018200061E070E0CB010197F1F7BD81B00FBD839E
:101830002E812B170CF0A8CF96CE3D818E8194EF90
:10184000292E3324339438170CF067C0AD816A2FEA
:10185000AA0F770B880B990B0E944A2BAB01BC0196
:10186000812F0E946D254E81C701B6010E94AD05F2
:1018700069817A818B819C810E94482B2B013C01DC
:1018800020E030E44CE955E40E94572C4B015C0108
:1018900020E030E040E85FE30E94A22A87FD22C0FA
:1018A00020E03FEF4FE757E4C501B4010E94522CFE
:1018B00018169CF420E030E040E251E4C301B2018C
:1018C0000E94572C0E94192B6115710581F0C101EE
:1018D0000197F1F761507109F7CFC501B4010E947A
:1018E000192B02C061E070E0CB010197F1F7BD81D7
:1018F000B00FBD832E812B170CF0A8CF34CEC501BD
:10190000B4010E94192BCB010197F1F78D81801B47
:101910008D839E8189170CF426CE3D81632F330F72
:10192000770B880B990B0E944A2BAB01BC01812FCE
:101930000E946D254E81C701B6010E94AD056981E7
:101940007A818B819C810E94482B2B013C0120E0F5
:1019500030E44CE955E40E94572C4B015C0120E037
:1019600030E040E85FE30E94A22A87FD1FC020E02C
:101970003FEF4FE757E4C501B4010E94522C1816FF
:101980000CF0BDCF20E030E040E251E4C301B201F1
:101990000E94572C0E94192B6115710509F4B6CFCE
:1019A000C1010197F1F761507109F6CF61E070E074
:1019B000AACF1F93CF93DF9381E693E00E945A262C
:1019C0008CE893E00E945A260E949527D82F89EA36
:1019D00093E00E945A260E949527C82F88EC93E036
:1019E0000E945A260E9453268D3261F018F48B32E1
:1019F00031F00EC0803319F0813321F009C08FE03F
:101A000094E003C0C1958AE294E00E945A2606C081
:101A100081E494E00E945A26C0E0D4E60E94532656
:101A20008EE794E00E945A260E949527182F8FE98E
:101A300094E00E945A260E949527282F412F6C2F50
:101A40008D2F0E94FE0987EC94E0DF91CF911F91CA
:101A50000C945A26CF93C82F21E0482F60E080E0F5
:101A60000E94FE0921E04C2F60E084E00E94FE0904
:101A700021E04C2F60E083E00E94FE0921E04C2F22
:101A800060E082E00E94FE0921E04C2F60E081E0EE
:101A90000E94FE0921E04C2F60E085E00E94FE09D3
:101AA00021E04C2F6EE186E00E94FE0921E04C2FE0
:101AB00060E087E00E94FE0921E04C2F60E08BE0AF
:101AC0000E94FE0921E04C2F60E08AE00E94FE099E
:101AD00021E04C2F60E089E00E94FE0921E04C2FBC
:101AE00060E088E00E94FE0921E04C2F60E08CE07D
:101AF0000E94FE0921E04C2F6CEE8DE0CF910C94FA
:101B0000FE09CF93C82F21E0482F60E087E00E94B4
:101B1000FE0921E04C2F60E08BE00E94FE0921E0ED
:101B20004C2F60E08AE00E94FE0921E04C2F60E02B
:101B300089E00E94FE0921E04C2F60E088E00E94CD
:101B4000FE0921E04C2F60E08CE00E94FE0921E0BC
:101B50004C2F6CEE8DE0CF910C94FE09CF93C82FE3
:101B600021E0482F60E080E00E94FE0921E04C2F38
:101B700060E084E00E94FE0921E04C2F60E083E0F9
:101B80000E94FE0921E04C2F60E082E00E94FE09E5
:101B900021E04C2F60E081E00E94FE0921E04C2F03
:101BA00060E085E00E94FE0921E04C2F6EE186E0B6
:101BB000CF910C94FE09CF93C82F21E0482F6EE1FE
:101BC00086E00E94FE0921E04C2F60E085E00E9443
:101BD000FE0921E04C2F66EF80E00E94FE0921E023
:101BE0004C2F62EB82E00E94FE0921E04C2F6FE651
:101BF00084E00E94FE0921E04C2F65E383E00E940F
:101C0000FE0921E04C2F61E981E00E94FE0921E0FC
:101C10004C2F67EE8DE00E94FE0921E04C2F60E022
:101C20008CE00E94FE0921E04C2F60E087E00E94DA
:101C3000FE0921E04C2F6AEB89E00E94FE0921E0B9
:101C40004C2F6BE78BE00E94FE0921E04C2F65E3EF
:101C50008AE00E94FE0921E04C2F64E688E0CF91E3
:101C60000C94FE09CF93C82F21E0482F67EE8DE03A
:101C70000E94FE0921E04C2F60E08CE00E94FE09EA
:101C800021E04C2F60E087E00E94FE0921E04C2F0C
:101C90006AEB89E00E94FE0921E04C2F6BE78BE0A4
:101CA0000E94FE0921E04C2F65E38AE00E94FE09B4
:101CB00021E04C2F64E688E0CF910C94FE09CF938D
:101CC000C82F21E0482F6EE186E00E94FE0921E046
:101CD0004C2F60E085E00E94FE0921E04C2F66EF6A
:101CE00080E00E94FE0921E04C2F62EB82E00E941E
:101CF000FE0921E04C2F6FE684E00E94FE0921E0FE
:101D00004C2F65E383E00E94FE0921E04C2F61E93E
:101D100081E0CF910C94FE09CF93C82F21E0482F8A
:101D200066EF80E00E94FE0921E04C2F62EB82E02A
:101D30000E94FE0921E04C2F6FE684E00E94FE091C
:101D400021E04C2F65E383E00E94FE0921E04C2F47
:101D500066EA81E00E94FE0921E04C2F60E085E008
:101D60000E94FE0921E04C2F6EE186E00E94FE09F0
:101D700021E04C2F60E087E00E94FE0921E04C2F1B
:101D80006AEB89E00E94FE0921E04C2F6DE78BE0B1
:101D90000E94FE0921E04C2F65E38AE00E94FE09C3
:101DA00021E04C2F60E588E00E94FE0921E04C2FE5
:101DB00060E08CE00E94FE0921E04C2F6CEE8DE08B
:101DC000CF910C94FE09CF93C82F21E0482F60E0FB
:101DD00087E00E94FE0921E04C2F6AEB89E00E9417
:101DE000FE0921E04C2F6DE78BE00E94FE0921E007
:101DF0004C2F65E38AE00E94FE0921E04C2F60E54C
:101E000088E00E94FE0921E04C2F60E08CE00E94F7
:101E1000FE0921E04C2F6CEE8DE0CF910C94FE0971
:101E2000CF93C82F21E0482F66EF80E00E94FE0983
:101E300021E04C2F62EB82E00E94FE0921E04C2F52
:101E40006FE684E00E94FE0921E04C2F65E383E009
:101E50000E94FE0921E04C2F66EA81E00E94FE0903
:101E600021E04C2F60E085E00E94FE0921E04C2F2C
:101E70006EE186E0CF910C94FE09CF93C82F80913C
:101E80000F01982F990F6FEF890F0E9423268091E1
:101E90000F01982F990F6FEF890F0E9423268091D1
:101EA0000F01982F990F6FEF890F0E94232621E0D1
:101EB0004C2F6CE388E00E94FE0921E04C2F60E08B
:101EC0008AE00E94FE0921E04C2F60E089E00E9438
:101ED000FE0921E04C2F66EA8BE00E94FE0921E01A
:101EE0004C2F6AE58AE00E94FE0921E04C2F66E74C
:101EF00088E00E94FE0921E04C2F6EE689E00E94F6
:101F0000FE0921E04C2F65EB8BE00E94FE0921E0E9
:101F10004C2F60E08CE00E94FE0921E04C2F60EB2A
:101F20008DE00E94FE0980910F01982F990F890F73
:101F30006FEF81950E94232680910F01982F990FB2
:101F4000890F6FEF81950E94232680910F01982FB2
:101F5000990F890F6FEF8195CF910C942326CF9322
:101F6000C82F80910F01982F990F6FEF890F0E9452
:101F7000232680910F01982F990F6FEF890F0E94F0
:101F8000232680910F01982F990F6FEF890F0E94E0
:101F9000232621E04C2F6AE08DE00E94FE0921E01B
:101FA0004C2F60E08CE00E94FE0921E04C2F60E0A5
:101FB00087E00E94FE0921E04C2F60E08AE00E9449
:101FC000FE0921E04C2F60E08BE00E94FE0921E039
:101FD0004C2F6AE588E00E94FE0921E04C2F6CEE50
:101FE00089E00E94FE0921E04C2F6AE58BE00E9407
:101FF000FE0921E04C2F66E48AE00E94FE0921E000
:102000004C2F67EC89E00E94FE0921E04C2F6DE225
:102010008AE00E94FE0921E04C2F6EE688E00E94D3
:10202000FE0921E04C2F6DE78BE00E94FE0921E0C4
:102030004C2F66E38AE00E94FE0980910F01982FE1
:10204000990F890F6FEF81950E94232680910F01D0
:10205000982F990F890F6FEF81950E942326809109
:102060000F01982F990F890F6FEF8195CF910C94E5
:102070002326CF93C82F80910F01982F990F890F96
:102080006FEF81950E94232680910F01982F990F61
:10209000890F6FEF81950E94232680910F01982F61
:1020A000990F890F6FEF81950E9423260E94472682
:1020B00021E04C2F6AEB81E00E94FE0921E04C2FC9
:1020C00060E083E00E94FE0921E04C2F60E082E0A6
:1020D0000E94FE0921E04C2F66EA84E00E94FE097E
:1020E00021E04C2F66EF83E00E94FE0921E04C2F97
:1020F00068E881E00E94FE0921E04C2F64E682E05E
:102100000E94FE0921E04C2F6AE583E00E94FE094F
:1021100021E04C2F6AEB86E00E94FE0921E04C2F63
:1021200060E085E00E94FE0980910F01982F990FD1
:102130006FEF890F0E94232680910F01982F990F2E
:102140006FEF890F0E94232680910F01982F990F1E
:102150006FEF890F0E942326CF910C944726CF93CF
:10216000C82F80910F01982F990F890F6FEF8195DC
:102170000E94232680910F01982F990F890F6FEFEE
:1021800081950E94232680910F01982F990F890F26
:102190006FEF81950E9423260E94472621E04C2F55
:1021A00062E386E00E94FE0921E04C2F60E085E0BA
:1021B0000E94FE0921E04C2F66EF80E00E94FE099C
:1021C00021E04C2F60E083E00E94FE0921E04C2FCB
:1021D00060E084E00E94FE0921E04C2F66EA81E085
:1021E0000E94FE0921E04C2F6CEE82E00E94FE0965
:1021F00021E04C2F6AE584E00E94FE0921E04C2F8B
:1022000066E483E00E94FE0921E04C2F62EC82E04C
:102210000E94FE0921E04C2F6DE283E00E94FE093E
:1022200021E04C2F66E881E00E94FE0921E04C2F5E
:1022300064E784E00E94FE0921E04C2F6DE283E018
:102240000E94FE0980910F01982F990F6FEF890F5F
:102250000E94232680910F01982F990F6FEF890F0D
:102260000E94232680910F01982F990F6FEF890FFD
:102270000E942326CF910C944726CF93C82F21E0AC
:10228000482F66EF80E00E94FE0921E04C2F65E5B3
:1022900084E00E94FE0921E04C2F60E082E00E9471
:1022A000FE0921E04C2F65E383E00E94FE0921E056
:1022B0004C2F66EA81E00E94FE0921E04C2F6CE978
:1022C00085E00E94FE0921E04C2F6EEC86E00E9422
:1022D000FE0921E04C2F60E087E00E94FE0921E02A
:1022E0004C2F6AE58BE00E94FE0921E04C2F60E054
:1022F00089E00E94FE0921E04C2F6CE38AE00E94F5
:10230000FE0921E04C2F6AE488E00E94FE0921E0EA
:102310004C2F6CE38CE00E94FE0921E04C2F60EB17
:102320008DE0CF910C94FE09CF93C82F21E0482F68
:1023300066EF80E00E94FE0921E04C2F65E584E015
:102340000E94FE0921E04C2F60E082E00E94FE091D
:1023500021E04C2F65E383E00E94FE0921E04C2F31
:1023600066EA81E00E94FE0921E04C2F60E085E0F2
:102370000E94FE0921E04C2F68E286E00E94FE09DF
:1023800021E04C2F60E087E00E94FE0921E04C2F05
:102390006AE58BE00E94FE0921E04C2F60E089E0B5
:1023A0000E94FE0921E04C2F6CE38AE00E94FE09A6
:1023B00021E04C2F6AE488E00E94FE0921E04C2FC6
:1023C00060E08CE00E94FE0921E04C2F68EF8DE078
:1023D000CF910C94FE09CF93C82F21E0482F66EFD0
:1023E00080E00E94FE0921E04C2F69E684E00E9413
:1023F000FE0921E04C2F63ED82E00E94FE0921E0FE
:102400004C2F60E087E00E94FE0921E04C2F63E73B
:102410008BE00E94FE0921E04C2F6CED89E0CF910A
:102420000C94FE0921E0482F67E38EE00C94FE092E
:10243000CF93C82F6AEE7FEF80E090E00E94950571
:10244000873344F464E0680F21E04C2F8EE0CF9195
:102450000C94FE09CF910895CF93C82F6AEE7FEFB9
:1024600080E090E00E949505823F44F06CEF680F99
:1024700021E04C2F8EE0CF910C94FE09CF9108956E
:1024800021E0482F61EF8EE00C94FE0921E0482FF7
:102490006AE08EE00C94FE09CF93C82F21E0482F0C
:1024A00066EF80E00E94FE0921E04C2F69E684E09F
:1024B0000E94FE0921E04C2F60E082E00E94FE09AC
:1024C00021E04C2F66EA81E00E94FE0921E04C2FBA
:1024D00068EF83E00E94FE0921E04C2F60E084E079
:1024E0000E94FE0921E04C2F6DE280E00E94FE096F
:1024F00021E04C2F66EF80E00E94FE0921E04C2F86
:102500006DE280E00E94FE0921E04C2F66EF80E042
:102510000E94FE098C2F0E9412128C2F0E944012E2
:102520008C2F0E94461221E04C2F60E087E00E9431
:10253000FE0921E04C2F63E78BE00E94FE0921E0B9
:102540004C2F60E089E00E94FE0921E04C2F6CE4F2
:1025500088E00E94FE0921E04C2F60E08AE00E94A2
:10256000FE0921E04C2F60E08BE0CF910C94FE0936
:10257000FF920F931F93CF93DF93D82F64EE7FEFDB
:1025800080E090E00E949505F82E65EE7FEF80E0F8
:1025900090E00E949505082F66EE7FEF80E090E0C6
:1025A0000E949505182F67EE7FEF80E090E00E9473
:1025B0009505C82F84E28F153CF46CEF6F0D21E078
:1025C0004D2F88E00E94FE0908323CF464E0600F61
:1025D00021E04D2F89E00E94FE091B303CF06DEF99
:1025E000610F21E04D2F8AE00E94FE091C1664F461
:1025F0006DEF6C0F21E04D2F8BE0DF91CF911F919C
:102600000F91FF900C94FE09DF91CF911F910F91D4
:10261000FF900895FF920F931F93CF93DF93D82FCE
:102620006DED7FEF80E090E00E949505F82E6EED55
:102630007FEF80E090E00E949505082F6FED7FEF1F
:1026400080E090E00E949505182F60EE7FEF80E01B
:1026500090E00E949505C82F8CEDF8163CF464E0DC
:102660006F0D21E04D2F81E00E94FE0908323CF4FD
:1026700064E0600F21E04D2F82E00E94FE091B30D4
:102680003CF06DEF610F21E04D2F83E00E94FE09C9
:102690001C1664F46DEF6C0F21E04D2F84E0DF9188
:1026A000CF911F910F91FF900C94FE09DF91CF9174
:1026B0001F910F91FF900895FF920F931F93CF9357
:1026C000DF93D82F64EE7FEF80E090E00E949505C5
:1026D000F82E65EE7FEF80E090E00E949505082FD0
:1026E00066EE7FEF80E090E00E949505182F67EE80
:1026F0007FEF80E090E00E949505C82F83E68F155C
:102700003CF064E06F0D21E04D2F88E00E94FE094F
:1027100008323CF464E0600F21E04D2F89E00E9414
:10272000FE091B303CF06DEF610F21E04D2F8AE078
:102730000E94FE091C1664F46DEF6C0F21E04D2F12
:102740008BE0DF91CF911F910F91FF900C94FE09C8
:10275000DF91CF911F910F91FF900895FF920F93FA
:102760001F93CF93DF93D82F6DED7FEF80E090E044
:102770000E949505F82E6EED7FEF80E090E00E94BC
:102780009505082F6FED7FEF80E090E00E949505A2
:10279000182F60EE7FEF80E090E00E949505C82F33
:1027A0008DE9F8163CF06CEF6F0D21E04D2F81E0C4
:1027B0000E94FE0908323CF464E0600F21E04D2FD6
:1027C00082E00E94FE091B303CF06DEF610F21E0BA
:1027D0004D2F83E00E94FE091C1664F46DEF6C0F10
:1027E00021E04D2F84E0DF91CF911F910F91FF9059
:1027F0000C94FE09DF91CF911F910F91FF900895E6
:10280000CF93C82F6CED7FEF80E090E00E9495059C
:102810008D3744F465E0680F21E04C2F80E0CF91C4
:102820000C94FE09CF910895CF93C82F6CED7FEFE4
:1028300080E090E00E949505873F44F06BEF680FC1
:1028400021E04C2F80E0CF910C94FE09CF910895A8
:10285000CF93C82F63EE7FEF80E090E00E94950554
:102860008A3044F465E0680F21E04C2F87E0CF9177
:102870000C94FE09CF910895CF93C82F63EE7FEF9C
:1028800080E090E00E949505843844F06BEF680F7B
:1028900021E04C2F87E0CF910C94FE09CF91089551
:1028A000CF93C82F62EE7FEF80E090E00E94950505
:1028B0008C3344F465E0680F21E04C2F86E0CF9123
:1028C0000C94FE09CF910895CF93C82F62EE7FEF4D
:1028D00080E090E00E949505803C44F06BEF680F2B
:1028E00021E04C2F86E0CF910C94FE09CF91089502
:1028F000CF93C82F69EE7FEF80E090E00E949505AE
:102900008A3044F465E0680F21E04C2F8DE0CF91D0
:102910000C94FE09CF910895CF93C82F69EE7FEFF5
:1029200080E090E00E949505893844F06BEF680FD5
:1029300021E04C2F8DE0CF910C94FE09CF910895AA
:10294000CF93C82F61EE7FEF80E090E00E94950565
:102950008D3744F465E0680F21E04C2F85E0CF917E
:102960000C94FE09CF910895CF93C82F61EE7FEFAD
:1029700080E090E00E949505843844F06BEF680F8A
:1029800021E04C2F85E0CF910C94FE09CF91089562
:10299000CF93C82F68EE7FEF80E090E00E9495050E
:1029A0008D3744F465E0680F21E04C2F8CE0CF9127
:1029B0000C94FE09CF910895CF93C82F68EE7FEF56
:1029C00080E090E00E949505843844F06BEF680F3A
:1029D00021E04C2F8CE0CF910C94FE09CF9108950B
:1029E000CF93C82F21E0482F60E087E00E94FE09C6
:1029F00021E04C2F6AE58BE00E94FE0921E04C2F7C
:102A000060E089E00E94FE0921E04C2F60E08AE04E
:102A10000E94FE0921E04C2F64E688E00E94FE0936
:102A200021E04C2F68E789E00E94FE0921E04C2F4D
:102A30006CE38CE00E94FE0921E04C2F60EB8DE0FE
:102A4000CF910C94FE09CF92DF92EF920F931F93D8
:102A5000CF93DF936C01162FD42FC22F8FEF94E00A
:102A60000E945A26C6010E9486268AE30E944C26AE
:102A700080E20E944C2686E095E00E945A26812F33
:102A80000E946D268AE30E944C2680E20E944C261A
:102A90008EE095E00E945A268D2F0E946D268AE3D3
:102AA0000E944C2680E20E944C2684E195E00E9420
:102AB0005A268C2F0E946D268AE30E944C2680E2C3
:102AC0000E944C268BE195E00E945A26802F0E949E
:102AD0006D268AE30E944C2680E20E944C2681E209
:102AE00095E00E945A268E2D0E946D268DE00E9450
:102AF0004C268AE0DF91CF911F910F91EF90DF90EC
:102B0000CF900C944C264F925F926F927F928F924F
:102B10009F92AF92BF92CF92DF92EF92FF92CF93AC
:102B2000DF9300D000D0CDB7DEB720E030E048EC36
:102B300052E40E94572C0E94142D20E030E048EC13
:102B400052E40E94A72A6B017C0120E030E040E2C1
:102B500051E40E94A72A4B015C0120E030E040E4F0
:102B600052E40E94362A0E94192B862F0E944C267E
:102B7000C501B4010E94852B2B013C0120E030E00F
:102B800040E452E4C701B6010E94362A4B015C01C1
:102B900020E030E040E251E4C301B2010E94572C32
:102BA0009B01AC01C501B4010E94352A0E94192B7A
:102BB000862F0E944C268EE20E944C2620E030E0B8
:102BC00040E251E4C701B6010E94572C4B015C0161
:102BD000C701B6010E94852B2B013C0120E030E0AB
:102BE00040E452E4C501B4010E94362A69837A8325
:102BF0008B839C8320E030E040E251E4C301B201CA
:102C00000E94572C9B01AC0169817A818B819C8148
:102C10000E94352A0E94192B862F0E944C26C5013E
:102C2000B4010E94852B4B015C0120E030E048ECB0
:102C300052E4C701B6010E94572C20E030E040E486
:102C400052E40E94362A6B017C0120E030E040E231
:102C500051E4C501B4010E94572C9B01AC01C7018E
:102C6000B6010E94352A0E94192B862F0E944C26FD
:102C700088E29AE10F900F900F900F90DF91CF9123
:102C8000FF90EF90DF90CF90BF90AF909F908F908C
:102C90007F906F905F904F900C945A260F931F93E4
:102CA000CF93DF938C01EB0187E295E00E945A26D7
:102CB0008BE395E00E945A26C8010E94862680E296
:102CC0000E944C268AE30E944C2680E20E944C26F9
:102CD00084E495E00E945A26CE010E94862687E56C
:102CE00097E1DF91CF911F910F910C945A26FC012F
:102CF00040E050E0A6E0B8E04617570788F420E02F
:102D000030E02E173F0731F08A2F8A95F1F72F5FB9
:102D10003F4FF7CF95B19B2795B94E0F5F1FECCF73
:102D20000895609100017091010183E194E00E9497
:102D30007716609100017091010181EA93E00E9491
:102D40007716609100017091010189E492E00E9480
:102D500077160E94B5070E94C0078CE495E00E9498
:102D60001C088BE595E00E941C0889E695E00E940E
:102D70005A268DE995E00E945A2689E695E00E9440
:102D80005A2682ED95E00E945A2689E695E00E9437
:102D90005A2686E096E00E945A268BE296E00E9430
:102DA0005A2681E696E00E945A268FE896E00E9415
:102DB0005A2685EC96E00E945A2680E097E00E9411
:102DC0005A268DE297E00E945A2680E597E00E94FD
:102DD0005A2681E897E00E945A2689E695E00E94EB
:102DE0005A2682EA97E00E945A2689E695E00E94D8
:102DF0005A2686ED97E00E945A2688EF97E00E94B7
:102E00005A2682E298E00E945A2680E498E00E94C6
:102E10005A268FE598E00E945A2689E695E00E949E
:102E20005A268FE798E00E945A2689E695E00E948C
:102E30005A2683EB98E00E945A2681ED98E00E9482
:102E40005A2680EF98E00E945A268CE099E00E9472
:102E50005A268EE299E00E945A268CE499E00E945C
:102E60005A2682E799E00E945A2687E999E00E9453
:102E70005A2689E695E00E945A2681ED99E00E9443
:102E80005A2689E695E00E945A2685E09AE00E943B
:102E90005A2680E49AE00E945A2681EB9AE00E942A
:102EA0005A2682E29BE00E945A2680E69BE00E941E
:102EB0005A2683E89BE00E945A268CEA9BE00E94F7
:102EC0005A2685ED9BE00E945A2688E09CE00E94ED
:102ED0005A268BE39CE00E945A268AE69CE00E94D8
:102EE0005A2688E99CE00E945A268CEC9CE00E94BD
:102EF0005A2681E09DE00E945A2686E39DE00E94CA
:102F00005A268CE69DE00E945A268BE99DE00E949D
:102F10005A268AEC9DE00E945A2689EF9DE00E9485
:102F20005A2685E29EE00E945A2682E59EE00E9493
:102F30005A268FE79EE00E945A268DEA9EE00E9464
:102F40005A268EEE9EE00E945A268FE29FE00E9453
:102F50005A2680E79FE00E945A2689E695E00E9463
:102F60005A2681EB9FE00E945A2689E695E00E944E
:102F70005A2685EE9FE00E945A268AE190E10E943F
:102F80005A268FE490E10E945A2684E890E10E943C
:102F90005A2689EB90E10E945A2680EF90E10E9428
:102FA0005A2687E291E10E945A268EE591E10E941D
:102FB0005A2689E695E00C945A26809106018F5F87
:102FC00080930601809106018D3058F01092060121
:102FD00080910701909108010196909308018093D8
:102FE00007010895809105018F5F8093050180910D
:102FF0000501803220F0109205010C94DD17089530
:10300000809104018F5F80930401809104018831D5
:1030100020F0109204010E94F2176091000170915B
:10302000010180ED91E00E94771688EE93E024EF95
:1030300031E0F9013197F1F70197D9F7609100017B
:10304000709101018DE093E00E94771688EE93E085
:1030500024EF31E0F9013197F1F70197D9F7609149
:103060000001709101018DE093E00E94771688EED7
:1030700093E024EF31E0F9013197F1F70197D9F7A7
:10308000609100017091010180ED91E00E9477163E
:1030900088EE93E024EF31E0F9013197F1F70197E1
:1030A000D9F7609100017091010180ED91E00C94DD
:1030B0007716CF92DF92EF92FF92809103018F5F9C
:1030C00080930301809103018C3320F0109203015F
:1030D0000E9400180E94B5076091000170910101E3
:1030E00089E492E00E94771688EE93E024EF31E0C5
:1030F000F9013197F1F70197D9F7609100017091CB
:10310000010188ED93E00E94771688EE93E024EFAA
:1031100031E0F9013197F1F70197D9F7609100019A
:103120007091010188ED93E00E9477160E9451058D
:10313000BC0180E090E00E94482B22E630E140E4B0
:1031400050E40E94572C26EB33EF41EA50E40E94F2
:10315000572C20E030E040E859E30E94572C609360
:103160008F1E7093901E8093911E9093921E85E9FE
:1031700091E10E945A2660918F1E7091901E80915D
:10318000911E9091921E0E9483158091921E8F93A2
:103190008091911E8F938091901E8F9380918F1EAE
:1031A0008F9383EB91E19F938F9389EC9EE19F93A3
:1031B0008F930E94FA2F0E94B5070E94C00789EBE7
:1031C00091E10E941C0889EC9EE10E941C0882EC9F
:1031D00091E10E941C080E9439060E9477068093A4
:1031E0007F1E2DB73EB7285F3F4F0FB6F8943EBF06
:1031F0000FBE2DBF80FD11C081E792E00E945A26CC
:103200000E94D90690937E1E80937D1E0E94862682
:1032100088E29AE10E945A2608C086EC91E10E9459
:103220005A260E94770680937F1E80917E1E8F9380
:1032300080917D1E8F938AED91E19F938F9383EF11
:103240009EE19F938F930E94FA2F8DED91E10E9452
:103250001C0883EF9EE10E941C0885EE91E10E940C
:103260001C08C0908F1ED090901EE090911EF09090
:10327000921E0F900F900F900F900F900F9020E0E4
:1032800030E040E751E4C701B6010E94522C87FDAF
:1032900003C080EF9FEF36C020E030E040E651E40D
:1032A000C701B6010E94522C87FD03C080EE9FEF3C
:1032B00029C020E030E040E551E4C701B6010E949A
:1032C000522C87FD03C083EC9FEF1CC020E030E050
:1032D00040E251E4C701B6010E94522C87FD03C0B1
:1032E00087EC9FE30FC020E030E040E251E4C701EB
:1032F000B6010E94A22A87FF03C08FE99FEB02C09C
:103300008FE79FE3FF90EF90DF90CF900C94F02534
:10331000809102018F5F80930201809102018C33C2
:1033200020F0109202010E945918609100017091E2
:1033300001018DE693E00E94771684EF91E024EF7F
:1033400031E0F9013197F1F70197D9F76091000168
:10335000709101018DE093E00C94771686B182FBA9
:10336000882780F98093C21E86B183FB882780F965
:103370008093A11E8091C21E811113C08091A11E55
:10338000882331F08091C51E9091C61E019605C01C
:103390008091C51E9091C61E01979093C61E809382
:1033A000C51E089586B1829581708093A01E86B156
:1033B00085FB882780F98093961E8091A01E81113D
:1033C00013C08091961E811106C08091A91E909114
:1033D000AA1E019605C08091A91E9091AA1E019770
:1033E0009093AA1E8093A91E08950E94B5070E947B
:1033F000C00788EE91E10E941C0860910001709165
:10340000010186EB91E00E94771684EF91E024EFB2
:1034100031E0F9013197F1F70197D9F76091000197
:103420007091010186EB91E00E94771684EF91E0A4
:1034300024EF31E0F9013197F1F70197D9F7609165
:1034400000017091010186EB91E00E94771680E106
:1034500097E224EF31E0F9013197F1F70197D9F7BD
:1034600084EF91E10E945A2686E192E10E945A2659
:103470008AE392E10E945A26609100017091010155
:1034800086EB91E00E94771684E592E10E945A262D
:103490000E94B5070E94C00784E692E10E941C08C2
:1034A0000E949527809306016091000170910101AF
:1034B00086EB91E00E9477168CE692E10E945A26F4
:1034C0000E94B5070E94C0078AE792E10E941C088B
:1034D0000E94952780930501609100017091010180
:1034E00086EB91E00E94771680E892E10E945A26CE
:1034F0000E94B5070E94C0078FE892E10E941C0855
:103500000E94952780930401609100017091010150
:1035100086EB91E00E94771686E992E10E945A2696
:103520000E94B5070E94C00788EA92E10E941C0829
:103530000E94952780930301609100017091010121
:1035400086EB91E00E94771682EB92E10E945A2668
:103550000E94B5070E94C00784EC92E10E941C08FB
:10356000609100017091010186EB91E00E94771655
:103570000E949527809302016091000170910101E2
:1035800086EB91E00E9477161092831E1092821EA5
:1035900088E29AE10E945A268EEC92E10E945A2615
:1035A00081E093E10E945A260E94B5070E94C0075D
:1035B0008BE193E10E941C0888E99AE324EF31E053
:1035C000F9013197F1F70197D9F70C94B5070E94EB
:1035D000B5070E94C00783E293E10E941C0884E3C0
:1035E00093E10E941C08609100017091010183E148
:1035F00094E00E947716609100017091010181EAC8
:1036000093E00E947716609100017091010189E4B6
:1036100092E00E94771684EF91E10E945A2686E19B
:1036200092E10E945A268CE393E10E945A2686E793
:1036300093E10E945A2680E197E224EF31E0F901FC
:103640003197F1F70197D9F70E94B5070E94C0079B
:1036500086E993E10E941C080E94952780930E0141
:10366000609100017091010186EB91E00E94771654
:1036700081EA93E10E945A260E94B5070E94C00782
:103680008DEC93E10E941C080E94952780930F0106
:10369000609100017091010186EB91E00E94771624
:1036A00089ED93E10E945A2680E197E224EF31E010
:1036B000F9013197F1F70197D9F70E94B5070E94F8
:1036C000C0078AEF93E10E941C080E94952780930F
:1036D0000B01609100017091010186EB91E00E9465
:1036E000771687E094E10E945A2680E197E224EF62
:1036F00031E0F9013197F1F70197D9F70E94B50749
:103700000E94C0078DE294E10E941C080E94952748
:1037100080930D01609100017091010186EB91E0B1
:103720000E9477168CE394E10E945A2680E197E28A
:1037300024EF31E0F9013197F1F70197D9F70E94B1
:10374000B5070E94C00787E694E10E941C088DEC33
:1037500093E10E941C080E94952780930C016091C0
:1037600000017091010186EB91E00E94771688E7D5
:1037700094E10E945A2680E197E224EF31E0F901BA
:103780003197F1F70197D9F70E94B5070E94C0075A
:1037900089E994E10E941C080E94952780930A0100
:1037A000609100017091010186EB91E00E94771613
:1037B00086EA94E10E945A2680E197E224EF31E004
:1037C000F9013197F1F70197D9F70E94B5070E94E7
:1037D000C00785ED94E10E941C0886EE94E10E94EA
:1037E0001C080E9495278093090160910001709147
:1037F000010186EB91E00E94771687EF94E10E9429
:103800005A2685E395E10E945A260E94B5070E9438
:10381000C00780E595E10E941C088BE193E10E94BE
:103820001C0888E99AE324EF31E0F9013197F1F7B8
:103830000197D9F70C94B5070E94B5070E94C007FD
:1038400081E695E10E941C0882E795E10E941C0830
:10385000609100017091010183E194E00E9477166C
:10386000609100017091010181EA93E00E94771656
:10387000609100017091010189E492E00E94771645
:1038800084EF91E10E945A2686E192E10E945A2635
:103890008EE795E10E945A26609100017091010126
:1038A00086EB91E00E94771683EA95E10E945A2602
:1038B000609100017091010186EB91E00E94771602
:1038C00082EC95E10E945A260E9453268093A41E02
:1038D000609100017091010186EB91E00E947716E2
:1038E0008091A41E893709F0A8C08FED95E10E9450
:1038F0005A2685E096E10E945A2660910001709157
:10390000010186EB91E00E9477160E9411287093C6
:10391000811E6093801E87E396E10E945A26809163
:10392000801E9091811E0E94862688E29AE10E9464
:103930005A260E94B5070E94C00787E496E10E94BC
:103940001C081092041F1092051F1092061F10925F
:10395000071F1092001F1092011F1092021F109259
:10396000031F1092A51E1092A61E1092A71E109261
:10397000A81E8091801E9091811EA0E0B0E0409131
:10398000A51E5091A61E6091A71E7091A81E8417B7
:103990009507A607B70708F444C00E94E72840919E
:1039A000001F5091011F6091021F7091031F8091B1
:1039B000041F9091051FA091061FB091071F840F4F
:1039C000951FA61FB71F8093001F9093011FA09300
:1039D000021FB093031F89E596E10E945A26609169
:1039E000001F7091011F8091021F9091031F0E9480
:1039F000C12688E29AE10E945A268091A51E9091E4
:103A0000A61EA091A71EB091A81E0196A11DB11DD2
:103A10008093A51E9093A61EA093A71EB093A81EE8
:103A2000A8CF86E696E10E945A260E94B5070E941A
:103A3000C00787E896E10C941C0860910001709122
:103A4000010186EB91E00E94771687E996E10C94DC
:103A50005A26609100017091010183E194E00E9477
:103A60007716609100017091010181EA93E00E9454
:103A70007716609100017091010189E492E00E9443
:103A800077160E94B5070E94C0078CEB96E10E9452
:103A90001C088BEC96E10E945A268BEE96E10E9460
:103AA0005A268DE097E10E945A268FE297E10E9404
:103AB0005A261092AC1E1092AB1E8091AB1E9091B4
:103AC000AC1EC39740F586E597E10E945A26809187
:103AD000AB1E0E946D2685E597E10E945A266091F3
:103AE000AB1E7091AC1E80E090E00E9495050E9494
:103AF0006D2685E597E10E945A2688E29AE10E94A8
:103B00005A268091AB1E9091AC1E01969093AC1EEC
:103B10008093AB1ED2CF89E597E10E945A2681E8B7
:103B200097E10E945A260E945326853601F1873775
:103B300039F582E198E10E945A260E9495278093E8
:103B4000951E80E598E10E945A260E949527482FED
:103B500090E09093AC1E8093AB1E6091951E70E038
:103B600080E090E00E94AD0588E29AE10BC08FEA08
:103B700097E10E945A260E94140685EF97E102C041
:103B80008DE898E10C945A26EF92FF920F931F93C1
:103B9000CF93DF9362E070E080E090E00E94CC057C
:103BA0009093C81E8093C71E0E94C0070E94B5074D
:103BB00084EA98E10E941C081F9285E08F938EEBA7
:103BC00092E09F938F930E94480885EB98E10E94B2
:103BD0005A2685E00E946D268BEC98E10E945A26B9
:103BE0000F900F900F900F9080E090E0DC0144EF79
:103BF00051E085309105A105B10561F020E137E282
:103C0000FA013197F1F721503109D1F70196A11D41
:103C1000B11DEFCF8093A51E9093A61EA093A71E63
:103C2000B093A81E8091C00087FF10C08091C6008D
:103C30008D3661F481E08093C41EC0E0D0E00CE3D7
:103C400010E094EFE92EFF24F39406C01092C41EF6
:103C5000C0E0D0E00AC12C9A8091C41E882309F4E8
:103C600004C18AEE98E10E945A260E94B5070E947C
:103C7000C0078EE199E10E941C0860E070E0CB0172
:103C80000E94CC05A0E0B0E080939B1E90939C1E08
:103C9000A0939D1EB0939E1E8CE892E00E945A262F
:103CA00080919B1E90919C1E04970E94862683E320
:103CB00099E10E945A268CE892E00E945A2680914F
:103CC000C71E9091C81E0E94862689E499E10E9431
:103CD0005A2688E699E10E945A268CE899E10E94CA
:103CE0005A2681EB99E10E945A2686ED99E10E94BD
:103CF0005A268AEF99E10E945A2681E19AE10E94B0
:103D00005A260E9453268F3309F46AC038F48C3344
:103D100009F44BC08E3309F453C0A2C0853609F4B0
:103D200066C0833709F47BC0843609F099C02C98AB
:103D300083E00E947D0564E070E080E090E00E94F6
:103D4000820584E090E0A0E0B0E08093A51E90930F
:103D5000A61EA093A71EB093A81E4091A51E509129
:103D6000A61E6091A71E7091A81E80919B1E909127
:103D70009C1EA0919D1EB0919E1E481759076A0770
:103D80007B0708F068CF80E00E947D058EB50E9419
:103D900060098091A51E9091A61EA091A71EB091CA
:103DA000A81E0196A11DB11DD0CF4091C71E5091F4
:103DB000C81E4A30510508F44FCF455051090BC079
:103DC0004091C71E5091C81E483E8DEF580708F01D
:103DD00043CF4B5F5F4F5093C81E4093C71E18C020
:103DE0001093C81E0093C71E4CE350E011C08BE235
:103DF0009AE10E945A260E94140644E050E060E0D6
:103E000070E0CB010E94F3054091C71E5091C81E7F
:103E100062E070E080E090E00E94F3051DCF8BE54A
:103E20009AE10E945A260E94B927EC0188E29AE1A1
:103E30000E945A2688E79AE10E945A260E94B507F6
:103E40000E94C0078FE89AE10E941C0880E29EE46D
:103E5000F7013197F1F70197D9F71092C41EFCCE04
:103E60008EE99AE10E945A26F7CE0E94B5070E9479
:103E7000C00700E010E084EFE82EFF24F39460E038
:103E800070E0CB010E94CC05A0E0B0E080939B1EC7
:103E900090939C1EA0939D1EB0939E1E0E94490766
:103EA00080E90E94620780E00E9462070E94490741
:103EB00081E90E9462070E9452078093C31E0E94FC
:103EC0005A0780939F1E0E944E070E94490780E96F
:103ED0000E94620780E00E9462070E94490781E910
:103EE0000E9462070E9452078093C31E0E945A07D5
:103EF00080939F1E0E944E078091C31E982F990F9A
:103F000080919F1E881F8827881F892B8093C11E40
:103F10000E94600960919B1E70919C1E80919D1E65
:103F200090919E1E4091C11E0E94AD0540919B1E26
:103F300050919C1E60919D1E70919E1E4F3F8FEF71
:103F4000580761057105E0F00F5F1F4FC017D107DB
:103F500008F095CF8FEB9AE10E945A260E94B50790
:103F60000E94C00789ED9AE10E941C088AEE9AE13E
:103F7000DF91CF911F910F91FF90EF900C941C084F
:103F80004F5F5F4F6F4F7F4F40939B1E50939C1E20
:103F900060939D1E70939E1E60E070E0CB010E94B6
:103FA000F3054091C71E5091C81E60E070E080E0AC
:103FB00090E0DC0184179507A607B70760F420E1BD
:103FC00037E2F7013197F1F721503109D1F7019626
:103FD000A11DB11DEFCF8093A51E9093A61EA093A7
:103FE000A71EB093A81EB0CF0E94B5070E94C007BD
:103FF00085EF9AE10E941C0884E00E9439059093A5
:10400000941E8093931E85E09BE10E945A26809126
:10401000F11E9091F21E0E94862687E597E10E948C
:104020005A2686E00E9439059093F21E8093F11E75
:1040300086E19BE10E945A268091931E9091941EE6
:104040000E9486268091931E9091941E0E940326C2
:104050009B01AC01CB01DA018093971E9093981ECF
:10406000A093991EB0939A1E5F934F933F932F9303
:1040700083EB91E19F938F938DEA9EE19F938F93C2
:104080000E94FA2F85E39BE10E945A268DEA9EE169
:104090000E945A268DB79EB708960FB6F8949EBF19
:1040A0000FBE8DBF8AEA9DE10C945A26EF920F93C2
:1040B0000E94B5070E94C00787E49BE10E941C088C
:1040C0009BB184E089278BB984E00E9439059093E5
:1040D000941E8093931E85E09BE10E945A26809156
:1040E000F11E9091F21E0E94862687E597E10E94BC
:1040F0005A2686E00E9439059093F21E8093F11EA5
:1041000086E19BE10E945A268091931E9091941E15
:104110000E9486268091931E9091941E0E940326F1
:104120009B01AC01CB01DA018093971E9093981EFE
:10413000A093991EB0939A1E5F934F933F932F9332
:1041400083EB91E19F938F938DEA9EE19F938F93F1
:104150000E94FA2F85E39BE10E945A268DEA9EE198
:104160000E945A268AEA9DE10E945A260E9447260A
:104170006091A91E7091AA1E8091C51E9091C61EC5
:104180000E944E1687E597E10E945A26E0900201B0
:104190000091030120910401409105016091060105
:1041A00080910701909108010E9423158DB79EB759
:1041B00008960FB6F8949EBF0FBE8DBF8AEA9DE1A8
:1041C0000F91EF900C945A268091C00087FF17C181
:1041D000E091C6008E2F90E0FC01B397E735F10522
:1041E00008F0F7C0EA5BFF4F0C940A2A0C94F5190B
:1041F0000C94E71A60910E0187E992E004C0609187
:104200000E018AEA92E00C94A60960910E0185EAFB
:1042100092E0F9CF60910E018FE992E0F4CF60E077
:1042200083EB92E00E94A609E8C06FEF80910F0136
:1042300004C080910F016FEF81950C94232686E2D4
:104240000C94181280910B010C94461286E20C9487
:104250002C128FEF9FEF0E94F02588E59BE1AAC00A
:1042600080E090E00E94F0258DE69BE1A3C00C94D5
:10427000D90C80910D010C942A0D80910D010C94A4
:10428000810D80910D010C94AE0D80910D010C9467
:10429000320E80910D010C945F0E80910D010C94F3
:1042A000E30E80910D010C94100F80910D010C9480
:1042B000DB0D80910D010C948C0E80910D010C94FE
:1042C0003D1180910D010C94941180910D010C947D
:1042D0003D0F80910D010C94AF0F80910D010C9456
:1042E000391080910D010C94AF1080910D010C9448
:1042F000EB1180910D010C944C1280910A010C94E9
:104300008C1480910A010C94781480910A010C9409
:10431000641480910A010C945014809109010C944A
:10432000C814809109010C94DC14809109010C944B
:10433000A014809109010C94B4148EE10C94F01433
:1043400080910C010C94281480910C010C943C1465
:1043500080910C010C94001480910C010C941414A5
:1043600083E20C94B81283E20C945C1383E20C9405
:104370000A1383E20C94AE130C941C1C0C94C41D01
:104380000C94291D0C94F41F0E9439060E94770694
:1043900080937F1E80FD10C081E792E00E945A2624
:1043A0000E94D90690937E1E80937D1E0E948626D1
:1043B00088E29AE10C945A2686EC91E10E945A26F2
:1043C0000E94770680937F1E08950C9456200C94CB
:1043D000911683E89BE10E945A266091000170913A
:1043E000010186EB91E00E947716609100017091C7
:1043F00001018EE991E00E9477160C9447260895FA
:104400001F920F920FB60F9211248F939F9380915A
:10441000821E9091831E01969093831E8093821E2C
:104420009F918F910F900FBE0F901F9018951F9224
:104430000F920FB60F9211240BB60F928F939F938A
:10444000EF93FF93E0918A1E80911001E80FE770CF
:10445000E0938A1EF0E0E35CF14E808185B9E09143
:104460008A1EF0E0E35CF14E808188B98091881E5D
:104470009091891E01969093891E8093881EFF91CA
:10448000EF919F918F910F900BBE0F900FBE0F90E9
:104490001F9018951F920F920FB60F9211240BB612
:1044A0000F922F933F934F935F936F937F938F93CD
:1044B0009F93AF93BF93EF93FF930E94AE190E9417
:1044C000D219FF91EF91BF91AF919F918F917F9101
:1044D0006F915F914F913F912F910F900BBE0F9075
:1044E0000FBE0F901F90189518950E94950988EAA5
:1044F0009BE10E945A260E946E058BEC9BE10E9474
:104500005A260E9438078DEE9BE10E945A260E948F
:10451000C70780E19CE10E945A2684B5826084BD71
:1045200085B5856085BD8FEF87BD82E39CE10E94E4
:104530005A26809180008160809380008091810064
:1045400083608093810080918000806A80938000E6
:1045500080916F00816080936F0088E59CE10E94EC
:104560005A268091B00081608093B0008091B100A4
:1045700084608093B1008091B000806A8093B00025
:104580008EE79CE10E945A26809191008160809381
:10459000910084EA9CE10E945A2680917C0080640C
:1045A00080937C0080917A00866080937A0080916D
:1045B0007A00806880937A008AEC9CE10E945A26F7
:1045C0008091680084608093680080916D008460B1
:1045D00080936D008CEE9CE10E945A260E942F056C
:1045E00080917E00806F80937E0088B18C6388B953
:1045F00081B1836081B981B18C6081B984B18360FC
:1046000084B987B1806C87B9239A529A78948FE0E5
:104610009DE10E945A2684E49DE10E945A2688E783
:104620009DE10E945A2689E695E00E945A268DE96E
:1046300095E00E945A2689E695E00E945A2682ED6E
:1046400095E00E945A2689E695E00E945A2686E067
:1046500096E00E945A268BE296E00E945A2681E656
:1046600096E00E945A268FE896E00E945A2685EC32
:1046700096E00E945A2680E097E00E945A268DE23A
:1046800097E00E945A2680E597E00E945A2681E82A
:1046900097E00E945A2689E695E00E945A2682EA0F
:1046A00097E00E945A2689E695E00E945A2686EDF8
:1046B00097E00E945A2688EF97E00E945A2682E2ED
:1046C00098E00E945A2680E498E00E945A268FE5DE
:1046D00098E00E945A2689E695E00E945A268FE7C4
:1046E00098E00E945A2689E695E00E945A2683EBBC
:1046F00098E00E945A2681ED98E00E945A2680EFA9
:1047000098E00E945A268CE099E00E945A268EE298
:1047100099E00E945A268CE499E00E945A2682E78A
:1047200099E00E945A2687E999E00E945A2689E674
:1047300095E00E945A2681ED99E00E945A2689E66A
:1047400095E00E945A2685E09AE00E945A2680E46D
:104750009AE00E945A2681EB9AE00E945A2682E251
:104760009BE00E945A2680E69BE00E945A2683E83E
:104770009BE00E945A268CEA9BE00E945A2685ED17
:104780009BE00E945A2688E09CE00E945A268BE318
:104790009CE00E945A268AE69CE00E945A2688E9FC
:1047A0009CE00E945A268CEC9CE00E945A2681E0F4
:1047B0009DE00E945A2686E39DE00E945A268CE6E0
:1047C0009DE00E945A268BE99DE00E945A268AECC1
:1047D0009DE00E945A2689EF9DE00E945A2685E2BC
:1047E0009EE00E945A2682E59EE00E945A268FE7AC
:1047F0009EE00E945A268DEA9EE00E945A268EEE86
:104800009EE00E945A268FE29FE00E945A2680E78F
:104810009FE00E945A2689E695E00E945A2681EB85
:104820009FE00E945A2689E695E00E945A2685EE6E
:104830009FE00E945A268AE190E10E945A268FE466
:1048400090E10E945A2684E890E10E945A2689EB62
:1048500090E10E945A2680EF90E10E945A2687E25A
:1048600091E10E945A268EE591E10E945A2689E63E
:1048700095E00E945A268EEA9DE10E945A260E94E7
:1048800049070E94C70789E1E82E8EE1F82ECDE2A4
:10489000DEE1870194EFC92EDD24D3940E94C00786
:1048A00085EC9DE10E941C0886ED9DE10E941C089C
:1048B00080E090E00E94F02560910001709101017C
:1048C000F801819191918F010E94771684EF91E018
:1048D000F6013197F1F70197D9F7C017D107F1F633
:1048E0000E94B50700E513EC0E94C00786EE9DE12B
:1048F0000E941C088FEF9FEF0E94F025609100013D
:1049000070910101888199810E947716C8010197F1
:10491000F1F72297EC16FD0639F70E94B507CCE0B7
:10492000D0E004EF11E00E94C00786EF9DE10E94F5
:104930001C0887E09EE10E941C0880E090E00E9435
:10494000F025609100017091010188ED93E00E94D3
:10495000771688EE93E0F8013197F1F70197D9F7D0
:1049600060910001709101018DE693E00E9477163D
:104970008FEF9FEF0E94F0252197A9F60E94B507BF
:104980000E944E07C0E5D0E008EB18E8BE010D2EEE
:10499000000C880B990B0E944A2BAB01BC0180E0F4
:1049A0000E946D25C8010197F1F72196CE3BD105F4
:1049B00069F762E370E080EA0E94F42421E042E3B8
:1049C0006AE08EE00E94FE098091821E9091831E13
:1049D000843C944031F41092831E1092821E0E94F7
:1049E00088190E94E420F0CFEF92FF921F93CF939B
:1049F000DF931F92CDB7DEB7182F7B017093FF1E98
:104A00006093FE1E8093FD1E0E944907812F0E9425
:104A1000620780E00E94620781E30E9462070E94B1
:104A20004E07B70180E090E00E94482B20E030E084
:104A300040E855E40E94572C2FE135E84BE65FE350
:104A40000E94572C9B01AC0160E27CEB8EEB9BE457
:104A50000E94A72A20E030E040E85FE30E94352A68
:104A60000E94192B69830E944907812F0E946207C7
:104A70008EEF0E94620789810E9462070E944E07A2
:104A800087E893E10197F1F700C000000E94490711
:104A9000812F0E94620780E00E94620781EA0E94E3
:104AA00062070E944E0787E893E10197F1F700C083
:104AB00000000E944907812F0E94620781E00E9446
:104AC000620784E00E9462070E944E070F90DF9108
:104AD000CF911F91FF90EF900895CF92DF92EF92C8
:104AE000FF92CF93C82F6A017B0120E030E04AEFAC
:104AF00052E4C701B6010E94522C18168CF020E037
:104B000030E04AEF52ECC701B6010E94A22A87FFAB
:104B10000DC0C12CD12C9AEFE92E92ECF92E06C0D3
:104B2000C12CD12C8AEFE82E82E4F82E25E535E55C
:104B300045ED50E4C701B6010E94572C20E030E853
:104B40004BEB54E40E94362A0E94192B80E090E03F
:104B50000E94482B6B017C016091FE1E7091FF1E2C
:104B600080E090E00E94482B9B01AC0160E074E281
:104B700084E799E40E94A72A0E94192B80E090E024
:104B80000E94482B9B01AC01C701B6010E94A72AD5
:104B900020E030E040E855E40E94572C0E94192B99
:104BA0007B010E9449078091FD1E0E9462078C2FA5
:104BB000880F880F8A5F0E94620780E00E94620768
:104BC00080E00E9462078E2D0E9462078F2D0E9456
:104BD0006207CF91FF90EF90DF90CF900C944E073B
:104BE000CF93DF93D82FC92F0E94490780E40E94FA
:104BF00062078D2F0E9462078C2F0E946207DF914F
:104C0000CF910C944E07BC0180E090E00E94482BAD
:104C100029E23CE54FE65FEB0E94C42C22E538E632
:104C200046E256E40E94572C20E030E040E251E496
:104C30000E94352A6093841E7093851E8093861E81
:104C40009093871E0895181624F492E09093100113
:104C500004C09EEF90931001819567BD1092891E4C
:104C60001092881E90916E00926090936E00082EB4
:104C7000000C990B2091881E3091891E8217930792
:104C8000C9F780916E008D7F80936E0008952898FB
:104C900029984698479808959091C00095FFFCCFB9
:104CA0008093C60008958091C00087FFFCCF80915B
:104CB000C60008950F931F93CF938C01C0E0F801B5
:104CC000EC0FF11D8081882321F00E944C26CF5FDC
:104CD000F6CFCF911F910F910895CF93C82F64E61F
:104CE0000E94C829805D0E944C262AE08C2F622FEA
:104CF0000E94C829C92F0E94C82980E3890F0E94F9
:104D00004C2680E38C0FCF910C944C260F931F936D
:104D1000CF93DF938C0160E177E20E94D42980E396
:104D2000860F0E944C26C80168EE73E00E94D429C9
:104D3000CB01CAE0D0E0BE010E94D429805D0E9470
:104D40004C26C80164E670E00E94D429CB01BE0164
:104D50000E94D429805D0E944C26C801BE010E9499
:104D6000D429182FCB01BE010E94D429805D0E9456
:104D70004C2680E3810FDF91CF911F910F910C940E
:104D80004C268F929F92AF92BF92CF92DF92EF927A
:104D9000FF92CF934B015C0120E03AEC4AE95BE3E0
:104DA0000E94E82980E3820F0E944C26C501B401CD
:104DB00020E031EE45EF55E00E94E8298AE0C82E58
:104DC000D12CE12CF12CCA01B901A70196010E9456
:104DD000E82980E3860F0E944C26C501B40120E833
:104DE00036E948E950E00E94E829CA01B901A70163
:104DF00096010E94E82980E3860F0E944C26C50197
:104E0000B40120E432E44FE050E00E94E829CA01F6
:104E1000B901A70196010E94E82980E3860F0E944C
:104E20004C26C501B40120EA36E841E050E00E947A
:104E3000E829CA01B901A70196010E94E82980E387
:104E4000860F0E944C26C501B40120E137E240E004
:104E500050E00E94E829CA01B901A70196010E9409
:104E6000E82980E3860F0E944C26C501B40128EE94
:104E700033E040E050E00E94E829CA01B901A701EF
:104E800096010E94E82980E3860F0E944C26C50106
:104E9000B40124E630E040E050E00E94E829CA0175
:104EA000B901A70196010E94E82980E3860F0E94BC
:104EB0004C26C501B401A70196010E94E829C62F1E
:104EC000CA01B901A70196010E94E82980E3860F73
:104ED0000E944C2680E38C0FCF91FF90EF90DF90E3
:104EE000CF90BF90AF909F908F900C944C261F93C3
:104EF000CF93DF931F92CDB7DEB7898317E0898107
:104F000090E0012E02C0959587950A94E2F780FF04
:104F100002C081E301C080E30E944C26115078F763
:104F20000F90DF91CF911F9108950F931F93CF930F
:104F3000DF93D0E3C0E310E30E945326082F0E94C2
:104F40004C260D3021F01C2FCD2FD02FF5CF105334
:104F5000D05384E6189FD00D1124CC0FC0568C2F4F
:104F6000880F880F8C0F8D0FDF91CF911F910F91BC
:104F70000895EF92FF920F931F93CF93DF9300E377
:104F8000C0E3D0E310E380E3F82E0E945326E82E1E
:104F90000E944C268DE0E81631F0F12E1D2FDC2FFB
:104FA000C02F0E2DF2CF2F2D30E02053310980E19C
:104FB00097E2289FA001299F500D389F500D112482
:104FC000212F30E02053310968EE73E0269FC001A5
:104FD000279F900D369F900D1124840F951F2D2F24
:104FE00030E02053310964E6629FA001639F500DB9
:104FF0001124840F951F2C2F30E0205331096AE0D3
:10500000629FA001639F500D1124840F951F800F94
:10501000911DC097DF91CF911F910F91FF90EF905D
:1050200008957F928F929F92AF92BF92CF92DF921C
:10503000EF92FF920F931F93CF93DF93D0E3C0E3E0
:1050400010E300E380E3F82E90E3E92E20E3D22E74
:1050500030E3C32E40E3742E50E3B52E0E94532656
:10506000A82E0E944C268DE0A81659F0B72C7C2C57
:10507000CD2CDE2CEF2CF02E012F1C2FCD2FDA2D76
:10508000EDCFAB2DB0E0D09720E03AEC4AE95BE3FE
:105090000E94132A4B015C01A72DB0E0D09720E0BD
:1050A00031EE45EF55E00E94132A860E971EA81E8A
:1050B000B91EAC2DB0E0D09720E836E948E950E0C1
:1050C0000E94132A860E971EA81EB91EAD2DB0E0B1
:1050D000D09720E432E44FE050E00E94132A860E7D
:1050E000971EA81EB91EAE2DB0E0D09720EA36E874
:1050F00041E050E00E94132A860E971EA81EB91E9A
:105100008F2D90E0C09740E157E2849F9001859FEA
:10511000300D949F300D1124C901330FAA0BBB0B26
:10512000880E991EAA1EBB1E802F90E0C09728EE05
:1051300033E0829FA001839F500D929F500D112458
:10514000CA01550FAA0BBB0BB501A401480F591F8B
:105150006A1F7B1F812F90E0C09724E6289F4001A3
:10516000299F900C1124C401990CAA0BBB0B4A0176
:105170005B01880E991EAA1EBB1E2C2F30E0205307
:1051800031094AE0429FC001439F900D1124092E2E
:10519000000CAA0BBB0B880D991DAA1DBB1D8D0F02
:1051A000911DA11DB11DBC01CD0160537109810983
:1051B0009109DF91CF911F910F91FF90EF90DF90B8
:1051C000CF90BF90AF909F908F907F900895109256
:1051D0009500109294001092041F1092051F1092D7
:1051E000061F1092071F85E00E9439059093091F42
:1051F0008093081F2091160130911701A901485092
:105200005109B4E056954795BA95E1F7241B350B43
:10521000B901680F791F7093170160931601FB01A4
:1052200024E0F695E7952A95E1F7E817F907A0F449
:105230002091140130911501A90148505109A4E0B1
:1052400056954795AA95E1F7241B350B280F391F72
:1052500030931501209314018E179F07A0F420911D
:10526000120130911301A90148505109F4E05695FB
:105270004795FA95E1F7241B350B280F391F30931A
:1052800013012093120120911401309115014091D6
:10529000120150911301420F531F20911101FA0185
:1052A000E20FF11D9F01F0938C1EE0938B1EAB016A
:1052B0004E1B5F0BE4E056954795EA95E1F784179E
:1052C000950718F488EC90E011C0260F371F44E0D2
:1052D000369527954A95E1F72817390798F3809175
:1052E0008D1E90918E1E009729F0019790938E1E2F
:1052F00080938D1E209194003091950043E3429F4E
:10530000C001439F900D112468EE73E00E94D429E0
:10531000CB01A0E0B0E08093041F9093051FA09301
:10532000061FB093071F85E49EE10E945A268091D4
:10533000081F81580E946D2687E597E10E945A2632
:1053400087E59EE10E945A268091120190911301F7
:1053500024E0969587952A95E1F781580E946D265D
:1053600087E597E10E945A2689E69EE10E945A2627
:10537000809114019091150134E0969587953A95A6
:10538000E1F781580E946D2687E597E10C945A2633
:10539000991B79E004C0991F961708F0961B881F87
:1053A0007A95C9F780950895AA1BBB1B51E107C0E8
:1053B000AA1FBB1FA617B70710F0A61BB70B881FA5
:1053C000991F5A95A9F780959095BC01CD01089534
:1053D000A1E21A2EAA1BBB1BFD010DC0AA1FBB1FF9
:1053E000EE1FFF1FA217B307E407F50720F0A21B6B
:1053F000B30BE40BF50B661F771F881F991F1A94D8
:1054000069F760957095809590959B01AC01BD0101
:10541000CF010895EE0FFF1F0024001C0BBE079064
:10542000F691E02D0994B7FF0C941B2A0E941B2AC9
:10543000821B930B08950E94262AA59F900DB49F6E
:10544000900DA49F800D911D11240895A29FB0017D
:10545000B39FC001A39F700D811D1124911DB29FA8
:10546000700D811D1124911D08955058BB27AA2746
:105470000E944D2A0C94002C0E94F22B38F00E94BE
:10548000F92B20F039F49F3F19F426F40C94EF2BFC
:105490000EF4E095E7FB0C94C02BE92F0E94112C31
:1054A00058F3BA17620773078407950720F079F459
:1054B000A6F50C944B2C0EF4E0950B2EBA2FA02DD4
:1054C0000B01B90190010C01CA01A0011124FF27B1
:1054D000591B99F0593F50F4503E68F11A16F040AC
:1054E000A22F232F342F4427585FF3CF46953795AB
:1054F0002795A795F0405395C9F77EF41F16BA0B70
:10550000620B730B840BBAF09150A1F0FF0FBB1F1D
:10551000661F771F881FC2F70EC0BA0F621F731F66
:10552000841F48F4879577956795B795F7959E3FC3
:1055300008F0B0CF9395880F08F09927EE0F979554
:10554000879508950E949C2B08F481E008950E949D
:10555000BB2A0C94002C0E94F92B58F00E94F22BCD
:1055600040F029F45F3F29F00C94C02B51110C94AA
:105570004C2C0C94EF2B0E94112C68F39923B1F35F
:10558000552391F3951B550BBB27AA276217730769
:10559000840738F09F5F5F4F220F331F441FAA1FFD
:1055A000A9F335D00E2E3AF0E0E832D091505040B9
:1055B000E695001CCAF72BD0FE2F29D0660F771F67
:1055C000881FBB1F261737074807AB07B0E809F04D
:1055D000BB0B802DBF01FF2793585F4F3AF09E3FD2
:1055E000510578F00C94C02B0C944C2C5F3FE4F3E5
:1055F000983ED4F3869577956795B795F7959F5F15
:10560000C9F7880F911D9695879597F90895E1E060
:10561000660F771F881FBB1F621773078407BA07BF
:1056200020F0621B730B840BBA0BEE1F88F7E0951A
:1056300008950E94192C88F09F5798F0B92F992748
:10564000B751B0F0E1F0660F771F881F991F1AF06D
:10565000BA95C9F714C0B13091F00E944B2CB1E05B
:1056600008950C944B2C672F782F8827B85F39F05A
:10567000B93FCCF3869577956795B395D9F73EF406
:1056800090958095709561957F4F8F4F9F4F0895AE
:10569000E89409C097FB3EF49095809570956195CC
:1056A0007F4F8F4F9F4F9923A9F0F92F96E9BB2782
:1056B0009395F695879577956795B795F111F8CFFE
:1056C000FAF4BB0F11F460FF1BC06F5F7F4F8F4F69
:1056D0009F4F16C0882311F096E911C0772321F05F
:1056E0009EE8872F762F05C0662371F096E8862FF7
:1056F00070E060E02AF09A95660F771F881FDAF74E
:10570000880F9695879597F908950E94332C90F00D
:105710009F3748F4911116F00C944C2C60E070E027
:1057200080E89FEB089526F41B16611D711D811DF5
:105730000C94C62B0C94E12B990F0008550FAA0B63
:10574000E0E8FEEF16161706E807F907C0F0121694
:105750001306E407F50798F0621B730B840B950B97
:1057600039F40A2661F0232B242B252B21F40895EC
:105770000A2609F4A140A6958FEF811D811D089589
:1057800097F99F6780E870E060E00895882371F4DE
:10579000772321F09850872B762F07C0662311F4CA
:1057A00099270DC09051862B70E060E02AF09A9501
:1057B000660F771F881FDAF7880F9695879597F9F8
:1057C00008959F3F31F0915020F487957795679524
:1057D000B795880F911D9695879597F908959FEF36
:1057E00080EC089500240A94161617061806090678
:1057F000089500240A941216130614060506089547
:10580000092E0394000C11F4882352F0BB0F40F4CE
:10581000BF2B11F460FF04C06F5F7F4F8F4F9F4F0E
:10582000089557FD9058440F551F59F05F3F71F090
:105830004795880F97FB991F61F09F3F79F08795F7
:105840000895121613061406551FF2CF4695F1DF80
:1058500008C0161617061806991FF1CF8695710510
:105860006105089408950E94192CA0F0BEE7B917AD
:1058700088F4BB279F3860F41616B11D672F782F68
:105880008827985FF7CF869577956795B11D939593
:105890009639C8F30895E894BB2766277727CB018C
:1058A00097F908950E949C2B08F48FEF08950E94A9
:1058B0006A2C0C94002C0E94F22B38F00E94F92BD9
:1058C00020F0952311F00C94C02B0C94EF2B112495
:1058D0000C944C2C0E94112C70F3959FC1F3950FE2
:1058E00050E0551F629FF001729FBB27F00DB11D64
:1058F000639FAA27F00DB11DAA1F649F6627B00DF4
:10590000A11D661F829F2227B00DA11D621F739FDC
:10591000B00DA11D621F839FA00D611D221F749FEA
:105920003327A00D611D231F849F600D211D822F31
:10593000762F6A2F11249F5750409AF0F1F0882358
:105940004AF0EE0FFF1FBB1F661F771F881F915085
:105950005040A9F79E3F510580F00C94C02B0C9449
:105960004C2C5F3FE4F3983ED4F38695779567958A
:10597000B795F795E7959F5FC1F7FE2B880F911DAF
:105980009695879597F90895FA01EE0FFF1F3096C7
:1059900021053105A1F16115710561F48038BFE37E
:1059A0009B0749F168949038810561F08038BFEF1A
:1059B0009B0741F099234AF5FF3FE1053105210599
:1059C00019F1E8940894E795D901AA2329F4AB2F9B
:1059D000BE2FF85FD0F310C0FF5F70F4A695E0F71C
:1059E000F73950F019F0FF3A38F49F779F930DD0B4
:1059F0000F9007FC9058089546F00C94EF2B60E050
:105A000070E080E89FE308954FE79F775F934F939F
:105A10003F932F930E94E32D2F913F914F915F91E0
:105A20000E94572C0C94402D0E94192CE8F09E37B0
:105A3000E8F09639B8F49E3848F4672F782F882715
:105A4000985FF9CF86957795679593959539D0F3BB
:105A5000B62FB1706B0F711D811D20F4879577955E
:105A6000679593950C94C62B0C94E12B0C944C2CBD
:105A700029F416F00C94C02B0C944B2C0C94EF2BA7
:105A80000E94192CA8F39638A0F707F80F92E89413
:105A90002BE33AEA48EB5FE70E946D2C0F920F92DE
:105AA0000F924DB75EB70F920E942B2EEAE3F1E002
:105AB0000E94722D4F915F91EF91FF91E595EE1F3E
:105AC000FF1F49F0FE57E0684427EE0F441FFA9588
:105AD000E1F74195550B0E94A52D0F9007FE0C9400
