:100000000C9465010C9484010C9484010C9484017B
:100010000C9484010C9484010C94DD200C948401D4
:100020000C9484010C9484010C9484010C9484013C
:100030000C9484010C9484010C9484010C949320FE
:100040000C94AA200C9484010C9484010C948401D7
:100050000C9484010C9484010C9484010C9484010C
:100060000C9407210C9484010C9484010C94840159
:100070000C9484010C9484010C9484010C948401EC
:100080000C9484010C9484010C948401D21F7C2074
:100090007C207C207C207C207C20C71F0A20FE1F27
:1000A00006200220C01FBD1FF21FF61FFA1FB01F3F
:1000B000B91FAC1FD61FB61FDA1F7C207C207C2006
:1000C0007C207C207C207C209C1F4D201E20A11F9A
:1000D000552053207C207A207C207C207C20DE1F31
:1000E0002A2026208F1F2E205720E21F961F8D1FAB
:1000F00078202220911FA61F7C2051207C207C206C
:100100007C207C207C207C20E61F7C2031200E205F
:10011000412012207C2016207C201A20EE1FEA1F8E
:100120003D20392047204A207C2044207C20CE1FBF
:100130007C20352007634236B79BD8A71A3968560A
:1001400018AEBAAB558C1D3CB7CC5763BD6DEDFDF9
:10015000753EF6177231BF000000803F08000000B6
:10016000BE922449123EABAAAA2ABECDCCCC4C3EAC
:1001700000000080BEABAAAAAA3E00000000BF009B
:100180000000803F0000000000084178D3BB438797
:10019000D1133D190E3CC3BD4282AD2B3E68EC82AB
:1001A00076BED98FE1A93E4C80EFFFBE01C4FF7F30
:1001B0003F00000000006E616E00696E6600004046
:1001C0007A10F35A00A0724E18090010A5D4E80066
:1001D00000E87648170000E40B54020000CA9A3B7E
:1001E000000000E1F5050000809698000000404204
:1001F0000F000000A0860100000010270000000092
:10020000E803000000006400000000000A00000095
:1002100000000100000000002C76D888DC674F0841
:1002200023DFC1DFAE59E1B1B796E5E3E453C63A47
:10023000E651997696E8E6C28426EB898C9B62EDBE
:10024000407C6FFCEFBC9C9F40F2BAA56FA5F49078
:10025000055A2AF75C936B6CF9676DC11BFCE0E4EF
:100260000D47FEF520E6B500D0ED902E0300943545
:1002700077050080841E080000204E0A000000C898
:100280000C333333330F986E12831141EF8D2114E9
:10029000893BE65516CFFEE6DB18D1844B381BF7B9
:1002A0007C1D901DA4BBE424203284725E22810058
:1002B000C9F124ECA1E53D272569207365632E2053
:1002C000666F72206D656E75000011241FBECFEF42
:1002D000D0E4DEBFCDBF1DE1A0E0B1E0E6EEF8E581
:1002E00000E00BBF02C007900D92A43DB107D9F703
:1002F0002EE1A4EDBDE101C01D92A235B207E1F7E8
:100300000E9408210C94712C0C9400002F923F92B3
:100310004F925F926F927F928F929F92AF92BF9215
:10032000CF92DF92EF92FF920F931F93CF93DF93C1
:10033000CDB7DEB760970FB6F894DEBF0FBECDBF66
:100340007C011B016A01FC0117821682838181FFF7
:1003500044C39E012F5F3F4F3901F7019381F101A3
:1003600093FD859193FF81911F01882309F431C387
:10037000853239F493FD859193FF81911F01853278
:1003800039F4B70190E00E94982B56016501E5CF42
:1003900010E0512C912CFFE1F915D8F08B3279F057
:1003A00038F4803279F08332A1F4F92DF0612EC057
:1003B0008D3261F0803369F4292D21602DC0392DF3
:1003C0003260932E892D8460982E2AC0E92DE86032
:1003D00015C097FC2DC020ED280F2A3088F496FE1A
:1003E00006C03AE0139F200D1124122F19C08AE095
:1003F000589E200D1124522EE92DE0629E2E10C031
:100400008E3231F496FCE5C2F92DF0649F2E08C0BF
:100410008C3621F4292D2068922E02C0883641F4B2
:10042000F10193FD859193FF81911F018111B3CF5C
:100430009BEB980F933020F4992D9061805E07C05C
:100440009BE9980F933008F066C1992D9F7E96FF27
:1004500016E09F73992E853619F49064992E08C082
:10046000863621F4392F3068932E02C011111150B5
:1004700097FE07C01C3350F444244394410E27E0F8
:100480000BC0183038F027E017E005C027E09CE3E8
:10049000492E02C0212F412C560184E0A80EB11C28
:1004A000F6016081718182819381042DA3010E94F4
:1004B000572A6C01F981FC87F0FF02C0F3FF06C0E8
:1004C00091FC06C092FE06C000E205C00DE203C02A
:1004D0000BE201C000E08C858C7019F001115AC24A
:1004E0009BC297FE10C04C0CFC85F4FF04C08A81AF
:1004F000813309F44A94141474F528E0241578F52E
:1005000088E0482E2CC096FC2AC0812F90E08C15E4
:100510009D059CF03CEFC3163FEFD30674F0892D88
:100520008068982E0AC0E2E0F0E0EC0FFD1FE10FBA
:10053000F11D8081803319F411501111F4CF97FE11
:100540000EC044244394410E812F90E0C816D90672
:100550002CF41C1904C04424439401C010E097FEFD
:1005600006C01C141D0434F4C601019605C085E0C4
:1005700090E002C081E090E001110196112331F07A
:10058000212F30E02F5F3F4F820F931F252D30E04A
:100590008217930714F4581A01C0512C892D8970C1
:1005A00049F4552039F0B70180E290E00E94982B81
:1005B0005A94F7CF002329F0B701802F90E00E94D2
:1005C000982B93FC09C0552039F0B70180E390E0E7
:1005D0000E94982B5A94F7CF97FE4CC04601D7FE45
:1005E00002C0812C912CC60188199909F301E80FEA
:1005F000F91FFE87ED87960124193109388B2F8763
:10060000012F10E01195019511093FEF8316930614
:1006100029F4B7018EE290E00E94982BC814D90407
:100620004CF08F8598898815990524F4ED85FE8511
:10063000818101C080E3F1E08F1A91082D853E850C
:100640002F5F3F4F3E872D87801691062CF0B70114
:1006500090E00E94982BD9CFC814D90441F49A8114
:10066000963320F4953319F43C8534FF81E3B701C8
:1006700090E04EC08A81813319F09C859F7E9C87D3
:10068000B70190E00E94982B111105C094FC18C08E
:1006900085E690E017C0B7018EE290E00E94982BAB
:1006A0001E5F82E001E0080FF301E80FF11D808179
:1006B000B70190E00E94982B802F0113F3CFE6CF73
:1006C00085E490E0B7010E94982BD7FC06C0C114C6
:1006D000D10441F4EC85E4FF05C0D194C194D10864
:1006E0008DE201C08BE2B70190E00E94982B80E37D
:1006F0002AE0C216D1042CF08F5FFAE0CF1AD1089D
:10070000F7CFB70190E00E94982BB701C601C096C1
:100710000E94982B54C1833631F0833779F08335AA
:1007200009F056C020C0560132E0A30EB11CF601FC
:100730008081898301E010E0630112C05601F2E07C
:10074000AF0EB11CF601C080D18096FE03C0612FB0
:1007500070E002C06FEF7FEFC6010E94552B8C0145
:10076000F92DFF7714C0560122E0A20EB11CF6014C
:10077000C080D18096FE03C0612F70E002C06FEF91
:100780007FEFC6010E942F2B8C01F92DF0689F2E60
:10079000F3FD1AC0852D90E008171907A8F4B701DA
:1007A00080E290E00E94982B5A94F4CFF60197FCD7
:1007B000859197FE81916F01B70190E00E94982B7F
:1007C00051105A94015011090115110579F7F7C01C
:1007D000843611F0893661F5560197FE09C024E090
:1007E000A20EB11CF60160817181828193810AC0E1
:1007F000F2E0AF0EB11CF60160817181072E000C92
:10080000880B990BF92DFF769F2E97FF09C09095C5
:100810008095709561957F4F8F4F9F4FF0689F2E09
:100820002AE030E0A3010E94032CC82EC6183FC066
:10083000092D853721F40F7E2AE030E01DC0097FA5
:100840008F3691F018F4883559F0C3C0803719F00D
:10085000883711F0BEC0006104FF09C0046007C002
:1008600094FE08C0066006C028E030E005C020E124
:1008700030E002C020E132E0560107FF09C084E009
:10088000A80EB11CF601608171818281938108C03C
:10089000F2E0AF0EB11CF6016081718180E090E062
:1008A000A3010E94032CC82EC6180F77902E96FE27
:1008B0000BC0092D0E7FC11650F494FE0AC092FCA5
:1008C00008C0092D0E7E05C0DC2C092D03C0DC2CD0
:1008D00001C0D12E04FF0DC0FE01EC0DF11D808181
:1008E000803311F4097E09C002FF06C0D394D3946B
:1008F00004C0802F867809F0D39403FD11C000FF57
:1009000006C01C2DD51480F4150D1D190DC0D5146D
:1009100058F4B70180E290E00E94982BD394F7CF6F
:10092000D51410F45D1801C0512C04FF10C0B7019C
:1009300080E390E00E94982B02FF17C001FD03C0E6
:1009400088E790E002C088E590E0B7010CC0802FF6
:10095000867859F001FF02C08BE201C080E207FDFA
:100960008DE2B70190E00E94982BC11638F4B701D0
:1009700080E390E00E94982B1150F7CFCA94F301C6
:10098000EC0DF11D8081B70190E00E94982BC11001
:10099000F5CF15C0F4E0F51560F584E0581A93FE24
:1009A0001FC0011127C02C8523FF2AC006EB11E0D0
:1009B000392D3071932EF8018491811124C0552076
:1009C00009F4E4CCB70180E290E00E94982B5A949D
:1009D000F6CFF7018681978126C08FEF9FEF23C066
:1009E000B70180E290E00E94982B5A945110F8CF02
:1009F000D8CF512CB701802F90E00E94982BD3CFF5
:100A00000AEB11E0D5CF91108052B70190E00E941F
:100A1000982B0F5F1F4FCFCF23E0251510F483E0F5
:100A2000BDCF512CC0CF60960FB6F894DEBF0FBE7D
:100A3000CDBFDF91CF911F910F91FF90EF90DF908D
:100A4000CF90BF90AF909F908F907F906F905F906E
:100A50004F903F902F90089583B7817F826083BF2E
:100A6000EAE7F0E0808188608083089590917C00BF
:100A7000907E90937C0090917C00892B80937C00E9
:100A800080917A00806480937A0080917A0086FF5A
:100A9000FCCF809178009091790008951F93CF93B7
:100AA000DF9310E1C0E0D0E083B7816083BF889519
:100AB00083B78E7F83BF87E00E943605C80FD91F9A
:100AC000115091F7CE019695879596958795DF9170
:100AD000CF911F910895249A2C9A259A2E9A279A9D
:100AE0008CB581608CBD8CB580618CBD8CB580640B
:100AF0008CBD08958EBD0DB407FEFDCF0895CF9334
:100B0000DF93EB010E947A058D2F0E947A058C2FCE
:100B1000DF91CF910C947A052C9886E00E947A059B
:100B20002C9A0895CF92DF92EF92FF926B017C0195
:100B30002C9883E00E947A05C701B6010E947F05C8
:100B400080E00E947A052C9A8EB5FF90EF90DF909E
:100B5000CF900895CF92DF92EF92FF92CF936B01E7
:100B60007C01C42F0E948C052C9882E00E947A059B
:100B7000C701B6010E947F058C2F0E947A050DB433
:100B800007FEFDCF2C9ACF91FF90EF90DF90CF9092
:100B90000895CF92DF92EF92FF92CF93DF936B0194
:100BA0007C012C9883E00E947A05C701B6010E945F
:100BB0007F0580E00E947A05CEB5D0E0DC2FCC27FF
:100BC00080E00E947A058EB52C9A9E01280F311D77
:100BD000C901DF91CF91FF90EF90DF90CF90089502
:100BE000CF92DF92EF92FF92CF93DF936B017C0164
:100BF000EA010E948C052C9882E00E947A05C701C8
:100C0000B6010E947F058D2F0E947A058C2F0E94CD
:100C10007A052C9ADF91CF91FF90EF90DF90CF90E3
:100C20000895CF92DF92EF92FF92C12CD12C7601E2
:100C30000E948C052C9882E00E947A05C701B601BB
:100C40000E947F0580E00E947A058FEFC81AD80ABB
:100C5000E80AF80A2C9A8FEFC816D806E104F104C6
:100C600039F7FF90EF90DF90CF9008950E944607EC
:100C700084EC0E945F078091B900887F883199F5E4
:100C800081E191E00E94E52488E10E944C2586EBF9
:100C900099E10E94E52480E00E945F078091B900FD
:100CA000887F883201F589E491E00E94E52488E29A
:100CB0000E944C2586EB99E10E94E52484E00E9485
:100CC0005F078091B900887F883269F48DE691E0F2
:100CD0000E94E52488E20E944C2586EB99E10E945F
:100CE000E5240C944B070895CF930E94460784ECAB
:100CF0000E945F078091B900887F883101F581E10A
:100D000091E00E94E52488E10E944C2586EB99E160
:100D10000E94E52481E00E945F078091B900887FEE
:100D2000883269F48BE891E00E94E52488E20E9411
:100D30004C2586EB99E10E94E5240E944B078FEA3F
:100D400091E00E94E52486EB99E10E94E5240E944F
:100D5000460785EC0E945F07C091B900C87F8C2FC1
:100D60000E944C2586EB99E10E94E524C034D1F421
:100D700089EB91E00E94E52480E40E944C2586EBFB
:100D800099E10E94E5240E945707C82F87EF91E060
:100D90000E94E5248C2F0E944C2586EB99E10E944D
:100DA000E52401C0C0E08C2FCF9108951F93CF930D
:100DB000DF930E94460784EC0E945F078091B90090
:100DC000887F883159F481E191E00E94E52488E12F
:100DD0000E944C2586EB99E10E94E5248FE80E9451
:100DE0005F078091B900887F883269F489E092E0DA
:100DF0000E94E52488E20E944C2586EB99E10E943E
:100E0000E5240E944B070E94460785EC0E945F077D
:100E10008091B900887F803409F58DE292E00E94CC
:100E2000E52480E40E944C2586EB99E10E94E524AC
:100E30000E944F07182F0E945707C82F0E944B0788
:100E4000D0E0D12B8AE692E00E94E524CE010E94F8
:100E5000112586EB99E10E94E52402C0C0E0D0E0B4
:100E6000CE01DF91CF911F91089588B1836088B939
:100E700086E48093B800ECEBF0E0808184608083AE
:100E800008958091BC0087FFFCCF089584EA809389
:100E9000BC000C94410784E98093BC00089584EC65
:100EA0008093BC000E9441078091BB00089584E8B4
:100EB0008093BC000E9441078091BB0008958093FD
:100EC000BB0084E88093BC000C944107CF93C82FEB
:100ED0000E9446078EE40E945F078C2F88600E9464
:100EE0005F07CF910C944B071F93CF93DF93D82FBD
:100EF00011E0611101C010E0D4FF02C080E101C027
:100F000080E0D5FD8062D6FD8064D7FD8068C82F63
:100F1000C12B8C2F84600E94660787EA91E60197B7
:100F2000F1F700C000008C2F0E946607D0FF02C0BE
:100F300080E101C080E0D1FD8062D2FD8064D3FDFC
:100F40008068182B812F84600E94660787EA91E6EB
:100F50000197F1F700C00000812FDF91CF911F9121
:100F60000C94660760E081E00E94740760E080E80E
:100F70000E9474071092D41D089560E080E80E94DA
:100F800074071092D41D0895CF93C4E0C150B1F0FE
:100F900084E30E9466078FE493EC0197F1F700C0A9
:100FA000000080E30E9466079FE72AE186E09150F7
:100FB00020408040E1F700C00000E8CF84E20E94BA
:100FC00066078FE493EC0197F1F700C0000080E220
:100FD0000E9466078FE493EC0197F1F700C00000D0
:100FE00060E088E20E94740760E08CE00E94740771
:100FF000CF910C94B207CF93C82F8091D41D80312C
:1010000021F460E080EC0E9474078091D41D80324E
:1010100031F460E080E80E9474071092D41D809142
:10102000D41D8F5F8093D41D61E08C2FCF910C94E1
:1010300074070F931F93CF93DF93EC018E01888188
:101040008823F1F08091D41D803121F460E080ECA0
:101050000E9474078091D41D803231F460E080E8F2
:101060000E9474071092D41D8091D41D8F5F8093CD
:10107000D41D219661E0F80180810E947407DECFC3
:10108000DF91CF911F910F9108954F925F926F92D0
:101090007F928F929F92AF92BF92CF92DF92EF9208
:1010A000FF920F931F93CF93DF93CDB7DEB7649773
:1010B0000FB6F894DEBF0FBECDBFFE01B79681908C
:1010C00091907F01712C6E018BE0C80ED11CFE0146
:1010D00031965F0180E3682E2401FFEF4F1A5F0A0B
:1010E000F4018491882309F4A6C0853209F08FC0E9
:1010F00084010E5F1F4FF2018491282F30E02053AE
:1011000031092A303105D8F589831A82C5010E9438
:10111000392A782E94012D5F3F4FF801049109364A
:1011200051F138F40236E1F10336D1F0890148017A
:10113000D3CF033731F0083779F10F36B9F789018A
:1011400028C08901F70180809180F2E0EF0EF11C48
:10115000F40181914F01882351F30E94FB07F8CFDE
:1011600089014701F2E08F0E911CF70180810E94F6
:10117000FB077401DCCF890198014AE012C089366F
:10118000D9F308F448C08337E9F2883731F08F3655
:1011900071F6980148E005C08901980140E101C05D
:1011A00042E050E04701F2E08F0E911CF701808190
:1011B00091818901B6010E94602BF601CF018C1943
:1011C0009D0921912111FACF272D30E08217930735
:1011D000C4F4781AF501872D90E09F012A193B0984
:1011E0002817390714F46192F8CFF501E80FF91FB9
:1011F0001082B601C5010E943A2BB501C6010E94BA
:101200004E2BC6010E9419087401712C90CF0E94C8
:10121000FB0782018CCF823651F44701F2E08F0E3A
:10122000911CF7018081918142E050E0C3CF833669
:1012300009F497CF7CCF64960FB6F894DEBF0FBE4B
:10124000CDBFDF91CF911F910F91FF90EF90DF9075
:10125000CF90BF90AF909F908F907F906F905F9056
:101260004F90089550E05093890040938800882360
:1012700019F0109A549A02C01098549850938B0009
:1012800040938A00662319F0119A559A089511988F
:10129000559808954093B300882319F0129A569AEE
:1012A00002C0129856984093B400662319F0139A1E
:1012B000579A0895139857980895CF93DF93C82F9E
:1012C000D82FD6958D2F0E94F8241F92DF9386E7A2
:1012D00092E09F938F938FE29EE19F938F930E9462
:1012E000D42B8FE29EE10E9419080F900F900F906F
:1012F0000F900F900F90C0FF07C089E792E00E9407
:10130000E5248EE792E006C088E892E00E94E5249A
:101310008DE892E00E94190881E892E0DF91CF9178
:101320000C9419081092C50084E08093C400E0EC8E
:10133000F0E080818260808388E18093C10086E054
:101340008093C20008950F931F93CF938C01C62FF3
:1013500060E972E00E94452B892B21F44C2F60E05C
:1013600081E01EC068E972E0C8010E94452B892B0C
:1013700069F44C2F60E081E00E944A094C2F61E043
:1013800080E0CF911F910F910C9432096EE972E0C9
:10139000C8010E94452B892B49F44C2F61E080E065
:1013A0000E944A094C2F60E081E0EBCF63EA72E0D3
:1013B000C8010E94452B892B21F44C2F61E080E06D
:1013C000DBCF6CEA72E0C8010E94452B892B41F407
:1013D00040E060E080E00E944A0940E060E0D0CF59
:1013E00082EB92E00E94E52486EB99E1CF911F9178
:1013F0000F910C94E5242F923F924F925F926F923F
:101400007F928F929F92AF92BF92CF92DF92EF9294
:10141000FF920F931F93CF93DF9300D000D000D0A3
:10142000CDB7DEB7182F6E83B42E022FC82ED12C65
:10143000E12CF12C24E2C21AD1082FEFE20AF20AC1
:10144000C701B6010E9492058D831031E0F088EC4F
:1014500092E026960FB6F894DEBF0FBECDBFDF91A7
:10146000CF911F910F91FF90EF90DF90CF90BF90A1
:10147000AF909F908F907F906F905F904F903F9034
:101480002F900C94E5248B2D90E0A0E0B0E08983B0
:101490009A83AB83BC839D8197FD6CC1AE8144EF81
:1014A000242E33243394A7FDD8C09A170CF07BC0A8
:1014B000BD816B2FBB0F770B880B990B0E942427E4
:1014C000AB01BC01812F0E94F8234E81C701B601F8
:1014D0000E94AA0569817A818B819C810E942227C2
:1014E0002B013C0120E030E44CE955E40E94312816
:1014F0004B015C0120E030E040E85FE30E947C2685
:1015000087FD22C020E03FEF4FE757E4C501B4015B
:101510000E942C2818169CF420E030E040E251E4B0
:10152000C301B2010E9431280E94F32661157105A2
:1015300081F0C1010197F1F761507109F7CFC50141
:10154000B4010E94F32602C061E070E0CB01019774
:10155000F1F72D81200F2D833E8132170CF0A8CF9B
:101560008EEF92E00E94E524812F0E94F82481E210
:1015700093E00E94E5243CEDC32EDD24DA94E12CB7
:10158000F12C812F90E09A838983B3C0C501B40107
:101590000E94F326CB010197F1F7BD81B01BBD83FB
:1015A0002E81B217ECF2AD816A2FAA0F770B880B50
:1015B000990B0E942427AB01BC01812F0E94F823C4
:1015C0004E81C701B6010E94AA0569817A818B818B
:1015D0009C810E9422272B013C0120E030E44CE951
:1015E00055E40E9431284B015C0120E030E040E8E6
:1015F0005FE30E947C2687FD1FC020E03FEF4FE79E
:1016000057E4C501B4010E942C2818160CF0BECF77
:1016100020E030E040E251E4C301B2010E943128F1
:101620000E94F3266115710509F4B7CFC101019736
:10163000F1F761507109F6CF61E070E0ABCFC50101
:10164000B4010E94F326CB010197F1F78D81801B35
:101650008D839E8189170CF483CF3D81632F330FD7
:10166000770B880B990B0E942427AB01BC01812FBB
:101670000E94F8234E81C701B6010E94AA05698124
:101680007A818B819C810E9422272B013C0120E0E2
:1016900030E44CE955E40E9431284B015C0120E024
:1016A00030E040E85FE30E947C2687FD1FC020E019
:1016B0003FEF4FE757E4C501B4010E942C281816EC
:1016C0000CF0BDCF20E030E040E251E4C301B201B4
:1016D0000E9431280E94F3266115710509F4B6CFE6
:1016E000C1010197F1F761507109F6CF61E070E037
:1016F000AACF80E393E00E94E524C6010E94112551
:1017000081E493E00E94E524C701B6010E9492059E
:101710000E94F824C6018496A981BA81A817B90746
:1017200021F48AE493E00E94E524BFEFCB1ADB0AA0
:10173000EB0AFB0A2CEEC2162FEFD206E104F104ED
:10174000C1F626960FB6F894DEBF0FBECDBFDF916F
:10175000CF911F910F91FF90EF90DF90CF90BF90AE
:10176000AF909F908F907F906F905F904F903F9041
:101770002F9008953E8137FD5DC024EF222E332443
:101780003394AD816A2FAA0F770B880B990B0E94B7
:101790002427AB01BC01812F0E94F8234E81C70191
:1017A000B6010E94AA0569817A818B819C810E9481
:1017B00022272B013C0120E030E44CE955E40E9453
:1017C00031284B015C0120E030E040E85FE30E94FB
:1017D0007C2687FD22C020E03FEF4FE757E4C5019C
:1017E000B4010E942C2818169CF420E030E040E25E
:1017F00051E4C301B2010E9431280E94F326611511
:10180000710581F0C1010197F1F761507109F7CFBE
:10181000C501B4010E94F32602C061E070E0CB0173
:101820000197F1F7BD81B00FBD832E812B170CF00E
:10183000A8CF96CE3D818E8194EF292E3324339408
:1018400038170CF067C0AD816A2FAA0F770B880B91
:10185000990B0E942427AB01BC01812F0E94F82321
:101860004E81C701B6010E94AA0569817A818B81E8
:101870009C810E9422272B013C0120E030E44CE9AE
:1018800055E40E9431284B015C0120E030E040E843
:101890005FE30E947C2687FD22C020E03FEF4FE7F8
:1018A00057E4C501B4010E942C2818169CF420E0CE
:1018B00030E040E251E4C301B2010E9431280E94AD
:1018C000F3266115710581F0C1010197F1F76150AF
:1018D0007109F7CFC501B4010E94F32602C061E08F
:1018E00070E0CB010197F1F7BD81B00FBD832E8170
:1018F0002B170CF0A8CF34CEC501B4010E94F326FB
:10190000CB010197F1F78D81801B8D839E81891713
:101910000CF426CE3D81632F330F770B880B990B88
:101920000E942427AB01BC01812F0E94F8234E8125
:10193000C701B6010E94AA0569817A818B819C81C9
:101940000E9422272B013C0120E030E44CE955E4C1
:101950000E9431284B015C0120E030E040E85FE369
:101960000E947C2687FD1FC020E03FEF4FE757E431
:10197000C501B4010E942C2818160CF0BDCF20E040
:1019800030E040E251E4C301B2010E9431280E94DC
:10199000F3266115710509F4B6CFC1010197F1F77E
:1019A00061507109F6CF61E070E0AACFCF93C82FE4
:1019B00021E0482F60E080E00E94FB0921E04C2FED
:1019C00060E084E00E94FB0921E04C2F60E083E0AE
:1019D0000E94FB0921E04C2F60E082E00E94FB099D
:1019E00021E04C2F60E081E00E94FB0921E04C2FB8
:1019F00060E085E00E94FB0921E04C2F6EE186E06B
:101A00000E94FB0921E04C2F60E087E00E94FB0967
:101A100021E04C2F60E08BE00E94FB0921E04C2F7D
:101A200060E08AE00E94FB0921E04C2F60E089E041
:101A30000E94FB0921E04C2F60E088E00E94FB0936
:101A400021E04C2F60E08CE00E94FB0921E04C2F4C
:101A50006CEE8DE0CF910C94FB09CF93C82F21E061
:101A6000482F60E087E00E94FB0921E04C2F60E0F6
:101A70008BE00E94FB0921E04C2F60E08AE00E948D
:101A8000FB0921E04C2F60E089E00E94FB0921E086
:101A90004C2F60E088E00E94FB0921E04C2F60E0C1
:101AA0008CE00E94FB0921E04C2F6CEE8DE0CF9181
:101AB0000C94FB09CF93C82F21E0482F60E080E011
:101AC0000E94FB0921E04C2F60E084E00E94FB09AA
:101AD00021E04C2F60E083E00E94FB0921E04C2FC5
:101AE00060E082E00E94FB0921E04C2F60E081E091
:101AF0000E94FB0921E04C2F60E085E00E94FB0979
:101B000021E04C2F6EE186E0CF910C94FB09CF933E
:101B1000C82F21E0482F6EE186E00E94FB0921E0FA
:101B20004C2F60E085E00E94FB0921E04C2F66EF1E
:101B300080E00E94FB0921E04C2F62EB82E00E94D2
:101B4000FB0921E04C2F6FE684E00E94FB0921E0B5
:101B50004C2F65E383E00E94FB0921E04C2F61E9F3
:101B600081E00E94FB0921E04C2F67EE8DE00E948E
:101B7000FB0921E04C2F60E08CE00E94FB0921E092
:101B80004C2F60E087E00E94FB0921E04C2F6AEBBC
:101B900089E00E94FB0921E04C2F6BE78BE00E945B
:101BA000FB0921E04C2F65E38AE00E94FB0921E05C
:101BB0004C2F64E688E0CF910C94FB09CF93C82F9B
:101BC00021E0482F67EE8DE00E94FB0921E04C2FB9
:101BD00060E08CE00E94FB0921E04C2F60E087E090
:101BE0000E94FB0921E04C2F6AEB89E00E94FB096F
:101BF00021E04C2F6BE78BE00E94FB0921E04C2F8A
:101C000065E38AE00E94FB0921E04C2F64E688E04E
:101C1000CF910C94FB09CF93C82F21E0482F6EE1A0
:101C200086E00E94FB0921E04C2F60E085E00E94E5
:101C3000FB0921E04C2F66EF80E00E94FB0921E0C8
:101C40004C2F62EB82E00E94FB0921E04C2F6FE6F3
:101C500084E00E94FB0921E04C2F65E383E00E94B1
:101C6000FB0921E04C2F61E981E0CF910C94FB0945
:101C7000CF93C82F21E0482F66EF80E00E94FB0938
:101C800021E04C2F62EB82E00E94FB0921E04C2F07
:101C90006FE684E00E94FB0921E04C2F65E383E0BE
:101CA0000E94FB0921E04C2F66EA81E00E94FB09BB
:101CB00021E04C2F60E085E00E94FB0921E04C2FE1
:101CC0006EE186E00E94FB0921E04C2F60E087E096
:101CD0000E94FB0921E04C2F6AEB89E00E94FB097E
:101CE00021E04C2F6DE78BE00E94FB0921E04C2F97
:101CF00065E38AE00E94FB0921E04C2F60E588E063
:101D00000E94FB0921E04C2F60E08CE00E94FB095F
:101D100021E04C2F6CEE8DE0CF910C94FB09CF931A
:101D2000C82F21E0482F60E087E00E94FB0921E0F6
:101D30004C2F6AEB89E00E94FB0921E04C2F6DE7F4
:101D40008BE00E94FB0921E04C2F65E38AE00E94B2
:101D5000FB0921E04C2F60E588E00E94FB0921E0AF
:101D60004C2F60E08CE00E94FB0921E04C2F6CEED0
:101D70008DE0CF910C94FB09CF93C82F21E0482F21
:101D800066EF80E00E94FB0921E04C2F62EB82E0CD
:101D90000E94FB0921E04C2F6FE684E00E94FB09C2
:101DA00021E04C2F65E383E00E94FB0921E04C2FEA
:101DB00066EA81E00E94FB0921E04C2F60E085E0AB
:101DC0000E94FB0921E04C2F6EE186E0CF910C943C
:101DD000FB09CF93C82F80910F01982F990F6FEFB8
:101DE000890F0E94AE2480910F01982F990F6FEFF9
:101DF000890F0E94AE2480910F01982F990F6FEFE9
:101E0000890F0E94AE2421E04C2F6CE388E00E94F1
:101E1000FB0921E04C2F60E08AE00E94FB0921E0F1
:101E20004C2F60E089E00E94FB0921E04C2F66EA1C
:101E30008BE00E94FB0921E04C2F6AE58AE00E94BA
:101E4000FB0921E04C2F66E788E00E94FB0921E0B6
:101E50004C2F6EE689E00E94FB0921E04C2F65EBD8
:101E60008BE00E94FB0921E04C2F60E08CE00E9497
:101E7000FB0921E04C2F60EB8DE00E94FB09809173
:101E80000F01982F990F890F6FEF81950E94AE2453
:101E900080910F01982F990F890F6FEF81950E9404
:101EA000AE2480910F01982F990F890F6FEF8195C4
:101EB000CF910C94AE24CF93C82F80910F01982F0F
:101EC000990F6FEF890F0E94AE2480910F01982F18
:101ED000990F6FEF890F0E94AE2480910F01982F08
:101EE000990F6FEF890F0E94AE2421E04C2F6AE01A
:101EF0008DE00E94FB0921E04C2F60E08CE00E9405
:101F0000FB0921E04C2F60E087E00E94FB0921E003
:101F10004C2F60E08AE00E94FB0921E04C2F60E03A
:101F20008BE00E94FB0921E04C2F6AE588E00E94CB
:101F3000FB0921E04C2F6CEE89E00E94FB0921E0B7
:101F40004C2F6AE58BE00E94FB0921E04C2F66E4F0
:101F50008AE00E94FB0921E04C2F67EC89E00E9497
:101F6000FB0921E04C2F6DE28AE00E94FB0921E091
:101F70004C2F6EE688E00E94FB0921E04C2F6DE7B4
:101F80008BE00E94FB0921E04C2F66E38AE00E946F
:101F9000FB0980910F01982F990F890F6FEF8195A1
:101FA0000E94AE2480910F01982F990F890F6FEF37
:101FB00081950E94AE2480910F01982F990F890F6F
:101FC0006FEF8195CF910C94AE24CF93C82F809161
:101FD0000F01982F990F890F6FEF81950E94AE2402
:101FE00080910F01982F990F890F6FEF81950E94B3
:101FF000AE2480910F01982F990F890F6FEF819573
:102000000E94AE240E94D22421E04C2F6AEB81E092
:102010000E94FB0921E04C2F60E083E00E94FB0955
:1020200021E04C2F60E082E00E94FB0921E04C2F70
:1020300066EA84E00E94FB0921E04C2F66EF83E012
:102040000E94FB0921E04C2F68E881E00E94FB0917
:1020500021E04C2F64E682E00E94FB0921E04C2F36
:102060006AE583E00E94FB0921E04C2F6AEB86E0E1
:102070000E94FB0921E04C2F60E085E00E94FB09F3
:1020800080910F01982F990F6FEF890F0E94AE2456
:1020900080910F01982F990F6FEF890F0E94AE2446
:1020A00080910F01982F990F6FEF890F0E94AE2436
:1020B000CF910C94D224CF93C82F80910F01982FE9
:1020C000990F890F6FEF81950E94AE2480910F01C7
:1020D000982F990F890F6FEF81950E94AE24809100
:1020E0000F01982F990F890F6FEF81950E94AE24F1
:1020F0000E94D22421E04C2F62E386E00E94FB097B
:1021000021E04C2F60E085E00E94FB0921E04C2F8C
:1021100066EF80E00E94FB0921E04C2F60E083E045
:102120000E94FB0921E04C2F60E084E00E94FB0943
:1021300021E04C2F66EA81E00E94FB0921E04C2F50
:102140006CEE82E00E94FB0921E04C2F6AE584E0FE
:102150000E94FB0921E04C2F66E483E00E94FB090A
:1021600021E04C2F62EC82E00E94FB0921E04C2F21
:102170006DE283E00E94FB0921E04C2F66E881E0DC
:102180000E94FB0921E04C2F64E784E00E94FB09D8
:1021900021E04C2F6DE283E00E94FB0980910F014A
:1021A000982F990F6FEF890F0E94AE2480910F0135
:1021B000982F990F6FEF890F0E94AE2480910F0125
:1021C000982F990F6FEF890F0E94AE24CF910C9436
:1021D000D224CF93C82F21E0482F66EF80E00E94E1
:1021E000FB0921E04C2F65E584E00E94FB0921E01A
:1021F0004C2F60E082E00E94FB0921E04C2F65E358
:1022000083E00E94FB0921E04C2F66EA81E00E94F6
:10221000FB0921E04C2F6CE985E00E94FB0921E0DD
:102220004C2F6EEC86E00E94FB0921E04C2F60E011
:1022300087E00E94FB0921E04C2F6AE58BE00E94B9
:10224000FB0921E04C2F60E089E00E94FB0921E0BE
:102250004C2F6CE38AE00E94FB0921E04C2F6AE4DA
:1022600088E00E94FB0921E04C2F6CE38CE00E9487
:10227000FB0921E04C2F60EB8DE0CF910C94FB0922
:10228000CF93C82F21E0482F66EF80E00E94FB0922
:1022900021E04C2F65E584E00E94FB0921E04C2FF2
:1022A00060E082E00E94FB0921E04C2F65E383E0BF
:1022B0000E94FB0921E04C2F66EA81E00E94FB09A5
:1022C00021E04C2F60E085E00E94FB0921E04C2FCB
:1022D00068E286E00E94FB0921E04C2F60E087E085
:1022E0000E94FB0921E04C2F6AE58BE00E94FB096C
:1022F00021E04C2F60E089E00E94FB0921E04C2F97
:102300006CE38AE00E94FB0921E04C2F6AE488E03C
:102310000E94FB0921E04C2F60E08CE00E94FB0949
:1023200021E04C2F68EF8DE0CF910C94FB09CF9307
:10233000C82F21E0482F66EF80E00E94FB0921E0D2
:102340004C2F69E684E00E94FB0921E04C2F63EDED
:1023500082E00E94FB0921E04C2F60E087E00E94B0
:10236000FB0921E04C2F63E78BE00E94FB0921E091
:102370004C2F6CED89E0CF910C94FB0921E0482FA4
:1023800067E38EE00C94FB09CF93C82F6AEE7FEFD2
:1023900080E090E00E949205873344F464E0680F87
:1023A00021E04C2F8EE0CF910C94FB09CF91089542
:1023B000CF93C82F6AEE7FEF80E090E00E949205F5
:1023C000823F44F06CEF680F21E04C2F8EE0CF91FC
:1023D0000C94FB09CF91089521E0482F61EF8EE026
:1023E0000C94FB0921E0482F6AE08EE00C94FB0975
:1023F000CF93C82F21E0482F66EF80E00E94FB09B1
:1024000021E04C2F69E684E00E94FB0921E04C2F7B
:1024100060E082E00E94FB0921E04C2F66EA81E047
:102420000E94FB0921E04C2F68EF83E00E94FB092A
:1024300021E04C2F60E084E00E94FB0921E04C2F5A
:102440006DE280E00E94FB0921E04C2F66EF80E006
:102450000E94FB0921E04C2F6DE280E00E94FB0905
:1024600021E04C2F66EF80E00E94FB098C2F0E9438
:10247000BE118C2F0E94EC118C2F0E94F21121E0D2
:102480004C2F60E087E00E94FB0921E04C2F63E7BE
:102490008BE00E94FB0921E04C2F60E089E00E9464
:1024A000FB0921E04C2F6CE488E00E94FB0921E04D
:1024B0004C2F60E08AE00E94FB0921E04C2F60E095
:1024C0008BE0CF910C94FB09FF920F931F93CF9356
:1024D000DF93D82F64EE7FEF80E090E00E949205BA
:1024E000F82E65EE7FEF80E090E00E949205082FC5
:1024F00066EE7FEF80E090E00E949205182F67EE75
:102500007FEF80E090E00E949205C82F84E28F1553
:102510003CF46CEF6F0D21E04D2F88E00E94FB0929
:1025200008323CF464E0600F21E04D2F89E00E9406
:10253000FB091B303CF06DEF610F21E04D2F8AE06D
:102540000E94FB091C1664F46DEF6C0F21E04D2F07
:102550008BE0DF91CF911F910F91FF900C94FB09BD
:10256000DF91CF911F910F91FF900895FF920F93EC
:102570001F93CF93DF93D82F6DED7FEF80E090E036
:102580000E949205F82E6EED7FEF80E090E00E94B1
:102590009205082F6FED7FEF80E090E00E9492059A
:1025A000182F60EE7FEF80E090E00E949205C82F28
:1025B0008CEDF8163CF464E06F0D21E04D2F81E0C6
:1025C0000E94FB0908323CF464E0600F21E04D2FCB
:1025D00082E00E94FB091B303CF06DEF610F21E0AF
:1025E0004D2F83E00E94FB091C1664F46DEF6C0F05
:1025F00021E04D2F84E0DF91CF911F910F91FF904B
:102600000C94FB09DF91CF911F910F91FF900895DA
:10261000FF920F931F93CF93DF93D82F64EE7FEF3A
:1026200080E090E00E949205F82E65EE7FEF80E05A
:1026300090E00E949205082F66EE7FEF80E090E028
:102640000E949205182F67EE7FEF80E090E00E94D5
:102650009205C82F83E68F153CF064E06F0D21E0F2
:102660004D2F88E00E94FB0908323CF464E0600FC3
:1026700021E04D2F89E00E94FB091B303CF06DEFFB
:10268000610F21E04D2F8AE00E94FB091C1664F4C3
:102690006DEF6C0F21E04D2F8BE0DF91CF911F91FB
:1026A0000F91FF900C94FB09DF91CF911F910F9137
:1026B000FF900895FF920F931F93CF93DF93D82F2E
:1026C0006DED7FEF80E090E00E949205F82E6EEDB8
:1026D0007FEF80E090E00E949205082F6FED7FEF82
:1026E00080E090E00E949205182F60EE7FEF80E07E
:1026F00090E00E949205C82F8DE9F8163CF06CEF2F
:102700006F0D21E04D2F81E00E94FB0908323CF45F
:1027100064E0600F21E04D2F82E00E94FB091B3036
:102720003CF06DEF610F21E04D2F83E00E94FB092B
:102730001C1664F46DEF6C0F21E04D2F84E0DF91E7
:10274000CF911F910F91FF900C94FB09DF91CF91D6
:102750001F910F91FF900895CF93C82F6CED7FEFDD
:1027600080E090E00E9492058D3744F465E0680FA8
:1027700021E04C2F80E0CF910C94FB09CF9108957C
:10278000CF93C82F6CED7FEF80E090E00E94920520
:10279000873F44F06BEF680F21E04C2F80E0CF9132
:1027A0000C94FB09CF910895CF93C82F63EE7FEF70
:1027B00080E090E00E9492058A3044F465E0680F62
:1027C00021E04C2F87E0CF910C94FB09CF91089525
:1027D000CF93C82F63EE7FEF80E090E00E949205D8
:1027E000843844F06BEF680F21E04C2F87E0CF91E5
:1027F0000C94FB09CF910895CF93C82F62EE7FEF21
:1028000080E090E00E9492058C3344F465E0680F0C
:1028100021E04C2F86E0CF910C94FB09CF910895D5
:10282000CF93C82F62EE7FEF80E090E00E94920588
:10283000803C44F06BEF680F21E04C2F86E0CF9195
:102840000C94FB09CF910895CF93C82F69EE7FEFC9
:1028500080E090E00E9492058A3044F465E0680FC1
:1028600021E04C2F8DE0CF910C94FB09CF9108957E
:10287000CF93C82F69EE7FEF80E090E00E94920531
:10288000893844F06BEF680F21E04C2F8DE0CF9139
:102890000C94FB09CF910895CF93C82F61EE7FEF81
:1028A00080E090E00E9492058D3744F465E0680F67
:1028B00021E04C2F85E0CF910C94FB09CF91089536
:1028C000CF93C82F61EE7FEF80E090E00E949205E9
:1028D000843844F06BEF680F21E04C2F85E0CF91F6
:1028E0000C94FB09CF910895CF93C82F68EE7FEF2A
:1028F00080E090E00E9492058D3744F465E0680F17
:1029000021E04C2F8CE0CF910C94FB09CF910895DE
:10291000CF93C82F68EE7FEF80E090E00E94920591
:10292000843844F06BEF680F21E04C2F8CE0CF919E
:102930000C94FB09CF910895CF93C82F21E0482F25
:1029400060E087E00E94FB0921E04C2F6AE58BE004
:102950000E94FB0921E04C2F60E089E00E94FB0906
:1029600021E04C2F60E08AE00E94FB0921E04C2F1F
:1029700064E688E00E94FB0921E04C2F68E789E0CB
:102980000E94FB0921E04C2F6CE38CE00E94FB09C4
:1029900021E04C2F60EB8DE0CF910C94FB09CF929E
:1029A000DF92EF920F931F93CF93DF936C01162F5B
:1029B000D42FC22F88EF94E00E94E524C6010E9424
:1029C00011258AE30E94D72480E20E94D7248FEF4A
:1029D00094E00E94E524812F0E94F8248AE30E945B
:1029E000D72480E20E94D72487E095E00E94E52466
:1029F0008D2F0E94F8248AE30E94D72480E20E944F
:102A0000D7248DE095E00E94E5248C2F0E94F824C5
:102A10008AE30E94D72480E20E94D72484E195E0D3
:102A20000E94E524802F0E94F8248AE30E94D72484
:102A300080E20E94D7248AE195E00E94E5248E2D51
:102A40000E94F8248DE00E94D7248AE0DF91CF9184
:102A50001F910F91EF90DF90CF900C94D7244F925D
:102A60005F926F927F928F929F92AF92BF92CF921E
:102A7000DF92EF92FF92CF93DF9300D000D0CDB7DB
:102A8000DEB720E030E048EC52E40E9431280E949A
:102A9000EE2820E030E048EC52E40E9481266B01F1
:102AA0007C0120E030E040E251E40E9481264B01AD
:102AB0005C0120E030E040E452E40E9410260E94D5
:102AC000F326862F0E94D724C501B4010E945F27F8
:102AD0002B013C0120E030E040E452E4C701B601A4
:102AE0000E9410264B015C0120E030E040E251E4FE
:102AF000C301B2010E9431289B01AC01C501B401A0
:102B00000E940F260E94F326862F0E94D7248EE271
:102B10000E94D72420E030E040E251E4C701B60132
:102B20000E9431284B015C01C701B6010E945F275A
:102B30002B013C0120E030E040E452E4C501B40147
:102B40000E94102669837A838B839C8320E030E087
:102B500040E251E4C301B2010E9431289B01AC0163
:102B600069817A818B819C810E940F260E94F326C5
:102B7000862F0E94D724C501B4010E945F274B0114
:102B80005C0120E030E048EC52E4C701B6010E944D
:102B9000312820E030E040E452E40E9410266B012E
:102BA0007C0120E030E040E251E4C501B4010E9424
:102BB00031289B01AC01C701B6010E940F260E947B
:102BC000F326862F0E94D72486EB99E10F900F9071
:102BD0000F900F90DF91CF91FF90EF90DF90CF900B
:102BE000BF90AF909F908F907F906F905F904F902D
:102BF0000C94E5240F931F93CF93DF938C01EB018B
:102C000080E295E00E94E52484E395E00E94E524BB
:102C1000C8010E94112580E20E94D7248AE30E9405
:102C2000D72480E20E94D7248DE395E00E94E5241A
:102C3000CE010E94112585EE96E1DF91CF911F9183
:102C40000F910C94E524FC0140E050E0A6E0B8E0D0
:102C50004617570788F420E030E02E173F0731F081
:102C60008A2F8A95F1F72F5F3F4FF7CF95B19B27BA
:102C700095B94E0F5F1FECCF0895609100017091E0
:102C8000010183E194E00E9423166091000170919C
:102C9000010181EA93E00E94231660910001709186
:102CA000010189E492E00E9423160E94B2070E946B
:102CB000BD0785E495E00E94190884E595E00E942F
:102CC000190882E695E00E94E52486E995E00E94D5
:102CD000E52482E695E00E94E5248BEC95E00E94D5
:102CE000E52482E695E00E94E5248FEF95E00E94BE
:102CF000E52484E296E00E94E5248AE596E00E94BD
:102D0000E52488E896E00E94E5248EEB96E00E9498
:102D1000E52489EF96E00E94E52486E297E00E9490
:102D2000E52489E497E00E94E5248AE797E00E9481
:102D3000E52482E695E00E94E5248BE997E00E9475
:102D4000E52482E695E00E94E5248FEC97E00E945E
:102D5000E52481EF97E00E94E5248BE198E00E9452
:102D6000E52489E398E00E94E52488E598E00E9444
:102D7000E52482E695E00E94E52488E798E00E9439
:102D8000E52482E695E00E94E5248CEA98E00E9422
:102D9000E5248AEC98E00E94E52489EE98E00E9400
:102DA000E52485E099E00E94E52487E299E00E940D
:102DB000E52485E499E00E94E5248BE699E00E94F1
:102DC000E52480E999E00E94E52482E695E00E94EE
:102DD000E5248AEC99E00E94E52482E695E00E94D1
:102DE000E5248EEF99E00E94E52489E39AE00E94B1
:102DF000E5248AEA9AE00E94E5248BE19BE00E94A8
:102E0000E52489E59BE00E94E5248CE79BE00E9495
:102E1000E52485EA9BE00E94E5248EEC9BE00E947D
:102E2000E52481E09CE00E94E52484E39CE00E948C
:102E3000E52483E69CE00E94E52481E99CE00E9471
:102E4000E52485EC9CE00E94E5248AEF9CE00E944A
:102E5000E52489E29DE00E94E52488E59DE00E944A
:102E6000E52487E89DE00E94E52483EB9DE00E9435
:102E7000E52480EE9DE00E94E5248DE09EE00E9426
:102E8000E5248BE39EE00E94E5248CE79EE00E940F
:102E9000E5248DEB9EE00E94E5248EEF9EE00E94EB
:102EA000E52482E695E00E94E5248FE39FE00E94FE
:102EB000E52482E695E00E94E52483E79FE00E94F6
:102EC000E52488EA9FE00E94E5248DED9FE00E94C2
:102ED000E52482E190E10E94E52487E490E10E94EC
:102EE000E5248EE790E10E94E52485EB90E10E94C5
:102EF000E5248CEE90E10E94E52482E695E00C94B6
:102F0000E524809106018F5F809306018091060180
:102F10008D3058F0109206018091070190910801C0
:102F2000019690930801809307010895809105010F
:102F30008F5F8093050180910501803220F010920F
:102F400005010C9481170895809104018F5F80938F
:102F5000040180910401883120F0109204010E9444
:102F60009617609100017091010180ED91E00E943F
:102F7000231688EE93E024EF31E0F9013197F1F761
:102F80000197D9F760910001709101018DE093E004
:102F90000E94231688EE93E024EF31E0F901319787
:102FA000F1F70197D9F760910001709101018DE06F
:102FB00093E00E94231688EE93E024EF31E0F901BC
:102FC0003197F1F70197D9F76091000170910101F4
:102FD00080ED91E00E94231688EE93E024EF31E02B
:102FE000F9013197F1F70197D9F7609100017091DC
:102FF000010180ED91E00C942316CF92DF92EF92C5
:10300000FF92809103018F5F809303018091030100
:103010008C3320F0109203010E94A4170E94B20783
:10302000609100017091010189E492E00E942316F1
:1030300088EE93E024EF31E0F9013197F1F7019741
:10304000D9F7609100017091010188ED93E00E9431
:10305000231688EE93E024EF31E0F9013197F1F780
:103060000197D9F7609100017091010188ED93E01B
:103070000E9423160E944E05BC0180E090E00E9451
:10308000222722E630E140E450E40E94312826EB7A
:1030900033EF41EA50E40E94312820E030E040E87C
:1030A00059E30E9431286093E11D7093E21D8093E3
:1030B000E31D9093E41D83E291E10E94E524609179
:1030C000E11D7091E21D8091E31D9091E41D0E942D
:1030D0002F158091E41D8F938091E31D8F93809134
:1030E000E21D8F938091E11D8F9381E491E19F9385
:1030F0008F938BE19EE19F938F930E94D42B0E942C
:10310000B2070E94BD0787E491E10E9419088BE194
:103110009EE10E94190880E591E10E9419080E9431
:1031200036060E9474068093D71D2DB73EB7285FE0
:103130003F4F0FB6F8943EBF0FBE2DBF80FD11C0AC
:103140008AE692E00E94E5240E94D6069093D61D5E
:103150008093D51D0E94112586EB99E10E94E524FC
:1031600008C084E591E10E94E5240E9474068093E2
:10317000D71D8091D61D8F938091D51D8F9388E6A2
:1031800091E19F938F9385E49EE19F938F930E949B
:10319000D42B8BE691E10E94190885E49EE10E9400
:1031A000190883E791E10E941908C090E11DD090B1
:1031B000E21DE090E31DF090E41D0F900F900F9042
:1031C0000F900F900F9020E030E040E751E4C701EE
:1031D000B6010E942C2887FD03C080EF9FEF36C008
:1031E00020E030E040E651E4C701B6010E942C28FF
:1031F00087FD03C080EE9FEF29C020E030E040E56E
:1032000051E4C701B6010E942C2887FD03C083EC5E
:103210009FEF1CC020E030E040E251E4C701B6015E
:103220000E942C2887FD03C087EC9FE30FC020E09D
:1032300030E040E251E4C701B6010E947C2687FFDE
:1032400003C08FE99FEB02C08FE79FE3FF90EF90F1
:10325000DF90CF900C947B24809102018F5F80934C
:103260000201809102018C3320F0109202010E9431
:10327000FD1760910001709101018DE693E00E94BD
:10328000231684EF91E024EF31E0F9013197F1F753
:103290000197D9F760910001709101018DE093E0F1
:1032A0000C94231686B182FB882780F98093141E24
:1032B00086B183FB882780F98093F31D8091141ECB
:1032C000811113C08091F31D882331F08091171E66
:1032D0009091181E019605C08091171E9091181E9E
:1032E00001979093181E8093171E089586B18295BA
:1032F00081708093F21D86B185FB882780F98093C9
:10330000E81D8091F21D811113C08091E81D81118B
:1033100006C08091FB1D9091FC1D019605C0809117
:10332000FB1D9091FC1D01979093FC1D8093FB1D4C
:1033300008950E94B2070E94BD0786E791E10E94AE
:103340001908609100017091010186EB91E00E94E3
:10335000231684EF91E024EF31E0F9013197F1F782
:103360000197D9F7609100017091010186EB91E01E
:103370000E94231684EF91E024EF31E0F9013197A8
:10338000F1F70197D9F7609100017091010186EB87
:1033900091E00E94231680E197E224EF31E0F901E9
:1033A0003197F1F70197D9F782E891E10E94E5247E
:1033B00084EA91E10E94E52488EC91E10E94E524F1
:1033C000609100017091010186EB91E00E9423164B
:1033D00082EE91E10E94E5240E94B2070E94BD079F
:1033E00082EF91E10E9419080E946A2580930601EC
:1033F000609100017091010186EB91E00E9423161B
:103400008AEF91E10E94E5240E94B2070E94BD0765
:1034100088E092E10E9419080E946A2580930501C4
:10342000609100017091010186EB91E00E942316EA
:103430008EE092E10E94E5240E94B2070E94BD073F
:103440008DE192E10E9419080E946A25809304018F
:10345000609100017091010186EB91E00E942316BA
:1034600084E292E10E94E5240E94B2070E94BD0717
:1034700086E392E10E9419080E946A258093030165
:10348000609100017091010186EB91E00E9423168A
:1034900080E492E10E94E5240E94B2070E94BD07E9
:1034A00082E592E10E94190860910001709101018A
:1034B00086EB91E00E9423160E946A258093020108
:1034C000609100017091010186EB91E00E9423164A
:1034D0001092D91D1092D81D86EB99E10E94E52427
:1034E0008CE592E10E94E5248FE892E10E94E524B8
:1034F0000E94B2070E94BD0789EA92E10E94190862
:1035000088E99AE324EF31E0F9013197F1F7019767
:10351000D9F70C94B2070E94B2070E94BD0781EB55
:1035200092E10E94190882EC92E10E9419086091D0
:1035300000017091010183E194E00E9423166091E3
:1035400000017091010181EA93E00E9423166091CD
:1035500000017091010189E492E00E94231682E843
:1035600091E10E94E52484EA91E10E94E5248AEC3D
:1035700092E10E94E52484E093E10E94E52480E149
:1035800097E224EF31E0F9013197F1F70197D9F78C
:103590000E94B2070E94BD0784E293E10E941908CD
:1035A0000E946A2580930E016091000170910101D3
:1035B00086EB91E00E9423168FE293E10E94E524BE
:1035C0000E94B2070E94BD078BE593E10E94190893
:1035D0000E946A2580930F016091000170910101A2
:1035E00086EB91E00E94231687E693E10E94E52492
:1035F00080E197E224EF31E0F9013197F1F701978B
:10360000D9F70E94B2070E94BD0788E893E10E94A3
:1036100019080E946A2580930B0160910001709146
:10362000010186EB91E00E94231685E993E10E9457
:10363000E52480E197E224EF31E0F9013197F1F7D9
:103640000197D9F70E94B2070E94BD078BEB93E167
:103650000E9419080E946A2580930D016091000163
:103660007091010186EB91E00E9423168AEC93E1B0
:103670000E94E52480E197E224EF31E0F9013197DF
:10368000F1F70197D9F70E94B2070E94BD0785EFB5
:1036900093E10E9419088BE593E10E9419080E94AA
:1036A0006A2580930C01609100017091010186EB05
:1036B00091E00E94231686E094E10E94E52480E1D7
:1036C00097E224EF31E0F9013197F1F70197D9F74B
:1036D0000E94B2070E94BD0787E294E10E94190888
:1036E0000E946A2580930A01609100017091010196
:1036F00086EB91E00E94231684E394E10E94E52486
:1037000080E197E224EF31E0F9013197F1F7019779
:10371000D9F70E94B2070E94BD0783E694E10E9498
:10372000190884E794E10E9419080E946A25809391
:103730000901609100017091010186EB91E00E9406
:10374000231685E894E10E94E52483EC94E10E942D
:10375000E5240E94B2070E94BD078EED94E10E940D
:10376000190889EA92E10E94190888E99AE324EF8E
:1037700031E0F9013197F1F70197D9F70C94B207CD
:10378000609100017091010183E194E00E94231691
:10379000609100017091010181EA93E00E9423167B
:1037A000609100017091010189E492E00E9423166A
:1037B0000E94B2070E94BD078AE496E10E941908A0
:1037C00089E596E10E94E52489E796E10E94E524D7
:1037D0008BE996E10E94E5248DEB96E10E94E524B9
:1037E0001092FE1D1092FD1D8091FD1D9091FE1DF9
:1037F000C39740F584EE96E10E94E5248091FD1D7B
:103800000E94F82483EE96E10E94E5246091FD1D5C
:103810007091FE1D80E090E00E9492050E94F824C5
:1038200083EE96E10E94E52486EB99E10E94E5246F
:103830008091FD1D9091FE1D01969093FE1D809339
:10384000FD1DD2CF87EE96E10E94E5248FE097E13F
:103850000E94E5240E94DE24853601F1873739F580
:1038600080EA97E10E94E5240E946A258093E71D83
:103870008EED97E10E94E5240E946A25482F90E092
:103880009093FE1D8093FD1D6091E71D70E080E028
:1038900090E00E94AA0586EB99E10BC08DE397E1C9
:1038A0000E94E5240E94110683E897E102C08BE1A3
:1038B00098E10C94E524EF92FF920F931F93CF931E
:1038C000DF9362E070E080E090E00E94C905909391
:1038D0001A1E8093191E0E94BD070E94B20782E340
:1038E00098E10E9419081F9285E08F9388EB92E07F
:1038F0009F938F930E94450883E498E10E94E524FA
:1039000085E00E94F82489E598E10E94E5240F9063
:103910000F900F900F9080E090E0DC0144EF51E0B9
:1039200085309105A105B10561F020E137E2FA018A
:103930003197F1F721503109D1F70196A11DB11D41
:10394000EFCF8093F71D9093F81DA093F91DB093CE
:10395000FA1D8091C00087FF10C08091C6008D368F
:1039600061F481E08093161EC0E0D0E00CE310E02B
:1039700094EFE92EFF24F39406C01092161EC0E0C7
:10398000D0E00AC12C9A8091161E882309F404C144
:1039900088E798E10E94E5240E94B2070E94BD07D3
:1039A0008CEA98E10E94190860E070E0CB010E9467
:1039B000C905A0E0B0E08093ED1D9093EE1DA093AB
:1039C000EF1DB093F01D85E892E00E94E524809100
:1039D000ED1D9091EE1D04970E94112581EC98E158
:1039E0000E94E52485E892E00E94E5248091191E5A
:1039F00090911A1E0E94112587ED98E10E94E524FE
:103A000086EF98E10E94E5248AE199E10E94E5248D
:103A10008FE399E10E94E52484E699E10E94E52480
:103A200088E899E10E94E5248FE999E10E94E52464
:103A30000E94DE248F3309F46AC038F48C3309F411
:103A40004BC08E3309F453C0A2C0853609F466C05A
:103A5000833709F47BC0843609F099C02C9883E041
:103A60000E947A0564E070E080E090E00E947F05AB
:103A700084E090E0A0E0B0E08093F71D9093F81D03
:103A8000A093F91DB093FA1D4091F71D5091F81DB8
:103A90006091F91D7091FA1D8091ED1D9091EE1DC0
:103AA000A091EF1DB091F01D481759076A077B07D9
:103AB00008F068CF80E00E947A058EB50E945D090B
:103AC0008091F71D9091F81DA091F91DB091FA1DFC
:103AD0000196A11DB11DD0CF4091191E50911A1E03
:103AE0004A30510508F44FCF455051090BC0409161
:103AF000191E50911A1E483E8DEF580708F043CF0B
:103B00004B5F5F4F50931A1E4093191E18C01093BD
:103B10001A1E0093191E4CE350E011C089EB99E185
:103B20000E94E5240E94110644E050E060E070E04D
:103B3000CB010E94F0054091191E50911A1E62E0BF
:103B400070E080E090E00E94F0051DCF89EE99E1E1
:103B50000E94E5240E948E25EC0186EB99E10E94EB
:103B6000E52486E09AE10E94E5240E94B2070E94C3
:103B7000BD078DE19AE10E94190880E29EE4F701F9
:103B80003197F1F70197D9F71092161EFCCE8CE20F
:103B90009AE10E94E524F7CE0E94B2070E94BD0779
:103BA00000E010E084EFE82EFF24F39460E070E082
:103BB000CB010E94C905A0E0B0E08093ED1D909379
:103BC000EE1DA093EF1DB093F01D0E94460780E903
:103BD0000E945F0780E00E945F070E94460781E91C
:103BE0000E945F070E944F078093151E0E9457078F
:103BF0008093F11D0E944B070E94460780E90E94B6
:103C00005F0780E00E945F070E94460781E90E94EB
:103C10005F070E944F078093151E0E9457078093ED
:103C2000F11D0E944B078091151E982F990F8091CE
:103C3000F11D881F8827881F892B8093131E0E94DF
:103C40005D096091ED1D7091EE1D8091EF1D9091C9
:103C5000F01D4091131E0E94AA054091ED1D509148
:103C6000EE1D6091EF1D7091F01D4F3F8FEF5807D3
:103C700061057105E0F00F5F1F4FC017D10708F015
:103C800095CF8DE49AE10E94E5240E94B2070E943C
:103C9000BD0787E69AE10E94190888E79AE1DF915B
:103CA000CF911F910F91FF90EF900C9419084F5FE7
:103CB0005F4F6F4F7F4F4093ED1D5093EE1D60930C
:103CC000EF1D7093F01D60E070E0CB010E94F005E5
:103CD0004091191E50911A1E60E070E080E090E063
:103CE000DC0184179507A607B70760F420E137E2E7
:103CF000F7013197F1F721503109D1F70196A11D54
:103D0000B11DEFCF8093F71D9093F81DA093F91D7F
:103D1000B093FA1DB0CF0E94B2070E94BD0783E89E
:103D20009AE10E94190884E00E9436059093E61DEE
:103D30008093E51D83E99AE10E94E5248091431E6A
:103D40009091441E0E94112585EE96E10E94E52483
:103D500086E00E9436059093441E8093431E84EAB9
:103D60009AE10E94E5248091E51D9091E61D0E9454
:103D700011258091E51D9091E61D0E948E249B01E6
:103D8000AC01CB01DA018093E91D9093EA1DA09369
:103D9000EB1DB093EC1D5F934F933F932F9381E402
:103DA00091E19F938F938FEF9DE19F938F930E945B
:103DB000D42B83EC9AE10E94E5248FEF9DE10E94D1
:103DC000E5248DB79EB708960FB6F8949EBF0FBE38
:103DD0008DBF88E39DE10C94E524EF920F930E9440
:103DE000B2070E94BD0785ED9AE10E9419089BB1B8
:103DF00084E089278BB984E00E9436059093E61D04
:103E00008093E51D83E99AE10E94E5248091431E99
:103E10009091441E0E94112585EE96E10E94E524B2
:103E200086E00E9436059093441E8093431E84EAE8
:103E30009AE10E94E5248091E51D9091E61D0E9483
:103E400011258091E51D9091E61D0E948E249B0115
:103E5000AC01CB01DA018093E91D9093EA1DA09398
:103E6000EB1DB093EC1D5F934F933F932F9381E431
:103E700091E19F938F938FEF9DE19F938F930E948A
:103E8000D42B83EC9AE10E94E5248FEF9DE10E9400
:103E9000E52488E39DE10E94E5240E94D2246091FC
:103EA000FB1D7091FC1D8091171E9091181E0E94A1
:103EB000FA1585EE96E10E94E524E090020100915A
:103EC0000301209104014091050160910601809158
:103ED0000701909108010E94CF148DB79EB70896F4
:103EE0000FB6F8949EBF0FBE8DBF88E39DE10F9182
:103EF000EF900C94E5248091C00087FF13C1E091FE
:103F0000C6008E2F90E0FC01B397E435F10508F070
:103F1000F3C0EA5BFF4F0C9406260C9499190C949D
:103F20008B1A60910E0180E992E004C060910E014D
:103F300083EA92E00C94A30960910E018EE992E06D
:103F4000F9CF60910E0188E992E0F4CF60E08CEA4D
:103F500092E00E94A309E4C06FEF80910F0104C0BA
:103F600080910F016FEF81950C94AE2486E20C9442
:103F7000C41180910B010C94F21186E20C94D811BB
:103F80008FEF9FEF0E947B2486EE9AE1A6C080E02F
:103F900090E00E947B248BEF9AE19FC080910D01FD
:103FA0000C945B1080910D010C94D60C80910D0146
:103FB0000C942D0D80910D010C945A0D80910D01E2
:103FC0000C94DE0D80910D010C940B0E80910D016F
:103FD0000C948F0E80910D010C94BC0E80910D01FC
:103FE0000C94870D80910D010C94380E80910D0179
:103FF0000C94E91080910D010C94401180910D01F9
:104000000C94E90E80910D010C945B0F80910D01D1
:104010000C94971180910D010C94F81180910A0174
:104020000C94381480910A010C94241480910A0194
:104030000C94101480910A010C94FC1380910901D6
:104040000C947414809109010C94881480910901D6
:104050000C944C14809109010C9460148EE10C9422
:104060009C1480910C010C94D41380910C010C943D
:10407000E81380910C010C94AC1380910C010C940A
:10408000C01383E20C94641283E20C94081383E25D
:104090000C94B61283E20C945A1380910D010C9487
:1040A000E50F0C945B1C0C94C01B0C948B1E0E949F
:1040B00036060E9474068093D71D80FD10C08AE6E4
:1040C00092E00E94E5240E94D6069093D61D80932C
:1040D000D51D0E94112586EB99E10C94E52484E519
:1040E00091E10E94E5240E9474068093D71D0895F3
:1040F0000C94ED1E0C943D1681E19BE10E94E52499
:10410000609100017091010186EB91E00E942316FD
:1041100060910001709101018EE991E00E942316E7
:104120000C94D22408951F920F920FB60F9211246F
:104130008F939F938091D81D9091D91D0196909354
:10414000D91D8093D81D9F918F910F900FBE0F9016
:104150001F9018951F920F920FB60F9211240BB655
:104160000F928F939F93EF93FF93E091E01D8091C7
:104170001001E80FE770E093E01DF0E0E553F24E28
:10418000808185B9E091E01DF0E0E553F24E808139
:1041900088B98091DE1D9091DF1D01969093DF1DFF
:1041A0008093DE1DFF91EF919F918F910F900BBE39
:1041B0000F900FBE0F901F9018951F920F920FB681
:1041C0000F9211240BB60F922F933F934F935F934F
:1041D0006F937F938F939F93AF93BF93EF93FF93CF
:1041E0000E9452190E947619FF91EF91BF91AF91F1
:1041F0009F918F917F916F915F914F913F912F91FF
:104200000F900BBE0F900FBE0F901F901895189532
:104210000E94920986E39BE10E94E5240E946B05BF
:1042200089E59BE10E94E5240E9435078BE79BE12D
:104230000E94E5240E94C4078EE99BE10E94E524C8
:1042400084B5826084BD85B5856085BD8FEF87BDEF
:1042500080EC9BE10E94E524809180008160809346
:104260008000809181008360809381008091800034
:10427000806A8093800080916F00816080936F00DE
:1042800086EE9BE10E94E5248091B00081608093DE
:10429000B0008091B10084608093B1008091B00043
:1042A000806A8093B0008CE09CE10E94E5248091BC
:1042B000910081608093910082E39CE10E94E5245B
:1042C00080917C00806480937C0080917A0086607D
:1042D00080937A0080917A00806880937A0088E5E4
:1042E0009CE10E94E52480916800846080936800CE
:1042F00080916D00846080936D008AE79CE10E944C
:10430000E5240E942C0580917E00806F80937E00C2
:1043100088B18C6388B981B1836081B981B18C60C7
:1043200081B984B1836084B987B1806C87B9239ADD
:10433000529A78948DE99CE10E94E52482ED9CE1FB
:104340000E94E52486E09DE10E94E52482E695E056
:104350000E94E52486E995E00E94E52482E695E046
:104360000E94E5248BEC95E00E94E52482E695E02E
:104370000E94E5248FEF95E00E94E52484E296E018
:104380000E94E5248AE596E00E94E52488E896E00C
:104390000E94E5248EEB96E00E94E52489EF96E0EA
:1043A0000E94E52486E297E00E94E52489E497E0F4
:1043B0000E94E5248AE797E00E94E52482E695E0E2
:1043C0000E94E5248BE997E00E94E52482E695E0CF
:1043D0000E94E5248FEC97E00E94E52481EF97E0AE
:1043E0000E94E5248BE198E00E94E52489E398E0AF
:1043F0000E94E52488E598E00E94E52482E695E0A5
:104400000E94E52488E798E00E94E52482E695E092
:104410000E94E5248CEA98E00E94E5248AEC98E06A
:104420000E94E52489EE98E00E94E52485E099E069
:104430000E94E52487E299E00E94E52485E499E062
:104440000E94E5248BE699E00E94E52480E999E04A
:104450000E94E52482E695E00E94E5248AEC99E03A
:104460000E94E52482E695E00E94E5248EEF99E023
:104470000E94E52489E39AE00E94E5248AEA9AE012
:104480000E94E5248BE19BE00E94E52489E59BE006
:104490000E94E5248CE79BE00E94E52485EA9BE0EE
:1044A0000E94E5248EEC9BE00E94E52481E09CE0E4
:1044B0000E94E52484E39CE00E94E52483E69CE0DE
:1044C0000E94E52481E99CE00E94E52485EC9CE0C3
:1044D0000E94E5248AEF9CE00E94E52489E29DE0A9
:1044E0000E94E52488E59DE00E94E52487E89DE0A0
:1044F0000E94E52483EB9DE00E94E52480EE9DE090
:104500000E94E5248DE09EE00E94E5248BE39EE07E
:104510000E94E5248CE79EE00E94E5248DEB9EE05E
:104520000E94E5248EEF9EE00E94E52482E695E05D
:104530000E94E5248FE39FE00E94E52482E695E057
:104540000E94E52483E79FE00E94E52488EA9FE03B
:104550000E94E5248DED9FE00E94E52482E190E138
:104560000E94E52487E490E10E94E5248EE790E133
:104570000E94E52485EB90E10E94E5248CEE90E119
:104580000E94E52482E695E00E94E5248CE39DE10B
:104590000E94E5240E9446070E94C40787EAE82E8D
:1045A0008DE1F82ECBEBDDE1870194EFC92EDD2400
:1045B000D3940E94BD0783E59DE10E94190884E61B
:1045C0009DE10E94190880E090E00E947B246091A8
:1045D000000170910101F801819191918F010E9478
:1045E000231684EF91E0F6013197F1F70197D9F79F
:1045F000C017D107F1F60E94B20700E513EC0E9444
:10460000BD0784E79DE10E9419088FEF9FEF0E948C
:104610007B246091000170910101888199810E9441
:104620002316C8010197F1F72297EC16FD0639F71A
:104630000E94B207CCE0D0E004EF11E00E94BD0779
:1046400084E89DE10E94190885E99DE10E9419080E
:1046500080E090E00E947B24609100017091010154
:1046600088ED93E00E94231688EE93E0F8013197DD
:10467000F1F70197D9F760910001709101018DE682
:1046800093E00E9423168FEF9FEF0E947B242197D7
:10469000A9F60E94B2070E944B07C0E5D0E008EBE4
:1046A00018E8BE010D2E000C880B990B0E942427E0
:1046B000AB01BC0180E00E94F823C8010197F1F72B
:1046C0002196CE3BD10569F762E370E080EA0E9453
:1046D0007F2321E042E36AE08EE00E94FB098091A3
:1046E000D81D9091D91D843C944031F41092D91D6D
:1046F0001092D81D0E942C190E947B1FF0CFEF92C0
:10470000FF921F93CF93DF931F92CDB7DEB7182F81
:104710007B017093511E6093501E80934F1E0E9428
:104720004607812F0E945F0780E00E945F0781E3B8
:104730000E945F070E944B07B70180E090E00E9453
:10474000222720E030E040E855E40E9431282FE1A4
:1047500035E84BE65FE30E9431289B01AC0160E243
:104760007CEB8EEB9BE40E94812620E030E040E869
:104770005FE30E940F260E94F32669830E9446078A
:10478000812F0E945F078EEF0E945F0789810E9440
:104790005F070E944B0787E893E10197F1F700C09C
:1047A00000000E944607812F0E945F0780E00E9460
:1047B0005F0781EA0E945F070E944B0787E893E149
:1047C0000197F1F700C000000E944607812F0E9468
:1047D0005F0781E00E945F0784E00E945F070E94FC
:1047E0004B070F90DF91CF911F91FF90EF900895AD
:1047F000CF92DF92EF92FF92CF93C82F6A017B0195
:1048000020E030E04AEF52E4C701B6010E942C28B4
:1048100018168CF020E030E04AEF52ECC701B601E8
:104820000E947C2687FF0DC0C12CD12C9AEFE92E67
:1048300092ECF92E06C0C12CD12C8AEFE82E82E42E
:10484000F82E25E535E545ED50E4C701B6010E9497
:10485000312820E030E84BEB54E40E9410260E94FF
:10486000F32680E090E00E9422276B017C0160919A
:10487000501E7091511E80E090E00E9422279B0103
:10488000AC0160E074E284E799E40E9481260E9412
:10489000F32680E090E00E9422279B01AC01C70133
:1048A000B6010E94812620E030E040E855E40E94F5
:1048B00031280E94F3267B010E94460780914F1EFB
:1048C0000E945F078C2F880F880F8A5F0E945F0706
:1048D00080E00E945F0780E00E945F078E2D0E94AB
:1048E0005F078F2D0E945F07CF91FF90EF90DF90C1
:1048F000CF900C944B07CF93DF93D82FC92F0E94F2
:10490000460780E40E945F078D2F0E945F078C2F6F
:104910000E945F07DF91CF910C944B07BC0180E0B0
:1049200090E00E94222729E23CE54FE65FEB0E94DF
:104930009E2822E538E646E256E40E94312820E02F
:1049400030E040E251E40E940F266093DA1D70933C
:10495000DB1D8093DC1D9093DD1D0895181624F453
:1049600092E09093100104C09EEF90931001819506
:1049700067BD1092DF1D1092DE1D90916E00926057
:1049800090936E00082E000C990B2091DE1D309143
:10499000DF1D82179307C9F780916E008D7F80938A
:1049A0006E00089528982998469847980895909100
:1049B000C00095FFFCCF8093C60008958091C00091
:1049C00087FFFCCF8091C60008950F931F93CF936C
:1049D0008C01C0E0F801EC0FF11D8081882321F0EB
:1049E0000E94D724CF5FF6CFCF911F910F910895EA
:1049F000CF93C82F64E60E94E625805D0E94D724ED
:104A00002AE08C2F622F0E94E625C92F0E94E625FE
:104A100080E3890F0E94D72480E38C0FCF910C9400
:104A2000D7240F931F93CF93DF938C0160E177E23C
:104A30000E94F22580E3860F0E94D724C80168EE09
:104A400073E00E94F225CB01CAE0D0E0BE010E94D3
:104A5000F225805D0E94D724C80164E670E00E94C0
:104A6000F225CB01BE010E94F225805D0E94D72471
:104A7000C801BE010E94F225182FCB01BE010E9481
:104A8000F225805D0E94D72480E3810FDF91CF91D2
:104A90001F910F910C94D7241F93CF93DF931F92F4
:104AA000CDB7DEB7898317E0898190E0012E02C07F
:104AB000959587950A94E2F780FF02C081E301C0D3
:104AC00080E30E94D724115078F70F90DF91CF91A7
:104AD0001F9108950F931F93CF93DF93D0E3C0E30B
:104AE00010E30E94DE24082F0E94D7240D3021F00D
:104AF0001C2FCD2FD02FF5CF1053D05384E6189F05
:104B0000D00D1124CC0FC0568C2F880F880F8C0F1E
:104B10008D0FDF91CF911F910F910895EF92FF922A
:104B20000F931F93CF93DF9300E3C0E3D0E310E331
:104B300080E3F82E0E94DE24E82E0E94D7248DE028
:104B4000E81631F0F12E1D2FDC2FC02F0E2DF2CFE5
:104B50002F2D30E02053310980E197E2289FA001FA
:104B6000299F500D389F500D1124212F30E02053E4
:104B7000310968EE73E0269FC001279F900D369F94
:104B8000900D1124840F951F2D2F30E020533109F3
:104B900064E6629FA001639F500D1124840F951F4E
:104BA0002C2F30E0205331096AE0629FA001639FFF
:104BB000500D1124840F951F800F911DC097DF9118
:104BC000CF911F910F91FF90EF900895991B79E07D
:104BD00004C0991F961708F0961B881F7A95C9F78D
:104BE00080950895AA1BBB1B51E107C0AA1FBB1FDC
:104BF000A617B70710F0A61BB70B881F991F5A9569
:104C0000A9F780959095BC01CD010895EE0FFF1F87
:104C10000024001C0BBE0790F691E02D099450581B
:104C2000BB27AA270E9427260C94DA270E94CC27AC
:104C300038F00E94D32720F039F49F3F19F426F46E
:104C40000C94C9270EF4E095E7FB0C949A27E92F02
:104C50000E94EB2758F3BA1762077307840795077A
:104C600020F079F4A6F50C9425280EF4E0950B2E8F
:104C7000BA2FA02D0B01B90190010C01CA01A001AE
:104C80001124FF27591B99F0593F50F4503E68F109
:104C90001A16F040A22F232F342F4427585FF3CF4A
:104CA000469537952795A795F0405395C9F77EF41B
:104CB0001F16BA0B620B730B840BBAF09150A1F064
:104CC000FF0FBB1F661F771F881FC2F70EC0BA0FEA
:104CD000621F731F841F48F4879577956795B79572
:104CE000F7959E3F08F0B0CF9395880F08F099276D
:104CF000EE0F9795879508950E94762708F481E036
:104D000008950E9495260C94DA270E94D32758F024
:104D10000E94CC2740F029F45F3F29F00C949A2799
:104D200051110C9426280C94C9270E94EB2768F394
:104D30009923B1F3552391F3951B550BBB27AA2754
:104D400062177307840738F09F5F5F4F220F331F8E
:104D5000441FAA1FA9F335D00E2E3AF0E0E832D056
:104D600091505040E695001CCAF72BD0FE2F29D059
:104D7000660F771F881FBB1F261737074807AB072B
:104D8000B0E809F0BB0B802DBF01FF2793585F4FA0
:104D90003AF09E3F510578F00C949A270C942628FF
:104DA0005F3FE4F3983ED4F3869577956795B79582
:104DB000F7959F5FC9F7880F911D9695879597F98D
:104DC0000895E1E0660F771F881FBB1F6217730706
:104DD0008407BA0720F0621B730B840BBA0BEE1F1B
:104DE00088F7E09508950E94F32788F09F5798F080
:104DF000B92F9927B751B0F0E1F0660F771F881FE0
:104E0000991F1AF0BA95C9F714C0B13091F00E94F9
:104E10002528B1E008950C942528672F782F88273E
:104E2000B85F39F0B93FCCF3869577956795B39520
:104E3000D9F73EF490958095709561957F4F8F4F8F
:104E40009F4F0895E89409C097FB3EF49095809594
:104E5000709561957F4F8F4F9F4F9923A9F0F92F40
:104E600096E9BB279395F695879577956795B795BE
:104E7000F111F8CFFAF4BB0F11F460FF1BC06F5FA4
:104E80007F4F8F4F9F4F16C0882311F096E911C0B6
:104E9000772321F09EE8872F762F05C0662371F0D7
:104EA00096E8862F70E060E02AF09A95660F771FEB
:104EB000881FDAF7880F9695879597F908950E94CD
:104EC0000D2890F09F3748F4911116F00C94262885
:104ED00060E070E080E89FEB089526F41B16611DEA
:104EE000711D811D0C94A0270C94BB27990F0008FD
:104EF000550FAA0BE0E8FEEF16161706E807F907AC
:104F0000C0F012161306E407F50798F0621B730B46
:104F1000840B950B39F40A2661F0232B242B252BC7
:104F200021F408950A2609F4A140A6958FEF811D6A
:104F3000811D089597F99F6780E870E060E008950B
:104F4000882371F4772321F09850872B762F07C0A0
:104F5000662311F499270DC09051862B70E060E014
:104F60002AF09A95660F771F881FDAF7880F9695B3
:104F7000879597F908959F3F31F0915020F48795D8
:104F800077956795B795880F911D9695879597F9B1
:104F900008959FEF80EC089500240A9416161706D2
:104FA00018060906089500240A941216130614061A
:104FB00005060895092E0394000C11F4882352F07D
:104FC000BB0F40F4BF2B11F460FF04C06F5F7F4F35
:104FD0008F4F9F4F089557FD9058440F551F59F01C
:104FE0005F3F71F04795880F97FB991F61F09F3FD6
:104FF00079F087950895121613061406551FF2CFFF
:105000004695F1DF08C0161617061806991FF1CF4E
:10501000869571056105089408950E94F327A0F014
:10502000BEE7B91788F4BB279F3860F41616B11D88
:10503000672F782F8827985FF7CF869577956795A4
:10504000B11D93959639C8F30895E894BB27662758
:105050007727CB0197F908950E94762708F48FEF00
:1050600008950E9444280C94DA270E94CC2738F037
:105070000E94D32720F0952311F00C949A270C94CA
:10508000C92711240C9426280E94EB2770F3959FC2
:10509000C1F3950F50E0551F629FF001729FBB272F
:1050A000F00DB11D639FAA27F00DB11DAA1F649FCB
:1050B0006627B00DA11D661F829F2227B00DA11D7E
:1050C000621F739FB00DA11D621F839FA00D611D04
:1050D000221F749F3327A00D611D231F849F600D25
:1050E000211D822F762F6A2F11249F5750409AF04E
:1050F000F1F088234AF0EE0FFF1FBB1F661F771FDA
:10510000881F91505040A9F79E3F510580F00C94A4
:105110009A270C9426285F3FE4F3983ED4F38695B3
:1051200077956795B795F795E7959F5FC1F7FE2B44
:10513000880F911D9695879597F90895FA01EE0FBE
:10514000FF1F309621053105A1F16115710561F44C
:105150008038BFE39B0749F168949038810561F07E
:105160008038BFEF9B0741F099234AF5FF3FE105E7
:105170003105210519F1E8940894E795D901AA238E
:1051800029F4AB2FBE2FF85FD0F310C0FF5F70F48F
:10519000A695E0F7F73950F019F0FF3A38F49F7709
:1051A0009F930DD00F9007FC9058089546F00C94F3
:1051B000C92760E070E080E89FE308954FE79F779C
:1051C0005F934F933F932F930E94BD292F913F915F
:1051D0004F915F910E9431280C941A290E94F32765
:1051E000E8F09E37E8F09639B8F49E3848F4672F17
:1051F000782F8827985FF9CF86957795679593954F
:105200009539D0F3B62FB1706B0F711D811D20F44D
:1052100087957795679593950C94A0270C94BB2759
:105220000C94262829F416F00C949A270C9425281F
:105230000C94C9270E94F327A8F39638A0F707F823
:105240000F92E8942BE33AEA48EB5FE70E94472885
:105250000F920F920F924DB75EB70F920E94052AE0
:10526000E4E3F1E00E944C294F915F91EF91FF91AF
:10527000E595EE1FFF1F49F0FE57E0684427EE0F4B
:10528000441FFA95E1F74195550B0E947F290F9035
:1052900007FE0C9473290895DF93CF931F930F9308
:1052A000FF92EF92DF927B018C01689406C0DA2EA8
:1052B000EF010E944428FE01E894A59125913591C3
:1052C00045915591A6F3EF010E942726FE01970113
:1052D000A801DA9469F7DF90EF90FF900F911F918A
:1052E000CF91DF9108959B01AC0160E070E080E810
:1052F0009FE30C9481260C949A270C94BB270E9460
:10530000F327D8F39923C9F3940F511DA3F39150B8
:10531000504094F059F0882332F0660F771F881FB1
:1053200091505040C1F79E3F51052CF7880F911DB9
:105330009695879597F908955F3FACF0983E9CF05D
:10534000BB27869577956795B79508F4B1609395D7
:10535000C1F7BB0F58F711F460FFE8CF6F5F7F4FC5
:105360008F4F9F4FE3CF0C94262816F00C94BB2749
:105370000C94C92768940C949A270E94F327A8F3E9
:105380009923C1F3AEF3DF93CF931F930F93FF9253
:10539000C92FDD2788232AF02197660F771F881FE2
:1053A000DAF720E030E040E85FEB9FE3883920F057
:1053B000803E38F021968F770E941026ECE5F1E0D0
:1053C00004C00E941026E9E8F1E00E944C298B01FC
:1053D000BE01EC01FB2E6F5771097595771F880B85
:1053E000990B0E94242728E132E741E35FE30E9402
:1053F0004428AF2D9801AE01FF900F911F91CF91DE
:10540000DF910E9427260C94DA27FA01DC01AA0F0B
:10541000BB1F9B01AC01BF5728F422273327442729
:10542000507820C0B75190F4AB2F002446953795A3
:105430002795011CA395D2F3002071F0220F331F92
:10544000441FB395DAF30ED00C940F26613071052A
:10545000A0E88A07B94630F49B01AC01662777279C
:1054600088279078309621F02083318342835383BC
:105470000895FC0188279927E89421912032E9F3C7
:10548000293010F02E30C8F32B3241F02D3239F490
:10549000689404C00E94762B820F911D21912053A5
:1054A0002A30C0F31EF4909581959F4F08952830BF
:1054B00008F027E03327DA01990F311D87FD91604D
:1054C00000966105710539F432602E5F3D9330E33B
:1054D0002A95E1F708959F3F30F080387105610506
:1054E00009F03C5F3C5F3D93913008F08068911D6E
:1054F000DF93CF931F930F93FF92EF92192F987F13
:105500009695E92F96959695E90FFF27E85EFD4F52
:1055100099273327EE24FF24A701E701059008947B
:10552000079428F4360FE71EF81E491F511D660F19
:10553000771F881F991F0694A1F70590079428F4F8
:10554000E70EF81E491F561FC11D770F881F991FB0
:10555000661F0694A1F70590079428F4F80E491FDA
:10556000561FC71FD11D880F991F661F771F0694EE
:10557000A1F70590079420F4490F561FC71FD81FA5
:10558000990F661F771F881F0694A9F784911095BD
:10559000177041F0D695C79557954795F794E794BE
:1055A0001A95C1F7EEEBF1E06894159015913591DD
:1055B0006591959105907FE27395E118F10A430B8F
:1055C000560BC90BD009C0F7E10CF11E431F561F43
:1055D000C91FD01D7EF4703311F48A95E6CFE8948C
:1055E000015030F0080F0AF40027021708F4202FAA
:1055F0002395022F7A3328F079E37D932A95E9F7F2
:1056000010C07D932A9589F60694979567953795EE
:1056100017951794E118F10A430B560BC90BD009E3
:1056200098F023957E9173957A3308F070E37C931C
:105630002013B8F77E9170617D9330F0839571E30C
:105640007D9370E32A95E1F71124EF90FF900F917D
:105650001F91CF91DF91992787FD90950895FC01C7
:105660000590615070400110D8F7809590958E0F8D
:105670009F1F0895FB01DC010D900020E9F71197B1
:1056800001900D920020E1F70895FB01DC018D915E
:10569000019080190110D9F3990B0895FB01DC01E9
:1056A00001900D920020E1F70895FC0161507040D7
:1056B00001900110D8F7809590958E0F9F1F089547
:1056C0004532510520F4423010F00C946B2BFB0155
:1056D0001082CB010895BB274A3031F4992322F47C
:1056E000BDE2909581959F4F0C947F2B7AE0979F18
:1056F000902D879F802D910D11240895BB27FB01CC
:105700005527AA27880F991FAA1FA41710F0A41BBA
:1057100083955051B9F7A05DAA3308F0A95DA19314
:10572000009779F7B111B1931192CB010C94612CD0
:105730000F931F93CF93DF93FB01238121FD03C0C0
:105740008FEF9FEF2CC022FF16C046815781248126
:1057500035814217530744F4A081B1819D012F5F29
:105760003F4F318320838C93268137812F5F3F4FBA
:105770003783268314C08B01EC01FB010084F18583
:10578000E02D0995892BE1F6D80116968D919C9113
:105790001797019617969C938E931697CE01DF91DB
:1057A000CF911F910F9108950F931F93CF93DF9384
:1057B000CDB7DEB72E970FB6F894DEBF0FBECDBFC4
:1057C0000D891E8986E08C831A8309838FEF9FE7FA
:1057D0009E838D83AE01475E5F4F6F89788DCE01CA
:1057E00001960E948601EF81F885E00FF11F10827B
:1057F0002E960FB6F894DEBF0FBECDBFDF91CF91CE
:105800001F910F910895FA01AA27283051F12031F4
:1058100081F1E8946F936E7F6E5F7F4F8F4F9F4F44
:10582000AF4FB1E03ED0B4E03CD0670F781F891F86
:105830009A1FA11D680F791F8A1F911DA11D6A0F54
:10584000711D811D911DA11D20D009F468943F9107
:105850002AE0269F11243019305D3193DEF6CF0106
:105860000895462F4770405D4193B3E00FD0C9F7CC
:10587000F6CF462F4F70405D4A3318F0495D31FD39
:105880004052419302D0A9F7EACFB4E0A69597958C
:10589000879577956795BA95C9F700976105710562
:1058A00008959B01AC010A2E0694579547953795AC
:1058B0002795BA95C9F7620F731F841F951FA01D06
:1058C0000895DC01FC01672F71917723E1F732978E
:1058D00004C07C916D9370836291AE17BF07C8F3CB
:0658E0000895F894FFCFCB
:1058E6000078191E0C050BE6071414141414961EE2
:1058F6000269737375696E67206164647265737398
:10590600202B20777269746520626974203E3E20E0
:105916006F6B212C2064657669636520616363651E
:10592600737369626C650D0A0072656769737465E5
:10593600722030783030206164647265737320732E
:10594600656E74203E3E206F6B210D0A0077726FE4
:105956007465203078303420746F207265676973FF
:1059660074657220307830300D0A0072656769738D
:1059760074657220307830312061646472657373A7
:105986002073656E74203E3E206F6B210D0A006900
:1059960020616D20686572650069737375696E674D
:1059A6002061646472657373202B207265616420C4
:1059B600626974203E3E206F6B212C2064657669F7
:1059C60063652061636365737369626C65202D2D61
:1059D6002D2D2D2D0D0A000D0A4C494441522D53F3
:1059E6005441545553203D200072656769737465B0
:1059F6007220307838462061646472657373207350
:105A0600656E74203E3E206F6B210D0A006973732C
:105A160075696E672061646472657373202B2072EA
:105A260065616420626974203E3E206F6B212C20E4
:105A36006465766963652061636365737369626C27
:105A460065202A2A2A2A2A0D0A0064697374616E5F
:105A56006365203D20002569002E350D0A002E3590
:105A660000202020202020002E300D0A002E30009D
:105A7600666F7277617264007269676874006C653C
:105A86006674006261636B77617264006272616B57
:105A96006500726F626F2D64726976653A20576889
:105AA60061743F202E2E2E000D0A6D6F76655F53B2
:105AB6006572766F5F42696469726563743A2069DC
:105AC6006E76616C696420617267756D656E74735C
:105AD60020C2AF5C28C2B05F6F292FC2AF000D0A8B
